:100000000C947A010C94C1010C94C1010C94C101AF
:100010000C94C1010C94C1010C94C1010C94C10158
:100020000C94C1010C94C1010C9403220C94D522B0
:100030000C94CA140C94C1010C94C1010C94C1011C
:100040000C94C1010C94C1010C94C1010C94C10128
:100050000C94C1010C9417150C94C1010C94C101AE
:100060000C94C1010C94C1010C94C1010C94C10108
:100070000C94C1010C94C1010C94C1010C94C101F8
:100080000C94C1010C94C1010C94C1010C94C101E8
:100090000C94C1010C94C1010C94C1010C94C101D8
:1000A0000C94C1010C94C1010C94C1013F0A3F0A98
:1000B000710A710ABE0ADC0AFD0BFD0BE70A7C0B14
:1000C0008D0B8D0BED0BFD0BFD0BF60B9D0C9D0CA5
:1000D000AF0CAF0CA60CAF0CAF0CAF0C9D0C9D0C75
:1000E000AB0CAF0CAF0CAB0C42236923612469232A
:1000F0006124B523D82361242F243E24AC0020039F
:1001000041004D00450052004900430041004E00AF
:1001100048004100500054004900430053000000D3
:10012000200341004D0045005200490043004100BA
:100130004E00480041005000540049004300530065
:1001400000000403090409029F00040100A0FA0949
:1001500004000001030101000921110100012240F6
:10016000000705810308000A0904010001030000DB
:100170000009211101000122BC00070582032000B3
:100180000A080B020201010000090402000001013B
:100190000000092401000109000103090403000211
:1001A00001030000072401000141000624020101AF
:1001B00000062402020200092403010301020100D7
:1001C000092403020401010100090504024000059D
:1001D000000005250101010905830240000500001A
:1001E000052501010312011001000000086F7201D2
:1001F0000001000102000105010902A101850209B7
:1002000001A10005091901290515002501950575AC
:10021000018102950175038101050109300931153C
:1002200081257F95027508810609381581257F95FE
:100230000175088106050C0A38021581257F950194
:1002400075088106C0C005010980A1018503190157
:100250002AB700150126B700950175108100C00569
:100260000C0901A101850419012AA002150126A08B
:1002700002950175108100C005010906A1018505DF
:10028000050719E029E71500250195087501810288
:100290000507190029EF1500250195F07501810268
:1002A0000508190129059505750191029501750348
:1002B0009101C005010906A101050719E029E7150B
:1002C00000250195087501810295017508810105D8
:1002D00007190029FF150026FF0095067508810003
:1002E0000508190129059505750191029501750308
:1002F0009101C00011241FBECFEFDAE0DEBFCDBFF9
:1003000004B603FE27C08091520390915303A0913D
:100310005403B09155038730904BA740B04BD1F4B4
:1003200010925203109253031092540310925503EB
:1003300014BE84B7877F84BF0FB6F894A8958091C8
:100340006000886180936000109260000FBEE0E062
:10035000F8E3099511E0A0E0B1E0EEE0FAE402C0B4
:1003600005900D92A23AB107D9F723E0A2EAB1E0D5
:1003700001C01D92A235B207E1F70E94F21E0C9453
:1003800005250C940000662311F089EA01C08AEA71
:100390000C94E80981E0089581E008950C94CC0163
:1003A00008950C94D0011F93CF93DF9300D000D019
:1003B0001F92CDB7DEB749835A836B833091B40166
:1003C00089819A81311114C0662359F0222349F0A2
:1003D0000E94D011182F682F89819A810E947F1165
:1003E00003C00E94A711182F69817A81812F04C050
:1003F0000E94D01169817A810F900F900F900F9019
:100400000F90DF91CF911F910C948502FC01262F54
:10041000408151816281738184810C94D301CF9397
:10042000DF93EC0160E00E940602BE01DF91CF91F4
:100430000C94D1010E940213811102C00E94B313D7
:100440000C949C040C94980408950E948B0C0E94B8
:1004500024022FEF84E39CE0215080409040E1F79C
:1004600000C000000C943D150F931F93CF93DF93B2
:10047000EC0161E00E9406028C01BE010E94CE01E7
:10048000882349F1BE01C8010E94F405882319F1AF
:10049000BE01C8010E9446068823E9F0BE01C801DA
:1004A0000E9471078823B9F08A81882369F00115B9
:1004B0008CE5180731F00F3D1C4531F40E94B31351
:1004C0000AC00E94250207C0CE01DF91CF911F9183
:1004D0000F910C94CA0180E0DF91CF911F910F9191
:1004E000089508950C94710281E008950C947402AB
:1004F000CF93C82F0E9472028C2F0E947602CF9158
:10050000089580E090E008950895972F70E0690FB6
:10051000711DFB01E80FF11DEE0FFF1FE450FF4FAF
:10052000859194910895880F991FFC01E250FF4F27
:10053000859194910895CF93DF930E9485020E9444
:10054000B303EC018115904508F041C0C11580E46A
:10055000D80708F0D1C0C83ED10510F5C03ED1057E
:1005600008F0FDC0C83AD10578F4C53AD10508F0C5
:10057000A2C0C130D10509F4F2C008F4EEC0C43005
:10058000D10508F0ECC0E9C0CF3BD10508F49BC011
:10059000C03CD10508F4E1C0CE01805C91099EC049
:1005A000C11590E2D90758F4C11521E0D20708F02F
:1005B000D6C0C03FD10508F4D0C0D065D0C0C115A9
:1005C00080E3D80708F08EC0CE019F7087C0C115A8
:1005D00095E5D90708F043C0C11524E5D20708F016
:1005E000A2C0C11582E5D80708F5C11591E5D90764
:1005F00008F085C0CE0174E0969587957A95E1F76D
:1006000083709C2F937021E030E002C0220F331FD3
:100610009A95E2F73C68382BCF70C695C69580E274
:10062000C89FE0011124C22BD32B99C09E012370D7
:1006300033278C2F86958695C115D34508F064C065
:10064000C1E0D0E002C0CC0FDD1F2A95E2F720E226
:10065000829FC0011124C82BD92BDC6880C0C11532
:1006600029E5D207A0F4C11588E5D80708F060C0D5
:10067000C11596E5D90708F070C08C2F0E94470479
:100680008F71C82FD0E0DC2FCC27D06268C0C11595
:100690002AE5D20708F451C0CE0190568115904248
:1006A00008F05BC08D2F8F710E944704DD27D06258
:1006B0008F71D82B54C0C55AD0E0C15BDE4FC881C2
:1006C000D0E0D0644CC0C85AD0E0CC0FDD1FCF5D65
:1006D000DE4F0990D881C02DD46441C00E9493029E
:1006E000EC013DC0CE019927D3FF03C0EC01D86CCB
:1006F00036C0EC01D06C33C0DF70D06A30C0DC2F64
:10070000CC27C16FD06A2BC0C1E0D0E002C0CC0FB3
:10071000DD1F2A95E2F720E2829FC0011124C82B39
:10072000D92BDA681CC0DC2FCC27C46FD06A17C065
:10073000DC2FCC27C06FD06A12C08C2F8F700E9424
:10074000470494E0D695C7959A95E1F7CF70D0E02D
:10075000DC2FCC27D069C82B02C0C0E0D0E0CE018E
:10076000DF91CF9108958238910569F1B0F481331A
:10077000910509F46DC048F48932910509F463C00C
:100780008A32910509F469C008958533910509F409
:1007900055C089339105B9F00895833E910569F1FB
:1007A00038F4803E9105B1F0823E910509F108953B
:1007B000863E9105A9F1873E9105B9F1843E9105E8
:1007C00009F064C023C02091560220FD4FC021FDD6
:1007D0004DC008958091560280FD44C0809157021B
:1007E00080FF44C08091560284FD42C083EE4DC01C
:1007F0008091560282FF38C0F5CF8091560282FD6B
:1008000033C08091570280FD31C0ECCF80915702F8
:1008100081FF32C08091560284FD2AC087EE35C028
:100820008091560283FF26C0F5CF8091560283FD4A
:1008300021C08091570281FD1FC0ECCF80915602EC
:1008400085FD1CC01DC08091560285FD19C016C0D3
:100850008091560286FD16C017C08091560286FD13
:1008600013C010C089E311C082EE0FC080EE0DC02E
:1008700080E00BC086EE09C084EE07C089E205C0A7
:1008800085E303C08AE201C081E390E0089590917E
:10089000560292FF0DC0282F2871283019F4877F47
:1008A000846006C0282F2471243011F48B7F886067
:1008B00093FF0DC0282F2871283119F4877E846199
:1008C00006C0282F2471243111F48B7E8861209179
:1008D000570220FF0DC0382F3871383019F4877F48
:1008E000816006C0382F3171313011F48E7F8860FD
:1008F00021FF0DC0282F2871283119F4877E8161CE
:1009000006C0282F2171213111F48E7E886194FD5B
:10091000877E0895E82FF0E0EF5AFD4F808108951B
:10092000089580EA8A95F1F7089508950C94950446
:100930000C9496040C9495040C949A04F894E82F63
:10094000E295EF70F0E031A1282F2F7081E090E068
:1009500001C0880F2A95EAF7982F9095932391A3C9
:1009600092A1892B82A37894089581E90E949E0424
:1009700082E90E949E04109250021092510281E07E
:100980000E94F0040C941A02CF93DF93F894519ACA
:10099000599878940E94910489B182FB882780F944
:1009A000C82F80E0D82F81E0C827C17081E90E945C
:1009B0009E0480915002C81721F0C0935002C1E0FC
:1009C00001C0C0E02C2F41E061E572E080E592E0DB
:1009D0000E94F1040E9422028C2FDF91CF91089592
:1009E0000895FF920F931F93CF93DF938C01F62E00
:1009F000D72FC42F222349F081E08093A4010E94C5
:100A0000FC149093A3018093A2018091A4018823F8
:100A1000C1F08091A2019091A3010E940815069750
:100A200080F0EF2DFD2FD8014C2F50E0CD01801B21
:100A3000910B841795071CF48D918193F7CF109239
:100A4000A401DF91CF911F910F91FF90089588E548
:100A500092E00C949D1B2098289A2198299A83B1A2
:100A60008170199902C090E001C092E0892B8093B7
:100A7000A7010895E091A701EE0FEE0FE093A70103
:100A800043B1842F817090E043B141FB222720F9CC
:100A900030E041FF02C022E030E0822B932B8E2B0E
:100AA0008093A7018F70E82FF0E0EE5AFE4F9081FF
:100AB0008091A601890F8093A60182304CF080912D
:100AC000A5018F5F8093A50160E080E00E94C301D3
:100AD0008091A6018F3F4CF48091A50181508093B5
:100AE000A50161E080E00E94C3018091A601082E6B
:100AF000000C990B62E070E00E94A9248093A6018B
:100B000008950F931F93CF93DF93C42FD22FFC012F
:100B100082818823C9F04093AA010E94FC1490931B
:100B2000A9018093A80180E28C0F883008F057C09B
:100B3000C77081E001C0880FCA95EAF7DF91CF91B5
:100B40001F910F910C94FB098091AA01481330C0AA
:100B50008091A8019091A9010E940815883C9105F7
:100B600038F510E21D0FCD17B9F080E28C0F8830F8
:100B700040F4C77081E001C0880FCA95EAF70E946F
:100B8000020A183028F581E09D2F977001C0880F68
:100B90009A95EAF70E94FB09802F0E94E809183015
:100BA000F0F4D77081E001C0880FDA95EAF70AC047
:100BB00080E28C0F883098F4C77081E001C0880F04
:100BC000CA95EAF7DF91CF911F910F910C94020A19
:100BD000802FDF91CF911F910F910C94E809DF9145
:100BE000CF911F910F9108950F939C01CB01243F4A
:100BF0004CE5340731F188F4293DFCE53F07D9F095
:100C00002A3D4CE5340779F1283D3C45A9F506E23B
:100C100021EE41EE68ED7CE52BC0263FFCE53F0769
:100C2000E1F0A8F0273F3C4539F507E225EE46EE16
:100C300067EF7CE51DC007E225EE45EE69ED7CE53A
:100C400017C006E221EE40EE64EF7CE511C007E23A
:100C500025EE44EE65EF7CE50BC006E221EE42EEA8
:100C600066EF7CE505C008E221E045EE6AED7CE533
:100C70000E94810580E008C0FC018281882319F070
:100C80001092AA0101C081E00F910895CF93DF93E4
:100C9000EC01FB018281882309F41FC1C230FCE50D
:100CA000DF0708F41BC1C6319CE5D90738F09E0167
:100CB0002B5F3C452930310508F010C10E941F13FD
:100CC0009093570280935602C031ECE5DE0709F499
:100CD000C3C008F041C0C8308CE5D80709F49AC0F9
:100CE000F0F4C430ECE5DE0709F487C068F4C230E4
:100CF0008CE5D80709F477C0C330DC4509F0E3C0C0
:100D000080915602826076C0C630ECE5DE0709F4B9
:100D10006EC008F07BC08091560288606BC0CC30FA
:100D20008CE5D80709F485C068F4CA30ECE5DE0725
:100D300009F474C008F079C00E948B0C80915602AF
:100D4000806858C0CE308CE5D80709F476C008F02A
:100D50007FC0809156028BC0CC3FECE5DE0709F4E2
:100D60004FC018F5C3318CE5D80709F47DC078F47D
:100D7000C131ECE5DE0709F473C0C231DC4509F08E
:100D8000A2C00E948B0C809156028F7733C0C53170
:100D90008CE5D80709F472C008F486C0CB3FDC4567
:100DA00009F091C0809157023EC0C115FDE5DF07F3
:100DB00009F45FC058F4CE3F9CE5D90709F444C05C
:100DC00008F43FC08091570282602DC0C230FDE51B
:100DD000DF0709F475C008F45DC0C330DD4509F0D4
:100DE00072C080E06EC080915602816003C0809125
:100DF000560280618093560266C08091560211C0EF
:100E0000809157028260809357025DC080915602A4
:100E10008062F0CF809156028064ECCF80915602C0
:100E200088608460E7CF8160EECF809156028E7F2C
:100E3000E1CF809156028D7FDDCF80915602877F72
:100E4000D9CF8091570218C0809157028D7FDBCF98
:100E5000809156028F7ECECF809156028F7DCACF71
:100E6000809156028F7BC6CF80915602877F8B7F01
:100E7000C1CF809157028D7F8E7FC5CF8091560262
:100E800082FB222720F991E0922790FB82F990FBC8
:100E900083F9B0CF80915702982F909591708E7FF3
:100EA000892B90FB81F9AFCF0E948B0C8091560269
:100EB00087FB222720F991E0922790FB87F99ACFB0
:100EC00081E00E94B51380915602909157020E94D2
:100ED00030130E948B0C80E001C081E0DF91CF9144
:100EE0000895CF93DF9386319C4541F5EB010E9435
:100EF0005112982F8A81209100013091010188239D
:100F000079F09A7A81E009F480E08093AB01911145
:100F100002C069E201C065E3C9010E9450140AC021
:100F20008091AB01811102C069E201C065E3C90192
:100F30000E945B140E949F1280E001C081E0DF915B
:100F4000CF9108959093B1018093B0010895E091FD
:100F5000B001F091B101309721F00190F081E02DC6
:100F6000099480E00895E091B001F091B1013097CB
:100F700099F020912001222359F02091560227FF59
:100F800007C0DC012C9111962C93119725E02C932E
:100F90000280F381E02D09940895E091B001F09171
:100FA000B101309739F022E0DC012C930480F58107
:100FB000E02D099408952091AE013091AF012817DA
:100FC000390771F09093AF018093AE01E091B001C9
:100FD000F091B101309721F00680F781E02D09945E
:100FE00008952091AC013091AD012817390771F0B7
:100FF0009093AD018093AC01E091B001F091B1010B
:10100000309721F00084F185E02D0994089585B78B
:10101000806885BF85B7806885BF089581E00895A1
:101020000C940E0808950C9412080C9412080C9459
:1010300015080C9412080C9419080C9412080E94BC
:1010400007080E941D080C941B080E94F3140E94BC
:10105000B5040E9485150E942B050C9417080F9368
:101060001F93CF93DF93CDB7DEB72A970FB6F894CF
:10107000DEBF0FBECDBF0E9413080E9412080E945F
:10108000C4040E941008882331F180E00E948A0481
:10109000182F0091B3010827F1F080911F0281FD04
:1010A0000E94900400FF17C01E821F8211701887D3
:1010B0000E94FC148160782F9A8789874E815F8116
:1010C00068858A850E94A2089091B30181E08927F2
:1010D0008093B30110C08FEF89838A831B820E94A3
:1010E000FC148160782F9D838C8349815A816B81A8
:1010F0008D810E94A2080E943A050E9456180E9403
:1011000027050E94A7079091B201891781F00E94DC
:10111000A7078093B2012A960FB6F894DEBF0FBEE0
:10112000CDBFDF91CF911F910F910C9478022A9639
:101130000FB6F894DEBF0FBECDBFDF91CF911F91E8
:101140000F910895CF93DF93CDB7DEB72B970FB6EE
:10115000F894DEBF0FBECDBF4F83588769877A876B
:101160008B87DE01119686E0FD0111928A95E9F7E1
:1011700085E0FE01379601900D928A95E1F749814D
:101180005A816B817C818D819E810E94440F2B96B8
:101190000FB6F894DEBF0FBECDBFDF91CF9108959B
:1011A000FC01808191810E9412120895CF938823BF
:1011B00009F4A4C0C82F8238C1F40E94A70781FD9A
:1011C0009DC069E380910001909101010E9450143B
:1011D0000E949F122FEF81EE94E0215080409040BA
:1011E000E1F700C0000069E319C0833801F50E94EF
:1011F000A70780FD83C063E5809100019091010104
:101200000E9450140E949F122FEF81EE94E0215013
:1012100080409040E1F700C0000063E5809100014C
:10122000909101010E945B14CF910C949F1284381D
:10123000C1F40E94A70782FD61C067E480910001AC
:10124000909101010E9450140E949F122FEF81EE95
:1012500094E0215080409040E1F700C0000067E436
:10126000DDCF8CEF8C0F813AD0F46C2F8091000190
:10127000909101010E94D013882349F06C2F809136
:101280000001909101010E945B140E949F126C2F3B
:1012900080910001909101010E945014C5CF80E21D
:1012A0008C0F883048F4C77081E001C0880FCA9560
:1012B000EAF70E945412B8CFEBE5EC0FE33040F4AC
:1012C000F0E0E057FE4F808190E0CF910C94DB0777
:1012D000E8E5EC0FE73150F4F0E0EE0FFF1FEE59B8
:1012E000FE4F80819181CF910C94F107C03F30F087
:1012F0008C2F0E944B17CF910C943818CF910895E2
:10130000882309F464C0823879F40E94A70781FF1A
:101310005EC069E380910001909101010E94501428
:101320000E949F1269E310C08338B1F40E94A7079E
:1013300080FF4DC063E580910001909101010E9402
:1013400050140E949F1263E5809100019091010169
:101350000E945B140C949F12843879F40E94A707B2
:1013600082FF35C067E480910001909101010E94E5
:1013700050140E949F1267E4E7CF9CEF980F913AB8
:1013800010F4682FE1CF90E2980F983050F48770F6
:1013900091E001C0990F8A95EAF7892F0E945A12AD
:1013A000D9CF9BE5980F933020F480E090E00C9427
:1013B000DB0798E5980F973120F480E090E00C94DB
:1013C000F107803F20F00E94B3170C94381808955D
:1013D000CF93C82F0E94D608C93349F42FEF87EE68
:1013E00093E0215080409040E1F700C000008C2F36
:1013F000CF910C948009882321F00E9454120C9400
:101400009F120895882321F00E945A120C949F1273
:101410000895CF92DF92EF92FF920F931F93CF9395
:10142000DF937C01062FC72FFC01158112951F70D9
:10143000D281D1110E9471120E944A12882399F020
:10144000DD2389F08C2F807F803421F080E2800FB3
:10145000883048F082E00E94E9120E944A1291E02E
:10146000D82ED92601C0D12CCC2EC2948FE0C82210
:101470008C2D90E0FC01EA5AFF4F0C94BD248C2F78
:10148000807FCF70882311F0C295C07FDD2399F053
:10149000CC2309F48DC180E2800F883010F0011157
:1014A00004C08C2F0E94541203C08C2F0E9464121F
:1014B0000E949F127DC1802F0E948009CC2309F4D5
:1014C0009CC180E2800F883010F0011104C08C2F85
:1014D0000E945A1203C08C2F0E946A120E949F120F
:1014E0008CC18C2F807FCF70803211F0C295C07F6D
:1014F000002319F00130C9F022C0DD2371F011235F
:1015000041F0113031F40E9484128C2B0E948C1215
:1015100074C10E9484128C2B1DC0112319F011304C
:1015200009F46BC10E94951225C0DD2321F016300D
:1015300008F063C10EC0153008F05FC11BC0DD2389
:1015400061F0112331F0F701858180FF31C18F7087
:1015500085838C2F0E94FB0950C1112359F0093358
:1015600009F037C1FFEF27EE83E0F15020408040C3
:10157000E1F72DC18C2F0E94020A3FC18C2F869566
:101580008695837019F0813061F037C1DD2321F039
:10159000802F9C2F937002C080E090E00E94DB07B8
:1015A00034C1DD2321F0802F9C2F937002C080E096
:1015B00090E00E94F10729C1802FDD2319F00E94DD
:1015C0004B1702C00E94B3170E9438181EC18C2FFF
:1015D000837009F045C0D11114C1402F4295469542
:1015E0004770440F440F602F6F70862F90E0A0E08B
:1015F000B0E0042E04C0880F991FAA1FBB1F0A94D5
:10160000D2F704FF10C00FE010E020E030E004C08B
:10161000000F111F221F331F4A95D2F70095109516
:101620002095309503C000E010E09801C695C6955E
:10163000C370BC01CD01602B712B822B932BC23068
:1016400049F058F4C13019F00E949510DAC00E9498
:101650008310D7C00E94A710D4C00E948110D1C0AF
:10166000DD2319F08C2F817001C08695882309F441
:10167000C8C0402F429546954770440F440F602FD5
:101680006F70862F90E0A0E0B0E0042E04C0880FB9
:10169000991FAA1FBB1F0A94D2F704FF10C00FE0C6
:1016A00010E020E030E004C0000F111F221F331FA4
:1016B0004A95D2F7009510952095309503C000E02B
:1016C00010E09801C695C695C370BC01CD01602B92
:1016D000712B822B932BC23049F058F4C13019F092
:1016E0000E945A118EC00E9448118BC00E946C113A
:1016F00088C00E94BB1085C0CF70DD2339F08C2FCD
:101700000E94E110802F0E94FB097BC0802F0E9465
:10171000020A8C2F0E94021174C0023F01F128F4CA
:10172000003F41F0013FA1F03FC0033FF9F0043F0B
:1017300039F13AC0DD2341F0153008F05EC08C2F3E
:101740008F710E94271159C0163008F056C0F7CF8C
:10175000DD2339F08C2F8F710E94E1104EC0DD2304
:10176000C9F38C2F8F710E94021147C0DD2329F02D
:101770008C2F8F710E94CC1040C00E94C7103DC0BA
:10178000DD2349F0CF718C2F0E94E11063E08C2F94
:101790000E94D41232C081E00E94E912123068F136
:1017A00082E00E94E91229C0DD2331F0112391F279
:1017B000802F0E94D60821C0112399F2093349F4E1
:1017C0009FEFE7EEF3E09150E040F040E1F700C01A
:1017D0000000802F0E94800910C04C2F4F70602F96
:1017E000C7010E9481020E94F20F0FC04C2F4F7060
:1017F000602FC7010E94840208C088EF8C0D8430DE
:1018000020F40E94A7070E947802DD20C9F00E9400
:10181000461280FD15C0F70112820E9440120E94FC
:10182000E110C7010E94410C0E944012DF91CF914C
:101830001F910F91FF90EF90DF90CF900C940211C9
:10184000DF91CF911F910F91FF90EF90DF90CF909C
:1018500008950F931F93CF93DF93EC0168817981F3
:101860008A810E941D128C010E947E110E946F10BD
:10187000B801CE010E94090ADF91CF911F910F910B
:101880000895CF93DF93EC01988189812B813C816E
:10189000232B31F08F3F31F481E09F3F19F403C0D7
:1018A00081E001C080E080FD19C0CE010E943402B9
:1018B00081110CC00E944A12882381F08A818823FA
:1018C00069F082E0DF91CF910C94E912CE010E9481
:1018D000290CCE01DF91CF910C940F02DF91CF91B3
:1018E00008950E9471120E9481120E949F120E940C
:1018F00069190E94381880E090E00E94DB0780E0C0
:1019000090E00C94F10780910001909101010E94F8
:1019100066140C94710C0E9461120C94830CE92FD4
:10192000E295EF704E2F50E0FA013297EE30F1055C
:10193000B0F4EA59FF4F0C94BD24803F91F018F4A5
:10194000883E68F40EC0843F51F40BC0883E48F0D6
:10195000813F29F406C093FB882780F9089580E031
:10196000089581E008950E9412120E948F0C08953C
:10197000CF93DF9300D000D01F92CDB7DEB70F908A
:101980000F900F900F900F90DF91CF910895CF930C
:10199000DF9300D000D000D0CDB7DEB726960FB6CB
:1019A000F894DEBF0FBECDBFDF91CF9108951F9396
:1019B000CF93DF93C091B50116E08091B601C817AF
:1019C00099F0D0E01C9FF0011D9FF00D1124E95407
:1019D000FE4F4081518162817381848195810E9493
:1019E000C70C2196C770E9CFDF91CF911F91089561
:1019F0004091E7015091E8016091E9017091EA019D
:101A00008091EB019091EC010C94C70C0F931F9304
:101A1000CF93DF938091EC0182958F7009F05DC0C8
:101A20008091E901882309F458C08091B501109193
:101A3000B6016091E7017091E801C091EA01D0918F
:101A4000EB0191E06F3F09F090E0292F06E081174C
:101A500009F443C0209721F07F3F21F030E003C01C
:101A600031E001C0322F90E030FD34C0089FF0011A
:101A7000099FF00D1124DF01A954BE4F11963C912E
:101A80001197371327C03C91361324C012963C910E
:101A9000129731111FC013964D915C9114974C1BF6
:101AA0005D0B483C5105B0F48091EC018F70806172
:101AB0008093EC01E454FE4F80818F7080618083BD
:101AC00087EE91E00E94410CDF91CF911F910F9121
:101AD0000C94D70C01968770BACFDF91CF911F91EC
:101AE0000F9108959F92AF92BF92CF92DF92EF92A3
:101AF000FF920F931F93CF93DF93CDB7DEB761971C
:101B00000FB6F894DEBF0FBECDBF8C0185E0F801A3
:101B1000DE011D9601900D928A95E1F7F801408152
:101B20005181E2809091E7016091E8012091EA0102
:101B30003091EB012115310531F06F3F31F481E037
:101B40009F3F19F403C081E001C080E0F82FF170DD
:101B50009F2E80FD46C1F801A380B48087EEC82E79
:101B600081E0D82EF090E901F501E21BF30BFF2094
:101B700009F4DFC08091EC01E83CF10508F09BC05E
:101B8000282F207F09F052C0561313C0491311C0EB
:101B9000FE2CE1100EC08F7080618093EC010E94DA
:101BA000F80CC6010E94410C8091EC01F80185837C
:101BB00058C1AB2831F05F3F31F481E04F3F19F459
:101BC00003C081E001C080E080FD03C081E08E257C
:101BD00002C080E090E0F82FF170FF2E80FF1CC063
:101BE0008091B5012091B60136E0821709F417C142
:101BF00090E0389FF001399FF00D1124E954FE4F19
:101C00006181561306C06081461303C06281E612EB
:101C100003C001968770E9CFFE2CEE2009F421C1A4
:101C20008091EC0181608093EC015AC0561306C08C
:101C3000491304C0E11002C0F8019FC04D875E87C0
:101C40008D859E850E94B30C882379F1EE2069F181
:101C50002091EC01822F82958F7090E0029774F0B2
:101C60008091E7019091E80198878F831986BB8660
:101C7000AA862C87CE0107960E94410C86E0F801C7
:101C8000A7EEB1E001900D928A95E1F70E94060D52
:101C90000E94F80C0DC0561729F14D875E878D857F
:101CA0009E850E94B30C81112CC0C8010E94410C7A
:101CB000FF24F394D6C0282F207F69F77A2DB98AA4
:101CC000A88A6E2D89890E94B80C87EE91E00E9447
:101CD000410C86E0F60111928A95E9F70E94F80C12
:101CE000F12CBFC04913D9CFE110D7CFF8018583BC
:101CF000C8010E94410C86E0F60111928A95E9F72D
:101D0000B0C0EE2091F22091EC01822F82958F706D
:101D100090E002970CF4B2CF8091E7019091E80136
:101D20009A8389831B82BD82AC822E83CE01019669
:101D3000A3CFE83CF10508F047C0FE2CEE2009F4E3
:101D4000B4CF561330C049132EC02091EC0120FDB2
:101D500021C0822F82958F70482F50E04115510588
:101D6000C9F0F80125834F30510541F08F5F982F5E
:101D70009295907F822F8F70892B8583C8010E9456
:101D8000410C86E0F801A7EEB1E001900D928A9532
:101D9000E1F742C086E0F801A7EEB1E001900D92B4
:101DA0008A95E1F75EC04D875E878D859E850E948E
:101DB000B30C811163CF8091EC0181608093EC01C1
:101DC000C8010E94410C4DC07A2DB98AA88A6E2D97
:101DD00089890E94B80C86E0F60111928A95E9F78C
:101DE0001BC0EE2009F461CF4D875E878D859E85EF
:101DF0000E94B30CF82E882309F457CF86E0F8012F
:101E0000A7EEB1E001900D928A95E1F787EE91E09F
:101E10000E94D0080E94060D0E94F80C22C04D8737
:101E20005E878D859E850E941212292F22952F7024
:101E3000223028F49F7039F0811105C00BC0243086
:101E400028F49F7049F4805E883020F0C8010E9419
:101E5000410C9F2CF92C05C0F8019581907F99F7D2
:101E6000F9CF8F2D61960FB6F894DEBF0FBECDBFB0
:101E7000DF91CF911F910F91FF90EF90DF90CF9066
:101E8000BF90AF909F9008951F93CF93DF93CDB7EE
:101E9000DEB72C970FB6F894DEBF0FBECDBF4F83D1
:101EA000588769877A878B879C87CE0107960E941F
:101EB000720D8823D1F09F8188852A853B85232B4D
:101EC00031F08F3F31F481E09F3F19F403C081E08E
:101ED00001C080E080FD47C04F81588569857A85C3
:101EE0008B859C850E94C70C3EC086E0FE0137961C
:101EF000DE01119601900D928A95E1F7FF81E88548
:101F00006A857B856115710531F0EF3F31F481E021
:101F1000FF3F19F403C081E001C080E080FD23C0D1
:101F20002091B60130E0C901019687709927409150
:101F3000B50150E084179507F1F1F983EA837D83B9
:101F40006C8396E0929FD001939FB00D1124A95409
:101F5000BE4FFE01319601900D929A95E1F7809364
:101F6000B6010E94D70C16E08091B5019091B601A0
:101F7000891771F1189FC001112489549E4F0E9446
:101F8000720D882329F1E091B5011E9FF001112403
:101F9000E954FE4F40815181628173818481958132
:101FA0000E94C70C8091B50190E001968770992737
:101FB0008093B501D9CF0E948B0C1092B60110927C
:101FC000B501E7EEF1E086E0DF011D928A95E9F7C1
:101FD0002C960FB6F894DEBF0FBECDBFDF91CF9128
:101FE0001F910895EF92FF920F931F93CF93DF936A
:101FF0008C01892B09F46CC0F12CEE24E394E801E8
:102000002196F8018491843740F4843008F051C05F
:10201000813081F0823019F15BC0853709F444C00A
:10202000A8F19CE7980F903708F052C08F770E9474
:10203000800941C00E5F1F4FFE01849190E2980F0E
:10204000983050F48770FE2D01C0FF0F8A95EAF793
:102050008F2F0E94741214C00E94D6082DC00E5FEC
:102060001F4FFE01849190E2980F983060F48770C2
:10207000FE2D01C0FF0F8A95EAF78F2F0E947A127A
:102080000E949F1219C00E94800916C00E5F1F4F48
:10209000FE01C491CC2381F08FE99FE00197F1F715
:1020A00000C00000C150F6CF0E5F1F4FFE01F4903C
:1020B00003C00E94D6088E018F2D882309F49FCF7C
:1020C000EFE9FFE03197F1F700C000008150F5CF54
:1020D000DF91CF911F910F91FF90EF900895089598
:1020E00008950C9470100C9471100E9473106093FA
:1020F000F6017093F7018093F8019093F9010C9425
:10210000710C0C9475100F931F930091F6011091B0
:10211000F7012091F8013091F901602B712B822B8E
:10212000932B1F910F910C9475100F931F93009197
:10213000F6011091F7012091F8013091F901602327
:102140007123822393231F910F910C9475100F9389
:102150001F930091F6011091F7012091F801309141
:10216000F90160277127822793271F910F910C9403
:1021700075100C9470100E94B9106093F201709366
:10218000F3018093F4019093F5010C94710C60E0DD
:1021900070E0CB010C94BB100F931F9341E050E013
:1021A00060E070E08A019B0104C0000F111F221F34
:1021B000331F8A95D2F7C901B8011F910F910C9472
:1021C000BB100F931F9341E050E060E070E004C04B
:1021D000440F551F661F771F8A95D2F78091F20131
:1021E0009091F301A091F401B091F5018A019B0156
:1021F000082B192B2A2B3B2BC901B8011F910F91DA
:102200000C94BB100F931F9341E050E060E070E02E
:1022100004C0440F551F661F771F8A95D2F740955B
:102220005095609570958091F2019091F301A09185
:10223000F401B091F5018A019B01082319232A2397
:102240003B23C901B8011F910F910C94BB100F9350
:102250001F9341E050E060E070E004C0440F551F60
:10226000661F771F8A95D2F78091F2019091F30152
:10227000A091F401B091F5018A019B01082719276B
:102280002A273B27C901B8011F910F910C94BB105D
:102290000F931F930091F2011091F3012091F4012B
:1022A0003091F501602B712B822B932B1F910F9195
:1022B0000C94BB100F931F930091F2011091F30146
:1022C0002091F4013091F50160237123822393233F
:1022D0001F910F910C94BB100F931F930091F2016B
:1022E0001091F3012091F4013091F50160277127DD
:1022F000822793271F910F910C94BB100895890F8B
:10230000E82FE695E695E695877051E001C0550FF8
:102310008A95EAF785E0E89FF0011124E351FE4F2A
:1023200020E030E070E04081CB01022E02C09695A3
:1023300087950A94E2F78170819584278523842705
:1023400081932F5F3F4F2530310569F70895890F3D
:10235000682F669566956695982F977085E0689FBB
:10236000B001112440E050E080E0FB01E40FF51FD4
:10237000E351FE4F208130E0092E02C036952795AB
:102380000A94E2F721703327042E01C0220F0A9429
:10239000EAF7822B4F5F5F4F4530510531F70895C3
:1023A000BF92CF92DF92EF92FF920F931F93CF9342
:1023B000DF938C01C090F201D090F301E090F40122
:1023C000F090F5018091F6019091F701A091F8014C
:1023D000B091F901C82AD92AEA2AFB2ACFE1D0E034
:1023E000D701C6010C2E04C0B695A7959795879581
:1023F0000A94D2F780FD04C0219790F7B12C07C052
:10240000BC2EB8018C2F0E949B020197A9F38B2D43
:10241000DF91CF911F910F91FF90EF90DF90CF90C0
:10242000BF900895CF93DF93EC010E94D011BE01BD
:102430000E949B02DF91CF9108951F93CF93DF936A
:10244000EB019091B401992321F0CB010E9412126B
:1024500013C0882349F0CB010E94D011182F682F98
:10246000CE010E947F1104C0CB010E94A711182F3A
:10247000BE01812F0E949B02DF91CF911F91089591
:102480008091FA0185958595859508958091FA0149
:10249000877008959091FA01977081E009F480E0C7
:1024A000089580911E02089590911E02892B8093B9
:1024B0001E020895809590911E02892380931E022A
:1024C000089510921E02089590911D02892B809309
:1024D0001D020895809590911D02892380931D020D
:1024E000089510921D02089590911C02892B8093EB
:1024F0001C020895809590911C02892380931C02F0
:10250000089510921C0208958091FB01089508958A
:102510000C9487120C9488129091FB01981721F06B
:102520008093FB010C948A1208958091FB0188230B
:1025300029F01092FB0180E00C948A120895E0913A
:102540000001F091010180911E028083E091000161
:10255000F0910101908180911D02892B8083E0918F
:102560000001F0910101908180911C02892B8083F0
:102570008091FB01882381F0E0910001F09101013D
:102580009081892B808380910001909101010E94AC
:10259000BA1381110E94951280910001909101015E
:1025A0000C94B3070C94871298E0899F9001112432
:1025B000262B2093FA010E94E1108091FA01859563
:1025C000859585950C94D2121092FA0180E00C94B6
:1025D000D2122091FA01809582238093FA01982FDC
:1025E000977079F430E0482F082E000C550B241713
:1025F000350739F08595859585950E9402110C94D3
:10260000E412089580E090E00E94CB2421E08C3E0B
:102610009E4F09F020E0822F089582E090E00C9414
:10262000C324682F82E090E00C94D12483E090E0F2
:102630000C94C324682F83E090E00C94D124CF93B2
:1026400084E090E00E94C324C82F81E290E00E94C1
:10265000C3242C2F30E0A901582BCA01CF91089533
:10266000CF93C92F682F84E090E00E94D1246C2F73
:1026700081E290E0CF910C94D124AB01BC018FE0BA
:1026800090E00C94E324AB01BC0183E190E00C9456
:10269000E32460E070E0CB010C94431360E070E051
:1026A000CB010E943D130C9449136CEE7EEF80E049
:1026B00090E00E94EF2460E082E090E00E94D1244C
:1026C00060E083E090E00E94D1241092F601109225
:1026D000F7011092F8011092F90160E084E090E0B7
:1026E0000E94D12460E081E290E00E94D12460E069
:1026F00085E090E00E94D12460E086E090E00E94B6
:10270000D1246FEF87E090E00E94D12440E050E0B8
:10271000BA0188E090E00E94E32460E08DE090E060
:102720000E94D12440E050E0BA0188E190E00E948C
:10273000E32460E087E190E00E94D12440E050E093
:10274000BA018CE190E00E94E32460E080E290E036
:102750000E94D12440E050E0BA0188E190E00E945C
:10276000E3240C944E130C945513682F8EE090E0E4
:102770000C94D124FC01329680912001882331F001
:102780008091560287FF02C09EE101C096E080E082
:10279000915028F021912223D9F38F5FF9CF08952A
:1027A000662351F1209120012223E9F02091560265
:1027B00027FF19C0462F4695469546954E31E0F4C1
:1027C000677021E030E002C0220F331F6A95E2F704
:1027D000FC01E40FF11D828190E02823392381E080
:1027E000232B69F409C0FC013296089621916217E7
:1027F00029F0E817F907D1F780E0089581E00895FE
:102800009C01FC0132969FEF80E04191461789F0D0
:102810009F3F19F4411101C0982F8F5F8630A9F7AF
:102820009F3F39F0F901E90FF11D97FDFA95628399
:10283000089508959C012A5F3F4FFC014281461391
:1028400001C01282019682179307B9F70895262FC7
:102850002695269526952E3168F4FC01E20FF11D90
:10286000677021E030E001C0220F6A95EAF78281AB
:10287000282B22830895262F2695269526952E31DE
:1028800070F4FC01E20FF11D677021E030E001C03F
:10289000220F6A95EAF720958281282322830895E2
:1028A00020912001222329F02091560227FD0C942B
:1028B00027140C94001420912001222329F0209148
:1028C000560227FD0C943B140C941A1420912001FD
:1028D000FC013296222331F08091560287FF02C01C
:1028E0008EE101C086E0DF011D928A95E9F7089527
:1028F00008950C9478140C9478140E947B140E9410
:10290000C4040E94791480E00E948A0491E081113D
:1029100001C090E0892F08950C9478140C948C14C5
:102920000E948E1480914903843049F11092200254
:1029300020E488E190E00FB6F894A89580936000B9
:102940000FBE2093600080E00E9478020E948E14E7
:1029500083B7817F846083BF83B7816083BF7894AE
:10296000889583B78E7F83BF0FB6F894A895809122
:102970006000886180936000109260000FBE08952F
:102980000C9478140E948B0C0E94A7070E94780276
:102990000C94C0141F920F920FB60F9211248F93B4
:1029A0009F93AF93BF9380912002811113C08091B8
:1029B000520290915302A0915402B0915502419657
:1029C000A11DB11D8093520290935302A093540213
:1029D000B0935502BF91AF919F918F910F900FBE11
:1029E0000F901F90189582E084BD93E095BD9AEFFB
:1029F00097BD80936E0008952FB7F894809152028E
:102A000090915302A0915402B09155022FBF0895A6
:102A10009C014FB7F8948091520290915302A0917B
:102A20005402B09155024FBF821B930B08957894C6
:102A30001F920F920FB60F9211248F939F93AF9313
:102A4000BF938091520290915302A0915402B09191
:102A500055020196A11DB11D80935202909353021D
:102A6000A0935402B0935502BF91AF919F918F9163
:102A70000F900FBE0F901F90189581E08093E0009B
:102A800080E28093D8001092C9008FE19EE4019704
:102A9000F1F700C0000087E090EBDC018093520367
:102AA00090935303A0935403B09355039CE088E1A3
:102AB0000FB6F894A895809360000FBE90936000C5
:102AC000FFCFCF93C82F80E00E948A0480FD02C010
:102AD00080E00BC060E070E080E00E9485022C2F57
:102AE00030E028173907A1F781E0CF910895CF93FF
:102AF000C82F8CE20E946115882321F08C2FCF9182
:102B00000C94611580E0CF910895CF930E94021339
:102B1000811102C00E94B313C5E6C15049F00E9462
:102B2000C4048FE39CE90197F1F700C00000F5CFE2
:102B300089E20E94771581112AC18AE20E947715E5
:102B400081110E94B31385E00E94771581110E94C4
:102B50003D150E940D1380931F0287E00E94771598
:102B60008823A9F18BE10E947715882351F0809189
:102B70001F0281FB222720F991E0922790FB81F927
:102B80000EC08EE00E947715882361F080911F02AD
:102B900082FB222720F991E0922790FB82F9809313
:102BA0001F0215C080E10E94771590911F028823B3
:102BB00041F093FB222720F981E0822780FB93F9E3
:102BC00004C0892F809580FB90F990931F0280911B
:102BD0001F020E9411130E941F13909357028093AB
:102BE000560280EE0E947715882341F080915602AC
:102BF000982F909590FB80F98093560289E30E946C
:102C00007715882359F08091560281FB222720F9FD
:102C100091E0922790FB81F98093560282EE0E9408
:102C20007715882359F08091560282FB222720F9DC
:102C300091E0922790FB82F98093560286EE0E94E3
:102C40007715882359F08091560283FB222720F9BB
:102C500091E0922790FB83F98093560283EE0E94C5
:102C60007715882359F08091560284FB222720F99A
:102C700091E0922790FB84F98093560285E30E94AD
:102C80007715882359F08091560285FB222720F979
:102C900091E0922790FB85F98093560281E30E9490
:102CA0007715882359F08091560286FB222720F958
:102CB00091E0922790FB86F98093560281E10E9471
:102CC0007715882359F08091560287FB222720F937
:102CD00091E0922790FB87F98093560280915602EB
:102CE000909157020E94301387E20E947715C82FF7
:102CF0008EE10E9477158111C2608FE10E947715E5
:102D00008111C46080E20E9477158111C86081E260
:102D10000E9477158111C06182E20E9477158111AE
:102D2000C06283E20E9477158111C06484E20E9430
:102D30007715882311F0C06802C0CC2329F08C2FAE
:102D40000E941A136C2F03C00E941613682F70E0A4
:102D500080E090E00E9481106091F2017091F30197
:102D60008091F4019091F5010E94B9108FE00E94CA
:102D70007715882319F081E00E94B51385E10E9440
:102D80007715882321F080E0CF910C94B513CF9173
:102D900008958091270280FF0BC06091070185E0B4
:102DA000689FB001112475956795759567952BC03F
:102DB00081FF09C06091070185E0689FB00111247F
:102DC0007595679520C082FF07C06091070185E077
:102DD000689FB001112417C0909126029923D1F069
:102DE00060910601961788F72091070185E0289FDA
:102DF00090011124929FA001939F500D112470E027
:102E0000CA010E94A9246038710540F4611571055A
:102E100019F406C065E070E0862F08958FE70895E5
:102E200081E008958091270280FF08C0609103012E
:102E300070E0759567957595679521C081FF06C00F
:102E40006091030170E07595679519C082FF04C019
:102E50006091030170E010C090912502992399F0D0
:102E6000609102019617A0F780910301899FC0012C
:102E7000112470E00E94A9246038710540F46115A6
:102E8000710519F406C061E070E0862F08958FE7A0
:102E9000089581E00895803F21F40E94C91681952C
:102EA00004C0813F29F40E94C91680932B02089523
:102EB000823F21F40E94C916819504C0833F29F402
:102EC0000E94C91680932A020895893F19F40E942E
:102ED000121705C08A3F31F40E9412178195809322
:102EE0002C0208958B3F21F40E941217819504C093
:102EF0008C3F29F40E94121780932D020895843F7D
:102F000021F480912902816017C0853F21F48091CE
:102F10002902826011C0863F21F4809129028460D9
:102F20000BC0873F21F480912902886005C0883F4B
:102F300031F48091290280618093290208958D3FA8
:102F400021F48091270281600BC08E3F21F4809193
:102F50002702826005C08F3F29F480912702846098
:102F6000809327020895803F39F480912B0287FFD8
:102F70006AC010922B0267C0813F29F480912B0216
:102F80001816BCF360C090912A02823F29F497FF83
:102F90005AC010922A0257C0833F19F41916CCF375
:102FA00052C090912C02893F31F419160CF04BC09D
:102FB00010922C0248C08A3F19F497FF44C0F8CF02
:102FC0008B3F39F480912D0287FF3DC010922D0276
:102FD0003AC08C3F29F480912D021816BCF333C0FF
:102FE000843F21F4809129028E7F17C0853F21F410
:102FF000809129028D7F11C0863F21F480912902A2
:103000008B7F0BC0873F21F480912902877F05C009
:10301000883F31F4809129028F7E8093290213C06A
:103020008D3F21F4809127028E7F0BC08E3F21F4CB
:10303000809127028D7F05C08F3F29F48091270260
:103040008B7F8093270280912A02811106C0809194
:103050002B02811102C01092260280912C02811154
:1030600006C080912D02811102C0109225020895A0
:103070000E94FC1420912A02211104C020912B02ED
:10308000222321F0909324028093230220912C028A
:10309000211104C020912D02222321F090932202BD
:1030A0008093210288E292E00C94CD07EF92FF9288
:1030B0000F931F93CF93DF9300D000D000D0CDB7F4
:1030C000DEB786E0E8E2F2E0DE01119601900D92B3
:1030D0008A95E1F7E0902A02F0902B0200912C02F1
:1030E00010912D0210922A0210922B0210922C02A3
:1030F00010922D02E11003C0FF2009F45DC0809101
:103100002302909124020E940815AC01909126029E
:10311000992339F02091080130E02417350758F041
:103120004BC0209109018AE0289F900111242417A7
:10313000350718F041C09F3F19F09F5F909326021A
:10314000EE2061F00E94C9161E1414F09FEF01C01A
:1031500091E0989F902D112490932A02FF2061F016
:103160000E94C9161F1414F09FEF01C091E0989FB0
:10317000902D112490932B0230912A023323E1F0F9
:1031800020912B022223C1F045EB3403C00111240E
:10319000992319F090932A0203C081E080932A02B8
:1031A00035EB2303C0011124992319F090932B02CE
:1031B00003C081E080932B02011103C0112309F4A5
:1031C0005DC080912102909122020E940815AC01FD
:1031D00090912502992339F02091040130E02417C1
:1031E000350758F04BC0209105018AE0289F9001D7
:1031F00011242417350718F041C09F3F19F09F5F35
:1032000090932502002361F00E941217101614F00B
:103210009FEF01C091E0989F902D112490932C0274
:10322000112361F00E941217111614F09FEF01C0D4
:1032300091E0989F902D112490932D0230912C02B3
:103240003323E1F020912D022223C1F045EB34031A
:10325000C0011124992319F090932C0203C081E03E
:1032600080932C0235EB2303C0011124992319F01C
:1032700090932D0203C081E080932D0280912A0259
:1032800081110BC080912B02811107C080912C020B
:10329000811103C080912D0281110E943818EB82A8
:1032A000FC820D831E8386E0FE013196A8E2B2E027
:1032B00001900D928A95E1F726960FB6F894DEBF3D
:1032C0000FBECDBFDF91CF911F910F91FF90EF9077
:1032D0000895E8E2F2E086E0DF011D928A95E9F7C1
:1032E0001092260210922502109227020895881F3C
:1032F0008827881F089591E0883F08F490E0892F7F
:103300000895982F907F903BF1F038F49039D9F0E0
:10331000903AC9F09038C9F416C0903D49F018F4BD
:10332000903C31F012C0903E71F0903F19F00DC00A
:1033300082E00895815F8F3040F4E82FF0E0ED5691
:10334000FE4F8081089583E0089580E00895FC0198
:10335000738362830895FC01758F648F0895CF9302
:10336000DF93EC011DA21FA21EA2BC01685D7F4F6E
:1033700040EC88519F4F0E94D21B1B821A821D82F3
:103380001C821F821E82198618861B861A861D863D
:103390001C861F861E86198A188A1B8A1A8A1D8A0D
:1033A0001C8A1F8A1E8A198E188E1B8E1A8E1D8EDD
:1033B0001C8E1F8E1E8E19A218A2DF91CF91089528
:1033C000EF92FF920F931F93CF93DF93EA018A014D
:1033D000060F111D88519F4F7C01C017D10729F09E
:1033E0006991C7010E94D91BF8CFDF91CF911F913E
:1033F0000F91FF90EF900895FC0171836083089511
:10340000FC0171A360A30895AF92BF92CF92DF92A7
:10341000EF92FF920F931F93CF93DF9300D01F92F1
:10342000CDB7DEB77C016B01142FB22EA02EDC01CC
:1034300095968C9195978430F1F45A96ED91FC9184
:103440005B97309709F4BEC0CB01019763E070E051
:103450000E949524CB01880F991F860F971F4983DF
:10346000BA820B834C2D481B9E012F5F3F4FBC013E
:10347000C7010995B4C06230710509F452C06330C8
:10348000710529F06130710509F099C080C0842F61
:10349000807F803AF9F058F48038B1F0803909F033
:1034A00091C0D7011496ED91FC9115972AC0803EEA
:1034B000B9F0803FD9F0803B09F084C0D701129663
:1034C000ED91FC9113971DC0D7011696ED91FC91DB
:1034D000179717C0D7011896ED91FC91199711C055
:1034E000D7011A96ED91FC911B970BC0423F09F052
:1034F00069C0D7011C96ED91FC911D97309731F46E
:1035000061C0309709F45EC0123F21F42A2D4B2D83
:1035100062EF04C02A2D4B2D612F6F70C7010995F2
:103520005EC0842F807F803D59F0803F79F0803CE1
:1035300009F048C0D7011E96ED91FC911F9718C065
:10354000D7015096ED91FC91519712C0433F31F451
:10355000D7015296ED91FC91539707C0413F91F5E9
:10356000D7015496ED91FC915597309739F42AC0C4
:10357000309741F1812F8D7F813F19F44B2D612FC1
:1035800003C04B2D612F6F70C701099528C0842F90
:103590000E947B19882331F0D7015696ED91FC915A
:1035A000579707C0163F71F4D7015896ED91FC91DB
:1035B0005997309739F0612FC701099510C06430D1
:1035C0007105D8F4D7015C96ED91FC915D97309729
:1035D00031F00A2D2B2D412FB601C7010995D701D6
:1035E0005E96ED91FC915F97309751F00A2D2B2D4F
:1035F000412FB601C701099503C0C12CD12CE2CFE0
:103600000F900F900F90DF91CF911F910F91FF902E
:10361000EF90DF90CF90BF90AF900895FF920F93FF
:103620001F93CF93DF93EC01162F862F0E947B19F7
:10363000882369F0FDA081E08DA300E020E0412F08
:1036400061E070E0CE010E94041AFDA270C0812FDB
:103650000E9477194DA1882309F440C0443029F015
:103660001AA381E090E09FA38EA3812F0E9481196D
:10367000813031F070F0823051F0833041F02AC057
:103680008DA300E020E0412F61E070E01EC08DA31B
:103690004EC0103FB1F0173FE9F42EA13FA1C90180
:1036A00063E070E00E949524FE01E80FF91F12A369
:1036B000B9016F5F7F4F7FA36EA30CA12BA14AA11D
:1036C00004C084E08DA31AA329C0CE010E94041A6D
:1036D0001DA22DC01DA21FA21EA229C0442339F184
:1036E0002EA13FA1C90163E070E00E949524FE0174
:1036F000E80FF91F12A3B9016F5F7F4F7FA36EA37D
:103700008130910581F0029791F40CA12BA14AA17F
:10371000CE010E94041A8DA1843049F081E090E02E
:103720009FA38EA304C0423011F400E0EFCFDF91DD
:10373000CF911F910F91FF900895CF92DF92EF925A
:10374000FF920F931F93CF93DF93EC01E8A1F9A1B0
:10375000309709F009956E0188EEC80ED11CC6019C
:103760000E94091CE12CF12C082F10E0E016F10654
:1037700080F460E0C6010E941F1C682FCE010E94E9
:103780000E1B61E0C6010E94301C8FEFE81AF80A98
:10379000EDCFDF91CF911F910F91FF90EF90DF90D0
:1037A000CF900895FC014283748363831182108259
:1037B00008951F93CF93DF93EC01162F0E94481CAE
:1037C000E82F298130E0C90101966A8170E00E94EA
:1037D000A924488150E08417950729F48E2F0E9470
:1037E0004B1C80E012C08B819C81DC01A20FB31FB7
:1037F0001C93898190E001966A8170E00E94A9245F
:1038000089838E2F0E944B1C81E0DF91CF911F9105
:1038100008950F931F93CF938C010E94481CF801C9
:10382000C1812081C21718F4F8019281C90FC21B0F
:103830000E944B1C8C2FCF911F910F910895FC017A
:103840002081862F90E0820F911D628170E00E949E
:10385000A9240380F481E02DE80FF91F80810895E9
:103860001F93CF93DF93EC01162F0E94481C282F43
:103870003881812F90E0830F911D6A8170E00E9452
:10388000A9248883822FDF91CF911F910C944B1C28
:103890008FB7F89408958FBF0895089508950F93F2
:1038A0001F93CF93DF93CDB7DEB727970FB6F8946A
:1038B000DEBF0FBECDBF8C01CE0101960E94ED1E72
:1038C000882309F18A810E9481199A819D839B81B5
:1038D0009E839C819F8381110EC08981843041F039
:1038E000873031F0863031F0853031F781E003C028
:1038F00083E001C082E0AE014B5F5F4F682FC801DB
:103900000E94E019D9CF27960FB6F894DEBF0FBEFC
:10391000CDBFDF91CF911F910F910895DF92EF926C
:10392000FF920F931F93CF93DF9300D000D0CDB7BA
:10393000DEB77B01142FD22E4A832B830C83842F76
:103940000E94811981111CC082E0E816F10471F017
:1039500083E0E816F10421F0EA94EF28C1F40CC0EA
:10396000073F11F487E006C084E004C087EFD81257
:10397000FBCF86E0898307C0173FB1F785E0FACF18
:1039800012951F701983CE0101960E94E81E0F90B8
:103990000F900F900F90DF91CF911F910F91FF909B
:1039A000EF90DF90089588E592E00E94AF196EE8ED
:1039B0007CE188E592E00E94FC196FE47CE188E5F7
:1039C00092E00E94001A6DE47CE188E592E00E949A
:1039D000AB196EE47CE188E592E00C94A719209184
:1039E00049032430D9F49B01FC0181818F708093BD
:1039F000E90040E050E064E070E0C9010E94AC1FC3
:103A000081110FC09091E800892F807295FD08C048
:103A10009091E8009E779093E800089582E00895E1
:103A200080E00895209149032430A1F4FC018181B4
:103A30008F708093E9002091F3008091F20090E074
:103A4000922B892B49F08091E8008E778093E800D3
:103A50000C94552182E0089580E00895FC01809146
:103A60004903843059F491819F709093E9008091CB
:103A7000E80080FF03C0CF010C94121D089520912F
:103A80004903243011F080E00895FC0186818F7095
:103A90008093E9008091E80082FFF5CF8091E800F3
:103AA00085FFF1CFCB0140E050E064E070E00E9480
:103AB000F71F8091E80085FD05C08091E8008B77B5
:103AC0008093E80081E0089580914E020895CF939D
:103AD000DF9300D01F92CDB7DEB7909149039430A9
:103AE00019F589837B836A8382E08093E9008FEFF5
:103AF0009091E800815095FD06C095ED9A95F1F7FB
:103B000000008111F5CF8091E80085FF0DC040E0F5
:103B100050E063E070E0CE0101960E94AC1F8091FE
:103B2000E8008E778093E8000F900F900F90DF9160
:103B3000CF910895BC0184E00C94671DBC0183E023
:103B40000C94671D22E02093E9002FEF3091E800EC
:103B5000215035FD06C035ED3A95F1F700002111F1
:103B6000F5CF2091E80025FF0BC040E050E066E073
:103B700070E00E94AC1F8091E8008E778093E8008F
:103B80000895CF93DF9320912001222339F02091D3
:103B9000560227FF03C060E222E002C068E021E095
:103BA0002093E9002FEF3091E800215035FD06C049
:103BB00035ED3A95F1F700002111F5CF2091E8009D
:103BC00025FF1DC0EC0180912001811105C040E05E
:103BD00050E068E070E003C070E040E050E0CE01EB
:103BE0000E94AC1F8091E8008E778093E80080E20D
:103BF000FE01AEE2B2E001900D928A95E1F7DF910D
:103C0000CF91089580914803811109C00E948821B5
:103C10000E94E5218091E20084608093E200089593
:103C2000109248030895089508950C94C21442E038
:103C300061EC81E00E94012142E261EC82E00E949D
:103C4000012142E361E883E00E94012142E361E84F
:103C500084E00C94012180914B03833009F460C00F
:103C600030F4813071F0823009F499C008958A30BF
:103C700009F485C08B3009F46BC0893009F0A7C006
:103C800020C080914A03813A09F0A1C08091E800E8
:103C9000877F8093E80080914E0390914F03892B9A
:103CA00021F460E28EE292E003C060E080E090E008
:103CB00070E00E9442208091E8008B778093E800BA
:103CC000089580914A03813209F081C080914E03AA
:103CD00090914F03029708F07AC08091E800877FA7
:103CE0008093E8008091E80082FD05C0809149033F
:103CF0008111F8CF6CC02091F3008091F20090E028
:103D0000922B029729F48091F1008B7F813021F46E
:103D10008091F10080934E028091E8008B7753C030
:103D200080914A03813A09F052C080914E039091EC
:103D30004F03892B09F04BC08091E800877F809367
:103D4000E8008091E80080FFFCCF8091200136C020
:103D500080914A038132D9F580914E0390914F03AF
:103D6000892BA9F58091E800877F8093E8000E9465
:103D7000362180914C03809320010C948B0C809110
:103D80004A03813221F58091E800877F8093E80023
:103D90000E94362180914D0380934F0208958091B7
:103DA0004A03813AA1F48091E800877F8093E8007C
:103DB0008091E80080FFFCCF80914F028093F1005A
:103DC0008091E8008E778093E8000C943621089566
:103DD000BC018AE091E00C94EF1CBC018AE091E008
:103DE0000C943F1D0E94D31C84B7877F84BF0FB6FD
:103DF000F894A8958091600088618093600010928B
:103E000060000FBE90E080E80FB6F89480936100E8
:103E1000909361000FBE0E941F080E9488210E949B
:103E2000E5218091E20084608093E20078940E9412
:103E30007A240E94250886E191E00E94A2078091E1
:103E40004903853069F40E949014809147038823C8
:103E5000B1F30E947D14882391F30E94961FEFCF47
:103E60000E942F088AE091E00E942E1D0E941308F4
:103E70000E941208E4CF0C943D1F292F33272330D2
:103E80003105C9F060F42130310581F0223031056F
:103E900009F044C08FE990E026E431E043C02132CC
:103EA0003105E1F02232310549F138C082E190E07C
:103EB00025EE31E037C099278130910549F028F08F
:103EC000029761F5EEEFF0E005C0E2E4F1E002C038
:103ED000E0E2F1E0849190E09F0124C0611571055A
:103EE00041F061307105D1F489E090E021E731E0E3
:103EF00019C089E090E028E531E014C06115710532
:103F000041F06130710551F48CEB90E027EF31E026
:103F100009C080E490E023EB32E004C080E090E050
:103F200020E030E0FA0131832083089580E189BDEB
:103F300082E189BD09B400FEFDCF8091D8008F7D5C
:103F40008093D8008091E00082608093E0008091AF
:103F5000E00081FDFCCF0895CF92DF92EF92FF92B7
:103F60000F931F93CF93DF93EC018B017A010E9493
:103F70005521811133C0E114F10439F0F70180813A
:103F80009181081B190BC80FD91FC12CD12C011509
:103F9000110519F18091E80085FD16C08091E800B7
:103FA0008E778093E800E114F10449F0F7018081F5
:103FB0009181C80ED91ED182C08285E00FC00E94B7
:103FC0005521882321F30AC089918093F100015083
:103FD0001109FFEFCF1ADF0ADACF80E0DF91CF912E
:103FE0001F910F91FF90EF90DF90CF900895CF92A7
:103FF000DF92EF92FF920F931F93CF93DF93EC0129
:104000008B017A010E945521811133C0E114F10422
:1040100039F0F70180819181081B190BC80FD91F56
:10402000C12CD12C0115110519F18091E80085FDF5
:1040300016C08091E8008B778093E800E114F104CA
:1040400049F0F70180819181C80ED91ED182C082CA
:1040500085E00FC00E945521882321F30AC080917A
:10406000F100899301501109FFEFCF1ADF0ADACF6F
:1040700080E0DF91CF911F910F91FF90EF90DF9043
:10408000CF900895209150033091510326173707A0
:1040900048F06115710539F42091E8002E772093DE
:1040A000E80001C0B901FC0120E06115710579F15A
:1040B000809149038823F1F18530F1F18091E80086
:1040C00083FD3CC08091E80082FD2EC08091E80015
:1040D00080FFEBCF2091F3008091F20090E0922BD3
:1040E0006115710551F08830910538F421912093C4
:1040F000F100615071090196F3CF21E0089709F0B2
:1041000020E08091E8008E778093E800CECF2111E7
:10411000CFCF0AC080914903882361F0853061F0D8
:104120008091E80083FD0AC08091E80082FFF2CF11
:1041300080E0089582E0089583E0089581E0089585
:1041400020915003309151032617370748F061152D
:10415000710539F42091E8002E772093E80001C022
:10416000B901FC0120E06115710591F180914903CD
:10417000882309F440C0853009F43FC08091E800ED
:1041800083FD3DC08091E80082FD2FC08091E80052
:1041900080FFE9CF2091F3008091F20090E0922B14
:1041A0006115710559F08830910540F424912093F0
:1041B000F1003196615071090196F2CF21E0089724
:1041C00009F020E08091E8008E778093E800CBCF63
:1041D0002111CCCF0AC080914903882361F085303A
:1041E00061F08091E80083FD0AC08091E80082FFC1
:1041F000F2CF80E0089582E0089583E0089581E0A1
:104200000895982F973068F59093E900981739F042
:104210007091EC002091ED005091F00003C0242F2C
:10422000762F50E021FD02C09F5FECCF3091EB0074
:104230003E7F3093EB003091ED003D7F3093ED00F9
:104240003091EB0031603093EB007093EC002093E1
:10425000ED005093F0002091EE0027FDE5CF80E0C7
:1042600008958F708093E90081E0089580914A035A
:1042700087FF11C08091E80082FD05C0809149034D
:104280008111F8CF11C08091E8008B770BC080912D
:104290004903882349F08091E80080FFF8CF80919E
:1042A000E8008E778093E80008952091E400309133
:1042B000E50095E64091EC00842F817040FF23C01B
:1042C0008091E80080FD1DC080914903882399F00A
:1042D000853099F08091EB0085FD11C04091E4009C
:1042E0005091E5002417350729F3915011F09A01F8
:1042F000E1CF84E0089582E0089583E0089581E0AD
:10430000089580E008954091E80042FFDDCF0895D0
:104310000E94F6210E94FE21E0EEF0E080818160A3
:104320008083E8EDF0E080818F77808319BCA7ED72
:10433000B0E08C918E7F8C9380818F7E80831092F1
:10434000480308950F931F93CF93DF930E94F621A4
:104350000E94FE21C8EDD0E088818F778883888114
:104360008068888388818F7D888319BC1092490377
:1043700010924503109247031092460300EE10E09E
:10438000F80180818B7F808388818160888342E00F
:1043900060E080E00E940121E1EEF0E080818E7F0C
:1043A0008083E2EEF0E0808181608083808188609C
:1043B0008083F80180818E7F8083888180618883FB
:1043C000DF91CF911F910F910895E8EDF0E080818A
:1043D0008F7E8083E7EDF0E080818160808384E0E0
:1043E00082BF81E0809348030C94A221E8EDF0E0C5
:1043F00080818E7F80831092E20008951092DA000F
:104400001092E10008951F920F920FB60F9211249F
:104410002F933F934F935F936F937F938F939F93CC
:10442000AF93BF93EF93FF938091E10082FF0BC0A6
:104430008091E20082FF07C08091E1008B7F809332
:10444000E1000E9479248091DA0080FF1FC08091F2
:10445000D80080FF1BC08091DA008E7F8093DA0045
:104460008091D90080FF0DC080E189BD82E189BDC6
:1044700009B400FEFDCF81E0809349030E94021E33
:1044800005C019BC109249030E94101E8091E100E2
:1044900080FF19C08091E20080FF15C08091E2008A
:1044A0008E7F8093E2008091E20080618093E20041
:1044B0008091D80080628093D80019BC85E08093F9
:1044C00049030E94141E8091E10084FF30C0809156
:1044D000E20084FF2CC080E189BD82E189BD09B47E
:1044E00000FEFDCF8091D8008F7D8093D800809111
:1044F000E1008F7E8093E1008091E2008F7E8093C7
:10450000E2008091E20081608093E20080914503A7
:10451000882311F084E007C08091E30087FD02C08A
:1045200081E001C083E0809349030E94151E8091C1
:10453000E10083FF29C08091E20083FF25C08091C4
:10454000E100877F8093E10082E08093490310922D
:1045500045038091E1008E7F8093E1008091E2002D
:104560008E7F8093E2008091E20080618093E20080
:1045700042E060E080E00E9401218091F0008860CC
:104580008093F0000E94131EFF91EF91BF91AF91B5
:104590009F918F917F916F915F914F913F912F915B
:1045A0000F900FBE0F901F9018951F920F920FB68D
:1045B0000F9211242F933F934F935F936F937F93A9
:1045C0008F939F93AF93BF93CF93DF93EF93FF931B
:1045D000C091E900CF708091EC00D82FD17080FDA0
:1045E000D0E81092E9008091F000877F8093F0007E
:1045F00078940E9419231092E9008091F00088605D
:104600008093F000CD2BCF70C093E900FF91EF9124
:10461000DF91CF91BF91AF919F918F917F916F91DA
:104620005F914F913F912F910F900FBE0F901F9070
:1046300018951F93CF93DF93CDB7DEB7AA970FB628
:10464000F894DEBF0FBECDBFEAE4F3E08091F10045
:10465000819323E0E235F207C9F70E942B1E809177
:10466000E80083FF2EC180914A0390914B03492FAC
:1046700050E04A30510508F024C1FA01EC58FF4FD0
:104680000C94BD24803821F0823809F01AC108C08A
:104690008091460390914703992389F082600FC06F
:1046A00080914E038F70873008F00BC18093E90032
:1046B0008091EB0085FB882780F91092E9009091AA
:1046C000E800977F9093E8008093F1001092F1004A
:1046D000D1C0282F2D7F09F0F4C0882319F0823033
:1046E00061F0EFC080914C03813009F0EAC0933053
:1046F00009F080E0809347032EC080914C03811124
:104700002AC080914E038F702FEF280F263008F0BB
:10471000D8C08093E9002091EB0020FF1CC09330AB
:1047200021F48091EB00806214C09091EB009061C5
:104730009093EB0021E030E0A90102C0440F551F27
:104740008A95E2F74093EA001092EA008091EB002C
:1047500088608093EB001092E9008091E800877FE9
:104760008093E8000E943621ACC08111AAC010914C
:104770004C031F778091E3008078812B8093E300C6
:104780008091E800877F8093E8000E943621809125
:10479000E80080FFFCCF8091E30080688093E30015
:1047A000111102C082E001C083E08093490389C0F7
:1047B0008058823008F085C080914C0390914D0361
:1047C0008C3D53E0950779F583E08A838AE28983FB
:1047D0004FB7F894DE01139620E03EE051E2E32F5C
:1047E000F0E050935700E49120FF03C0E295EF7092
:1047F0003F5FEF708E2F90E0EA3010F0C79601C057
:10480000C0968D939D932F5F243149F74FBF8091C0
:10481000E800877F8093E8006AE270E0CE010196AD
:104820000E94422016C060914E0370914F03AE016A
:104830004F5F5F4F0E943B1FBC01892B09F441C0B1
:104840009091E800977F9093E80089819A810E9477
:10485000A0208091E8008B778093E80032C08038F8
:1048600081F58091E800877F8093E800809145037F
:104870008093F1008091E8008E7772CF811121C082
:1048800080914C0390914D0399270297D4F4809125
:10489000E800877F8093E80080914C038093450374
:1048A0000E94362180914503811106C08091E3006A
:1048B00087FD02C081E001C084E0809349030E942B
:1048C000171E8091E80083FF0AC08091E800877F6F
:1048D0008093E8008091EB0080628093EB00AA96C1
:1048E0000FB6F894DEBF0FBECDBFDF91CF911F9101
:1048F00008950895CF93809149038823A1F0C09132
:10490000E900CF709091EC00892F817090FD80E8D4
:10491000C82B1092E9008091E80083FD0E941923C2
:10492000CF70C093E900CF910895AA1BBB1B51E142
:1049300007C0AA1FBB1FA617B70710F0A61BB70B0F
:10494000881F991F5A95A9F780959095BC01CD01B4
:10495000089597FB072E16F4009407D077FD09D031
:104960000E94952407FC05D03EF4909581959F4FB9
:104970000895709561957F4F0895EE0FFF1F059084
:10498000F491E02D0994F999FECF92BD81BDF89A7A
:10499000992780B50895A8E1B0E042E050E00C947A
:1049A000F724262FF999FECF92BD81BDF89A019781
:1049B00000B4021639F01FBA20BD0FB6F894FA9A67
:1049C000F99A0FBE08950396272F0E94D2240E94C1
:1049D000D124252F0E94D224242F0C94D224019676
:1049E000272F0E94D2240C94D124DC01CB01FC019E
:1049F000F999FECF06C0F2BDE1BDF89A319600B438
:0E4A00000D9241505040B8F70895F894FFCF42
:104A0E00FC012808641E140A321E038340000001B4
:104A1E00044000000100641DC11DA21D9E1D9A1DB3
:104A2E0001E200E900EA00B500B600B700CD008350
:104A3E0001CC008A01920194012102230224022555
:104A4E0002260227022A02B300B4006F0070008112
:104A5E00828300FF0100010000FFFF000001000142
:104A6E00FF00E200E900EA00B500B600B700CD0095
:104A7E008301CC008A0192019401210223022402B7
:104A8E002502260227022A02B300B4006F0070002E
:104A9E008182830203020000010001010101010075
:024AAE00010104
:00000001FF
