:100000000C94B2060C94F9060C94F9060C94F906BB
:100010000C94F9060C94F9060C94F9060C94F90664
:100020000C94F9060C94F9060C94E42F0C94B63059
:100030000C94371C0C94F9060C94F9060C94F906F0
:100040000C94F9060C94F9060C94F9060C94F90634
:100050000C94F9060C94901C0C94F9060C94F90677
:100060000C94F9060C94F9060C94F9060C94F90614
:100070000C94F9060C94F9060C94F9060C94F90604
:100080000C94F9060C94F9060C94F9060C94F906F4
:100090000C94F9060C94F9060C94F9060C94F906E4
:1000A0000C94F9060C94F9060C94F9066411641189
:1000B00096119611EA110812311331131312A81276
:1000C000B912B9122113311331132A13D113D113D9
:1000D000E313E313DA13E313E313E313D113D1139D
:1000E000DF13E313E313DF13542442245B24E022E1
:1000F000302530253F2430253025882430259C2488
:1001000010253025302530253025CC2430253025CC
:10011000B92430257424302530252A252A252A257E
:100120002A252A252A252A252A252A252C2530254F
:1001300054243724302530253025302530253025EE
:1001400030253025302530252C25302530253F24FD
:10015000302528252825282528252825282528252F
:10016000282528252C2523314A3142324A31423272
:100170009631B931423210321F32AC0044454255FB
:10018000473A2064697361626C65642E0A004445D5
:100190004255473A20656E61626C65642E0A000A1A
:1001A0000025303862003A200025303258000A72AB
:1001B0002F632030313233343536370A000A0025B8
:1001C00030325820006B6579626F6172645F7265CE
:1001D000706F72743A20000A0025303258006B6547
:1001E00079626F6172645F7365745F6C65643A20F5
:1001F0000064656C5F6B65795F6269743A20636166
:100200006E27742064656C3A20253032580A0061EC
:1002100064645F6B65795F6269743A2063616E271D
:1002200074206164643A20253032580A00646F6E8D
:10023000652E0A00626F6F746D6167696320736376
:10024000616E3A202E2E2E2000290A002575002FDF
:10025000002575005D28002564002000256400202D
:100260000025640020002564007C00253032580001
:100270006D6F7573656B6579205B62746E7C782039
:1002800079207620685D287265702F61636C293A49
:10029000205B006D6B5F776865656C5F74696D6589
:1002A0005F746F5F6D6178203D2025640A006D6B7F
:1002B0005F776865656C5F6D61785F7370656564B5
:1002C000203D2025640A006D6B5F74696D655F7465
:1002D0006F5F6D6178203D2025640A006D6B5F6D56
:1002E00061785F7370656564203D2025640A006D48
:1002F0006B5F696E74657276616C203D2025640ABF
:10030000006D6B5F64656C6179203D2025640A0097
:100310006D6B5F776865656C5F74696D655F746F41
:100320005F6D6178203D2025640A006D6B5F776802
:1003300065656C5F6D61785F7370656564203D20F5
:1003400025640A006D6B5F74696D655F746F5F6D26
:100350006178203D2025640A006D6B5F6D61785FD8
:100360007370656564203D2025640A006D6B5F69CC
:100370006E74657276616C203D2025640A006D6B99
:100380005F64656C6179203D2025640A000A0025C0
:100390007500363A20776865656C5F74696D655FD6
:1003A000746F5F6D61783A20000A00257500353A58
:1003B00020776865656C5F6D61785F7370656564F3
:1003C0003A20000A00257500343A2074696D655F93
:1003D000746F5F6D61783A20000A00257500333A2A
:1003E000206D61785F73706565643A20000A0025AE
:1003F0007500323A20696E74657276616C286D738F
:10040000293A20000A00257500313A2064656C61A4
:1004100079282A31306D73293A20000A092D205697
:10042000616C756573202D0A004D3E004D25643EBC
:1004300020003F007365742064656661756C740A02
:1004400000433E200077686572652064656C7461C6
:100450003A20637572736F723D25642C207768654E
:10046000656C3D25640A53656520687474703A2F85
:100470002F656E2E77696B6970656469612E6F7286
:10048000672F77696B692F4D6F7573655F6B657942
:10049000730A000A092D204D6F7573656B6579200D
:1004A0002D0A4553432F713A09717569740A313A1F
:1004B0000964656C6179282A31306D73290A323AF2
:1004C00009696E74657276616C286D73290A333A16
:1004D000096D61785F73706565640A343A097469FF
:1004E0006D655F746F5F6D61780A353A097768658D
:1004F000656C5F6D61785F73706565640A363A0993
:10050000776865656C5F74696D655F746F5F6D6159
:10051000780A0A703A097072696E742076616C7597
:1005200065730A643A097365742064656661756C65
:1005300074730A75703A092B310A646F776E3A0941
:100540002D310A706775703A092B31300A70676473
:100550006F776E3A092D31300A0A73706565642031
:100560003D2064656C7461202A206D61785F737032
:10057000656564202A2028726570656174202F20CB
:1005800074696D655F746F5F6D6178290A003F0063
:100590004D3E2000433E20004C25640A0074696DE6
:1005A00065725F72656164333228293A20253034E0
:1005B0006C580A006B65796D61705F636F6E666978
:1005C000672E6E6B726F3A2025580A006B65796250
:1005D0006F6172645F69646C653A2025580A006B2C
:1005E0006579626F6172645F70726F746F636F6C54
:1005F0003A2025580A00686F73745F6B6579626FE3
:100600006172645F6C65647328293A2025580A007A
:100610000A092D20537461747573202D0A00474315
:10062000433A20352E342E30204156522D4C49422B
:10063000433A20322E302E30204156525F415243F1
:10064000483A20617672350A004F5054494F4E5354
:100650003A204C55464120424F4F544D4147494363
:10066000204D4F5553454B45592045585452414B09
:10067000455920434F4E534F4C4520434F4D4D411C
:100680004E44204E4B524F20343039360A004255EA
:10069000494C443A2020284D6179202035203230C1
:1006A0003231290A005649443A20307837323646EA
:1006B00028414D45524943414E48415054494353C6
:1006C00029205049443A2030783030303128414D8B
:1006D00045524943414E48415054494353292056BD
:1006E00045523A203078303030310A000A092D2046
:1006F00056657273696F6E202D0A000A092D20431A
:100700006F6E736F6C65202D0A4553432F713A0944
:10071000717569740A6D3A096D6F7573656B6579EA
:100720000A000A092D204D61676963202D0A443AA9
:10073000094465627567204D657373616765205470
:100740006F67676C650A583A094D61747269782061
:100750004465627567204D6F646520546F67676CF0
:1007600065202D2053686F77206B657970726573F3
:1007700073657320696E206D617472697820677289
:1007800069640A4B3A094B6579626F61726420446F
:100790006562756720546F67676C65202D2053680C
:1007A0006F77206B65797072657373207265706FF7
:1007B00072740A4D3A094465627567204D6F75730E
:1007C0006520546F67676C650A563A0956657273FF
:1007D000696F6E0A533A095374617475730A433A28
:1007E00009416374697661746520436F6E736F6C41
:1007F00065204D6F64650A46312D4631303A095304
:10080000776974636820746F204C61796572203059
:100810002D392028463130203D204C30290A302DFA
:10082000393A0953776974636820746F204C617991
:10083000657220302D390A47524156453A0953779F
:100840006974636820746F204C6179657220302070
:1008500028616C7465726E617465290A423A094AAE
:10086000756D7020746F20426F6F746C6F6164657A
:10087000720A4553433A094A756D7020746F2042DD
:100880006F6F746C6F616465722028616C7465723F
:100890006E617465290A453A095072696E74204583
:1008A0004550524F4D2053657474696E67730A4208
:1008B00053504143453A09436C65617220454550A8
:1008C000524F4D0A4E3A094E4B524F20546F6767B4
:1008D0006C650A000A002575002E6E6B726F3A2057
:1008E000000A002575002E737761705F6261636B8B
:1008F000736C6173685F6261636B73706163653AA7
:1009000020000A002575002E737761705F677261A1
:1009100076655F6573633A20000A002575002E6EC8
:100920006F5F6775693A20000A002575002E73779E
:1009300061705F72616C745F726775693A20000A5A
:10094000002575002E737761705F6C616C745F6C4D
:100950006775693A20000A002575002E737761706B
:100960005F7263746C5F726775693A20000A0025D4
:1009700075002E737761705F6C63746C5F6C677564
:10098000693A20000A002575002E636170736C6F50
:10099000636B5F746F5F636F6E74726F6C3A20008D
:1009A0000A002575002E737761705F636F6E747235
:1009B0006F6C5F636170736C6F636B3A20000A0049
:1009C00025303258006B65796D61705F636F6E66BC
:1009D00069672E7261773A20000A002575002E6D36
:1009E0006F7573653A20000A002575002E6B6579D6
:1009F000626F6172643A20000A002575002E6D61F5
:100A0000747269783A20000A002575002E656E61BF
:100A1000626C653A20000A00253032580064656235
:100A200075675F636F6E6669672E7261773A200043
:100A30000A0025750064656661756C745F6C617988
:100A400065723A20003F004E4B524F3A206F666667
:100A50000A004E4B524F3A206F6E0A000A6D6F75B6
:100A600073653A206F66660A000A6D6F7573653AA2
:100A7000206F6E0A000A6B6579626F6172643A20BA
:100A80006F66660A000A6B6579626F6172643A206C
:100A90006F6E0A000A6D61747269783A206F66663B
:100AA0000A000A6D61747269783A206F6E0A000A52
:100AB00064656275673A206F66660A000A6465625B
:100AC00075673A206F6E0A000A0A4A756D70696E82
:100AD0006720746F20626F6F746C6F616465722E33
:100AE0002E2E2000433E2000436C656172696E67C4
:100AF00020454550524F4D0A006565636F6E66692B
:100B0000673A0A005B735D004B6579626F617264DE
:100B10002073746172742E0A005B575D005B535D35
:100B2000005B525D005B445D005B435D0020034160
:100B3000004D00450052004900430041004E00486E
:100B400000410050005400490043005300000020C1
:100B50000341004D00450052004900430041004E52
:100B60000048004100500054004900430053000079
:100B700000040309040902BF00050100A0FA0904EA
:100B800000000103010100092111010001224000C0
:100B90000705810308000A090401000103000000A1
:100BA00009211101000122BC000705820320000A6F
:100BB00009040200020300000009211101000122C2
:100BC000220007058303200001070503032000011D
:100BD000080B0302010100000904030000010100E9
:100BE00000092401000109000104090404000201B4
:100BF0000300000724010001410006240201010056
:100C00000624020202000924030103010201000973
:100C1000240302040101010009050502400005004A
:100C200000052501010109058402400005000005B9
:100C30002501010312011001000000086F7201007C
:100C40000100010200010631FF0974A101097515B7
:100C50000026FF009520750881020976150026FF01
:100C600000952075089102C005010902A1018502C5
:100C70000901A1000509190129051500250195059E
:100C80007501810295017503810105010930093162
:100C90001581257F95027508810609381581257F04
:100CA000950175088106050C0A38021581257F9586
:100CB0000175088106C0C005010980A101850319DD
:100CC000012AB700150126B700950175108100C0F3
:100CD000050C0901A101850419012AA002150126AC
:100CE000A002950175108100C005010906A10185CA
:100CF00005050719E029E71500250195087501810B
:100D0000020507190029EF1500250195F0750181ED
:100D100002050819012905950575019102950175CE
:100D2000039101C005010906A101050719E029E7A2
:100D3000150025019508750181029501750881014D
:100D40000507190029FF150026FF00950675088183
:100D50000005081901290595057501910295017590
:100D6000039101C011241FBECFEFDAE0DEBFCDBF7B
:100D700004B603FE27C080917A0390917B03A09173
:100D80007C03B0917D038730904BA740B04BD1F4EA
:100D900010927A0310927B0310927C0310927D03D1
:100DA00014BE84B7877F84BF0FB6F894A89580914E
:100DB0006000886180936000109260000FBEE0E0E8
:100DC000F8E3099511E0A0E0B1E0E6EEF5E602C037
:100DD00005900D92AC3BB107D9F723E0ACEBB1E045
:100DE00001C01D92AA37B207E1F70E94CA2C0C94E9
:100DF000F1320C940000FF93EF93E091BC01F0916D
:100E0000BD01309709F00995EF91FF910895FC011C
:100E10008591803011F0EFDFFBCF0895FF27E0E2EE
:100E200030E247FF0CC0419597FF09C0EDE26095A5
:100E3000709580959095611D711D811D911D27FFF5
:100E400002C0219530E350E2AA27660F771F881F62
:100E5000991FAA1FA41710F0A41B63955A95A9F710
:100E6000AA3008F0A95FA05DAF93F39561157105F5
:100E70008105910541F7ED3211F4EF93F395F217E7
:100E800018F43F93F395FBCF8F91B5DFFA95E1F717
:100E90000895E991F9918591803021F0853219F01A
:100EA000AADFF9CF089520E0E89455915532C1F3B7
:100EB000503311F4689455915A3348F4505390F3D9
:100EC000220F022E220F220F200D250FF4CF0EF439
:100ED000219589919991533619F3533729F1533557
:100EE00059F1BC0188279927E8945C3621F489914F
:100EF000999168945591543639F446EF7EF077FF16
:100F00000DC08FEF9FEF0AC055374AE039F05835D2
:100F100040E121F0523642E009F00895FF93EF934B
:100F20007DDFEF91FF91B7CFFF93EF93FC018191AC
:100F30008030B9F360DFFBCFFF93EF9368DFF1CF31
:100F4000DF93CF93CDB7DEB72596A3DFCF91DF91A7
:100F500008950C941E0B8091BF01882319F08130F5
:100F600099F008958091C001662331F0882311F033
:100F700081E005C089EA13C0882321F08FEF8093B8
:100F8000BE0108958AEA0BC08091C001662321F05A
:100F90008111EECF8EE403C08111F0CF8BE40C946D
:100FA0000511811135C0662351F081E08093C001A5
:100FB0000E94691C9093C2018093C1010895109210
:100FC000C0018091C1019091C2010E94811C2091B9
:100FD000BF018436910548F4222319F0213019F01D
:100FE00008958EEA09C084EF07C08091BE01811187
:100FF00005C0213069F486EF0C940511280F2230CA
:1010000018F42093BF0102C01092BF011092BE01DC
:10101000089581E0089581E008950C940B080895E7
:101020000C940F081F93CF93DF9300D000D01F9232
:10103000CDB7DEB749835A836B833091D70189815D
:101040009A81311114C0662359F0222349F00E947D
:101050000419182F682F89819A810E94B31803C040
:101060000E94DB18182F69817A81812F04C00E94A9
:10107000041969817A810F900F900F900F900F9053
:10108000DF91CF911F910C94E208FC01262F408143
:1010900051816281738184810C941208CF93DF9314
:1010A000EC0160E00E944508BE01DF91CF910C94F5
:1010B00010080E944D1A811102C00E94FE1A0C9461
:1010C000A90780E00E94090C0C941C0B08950E9453
:1010D000BF130E9466082FEF84E39CE021508040FC
:1010E0009040E1F700C000000C94B61C0F931F93D2
:1010F000CF93DF93EC0161E00E9445088C01BE01B3
:101100000E940D08882309F442C0BE01C8010E9454
:10111000A70C8823E1F1BE01C8010E94F90C8823C5
:10112000B1F1BE01C8010E94240E882381F18A8199
:10113000882331F101308CE5180751F00F3D8CE523
:101140001807D9F001151C45D9F40E9467081FC083
:1011500080914202C82FC095C170C0FB80F9809376
:101160004202CC2329F08EE891E00E9407070FC0CD
:101170008CE791E00E9407070BC00E94FE1A07C08F
:10118000CE01DF91CF911F910F910C940908C0E01F
:101190008C2FDF91CF911F910F91089508950C949A
:1011A000CE0881E008950C94D108CF93C82F0E94F7
:1011B000CF088C2F0E94D308CF91089580E090E053
:1011C00008950895972F70E0690F711DFB01E80FD6
:1011D000F11DEE0FFF1FE658FE4F85919491089583
:1011E000880F991FFC01E156FE4F85919491089557
:1011F000CF93DF930E94E2080E94100AEC01811550
:10120000904508F041C0C11580E4D80708F0D1C06E
:10121000C83ED10510F5C03ED10508F0FDC0C83A62
:10122000D10578F4C53AD10508F0A2C0C130D10586
:1012300009F4F2C008F4EEC0C430D10508F0ECC0E7
:10124000E9C0CF3BD10508F49BC0C03CD10508F4F0
:10125000E1C0CE01805C91099EC0C11590E2D90722
:1012600058F4C11521E0D20708F0D6C0C03FD1051F
:1012700008F4D0C0D065D0C0C11580E3D80708F00D
:101280008EC0CE019F7087C0C11595E5D90708F0C3
:1012900043C0C11524E5D20708F0A2C0C11582E5FC
:1012A000D80708F5C11591E5D90708F085C0CE012A
:1012B00074E0969587957A95E1F783709C2F9370EB
:1012C00021E030E002C0220F331F9A95E2F73C681C
:1012D000382BCF70C695C69580E2C89FE0011124D7
:1012E000C22BD32B99C09E01237033278C2F869558
:1012F0008695C115D34508F064C0C1E0D0E002C0B6
:10130000CC0FDD1F2A95E2F720E2829FC001112455
:10131000C82BD92BDC6880C0C11529E5D207A0F401
:10132000C11588E5D80708F060C0C11596E5D90752
:1013300008F070C08C2F0E94A40A8F71C82FD0E0D3
:10134000DC2FCC27D06268C0C1152AE5D20708F48B
:1013500051C0CE0190568115904208F05BC08D2F90
:101360008F710E94A40ADD27D0628F71D82B54C0E0
:10137000C55AD0E0C15BDE4FC881D0E0D0644CC01C
:10138000C85AD0E0CC0FDD1FCF5DDE4F0990D88169
:10139000C02DD46441C00E94F008EC013DC0CE01D4
:1013A0009927D3FF03C0EC01D86C36C0EC01D06C98
:1013B00033C0DF70D06A30C0DC2FCC27C16FD06A59
:1013C0002BC0C1E0D0E002C0CC0FDD1F2A95E2F7B0
:1013D00020E2829FC0011124C82BD92BDA681CC0DF
:1013E000DC2FCC27C46FD06A17C0DC2FCC27C06F8E
:1013F000D06A12C08C2F8F700E94A40A94E0D695F8
:10140000C7959A95E1F7CF70D0E0DC2FCC27D06953
:10141000C82B02C0C0E0D0E0CE01DF91CF9108958B
:101420008238910569F1B0F48133910509F46DC0FA
:1014300048F48932910509F463C08A32910509F4B0
:1014400069C008958533910509F455C08933910524
:10145000B9F00895833E910569F138F4803E910515
:10146000B1F0823E910509F10895863E9105A9F1FA
:10147000873E9105B9F1843E910509F064C023C00F
:1014800020917E0220FD4FC021FD4DC00895809126
:101490007E0280FD44C080917F0280FF44C0809125
:1014A0007E0284FD42C083EE4DC080917E0282FFA9
:1014B00038C0F5CF80917E0282FD33C080917F02DB
:1014C00080FD31C0ECCF80917F0281FF32C08091DE
:1014D0007E0284FD2AC087EE35C080917E0283FFA4
:1014E00026C0F5CF80917E0283FD21C080917F02CE
:1014F00081FD1FC0ECCF80917E0285FD1CC01DC008
:1015000080917E0285FD19C016C080917E0286FD05
:1015100016C017C080917E0286FD13C010C089E3FB
:1015200011C082EE0FC080EE0DC080E00BC086EED1
:1015300009C084EE07C089E205C085E303C08AE2E2
:1015400001C081E390E0089590917E0292FF0DC06A
:10155000282F2871283019F4877F846006C0282F2F
:101560002471243011F48B7F886093FF0DC0282FE5
:101570002871283119F4877E846106C0282F2471D0
:10158000243111F48B7E886120917F0220FF0DC0F1
:10159000382F3871383019F4877F816006C0382FB2
:1015A0003171313011F48E7F886021FF0DC0282FFA
:1015B0002871283119F4877E816106C0282F217196
:1015C000213111F48E7E886194FD877E0895E82F85
:1015D000F0E0E758FD4F808108958EEA91E00E9487
:1015E00007071F921F9289EA91E09F938F930E94B1
:1015F000A00786EA91E00E940707809179020E9485
:101600003B1A1F928F9381EA91E09F938F930E94E0
:10161000A0078DB79EB708960FB6F8949EBF0FBE71
:101620008DBF8FE991E00C94070780EA8A95F1F766
:10163000089508950C94190B0C941A0B0C94190B23
:10164000F894E82FE295EF70F0E031A1282F2F7089
:1016500081E090E001C0880F2A95EAF7982F9095D5
:10166000932391A392A1892B82A37894089581E971
:101670000E94200B82E90E94200B109278021092A7
:10168000790281E00E94720B0C945908CF93DF938A
:10169000F894519A599878940E94150B89B182FB5D
:1016A000882780F9C82F80E0D82F81E0C827C17033
:1016B00081E90E94200B80917802C81721F0C09325
:1016C0007802C1E001C0C0E02C2F41E069E772E080
:1016D00088E792E00E94730B0E9461088C2FDF91D3
:1016E000CF9108950895FF920F931F93CF93DF93A7
:1016F0008C01F62ED72FC42F222349F081E080934E
:10170000C5010E94691C9093C4018093C30180911C
:10171000C5018823C1F08091C3019091C4010E944A
:10172000811C069780F0EF2DFD2FD8014C2F50E043
:10173000CD01801B910B841795071CF48D9181932B
:10174000F7CF1092C501DF91CF911F910F91FF90BC
:10175000089580E892E00C94BA286E98769A2498BE
:101760002C9A8CB186FB882780F91C9902C090E0E6
:1017700001C092E0892B8093C8010895E091C801CF
:10178000EE0FEE0FE093C8014CB146FB882780F9BD
:1017900090E043B144FB222720F930E044FF02C02F
:1017A00022E030E0822B932B8E2B8093C8018F7028
:1017B000E82FF0E0EE5AFE4F90818091C701890F2B
:1017C0008093C70182304CF08091C6018F5F809377
:1017D000C60160E080E00E94AB078091C7018F3FA7
:1017E0004CF48091C60181508093C60161E080E095
:1017F0000E94AB078091C701082E000C990B62E094
:1018000070E00E9495328093C701089508950C946A
:10181000060CCF92DF92EF92FF92C9B09C2D90956B
:101820009170692F61706093CA01C92ED12CE12C8F
:10183000F12C9091C901691302C0882359F080E00E
:101840000E94D107C701B6010E94070C8091CA010E
:101850008093C901FF90EF90DF90CF90089550984A
:10186000589A81E00C94090C0F931F93CF93DF9348
:10187000C42FD22FFC0182818823C9F04093CD016F
:101880000E94691C9093CC018093CB0180E28C0F65
:10189000883008F057C0C77081E001C0880FCA9532
:1018A000EAF7DF91CF911F910F910C942011809155
:1018B000CD01481330C08091CB019091CC010E94A2
:1018C000811C883C910538F510E21D0FCD17B9F049
:1018D00080E28C0F883040F4C77081E001C0880F2F
:1018E000CA95EAF70E942711183028F581E09D2F4C
:1018F000977001C0880F9A95EAF70E942011802FF7
:101900000E9405111830F0F4D77081E001C0880FF3
:10191000DA95EAF70AC080E28C0F883098F4C77035
:1019200081E001C0880FCA95EAF7DF91CF911F913E
:101930000F910C942711802FDF91CF911F910F9160
:101940000C940511DF91CF911F910F9108950F9382
:101950009C01CB01243F4CE5340731F188F4293D4B
:10196000FCE53F07D9F02A3D4CE5340779F1283DE5
:101970003C45A9F506E221EE41EE68ED7CE52BC081
:10198000263FFCE53F07E1F0A8F0273F3C4539F54D
:1019900007E225EE46EE67EF7CE51DC007E225EE87
:1019A00045EE69ED7CE517C006E221EE40EE64EFFE
:1019B0007CE511C007E225EE44EE65EF7CE50BC047
:1019C00006E221EE42EE66EF7CE505C008E221E08A
:1019D00045EE6AED7CE50E94340C80E008C0FC0115
:1019E0008281882319F01092CD0101C081E00F910E
:1019F0000895CF93DF93EC01FB018281882309F4E2
:101A00001FC1C230FCE5DF0708F41BC1C6319CE5ED
:101A1000D90738F09E012B5F3C452930310508F08D
:101A200010C10E946A1A90937F0280937E02C03197
:101A3000ECE5DE0709F4C3C008F041C0C8308CE50E
:101A4000D80709F49AC0F0F4C430ECE5DE0709F4D5
:101A500087C068F4C2308CE5D80709F477C0C3307A
:101A6000DC4509F0E3C080917E02826076C0C6301A
:101A7000ECE5DE0709F46EC008F07BC080917E02C1
:101A800088606BC0CC308CE5D80709F485C068F459
:101A9000CA30ECE5DE0709F474C008F079C00E9492
:101AA000BF1380917E02806858C0CE308CE5D80785
:101AB00009F476C008F07FC080917E028BC0CC3FD5
:101AC000ECE5DE0709F44FC018F5C3318CE5D80703
:101AD00009F47DC078F4C131ECE5DE0709F473C088
:101AE000C231DC4509F0A2C00E94BF1380917E0282
:101AF0008F7733C0C5318CE5D80709F472C008F47C
:101B000086C0CB3FDC4509F091C080917F023EC08A
:101B1000C115FDE5DF0709F45FC058F4CE3F9CE531
:101B2000D90709F444C008F43FC080917F02826065
:101B30002DC0C230FDE5DF0709F475C008F45DC0B3
:101B4000C330DD4509F072C080E06EC080917E0236
:101B5000816003C080917E02806180937E0266C0B6
:101B600080917E0211C080917F02826080937F020B
:101B70005DC080917E028062F0CF80917E028064A1
:101B8000ECCF80917E0288608460E7CF8160EECFE9
:101B900080917E028E7FE1CF80917E028D7FDDCFAE
:101BA00080917E02877FD9CF80917F0218C080917B
:101BB0007F028D7FDBCF80917E028F7ECECF8091A2
:101BC0007E028F7DCACF80917E028F7BC6CF8091AF
:101BD0007E02877F8B7FC1CF80917F028D7F8E7F3A
:101BE000C5CF80917E0282FB222720F991E09227C7
:101BF00090FB82F990FB83F9B0CF80917F02982F00
:101C0000909591708E7F892B90FB81F9AFCF0E94C8
:101C1000BF1380917E0287FB222720F991E0922753
:101C200090FB87F99ACF81E00E94001B80917E0291
:101C300090917F020E947B1A0E94BF1380E001C036
:101C400081E0DF91CF910895CF93DF9386319C455A
:101C500041F5EB010E948519982F8A81209100019E
:101C600030910101882379F09A7A81E009F480E0CB
:101C70008093CE01911102C069E201C065E3C90100
:101C80000E94BD1B0AC08091CE01811102C069E291
:101C900001C065E3C9010E94C81B0E94D31980E0FE
:101CA00001C081E0DF91CF9108959093D40180939A
:101CB000D3010895E091D301F091D401309721F040
:101CC0000190F081E02D099480E00895EF92FF9259
:101CD0001F93CF93DF93FC01A091D301B091D40166
:101CE000109709F442C080912001882341F080912F
:101CF0007E0287FF04C08081818385E08083EF01BD
:101D00001296ED91FC911397CE01099580914202B4
:101D100082FF2BC080FF04C085EC91E00E94070782
:101D200018E08FEBE82E81E0F82E8091420280FFD0
:101D30000BC088811F928F93FF92EF920E94A007A1
:101D40000F900F900F900F90115021961111EDCF21
:101D50008091420280FF09C08DEB91E0DF91CF912D
:101D60001F91FF90EF900C940707DF91CF911F9187
:101D7000FF90EF900895E091D301F091D401309756
:101D800039F022E0DC012C930480F581E02D0994E8
:101D900008952091D1013091D2012817390771F0AF
:101DA0009093D2018093D101E091D301F091D401BD
:101DB000309721F00680F781E02D09940895209155
:101DC000CF013091D0012817390771F09093D001DD
:101DD0008093CF01E091D301F091D401309721F0AD
:101DE0000084F185E02D0994089585B7806885BF4A
:101DF00085B7806885BF089581E008950C94FC0E36
:101E000008950C94000F0C94000F0C94030F0C9485
:101E1000000F0C94070F0C94000F0E94F50E0E9407
:101E20000B0F0C94090F0E94601C0E94370B0E943C
:101E3000FE1C0E94AD0B0E942F0C0C94050FCF933B
:101E4000C82F8091420282FF1EC080FF04C08EED29
:101E500091E00E9407078091420280FF0CC01F9210
:101E6000CF9389ED91E09F938F930E94A0070F90ED
:101E70000F900F900F908091420280FF04C087ED79
:101E800091E00E9407078C2FCF910C94D5080F93F7
:101E90001F93CF93DF93CDB7DEB72A970FB6F89491
:101EA000DEBF0FBECDBF0E94010F0E94000F0E9437
:101EB000460B0E94FE0E882331F180E00E94E70A63
:101EC000182F0091D6010827F1F08091420281FD80
:101ED0000E94ED0A00FF17C01E821F821170188732
:101EE0000E94691C8160782F9A8789874E815F8163
:101EF00068858A850E94BA0F9091D60181E0892772
:101F00008093D60110C08FEF89838A831B820E9441
:101F1000691C8160782F9D838C8349815A816B81F4
:101F20008D810E94BA0F0E94BE0B0E9459200E9410
:101F3000A90B0E945A0E9091D501891781F00E9439
:101F40005A0E8093D5012A960FB6F894DEBF0FBEC5
:101F5000CDBFDF91CF911F910F910C941F0F2A9647
:101F60000FB6F894DEBF0FBECDBFDF91CF911F91AA
:101F70000F910895CF93DF93CDB7DEB72B970FB6B0
:101F8000F894DEBF0FBECDBF4F83588769877A872D
:101F90008B87DE01119686E0FD0111928A95E9F7A3
:101FA00085E0FE01379601900D928A95E1F749810F
:101FB0005A816B817C818D819E810E9478162B963F
:101FC0000FB6F894DEBF0FBECDBFDF91CF9108955D
:101FD000FC01808191810E9446190895CF93882346
:101FE00009F4A9C0C82F8238C1F40E945A0E81FD9D
:101FF000A2C069E380910001909101010E94BD1B84
:102000000E94D3192FEF81EE94E021508040904040
:10201000E1F700C0000069E319C0833801F50E94B0
:102020005A0E80FD88C063E5809100019091010106
:102030000E94BD1B0E94D3192FEF81EE94E0215026
:1020400080409040E1F700C0000063E5809100010E
:10205000909101010E94C81BCF910C94D319843830
:10206000C1F40E945A0E82FD66C067E480910001AF
:10207000909101010E94BD1B0E94D3192FEF81EEA8
:1020800094E0215080409040E1F700C0000067E4F8
:10209000DDCF8CEF8C0F813AF8F48C2F0E9448250D
:1020A000811149C06C2F80910001909101010E9423
:1020B0001B1B882349F06C2F809100019091010136
:1020C0000E94C81B0E94D3196C2F8091000190912F
:1020D00001010E94BD1BC0CF80E28C0F883048F404
:1020E000C77081E001C0880FCA95EAF70E9488197D
:1020F000B3CFEBE5EC0FE33040F4F0E0E057FE4FF8
:10210000808190E0CF910C94C90EE8E5EC0FE731A7
:1021100050F4F0E0EE0FFF1FEE59FE4F80819181E9
:10212000CF910C94DF0EC03F30F08C2F0E94CC1E5C
:10213000CF910C94B91FCF910895882309F464C0FE
:10214000823879F40E945A0E81FF5EC069E3809163
:102150000001909101010E94BD1B0E94D31969E307
:1021600010C08338B1F40E945A0E80FF4DC063E561
:1021700080910001909101010E94BD1B0E94D31922
:1021800063E580910001909101010E94C81B0C94AD
:10219000D319843879F40E945A0E82FF35C067E45F
:1021A00080910001909101010E94BD1B0E94D319F2
:1021B00067E4E7CF9CEF980F913A10F4682FE1CFD6
:1021C00090E2980F983050F4877091E001C0990F19
:1021D0008A95EAF7892F0E948E19D9CF9BE5980F2F
:1021E000933020F480E090E00C94C90E98E5980FAD
:1021F000973120F480E090E00C94DF0E803F20F0D7
:102200000E94341F0C94B91F0895CF93C82F0E94C9
:10221000EE0FC93341F42FEF87EE93E02150804059
:102220009040E1F707C02FEF89EF90E02150804008
:102230009040E1F700C000008C2FCF910C949D10CE
:10224000882321F00E9488190C94D31908958823BB
:1022500021F00E948E190C94D3190895CF92DF9229
:10226000EF92FF920F931F93CF93DF937C01062F82
:10227000C72FFC01158112951F70D281D1110E94C8
:10228000A5190E947E19882399F0DD2389F08C2FEF
:10229000807F803421F080E2800F883048F082E037
:1022A0000E941D1A0E947E1991E0D82ED92601C0E5
:1022B000D12CCC2EC2948FE0C8228C2D90E0FC0152
:1022C000EA5AFF4F0C94A9328C2F807FCF7088235D
:1022D00011F0C295C07FDD2399F0CC2309F494C19D
:1022E00080E2800F883010F0011104C08C2F0E9412
:1022F000881903C08C2F0E9498190E94D31984C199
:10230000802F0E949D10CC2309F4ABC180E2800F86
:10231000883010F0011104C08C2F0E948E1903C068
:102320008C2F0E949E190E94D3199BC18C2F807FF5
:10233000CF70803211F0C295C07F002319F00130B8
:10234000C9F022C0DD2371F0112341F0113031F4C6
:102350000E94B8198C2B0E94C01983C10E94B81921
:102360008C2B1DC0112319F0113009F47AC10E9481
:10237000C9192CC0DD2321F0163008F072C10EC03F
:10238000153008F06EC122C0DD2361F0112331F059
:10239000F701858180FF38C18F7085838C2F0E9463
:1023A00020115FC1112391F0093341F4FFEF27EEB3
:1023B00083E0F15020408040E1F73DC19FEFE9EF1D
:1023C000F0E09150E040F040E1F735C18C2F0E94E1
:1023D000271147C18C2F86958695837019F081301F
:1023E00061F03FC1DD2321F0802F9C2F937002C04C
:1023F00080E090E00E94C90E3CC1DD2321F0802FD7
:102400009C2F937002C080E090E00E94DF0E31C1EB
:10241000802FDD2319F00E94CC1E02C00E94341FC1
:102420000E94B91F26C18C2F837009F045C0D111BD
:102430001CC1402F429546954770440F440F602FB2
:102440006F70862F90E0A0E0B0E0042E04C0880FEB
:10245000991FAA1FBB1F0A94D2F704FF10C00FE0F8
:1024600010E020E030E004C0000F111F221F331FD6
:102470004A95D2F7009510952095309503C000E05D
:1024800010E09801C695C695C370BC01CD01602BC4
:10249000712B822B932BC23049F058F4C13019F0C4
:1024A0000E94C917E2C00E94B717DFC00E94DB1765
:1024B000DCC00E94B517D9C0DD2319F08C2F8170C4
:1024C00001C08695882309F4D0C0402F42954695D7
:1024D0004770440F440F602F6F70862F90E0A0E08C
:1024E000B0E0042E04C0880F991FAA1FBB1F0A94D6
:1024F000D2F704FF10C00FE010E020E030E004C08D
:10250000000F111F221F331F4A95D2F70095109517
:102510002095309503C000E010E09801C695C6955F
:10252000C370BC01CD01602B712B822B932BC23069
:1025300049F058F4C13019F00E948E1896C00E94DC
:102540007C1893C00E94A01890C00E94EF178DC005
:10255000CF70DD2339F08C2F0E941518802F0E9438
:10256000201183C0802F0E9427118C2F0E943618C3
:102570007CC0023F01F128F4003F41F0013FA1F08F
:102580003FC0033FF9F0043F39F13AC0DD2341F089
:10259000153008F066C08C2F8F710E945B1861C0E7
:1025A000163008F05EC0F7CFDD2339F08C2F8F7125
:1025B0000E94151856C0DD23C9F38C2F8F710E941D
:1025C00036184FC0DD2329F08C2F8F710E94001820
:1025D00048C00E94FB1745C0DD2349F0CF718C2F06
:1025E0000E94151863E08C2F0E94081A3AC081E0FF
:1025F0000E941D1A1230A8F182E00E941D1A31C0FB
:10260000DD2331F0112391F2802F0E94EE0F29C0BB
:10261000112399F2093341F42FEF87EE93E0215013
:1026200080409040E1F707C0EFEFF9EF20E0E15084
:10263000F0402040E1F700C00000802F0E949D1074
:1026400010C04C2F4F70602FC7010E94DE080E94FF
:1026500026170FC04C2F4F70602FC7010E94E10852
:1026600008C088EF8C0D843020F40E945A0E0E941E
:10267000D508DD20C9F00E947A1980FD15C0F70148
:1026800012820E9474190E941518C7010E947513C6
:102690000E947419DF91CF911F910F91FF90EF90DD
:1026A000DF90CF900C943618DF91CF911F910F914E
:1026B000FF90EF90DF90CF9008950F931F93CF93EB
:1026C000DF93EC01688179818A810E9451198C0124
:1026D0000E94B2180E94A317B801CE010E942E11C9
:1026E000DF91CF911F910F910895CF93DF93EC016C
:1026F000988189812B813C81232B31F08F3F31F4EC
:1027000081E09F3F19F403C081E001C080E080FDBB
:1027100019C0CE010E94760881110CC00E947E195A
:10272000882381F08A81882369F082E0DF91CF914C
:102730000C941D1ACE010E945D13CE01DF91CF9142
:102740000C944E08DF91CF9108950E94A5190E9424
:10275000B5190E94D3190E946C210E94B91F80E014
:1027600090E00E94C90E80E090E00C94DF0E809112
:102770000001909101010E94D31B0C94A5130E94AB
:1027800095190C94B713E92FE295EF704E2F50E096
:10279000FA013297EE30F105B0F4EA59FF4F0C948C
:1027A000A932803F91F018F4883E68F40EC0843F4F
:1027B00051F40BC0883E48F0813F29F406C093FBDA
:1027C000882780F9089580E0089581E008950E94A7
:1027D00046190E94C3130895CF93DF9300D000D011
:1027E0001F92CDB7DEB70F900F900F900F900F9004
:1027F000DF91CF910895CF93DF9300D000D000D028
:10280000CDB7DEB726960FB6F894DEBF0FBECDBFAC
:10281000DF91CF9108951F93CF93DF93C091D8019B
:1028200016E08091D901C81799F0D0E01C9FF00103
:102830001D9FF00D1124E652FE4F408151816281AF
:102840007381848195810E94FB132196C770E9CF23
:10285000DF91CF911F91089540910A0250910B0290
:1028600060910C0270910D0280910E0290910F0206
:102870000C94FB130F931F93CF93DF9380910F0260
:1028800082958F7009F05DC080910C02882309F455
:1028900058C08091D8011091D90160910A027091BD
:1028A0000B02C0910D02D0910E0291E06F3F09F032
:1028B00090E0292F06E0811709F443C0209721F00A
:1028C0007F3F21F030E003C031E001C0322F90E0C3
:1028D00030FD34C0089FF001099FF00D1124DF0185
:1028E000A652BE4F11963C911197371327C03C91C9
:1028F000361324C012963C91129731111FC01396C3
:102900004D915C9114974C1B5D0B483C5105B0F404
:1029100080910F028F70806180930F02E152FE4F11
:1029200080818F70806180838AE092E00E947513BD
:10293000DF91CF911F910F910C940B14019687702A
:10294000BACFDF91CF911F910F9108959F92AF92CF
:10295000BF92CF92DF92EF92FF920F931F93CF938C
:10296000DF93CDB7DEB761970FB6F894DEBF0FBE29
:10297000CDBF8C0185E0F801DE011D9601900D921E
:102980008A95E1F7F80140815181E28090910A0235
:1029900060910B0220910D0230910E02211531053C
:1029A00031F06F3F31F481E09F3F19F403C081E0C3
:1029B00001C080E0F82FF1709F2E80FD46C1F80124
:1029C000A380B4808AE0C82E82E0D82EF0900C025A
:1029D000F501E21BF30BFF2009F4DFC080910F0229
:1029E000E83CF10508F09BC0282F207F09F052C079
:1029F000561313C0491311C0FE2CE1100EC08F7086
:102A0000806180930F020E942C14C6010E947513EE
:102A100080910F02F801858358C1AB2831F05F3FE8
:102A200031F481E04F3F19F403C081E001C080E040
:102A300080FD03C081E08E2502C080E090E0F82F89
:102A4000F170FF2E80FF1CC08091D8012091D90128
:102A500036E0821709F417C190E0389FF001399FE2
:102A6000F00D1124E652FE4F6181561306C06081BD
:102A7000461303C06281E61203C001968770E9CF56
:102A8000FE2CEE2009F421C180910F028160809319
:102A90000F025AC0561306C0491304C0E11002C009
:102AA000F8019FC04D875E878D859E850E94E71344
:102AB000882379F1EE2069F120910F02822F82950F
:102AC0008F7090E0029774F080910A0290910B024F
:102AD00098878F831986BB86AA862C87CE01079696
:102AE0000E94751386E0F801AAE0B2E001900D9211
:102AF0008A95E1F70E943A140E942C140DC05617D3
:102B000029F14D875E878D859E850E94E71381118F
:102B10002CC0C8010E947513FF24F394D6C0282F3F
:102B2000207F69F77A2DB98AA88A6E2D89890E943B
:102B3000EC138AE092E00E94751386E0F601119290
:102B40008A95E9F70E942C14F12CBFC04913D9CF04
:102B5000E110D7CFF8018583C8010E94751386E084
:102B6000F60111928A95E9F7B0C0EE2091F220911A
:102B70000F02822F82958F7090E002970CF4B2CFF3
:102B800080910A0290910B029A8389831B82BD82F5
:102B9000AC822E83CE010196A3CFE83CF10508F06C
:102BA00047C0FE2CEE2009F4B4CF561330C04913B1
:102BB0002EC020910F0220FD21C0822F82958F70A0
:102BC000482F50E041155105C9F0F80125834F30D9
:102BD000510541F08F5F982F9295907F822F8F70D3
:102BE000892B8583C8010E94751386E0F801AAE04D
:102BF000B2E001900D928A95E1F742C086E0F801BB
:102C0000AAE0B2E001900D928A95E1F75EC04D878F
:102C10005E878D859E850E94E713811163CF809129
:102C20000F02816080930F02C8010E9475134DC08E
:102C30007A2DB98AA88A6E2D89890E94EC1386E0C4
:102C4000F60111928A95E9F71BC0EE2009F461CFD5
:102C50004D875E878D859E850E94E713F82E882319
:102C600009F457CF86E0F801AAE0B2E001900D9296
:102C70008A95E1F78AE092E00E94E80F0E943A14F8
:102C80000E942C1422C04D875E878D859E850E94F0
:102C90004619292F22952F70223028F49F7039F081
:102CA000811105C00BC0243028F49F7049F4805E68
:102CB000883020F0C8010E9475139F2CF92C05C0A4
:102CC000F8019581907F99F7F9CF8F2D61960FB616
:102CD000F894DEBF0FBECDBFDF91CF911F910F9152
:102CE000FF90EF90DF90CF90BF90AF909F900895AE
:102CF0001F93CF93DF93CDB7DEB72C970FB6F89421
:102D0000DEBF0FBECDBF4F83588769877A878B8719
:102D10009C87CE0107960E94A6148823D1F09F813C
:102D200088852A853B85232B31F08F3F31F481E064
:102D30009F3F19F403C081E001C080E080FD47C0DF
:102D40004F81588569857A858B859C850E94FB1308
:102D50003EC086E0FE013796DE01119601900D928D
:102D60008A95E1F7FF81E8856A857B8561157105A4
:102D700031F0EF3F31F481E0FF3F19F403C081E00F
:102D800001C080E080FD23C02091D90130E0C9015D
:102D90000196877099274091D80150E084179507D4
:102DA000F1F1F983EA837D836C8396E0929FD001F1
:102DB000939FB00D1124A652BE4FFE013196019093
:102DC0000D929A95E1F78093D9010E940B1416E0B9
:102DD0008091D8019091D901891771F1189FC00194
:102DE000112486529E4F0E94A614882329F1E09157
:102DF000D8011E9FF0011124E652FE4F40815181FF
:102E000062817381848195810E94FB138091D80136
:102E100090E00196877099278093D801D9CF0E94BE
:102E2000BF131092D9011092D801EAE0F2E086E0D7
:102E3000DF011D928A95E9F72C960FB6F894DEBF54
:102E40000FBECDBFDF91CF911F910895EF92FF92FA
:102E50000F931F93CF93DF938C01892B09F46CC0E0
:102E6000F12CEE24E394E8012196F8018491843753
:102E700040F4843008F051C0813081F0823019F183
:102E80005BC0853709F444C0A8F19CE7980F9037E0
:102E900008F052C08F770E949D1041C00E5F1F4FF7
:102EA000FE01849190E2980F983050F48770FE2DC7
:102EB00001C0FF0F8A95EAF78F2F0E94A81914C04E
:102EC0000E94EE0F2DC00E5F1F4FFE01849190E215
:102ED000980F983060F48770FE2D01C0FF0F8A951F
:102EE000EAF78F2F0E94AE190E94D31919C00E94D1
:102EF0009D1016C00E5F1F4FFE01C491CC2381F0C0
:102F00008FE99FE00197F1F700C00000C150F6CFB4
:102F10000E5F1F4FFE01F49003C00E94EE0F8E0162
:102F20008F2D882309F49FCFEFE9FFE03197F1F768
:102F300000C000008150F5CFDF91CF911F910F911C
:102F4000FF90EF900895089508950C94A4170C94A1
:102F5000A5170E94A7176093190270931A02809315
:102F60001B0290931C020C94A5130C94A9170F93A9
:102F70001F930091190210911A0220911B023091A7
:102F80001C02602B712B822B932B1F910F910C94A1
:102F9000A9170F931F930091190210911A02209103
:102FA0001B0230911C0260237123822393231F9103
:102FB0000F910C94A9170F931F9300911902109170
:102FC0001A0220911B0230911C0260277127822770
:102FD00093271F910F910C94A9170C94A4170E948A
:102FE000ED17609315027093160280931702909369
:102FF00018020C94A51360E070E0CB010C94EF175D
:103000000F931F9341E050E060E070E08A019B0164
:1030100004C0000F111F221F331F8A95D2F7C90168
:10302000B8011F910F910C94EF170F931F9341E07C
:1030300050E060E070E004C0440F551F661F771F2A
:103040008A95D2F78091150290911602A0911702ED
:10305000B09118028A019B01082B192B2A2B3B2BBC
:10306000C901B8011F910F910C94EF170F931F9393
:1030700041E050E060E070E004C0440F551F661F5F
:10308000771F8A95D2F740955095609570958091FD
:10309000150290911602A0911702B09118028A01B0
:1030A0009B01082319232A233B23C901B8011F913F
:1030B0000F910C94EF170F931F9341E050E060E0E5
:1030C00070E004C0440F551F661F771F8A95D2F722
:1030D0008091150290911602A0911702B0911802EA
:1030E0008A019B01082719272A273B27C901B80114
:1030F0001F910F910C94EF170F931F9300911502DE
:10310000109116022091170230911802602B712B3A
:10311000822B932B1F910F910C94EF170F931F93FA
:103120000091150210911602209117023091180299
:1031300060237123822393231F910F910C94EF1727
:103140000F931F9300911502109116022091170200
:103150003091180260277127822793271F910F91C2
:103160000C94EF170895890FE82FE695E695E695FC
:10317000877051E001C0550F8A95EAF785E0E89F16
:10318000F0011124E05FFD4F20E030E070E040816D
:10319000CB01022E02C0969587950A94E2F78170C2
:1031A000819584278523842781932F5F3F4F253086
:1031B000310569F70895890F682F669566956695BC
:1031C000982F977085E0689FB001112440E050E08F
:1031D00080E0FB01E40FF51FE05FFD4F208130E050
:1031E000092E02C0369527950A94E2F721703327FD
:1031F000042E01C0220F0A94EAF7822B4F5F5F4F23
:103200004530510531F70895BF92CF92DF92EF928A
:10321000FF920F931F93CF93DF938C01C090150201
:10322000D0901602E0901702F090180280911902D7
:1032300090911A02A0911B02B0911C02C82AD92AAF
:10324000EA2AFB2ACFE1D0E0D701C6010C2E04C048
:10325000B695A795979587950A94D2F780FD04C0F7
:10326000219790F7B12C07C0BC2EB8018C2F0E947B
:10327000F8080197A9F38B2DDF91CF911F910F9142
:10328000FF90EF90DF90CF90BF900895CF93DF93A2
:10329000EC010E940419BE010E94F808DF91CF9151
:1032A00008951F93CF93DF93EB019091D70199235A
:1032B00021F0CB010E94461913C0882349F0CB01AD
:1032C0000E940419182F682FCE010E94B31804C061
:1032D000CB010E94DB18182FBE01812F0E94F80835
:1032E000DF91CF911F91089580911D02859585955D
:1032F0008595089580911D028770089590911D0213
:10330000977081E009F480E008958091410208956A
:1033100090914102892B809341020895809590916C
:103320004102892380934102089510924102089539
:1033300090914002892B809340020895809590914E
:10334000400289238093400208951092400208951C
:1033500090913F02892B80933F0208958095909130
:103360003F02892380933F02089510923F020895FF
:1033700080911E02089508950C94BB190C94BC19F9
:1033800090911E02981721F080931E020C94BE1992
:10339000089580911E02882329F010921E0280E079
:1033A0000C94BE190895E0910001F0910101809103
:1033B00041028083E0910001F091010190818091B0
:1033C0004002892B8083E0910001F09101019081FE
:1033D00080913F02892B808380911E02882381F097
:1033E000E0910001F09101019081892B808380910F
:1033F0000001909101010E94051B81110E94C919D1
:1034000080910001909101010C94660E0C94BB19FF
:1034100098E0899F90011124262B20931D020E9481
:10342000151880911D028595859585950C94061A31
:1034300010921D0280E00C94061A20911D028095C6
:10344000822380931D02982F977079F430E0482FE3
:10345000082E000C550B2417350739F085958595F6
:1034600085950E9436180C94181A08959093BD0102
:103470008093BC0108958295982F937344E0949FA4
:10348000900111248C7C86958695282B822F85753A
:10349000880F2A7A2695822B089580E090E00E947A
:1034A000B73221E08C3E9E4F09F020E0822F089534
:1034B00082E090E00C94AF32682F82E090E00C94B0
:1034C000BD3283E090E00C94AF32682F83E090E04F
:1034D0000C94BD32CF9384E090E00E94AF32C82FAD
:1034E00081E290E00E94AF322C2F30E0A901582BEE
:1034F000CA01CF910895CF93C92F682F84E090E03F
:103500000E94BD326C2F81E290E0CF910C94BD32CD
:10351000AB01BC018FE090E00C94CF32AB01BC0159
:1035200083E190E00C94CF3260E070E0CB010C942A
:103530008E1A60E070E0CB010E94881A0C94941AF5
:103540006CEE7EEF80E090E00E94DB3260E082E093
:1035500090E00E94BD3260E083E090E00E94BD32C6
:103560001092190210921A0210921B0210921C0261
:1035700060E084E090E00E94BD3260E081E290E093
:103580000E94BD3260E085E090E00E94BD3260E0C4
:1035900086E090E00E94BD326FEF87E090E00E94ED
:1035A000BD3240E050E0BA0188E090E00E94CF32A6
:1035B00060E08DE090E00E94BD3240E050E0BA0152
:1035C00088E190E00E94CF3260E087E190E00E94C5
:1035D000BD3240E050E0BA018CE190E00E94CF3271
:1035E00060E080E290E00E94BD3240E050E0BA012D
:1035F00088E190E00E94CF320C94991A0C94A01AA2
:10360000682F8EE090E00C94BD32FC0132968091E0
:103610002001882331F080917E0287FF02C09EE165
:1036200001C096E080E0915028F021912223D9F347
:103630008F5FF9CF0895662351F120912001222355
:10364000E9F020917E0227FF19C0462F4695469546
:1036500046954E31E0F4677021E030E002C0220F61
:10366000331F6A95E2F7FC01E40FF11D828190E0BF
:103670002823392381E0232B69F409C0FC01329609
:1036800008962191621729F0E817F907D1F780E031
:10369000089581E008959C01FC0132969FEF80E03F
:1036A0004191461789F09F3F19F4411101C0982FAD
:1036B0008F5F8630A9F79F3F39F0F901E90FF11DBF
:1036C00097FDFA956283089508959C012A5F3F4F04
:1036D000FC014281461301C01282019682179307B2
:1036E000B9F70895262F2695269526952E3170F444
:1036F000FC01E20FF11D677021E030E001C0220FF4
:103700006A95EAF78281282B2283089580914202EC
:1037100080FF0CC01F926F938FE092E09F938F9376
:103720000E94A0070F900F900F900F900895262FE2
:103730002695269526952E3178F4FC01E20FF11D91
:10374000677021E030E001C0220F6A95EAF720950A
:1037500082812823228308958091420280FF0CC039
:103760001F926F9381EF91E09F938F930E94A00728
:103770000F900F900F900F90089520912001222319
:1037800029F020917E0227FD0C94721B0C944B1B98
:1037900020912001222329F020917E0227FD0C9404
:1037A000971B0C94651B20912001FC01329622236B
:1037B00031F080917E0287FF02C08EE101C086E079
:1037C000DF011D928A95E9F7089508950C94E51B91
:1037D0000C94E51B0E94E81B0E94460B0E94E61B0E
:1037E00080E00E94E70A91E0811101C090E0892FFA
:1037F00008950C94E51B0C94F91B0E94FB1B80910F
:103800007103843049F11092430220E488E190E092
:103810000FB6F894A895809360000FBE20936000C7
:1038200080E00E94D5080E94FB1B83B7817F8460E3
:1038300083BF83B7816083BF7894889583B78E7F79
:1038400083BF0FB6F894A89580916000886180933B
:103850006000109260000FBE08950C94E51B0E945A
:10386000BF130E945A0E0E94D5080C942D1C1F9263
:103870000F920FB60F9211248F939F93AF93BF9324
:1038800080914302811113C080917A0290917B0252
:10389000A0917C02B0917D024196A11DB11D809343
:1038A0007A0290937B02A0937C02B0937D02BF9139
:1038B000AF919F918F910F900FBE0F901F90189511
:1038C00082E084BD93E095BD9AEF97BD80936E0032
:1038D00008952FB7F89480917A0290917B02A0917D
:1038E0007C02B0917D022FBF08952FB7F8946091AC
:1038F0007A0270917B0280917C0290917D022FBFB1
:1039000008959C014FB7F89480917A0290917B02C0
:10391000A0917C02B0917D024FBF821B930B089552
:1039200078941F920F920FB60F9211248F939F934A
:10393000AF93BF9380917A0290917B02A0917C0219
:10394000B0917D020196A11DB11D80937A029093E2
:103950007B02A0937C02B0937D02BF91AF919F91B7
:103960008F910F900FBE0F901F90189581E080935C
:10397000E00080E28093D8001092C9008FE19EE4BD
:103980000197F1F700C0000087E090EBDC01809325
:103990007A0390937B03A0937C03B0937D039CE018
:1039A00088E10FB6F894A895809360000FBE9093BD
:1039B0006000FFCFCF93C82F80E00E94E70A80FD10
:1039C00002C080E00BC060E070E080E00E94E2088E
:1039D0002C2F30E028173907A1F781E0CF91089507
:1039E000CF93C82F8CE20E94DA1C882321F08C2F01
:1039F000CF910C94DA1C80E0CF910895CF930E9470
:103A00004D1A811102C00E94FE1A84E392E00E94C6
:103A10000707C5E6C15049F00E94460B8FE39CE9B9
:103A20000197F1F700C00000F5CF8DE292E00E940F
:103A3000070789E20E94F01C81112AC18AE20E94D4
:103A4000F01C81110E94FE1A85E00E94F01C811179
:103A50000E94B61C0E94581A8093420287E00E947E
:103A6000F01C8823A9F18BE10E94F01C882351F0FF
:103A70008091420281FB222720F991E0922790FB5E
:103A800081F90EC08EE00E94F01C882361F08091C5
:103A9000420282FB222720F991E0922790FB82F9D3
:103AA0008093420215C080E10E94F01C9091420276
:103AB000882341F093FB222720F981E0822780FBB5
:103AC00093F904C0892F809580FB90F9909342026E
:103AD000809142020E945C1A0E946A1A90937F02AF
:103AE00080937E0280EE0E94F01C882341F080913A
:103AF0007E02982F909590FB80F980937E0289E357
:103B00000E94F01C882359F080917E0281FB2227BD
:103B100020F991E0922790FB81F980937E0282EE5A
:103B20000E94F01C882359F080917E0282FB22279C
:103B300020F991E0922790FB82F980937E0286EE35
:103B40000E94F01C882359F080917E0283FB22277B
:103B500020F991E0922790FB83F980937E0283EE17
:103B60000E94F01C882359F080917E0284FB22275A
:103B700020F991E0922790FB84F980937E0285E3FF
:103B80000E94F01C882359F080917E0285FB222739
:103B900020F991E0922790FB85F980937E0281E3E2
:103BA0000E94F01C882359F080917E0286FB222718
:103BB00020F991E0922790FB86F980937E0281E1C3
:103BC0000E94F01C882359F080917E0287FB2227F7
:103BD00020F991E0922790FB87F980937E028091F3
:103BE0007E0290917F020E947B1A87E20E94F01C65
:103BF000C82F8EE10E94F01C8111C2608FE10E94EB
:103C0000F01C8111C46080E20E94F01C8111C86028
:103C100081E20E94F01C8111C06182E20E94F01CCE
:103C20008111C06283E20E94F01C8111C06484E2B1
:103C30000E94F01C882311F0C06802C0CC2329F038
:103C40008C2F0E94651A6C2F03C00E94611A682F86
:103C500070E080E090E00E94B517609115027091CD
:103C6000160280911702909118020E94ED178FE0C2
:103C70000E94F01C882319F081E00E94001B85E15E
:103C80000E94F01C882321F080E0CF910C94001B4F
:103C9000CF91089580914A0280FF0BC06091070187
:103CA00085E0689FB00111247595679575956795B6
:103CB0002BC081FF09C06091070185E0689FB001BA
:103CC00011247595679520C082FF07C06091070198
:103CD00085E0689FB001112417C090914902992393
:103CE000D1F060910601961788F72091070185E0D1
:103CF000289F90011124929FA001939F500D1124A1
:103D000070E0CA010E9495326038710540F4611577
:103D1000710519F406C065E070E0862F08958FE7FD
:103D2000089581E0089580914A0280FF08C0609163
:103D3000030170E0759567957595679521C081FFC2
:103D400006C06091030170E07595679519C082FF08
:103D500004C06091030170E010C090914802992363
:103D600099F0609102019617A0F780910301899F55
:103D7000C001112470E00E9495326038710540F452
:103D80006115710519F406C061E070E0862F089591
:103D90008FE7089581E00895803F21F40E944A1E34
:103DA000819504C0813F29F40E944A1E80934E02EF
:103DB0000895823F21F40E944A1E819504C0833FEA
:103DC00029F40E944A1E80934D020895893F19F4F8
:103DD0000E94931E05C08A3F31F40E94931E819574
:103DE00080934F0208958B3F21F40E94931E81958A
:103DF00004C08C3F29F40E94931E809350020895C2
:103E0000843F21F480914C02816017C0853F21F4EA
:103E100080914C02826011C0863F21F480914C0257
:103E200084600BC0873F21F480914C02886005C0FC
:103E3000883F31F480914C02806180934C02089558
:103E40008D3F21F480914A0281600BC08E3F21F4A6
:103E500080914A02826005C08F3F29F480914A0216
:103E6000846080934A020895803F39F480914E0225
:103E700087FF6AC010924E0267C0813F29F480918B
:103E80004E021816BCF360C090914D02823F29F497
:103E900097FF5AC010924D0257C0833F19F419166C
:103EA000CCF352C090914F02893F31F419160CF0B7
:103EB0004BC010924F0248C08A3F19F497FF44C08C
:103EC000F8CF8B3F39F48091500287FF3DC01092AC
:103ED00050023AC08C3F29F4809150021816BCF36E
:103EE00033C0843F21F480914C028E7F17C0853F00
:103EF00021F480914C028D7F11C0863F21F4809186
:103F00004C028B7F0BC0873F21F480914C02877F4E
:103F100005C0883F31F480914C028F7E80934C0223
:103F200013C08D3F21F480914A028E7F0BC08E3FDB
:103F300021F480914A028D7F05C08F3F29F4809142
:103F40004A028B7F80934A0280914D02811106C004
:103F500080914E02811102C01092490280914F025D
:103F6000811106C080915002811102C01092480256
:103F700008958091420283FF7EC080E792E00E9414
:103F8000070780914C021F928F938BE692E09F93DC
:103F90008F930E94A00789E692E00E940707809114
:103FA0004D02282F082E000C330B3F938F9386E68B
:103FB00092E09F938F930E94A00784E692E00E9474
:103FC000070780914E02282F082E000C330B3F93D9
:103FD0008F9381E692E09F938F930E94A0078FE5D5
:103FE00092E00E94070780914F02282F082E000CB4
:103FF000330B3F938F938CE592E09F938F930E94B6
:10400000A0078AE592E00E94070780915002282FBE
:10401000082E000C330B3F938F9387E592E09F931C
:104020008F930E94A00784E592E00E940707809189
:1040300049021F928F9381E592E09F938F930E9494
:10404000A0078FE492E00E94070780914A021F9226
:104050008F938CE492E09F938F930E94A00789E452
:1040600092E00E9407078DB79EB74C960FB6F89462
:104070009EBF0FBE8DBF0E94691C20914D02211171
:1040800004C020914E02222321F090934702809396
:10409000460220914F02211104C020915002222398
:1040A00021F090934502809344028BE492E00C94BB
:1040B000BB0EEF92FF920F931F93CF93DF9300D02D
:1040C00000D000D0CDB7DEB786E0EBE4F2E0DE0151
:1040D000119601900D928A95E1F7E0904D02F090D3
:1040E0004E0200914F021091500210924D02109218
:1040F0004E0210924F0210925002E11003C0FF20B6
:1041000009F45DC080914602909147020E94811C93
:10411000AC0190914902992339F02091080130E0D7
:104120002417350758F04BC0209109018AE0289FD9
:10413000900111242417350718F041C09F3F19F052
:104140009F5F90934902EE2061F00E944A1E1E1468
:1041500014F09FEF01C091E0989F902D112490934F
:104160004D02FF2061F00E944A1E1F1414F09FEFC1
:1041700001C091E0989F902D112490934E023091B0
:104180004D023323E1F020914E022223C1F045EB92
:104190003403C0011124992319F090934D0203C0F8
:1041A00081E080934D0235EB2303C0011124992354
:1041B00019F090934E0203C081E080934E020111EA
:1041C00003C0112309F45DC080914402909145021F
:1041D0000E94811CAC0190914802992339F02091F2
:1041E000040130E02417350758F04BC02091050139
:1041F0008AE0289F900111242417350718F041C048
:104200009F3F19F09F5F90934802002361F00E9446
:10421000931E101614F09FEF01C091E0989F902D0F
:10422000112490934F02112361F00E94931E1116E6
:1042300014F09FEF01C091E0989F902D112490936E
:10424000500230914F023323E1F02091500222239B
:10425000C1F045EB3403C0011124992319F0909368
:104260004F0203C081E080934F0235EB2303C0016E
:104270001124992319F09093500203C081E0809398
:10428000500280914D0281110BC080914E0281112C
:1042900007C080914F02811103C0809150028111AB
:1042A0000E94B91FEB82FC820D831E8386E0FE0113
:1042B0003196ABE4B2E001900D928A95E1F7269633
:1042C0000FB6F894DEBF0FBECDBFDF91CF911F9127
:1042D0000F91FF90EF900895EBE4F2E086E0DF01AC
:1042E0001D928A95E9F710924902109248021092A5
:1042F0004A02089583E994E00E9407071F9281E033
:104300008F931F9285E08F9385E494E09F938F9322
:104310000E94A0070F900F900F900F900F900F909A
:1043200008958330E9F128F4813061F0823009F199
:104330000895853009F462C008F449C0863009F454
:1043400074C0089580910901262F30E0280F311D97
:104350002F3F310524F4680F6093090103C08FEFEC
:1043600080930901809109011F928F938EE793E05A
:1043700072C080910801262F30E0280F311D2F3F99
:10438000310524F4680F6093080103C08FEF809318
:104390000801809108011F928F938CE693E05BC027
:1043A00080910701262F30E0280F311D2F3F310566
:1043B00024F4680F6093070103C08FEF8093070117
:1043C000809107011F928F9389E593E044C080910B
:1043D0000601262F30E0280F311D2F3F310524F430
:1043E000680F6093060103C08FEF809306018091F0
:1043F00006011F928F9384E493E02DC08091030106
:10440000262F30E0280F311D2F3F310524F4680F8F
:104410006093030103C08FEF809303018091030138
:104420001F928F938BE293E016C080910201262F9A
:1044300030E0280F311D2F3F310524F4680F6093C1
:10444000020103C08FEF80930201809102011F924D
:104450008F9380E193E09F938F930E94A0070F902A
:104460000F900F900F900895833081F128F48130E0
:1044700059F08230D1F00895853009F449C0B8F17F
:10448000863009F456C0089580910901681720F418
:10449000861B8093090102C01092090180910901D5
:1044A0001F928F9381E093E054C0809108016817B8
:1044B00020F4861B8093080102C0109208018091AD
:1044C00008011F928F938FEE92E043C08091070105
:1044D000681720F4861B8093070102C01092070121
:1044E000809107011F928F938CED92E032C08091F2
:1044F0000601681720F4861B8093060102C0109203
:104500000601809106011F928F9387EC92E021C0F3
:1045100080910301681720F4861B8093030102C079
:1045200010920301809103011F928F938EEA92E013
:1045300010C080910201681720F4861B809302014D
:1045400002C010920201809102011F928F9383E9B1
:1045500092E09F938F930E94A0070F900F900F906F
:104560000F900895CF93C82F1F928F9388E995E0FD
:104570009F938F930E94A00781E090E0A0E0B0E0BD
:10458000BC01CD0104C0660F771F881F991FCA9513
:10459000D2F70E94B5170F900F900F900F90CF9108
:1045A0000C94BF13CF93DF93482F50E0FA01359757
:1045B000EF33F10508F054C2EC58FF4F0C94A932C8
:1045C00089EF9AE00E94070785E39AE00E940707B7
:1045D0000E94611A1F928F9382E39AE09F938F93B8
:1045E0000E94A00780E39AE00E9407070E94581AE1
:1045F000C82F8DE19AE00E9407071F92CF9388E1B0
:104600009AE09F938F930E94A00786E19AE00E9410
:1046100007078CE09AE00E9407078C2F81701F9299
:104620008F9389E09AE09F938F930E94A00787E081
:104630009AE00E9407078DEF99E00E940707C1FBEF
:10464000882780F91F928F938AEF99E09F938F9329
:104650000E94A00788EF99E00E9407078CEE99E07E
:104660000E940707C2FB882780F91F928F9389EE6B
:1046700099E09F938F930E94A00787EE99E00E9494
:1046800007078EED99E00E940707C3FBCC27C0F90E
:104690001F92CF938BED99E09F938F930E94A00779
:1046A00089ED99E00E9407070E946A1AEC0185ECE7
:1046B00099E00E940707DF93CF9380EC99E09F93E6
:1046C0008F930E94A0078EEB99E00E94070785EA6E
:1046D00099E00E9407078C2F81701F928F9382EAC6
:1046E00099E09F938F930E94A0078DB79EB7809605
:1046F0000FB6F8949EBF0FBE8DBF80EA99E00E946E
:10470000070789E899E00E940707C1FB882780F91D
:104710001F928F9386E899E09F938F930E94A00742
:1047200084E899E00E94070782E799E00E94070762
:104730008D2F81701F928F938FE699E09F938F93B7
:104740000E94A0078DE699E00E9407078BE599E09B
:104750000E940707D695D1701F92DF9388E599E0F4
:104760009F938F930E94A00786E599E00E94070718
:1047700084E499E00E940707C2FB882780F91F9212
:104780008F9381E499E09F938F930E94A0078FE31A
:1047900099E00E9407078DE299E00E940707C3FB9A
:1047A000882780F91F928F938AE299E09F938F93D5
:1047B0000E94A00788E299E00E9407078EE199E035
:1047C0000E940707C4FB882780F91F928F938BE113
:1047D00099E09F938F930E94A00789E199E00E943E
:1047E000070787E099E00E940707C5FB882780F943
:1047F0001F928F9384E099E09F938F930E94A0076C
:1048000082E099E00E94070786EE98E00E94070781
:10481000C6FB882780F91F928F9383EE98E09F93C1
:104820008F930E94A0078DB79EB780960FB6F8941D
:104830009EBF0FBE8DBF81EE98E00E94070789EDF5
:1048400098E00E940707C7FBCC27C0F91F92CF93BF
:1048500086ED98E09F938F930E94A00784ED98E0E7
:104860000E9407070F900F900F900F9006C088EEE0
:104870009AE00E9407070E94FE1AC1E0F6C082E299
:1048800097E074C080914202817F8E7F80934202C4
:104890008BEF96E00E94070784EE9AE00E940707DC
:1048A00081E080935202E9CF88EC9AE00E940707EA
:1048B0000E946708E2CF80914202C82FC095C17064
:1048C000C0FB80F980934202CC2319F08CEB9AE074
:1048D000B9C08FEA9AE00E94070780914202897F5F
:1048E000877F80934202C9CF9091420291FBCC27EF
:1048F000C0F981E0C827892FC0FB81F9809342026B
:10490000CC2319F082EA9AE027C084E99AE02EC00D
:104910009091420292FBCC27C0F981E0C827892FF1
:10492000C0FB82F980934202CC2319F085E89AE01B
:1049300013C085E79AE01AC09091420293FBCC27FE
:10494000C0F981E0C827892FC0FB83F98093420218
:10495000CC2351F089E69AE00E9407078091420239
:1049600081608093420281C08CE59AE00E94070733
:1049700084CF8CEE96E00E94070785EA96E00E94BD
:1049800007078EE896E00E94070789E496E00E94F8
:1049900007078EE196E0EACF80E196E00E940707E4
:1049A0000E945A0E1F928F9386EF95E09F938F93EC
:1049B0000E94A007809120011F928F938FED95E0B8
:1049C0009F938F930E94A007809177021F928F93ED
:1049D0008CEC95E09F938F930E94A00780917E02BC
:1049E00087FB882780F91F928F9384EB95E09F9334
:1049F0008F930E94A0070E94751C9F938F937F93B3
:104A00006F938DE995E09F938F930E94A0078DB7D8
:104A10009EB746960FB6F8949EBF0FBE8DBF2DCFA2
:104A20000E94BF1390917E0297FBCC27C0F981E0D2
:104A3000C827892FC0FB87F980937E02CC2329F0F9
:104A400082E59AE00E94070710C087E49AE08ECFC3
:104A5000895303C08D5101C080E00E94B2220DCF66
:104A600085E49AE00E940707C0E08C2FDF91CF9188
:104A7000089580E008950C9439258E518A3030F4E1
:104A8000E82FF0E0ED56FE4F8081089580E0089514
:104A9000CF93C82F80915202813059F020F082309C
:104AA00009F445C039C10E948519823209F036C126
:104AB00004C00E948519823261F48C2F0E943B252C
:104AC000811104C08C2F0E94D2222FC081E090E07F
:104AD0002CC08C2F0E943925811126C0C431E1F0F1
:104AE00070F4CB3081F0C031D1F40E947A2180E99A
:104AF00095E00E94070782E08093520215C0C932F8
:104B000059F0C83361F48BEF96E00E94070784E9FF
:104B100095E00E94070708C01092520201C18EE87A
:104B200095E00E940707FCC081E08170FBC0C432A1
:104B300028F5CE3108F0C1C0CB30A1F1D0F4C73098
:104B400009F0D0C08EE18093090182E380930801CF
:104B50008AE08093070184E18093060188E08093D6
:104B6000030188E28093020184E394E00E94070736
:104B7000BCC0C33149F1C431C1F0B4C0CB3409F475
:104B8000A6C028F4C93289F0C83361F0ABC0C13582
:104B900009F49BC0C23509F496C0CE3409F0A2C016
:104BA0006AE09BC00E947A21A0C0809151028823B4
:104BB00019F01092510299C081E494E00E94070715
:104BC00081E080935202AEC08BE194E00E9407071F
:104BD00089E094E00E940707809109011F928F935A
:104BE00086E094E09F938F930E94A00784E094E076
:104BF0000E94070782EF93E00E9407078091080157
:104C00001F928F938FEE93E09F938F930E94A00744
:104C10008DEE93E00E9407078EED93E00E94070758
:104C2000809107011F928F938BED93E09F938F9359
:104C30000E94A00789ED93E00E94070788EC93E0AB
:104C40000E940707809106011F928F9385EC93E0E5
:104C50009F938F930E94A00783EC93E00E94070725
:104C60008EEA93E00E940707809103011F928F93C1
:104C70008BEA93E09F938F930E94A00789EA93E0C9
:104C80000E94070782E993E00E94070780910201D2
:104C90001F928F938FE893E09F938F930E94A007BA
:104CA0008DE893E00E9407078DB79EB748960FB630
:104CB000F8949EBF0FBE8DBF18C08C2F0E943D255B
:104CC0008093510212C061E003C061E006C06AE057
:104CD000809151020E94912108C0809151020E944E
:104CE000342203C082E394E013C0809151028823F0
:104CF00069F01F928F938CE294E09F938F930E94B0
:104D0000A0070F900F900F900F9004C089E294E0DD
:104D10000E94070781E006C01092520280E002C0A4
:104D200080E003CFCF910895881F8827881F0895BA
:104D300091E0883F08F490E0892F0895982F907FA4
:104D4000903BF1F038F49039D9F0903AC9F09038AE
:104D5000C9F416C0903D49F018F4903C31F012C0EF
:104D6000903E71F0903F19F00DC082E00895815F90
:104D70008F3040F4E82FF0E0E356FE4F8081089535
:104D800083E0089580E00895FC01738362830895B1
:104D9000FC01758F648F0895CF93DF93EC011DA202
:104DA0001FA21EA2BC01685D7F4F40EC88519F4F3F
:104DB0000E94EF281B821A821D821C821F821E8283
:104DC000198618861B861A861D861C861F861E86D7
:104DD000198A188A1B8A1A8A1D8A1C8A1F8A1E8AA7
:104DE000198E188E1B8E1A8E1D8E1C8E1F8E1E8E77
:104DF00019A218A2DF91CF910895EF92FF920F931D
:104E00001F93CF93DF93EA018A01060F111D88518A
:104E10009F4F7C01C017D10729F06991C7010E94FB
:104E2000F628F8CFDF91CF911F910F91FF90EF906F
:104E30000895FC01718360830895FC0171A360A350
:104E40000895AF92BF92CF92DF92EF92FF920F93AD
:104E50001F93CF93DF9300D01F92CDB7DEB77C01B5
:104E60006B01142FB22EA02EDC0195968C91959794
:104E70008430F1F45A96ED91FC915B97309709F4E8
:104E8000BEC0CB01019763E070E00E948132CB018C
:104E9000880F991F860F971F4983BA820B834C2D69
:104EA000481B9E012F5F3F4FBC01C7010995B4C04D
:104EB0006230710509F452C06330710529F0613028
:104EC000710509F099C080C0842F807F803AF9F085
:104ED00058F48038B1F0803909F091C0D7011496A8
:104EE000ED91FC9115972AC0803EB9F0803FD9F032
:104EF000803B09F084C0D7011296ED91FC91139785
:104F00001DC0D7011696ED91FC91179717C0D701D8
:104F10001896ED91FC91199711C0D7011A96ED9151
:104F2000FC911B970BC0423F09F069C0D7011C964A
:104F3000ED91FC911D97309731F461C0309709F4E1
:104F40005EC0123F21F42A2D4B2D62EF04C02A2DA2
:104F50004B2D612F6F70C70109955EC0842F807F34
:104F6000803D59F0803F79F0803C09F048C0D7017E
:104F70001E96ED91FC911F9718C0D7015096ED91A8
:104F8000FC91519712C0433F31F4D7015296ED91F5
:104F9000FC91539707C0413F91F5D7015496ED918D
:104FA000FC915597309739F42AC0309741F1812F01
:104FB0008D7F813F19F44B2D612F03C04B2D612F45
:104FC0006F70C701099528C0842F0E9498268823F6
:104FD00031F0D7015696ED91FC91579707C0163FD7
:104FE00071F4D7015896ED91FC915997309739F0AB
:104FF000612FC701099510C064307105D8F4D7013D
:105000005C96ED91FC915D97309731F00A2D2B2D38
:10501000412FB601C7010995D7015E96ED91FC912C
:105020005F97309751F00A2D2B2D412FB601C70104
:10503000099503C0C12CD12CE2CF0F900F900F9097
:10504000DF91CF911F910F91FF90EF90DF90CF9064
:10505000BF90AF900895FF920F931F93CF93DF936C
:10506000EC01162F862F0E949826882369F0FDA058
:1050700081E08DA300E020E0412F61E070E0CE01EF
:105080000E942127FDA270C0812F0E9494264DA16D
:10509000882309F440C0443029F01AA381E090E04D
:1050A0009FA38EA3812F0E949E26813031F070F045
:1050B000823051F0833041F02AC08DA300E020E01F
:1050C000412F61E070E01EC08DA34EC0103FB1F0D3
:1050D000173FE9F42EA13FA1C90163E070E00E94EF
:1050E0008132FE01E80FF91F12A3B9016F5F7F4FF4
:1050F0007FA36EA30CA12BA14AA104C084E08DA3C1
:105100001AA329C0CE010E9421271DA22DC01DA2D5
:105110001FA21EA229C0442339F12EA13FA1C9011B
:1051200063E070E00E948132FE01E80FF91F12A3D4
:10513000B9016F5F7F4F7FA36EA38130910581F02E
:10514000029791F40CA12BA14AA1CE010E94212724
:105150008DA1843049F081E090E09FA38EA304C02C
:10516000423011F400E0EFCFDF91CF911F910F910A
:10517000FF900895CF92DF92EF92FF920F931F93CB
:10518000CF93DF93EC01E8A1F9A1309709F00995DD
:105190006E0188EEC80ED11CC6010E942629E12CA2
:1051A000F12C082F10E0E016F10680F460E0C60153
:1051B0000E943C29682FCE010E942B2861E0C60185
:1051C0000E944D298FEFE81AF80AEDCFDF91CF91B9
:1051D0001F910F91FF90EF90DF90CF900895FC0109
:1051E0004283748363831182108208951F93CF9347
:1051F000DF93EC01162F0E946529E82F298130E00A
:10520000C90101966A8170E00E949532488150E0A0
:105210008417950729F48E2F0E94682980E012C018
:105220008B819C81DC01A20FB31F1C93898190E0CC
:1052300001966A8170E00E94953289838E2F0E94C8
:10524000682981E0DF91CF911F9108950F931F93FB
:10525000CF938C010E946529F801C1812081C2177A
:1052600018F4F8019281C90FC21B0E9468298C2F83
:10527000CF911F910F910895FC012081862F90E01E
:10528000820F911D628170E00E9495320380F4814B
:10529000E02DE80FF91F808108951F93CF93DF93CE
:1052A000EC01162F0E946529282F3881812F90E06C
:1052B000830F911D6A8170E00E9495328883822F4E
:1052C000DF91CF911F910C9468298FB7F8940895BE
:1052D0008FBF0895089508950F931F93CF93DF9381
:1052E000CDB7DEB727970FB6F894DEBF0FBECDBFA0
:1052F0008C01CE0101960E94C52C882309F18A8178
:105300000E949E269A819D839B819E839C819F8380
:1053100081110EC08981843041F0873031F08630B0
:1053200031F0853031F781E003C083E001C082E0D5
:10533000AE014B5F5F4F682FC8010E94FD26D9CF99
:1053400027960FB6F894DEBF0FBECDBFDF91CF9189
:105350001F910F910895DF92EF92FF920F931F9389
:10536000CF93DF9300D000D0CDB7DEB77B01142FF1
:10537000D22E4A832B830C83842F0E949E26811178
:105380001CC082E0E816F10471F083E0E816F10435
:1053900021F0EA94EF28C1F40CC0073F11F487E034
:1053A00006C084E004C087EFD812FBCF86E0898373
:1053B00007C0173FB1F785E0FACF12951F70198328
:1053C000CE0101960E94C02C0F900F900F900F906D
:1053D000DF91CF911F910F91FF90EF90DF90089593
:1053E00080E892E00E94CC266BEA79E280E892E0C5
:1053F0000E9419276CE679E280E892E00E941D275E
:105400006AE679E280E892E00E94C8266BE679E2DB
:1054100080E892E00C94C426209171032430D9F4E2
:105420009B01FC0181818F708093E90040E050E096
:1054300064E070E0C9010E948D2D81110FC0909130
:10544000E800892F807295FD08C09091E8009E7752
:105450009093E800089582E0089580E008952091F7
:1054600071032430A1F4FC0181818F708093E900E5
:105470002091F3008091F20090E0922B892B49F06B
:105480008091E8008E778093E8000C94362F82E0BC
:10549000089580E00895FC0180917103843059F4EF
:1054A00091819F709093E9008091E80080FF03C094
:1054B000CF010C942F2A089520917103243011F00C
:1054C00080E00895FC0186818F708093E9008091CF
:1054D000E80082FFF5CF8091E80085FFF1CFCB0196
:1054E00040E050E064E070E00E94D82D8091E80038
:1054F00085FD05C08091E8008B778093E80081E00E
:1055000008958091760208959FB7F89410925502FD
:105510009FBF90917103943009F057C09091E900BA
:105520009F703091EC00232F217030FD20E8922BEA
:1055300023E02093E9002091EB0020FF43C020915D
:10554000EE0027FF3FC020915302222321F020913B
:10555000E80025FF37C01092530226E03091E800A2
:1055600035FD15C030917103343061F53091EB0099
:1055700035FD28C0215021F481E08093530222C0E0
:10558000EFE9FFE03197F1F700C00000E7CF80932B
:10559000F1008091E80085FD0AC08091E80080FF5D
:1055A000FCCF8091E8008E778093E80006C08FB72B
:1055B000F89421E0209355028FBF9F709093E900EB
:1055C00080E008959F709093E9008FEF0895CF9346
:1055D000DF9300D01F92CDB7DEB790917103943066
:1055E00019F589837B836A8382E08093E9008FEFDA
:1055F0009091E800815095FD06C095ED9A95F1F7E0
:1056000000008111F5CF8091E80085FF0DC040E0DA
:1056100050E063E070E0CE0101960E948D2D8091F4
:10562000E8008E778093E8000F900F900F90DF9145
:10563000CF910895BC0184E00C94E72ABC0183E07B
:105640000C94E72A22E02093E9002FEF3091E80044
:10565000215035FD06C035ED3A95F1F700002111D6
:10566000F5CF2091E80025FF0BC040E050E066E058
:1056700070E00E948D2D8091E8008E778093E80085
:105680000895CF93DF9320912001222339F02091B8
:105690007E0227FF03C060E222E002C068E021E052
:1056A0002093E9002FEF3091E800215035FD06C02E
:1056B00035ED3A95F1F700002111F5CF2091E80082
:1056C00025FF1DC0EC0180912001811105C040E043
:1056D00050E068E070E003C070E040E050E0CE01D0
:1056E0000E948D2D8091E8008E778093E80080E203
:1056F000FE01A6E5B2E001900D928A95E1F7DF91F7
:10570000CF91089589E29BE00E9407078091700382
:10571000811109C00E94692F0E94C62F8091E2006A
:1057200084608093E200089585E29BE00E94070771
:1057300010927003089581E29BE00C9407078DE1BD
:105740009BE00C94070789E19BE00E9407070C94FB
:105750002F1C209154022F5F822F62E30E9475322A
:10576000992319F0209354020895109254028091C5
:105770005502882371F180917103843041F5809145
:10578000E9008F702091EC00922F917020FD90E83D
:10579000892B93E09093E9009091EB0090FF14C067
:1057A0009091EE0097FF10C09091E80095FF03C024
:1057B0001092F100F9CF9091E80090FF05C0909110
:1057C000E8009E779093E8008F708093E900109234
:1057D0005502089542E061EC81E00E94E22E42E22F
:1057E00061EC82E00E94E22E42E261EC83E00E94E2
:1057F000E22E42E361E884E00E94E22E42E361E8A7
:1058000085E00C94E22E80917303833009F460C02C
:1058100030F4813071F0823009F499C008958A30F3
:1058200009F485C08B3009F46BC0893009F0A7C03A
:1058300020C080917203813A09F0A1C08091E800F4
:10584000877F8093E8008091760390917703892B7E
:1058500021F460E286E592E003C060E080E090E041
:1058600070E00E94232E8091E8008B778093E800FF
:10587000089580917203813209F081C0809176038E
:1058800090917703029708F07AC08091E800877FB3
:105890008093E8008091E80082FD05C0809171034B
:1058A0008111F8CF6CC02091F3008091F20090E05C
:1058B000922B029729F48091F1008B7F813021F4A3
:1058C0008091F100809376028091E8008B7753C03D
:1058D00080917203813A09F052C0809176039091D1
:1058E0007703892B09F04BC08091E800877F809374
:1058F000E8008091E80080FFFCCF8091200136C055
:10590000809172038132D9F580917603909177036B
:10591000892BA9F58091E800877F8093E8000E9499
:10592000172F80917403809320010C94BF138091F2
:105930007203813221F58091E800877F8093E8002F
:105940000E94172F809175038093770208958091AC
:105950007203813AA1F48091E800877F8093E80088
:105960008091E80080FFFCCF809177028093F10066
:105970008091E8008E778093E8000C94172F0895AB
:10598000BC018AE091E00C940C2ABC018AE091E011
:105990000C945C2A0E94F02984B7877F84BF0FB6DD
:1059A000F894A895809160008861809360001092BF
:1059B00060000FBE90E080E80FB6F894809361001D
:1059C000909361000FBE0E940D0F0E94692F0E94EC
:1059D000C62F8091E20084608093E20084E89AE21E
:1059E0000E94361A78940E945A320E94130F86E160
:1059F00091E00E94550E88E09BE00E94070780918D
:105A00007103853089F484E09BE00E9407070E94BF
:105A1000FD1B80916F03882391F30E94EA1B88236A
:105A200071F30E94772DEBCF0E94470F8AE091E03F
:105A30000E944B2A0E94010F0E94000FE0CF0C949D
:105A4000212D292F332723303105C9F060F421306F
:105A5000310581F02230310509F041C08FEB90E033
:105A600025E73BE040C021323105E1F0223231052B
:105A700031F135C082E190E024E33CE034C0992765
:105A80008130910549F028F0029749F5EDE2FBE0FD
:105A900005C0E1E7FBE002C0EFE4FBE0849190E0A9
:105AA0009F0121C063307105D0F4660F771FFB01A1
:105AB000EB54FE4F2081318189E090E014C06330C7
:105AC000710568F4FB01EE0FFF1FE155FE4F2081C9
:105AD0003181FB01E455FE4F808190E004C080E0FD
