:100000000C94CF030C9416040C9416040C94160450
:100010000C9416040C9416040C9416040C941604F8
:100020000C9416040C9416040C94C02E0C94922F6D
:100030000C947B240C9416040C9416040C94160453
:100040000C9416040C9416040C9416040C941604C8
:100050000C9416040C94C8240C9416040C941604E6
:100060000C9416040C9416040C9416040C941604A8
:100070000C9416040C9416040C9416040C94160498
:100080000C9416040C9416040C9416040C94160488
:100090000C9416040C9416040C9416040C94160478
:1000A0000C9416040C9416040C941604311A311A8C
:1000B000631A631AB01AE41BE41BE41BCE1A631B19
:1000C000741B741BD41BE41BE41BDD1B8E1C8E1CD9
:1000D000A01CA01C971CA01CA01CA01C8E1C8E1C6D
:1000E0009C1CA01CA01C9C1CFF2F26301E312630FF
:1000F0001E31723095301E31EC30FB304B4C3A20C3
:100100006B633A2025752C20636F6C3A2025752C83
:1001100020726F773A2025752C2070726573736595
:10012000643A2025750A001150905C915C895C5FEF
:100130005C615C635C645C665C685C6A5C6B5C8193
:100140005C825CB75CB85C535C555C575C585C5A2D
:100150005C5C5C5E5C5F5C285D2A5D2C5D2E5D47AF
:100160005C495C4B5C4C5C4E5C505C525C535C2963
:100170005D2B5D2D5D2F5D3B5C3D5C3F5C405C42DB
:100180005C445C465C475C5F5C605C615C625C63D9
:100190005C645C655C665C675C685C695C105053C1
:1001A0005C545C555C565C575C585C595C5A5C5BB3
:1001B0005C5C5C5D5C5E5C475C485C495C4A5C4BDB
:1001C0005C4C5C4D5C4E5C4F5C505C515C525C3BEB
:1001D0005C3C5C3D5C3E5C3F5C405C415C425C4343
:1001E0005C445C455C465C44454255473A20646942
:1001F0007361626C65642E0A0044454255473A209B
:10020000656E61626C65642E0A000A002530313625
:1002100062003A200025303258000A722F632030E5
:100220003132333435363738394142434445460A52
:10023000006D696469206D6F64756C6174696F6EBF
:100240002025640A006D69646920706974636862BE
:10025000656E64206368616E6E656C3A256420612A
:100260006D6F756E743A25640A006D69646920705B
:100270006974636862656E64206368616E6E656C44
:100280003A256420616D6F756E743A25640A006DBD
:1002900069646920706974636862656E642063686C
:1002A000616E6E656C3A256420616D6F756E743A8F
:1002B00025640A006D696469207069746368626509
:1002C0006E64206368616E6E656C3A256420616DB2
:1002D0006F756E743A25640A006D696469206D6FEC
:1002E00064756C6174696F6E20696E746572766195
:1002F0006C2025640A006D696469206D6F64756CFB
:100300006174696F6E20696E74657276616C202508
:10031000640A006D696469206C656761746F2025EB
:10032000640A006D69646920736F66742025640A2D
:10033000006D69646920736F7374656E75746F20E6
:1003400025640A006D69646920706F7274616D655F
:100350006E746F2025640A006D696469207375737B
:100360007461696E2025640A006D69646920616C9E
:100370006C206E6F746573206F66660A006D696429
:1003800069206368616E6E656C2025640A006D6982
:100390006469206368616E6E656C2025640A006D77
:1003A000696469206368616E6E656C2025640A006B
:1003B0006D6964692076656C6F6369747920256462
:1003C0000A006D6964692076656C6F6369747920D1
:1003D00025640A006D6964692076656C6F636974D1
:1003E000792025640A006D696469207472616E73F6
:1003F000706F73652025640A006D696469207472EA
:10040000616E73706F73652025640A006D6964699D
:10041000207472616E73706F73652025640A006DBD
:10042000696469206F63746176652025640A006DD4
:10043000696469206F63746176652025640A006DC4
:10044000696469206F63746176652025640A006DB4
:10045000696469206E6F74656F6666206368616E9B
:100460006E656C3A2564206E6F74653A256420765B
:10047000656C6F636974793A25640A006D69646913
:10048000206E6F74656F6E206368616E6E656C3A86
:100490002564206E6F74653A25642076656C6F6301
:1004A0006974793A25640A0064796E616D69632024
:1004B0006D6163726F3A20736C6F742025642073D2
:1004C000617665642C206C656E6774683A202564DB
:1004D0000A0064796E616D6963206D6163726F3AC1
:1004E000207472696D6D696E672061207472616934
:1004F0006C696E67206B65792D646F776E20657609
:10050000656E740D0A0064796E616D6963206D61BA
:1005100063726F3A20736C6F74202564206C656E73
:100520006774683A2025642F25640A0064796E6137
:100530006D6963206D6163726F3A2069676E6F72D7
:10054000696E672061206C656164696E67206B6508
:10055000792D7570206576656E740D0A0064796E6C
:10056000616D6963206D6163726F3A20736C6F74A3
:1005700020256420706C61796261636B0A00647984
:100580006E616D6963206D6163726F207265636F68
:100590007264696E673A20737461727465640D0ADF
:1005A000000A002530325820006B6579626F617255
:1005B000645F7265706F72743A20000A00253032F1
:1005C00058006B6579626F6172645F7365745F6C0C
:1005D00065643A20005B735D004B6579626F617200
:1005E000642073746172742E0A005B575D005B5364
:1005F0005D005B525D005B445D005B435D00040396
:1006000030000000160350006F0063006B006500AF
:1006100074005400790070006500000016034D005E
:10062000610061007200740065006E007700750063
:1006300074000000040309040902BF00050100A0C2
:10064000FA09040000010301010009211101000160
:100650002240000705810308000A09040100010384
:100660000000000921110100012232000705820368
:1006700020000A0904020002030000000921110100
:100680000001222200070583032000010705030360
:10069000200001080B03020101000009040300000F
:1006A00001010000092401000109000104090404FA
:1006B000000201030000072401000141000624029A
:1006C00001010006240202020009240301030102C1
:1006D000010009240302040101010009050502408B
:1006E00000050000052501010109058402400005FF
:1006F000000005250101031201100100000008059A
:10070000477DFA0100010203010631FF0974A101CE
:100710000975150026FF00952075088102097615D8
:100720000026FF00952075089102C005010980A1EF
:1007300001850319012AB700150126B70095017537
:10074000108100C0050C0901A101850419012AA02E
:1007500002150126A002950175108100C00501094E
:1007600006A101050719E029E7150025019508757F
:100770000181029501750881010507190029FF15FE
:100780000026FF0095067508810005081901290556
:10079000950575019102950175039101C000112421
:1007A0001FBECFEFDAE0DEBFCDBF04B603FE27C029
:1007B0008091050790910607A0910707B09108075F
:1007C0008730904BA740B04BD1F4109205071092A0
:1007D0000607109207071092080714BE84B7877F98
:1007E00084BF0FB6F894A8958091600088618093CB
:1007F0006000109260000FBEE0E0F8E3099511E0A0
:10080000A0E0B1E0EEE9F3E602C005900D92A23F50
:10081000B107D9F727E0A2EFB1E001C01D92A530E2
:10082000B207E1F70E94A42B0C94CD310C94000088
:10083000FF93EF93E091F201F091F301309709F00B
:100840000995EF91FF910895FC018591803011F099
:10085000EFDFFBCF0895FF27E0E230E247FF0CC057
:10086000419597FF09C0EDE2609570958095909550
:10087000611D711D811D911D27FF02C0219530E36F
:1008800050E2AA27660F771F881F991FAA1FA41777
:1008900010F0A41B63955A95A9F7AA3008F0A95F38
:1008A000A05DAF93F395611571058105910541F741
:1008B000ED3211F4EF93F395F21718F43F93F3959B
:1008C000FBCF8F91B5DFFA95E1F70895E991F991A2
:1008D0008591803021F0853219F0AADFF9CF089593
:1008E00020E0E89455915532C1F3503311F46894E7
:1008F00055915A3348F4505390F3220F022E220F91
:10090000220F200D250FF4CF0EF421958991999196
:10091000533619F3533729F1533559F1BC01882760
:100920009927E8945C3621F48991999168945591BE
:10093000543639F446EF7EF077FF0DC08FEF9FEF0E
:100940000AC055374AE039F0583540E121F05236B7
:1009500042E009F00895FF93EF937DDFEF91FF915F
:10096000B7CFFF93EF93FC0181918030B9F360DF43
:10097000FBCFFF93EF9368DFF1CFDF93CF93CDB73A
:10098000DEB72596A3DFCF91DF910895859A8D9AE2
:10099000849A8C9808950E94C6040C946F0ACF9391
:1009A000C82F0E947907882329F0C1FD02C08D9AC3
:1009B00001C08D9881E0CF9108950F931F93CF933D
:1009C000DF93EC018B01FB0182811F928F93818168
:1009D0001F928F9380811F928F93DF93CF938CEF21
:1009E00090E09F938F930E94BD048DB79EB70A96A7
:1009F0000FB6F8949EBF0FBE8DBFCA329DE5D907D2
:100A000009F4B1C168F4C832FDE5DF0709F491C10A
:100A100008F09EC1CE018B539C45C197E8F0ABC155
:100A2000CD328DE5D80709F49EC158F4CB32EDE5FF
:100A3000DE0709F498C1CC32FDE5DF0709F493C164
:100A40009AC1CE322DE5D20709F48DC1CF328DE5A2
:100A5000D80709F488C18FC18091F4019091F50104
:100A6000009709F45CC188329D45F9F4F801828150
:100A7000882369F0CE010E94CF0B8C5F0E949D0BF2
:100A8000CE010E94CF0B895F0E949D0B0EC00E9479
:100A9000AB0BCE010E94CF0B8C5F0E94A40BCE014A
:100AA0000E94CF0B895F0E94A40B8091F40190916A
:100AB000F50189329D45F9F4F8018281882369F0B6
:100AC000CE010E94CF0B8D5F0E949D0BCE010E9434
:100AD000CF0B895F0E949D0B0EC0CE010E94CF0BF1
:100AE0008D5F0E94A40BCE010E94CF0B895F0E94F4
:100AF000A40B0E94AB0B8091F4019091F5018A3216
:100B00009D4559F5F8018281882399F0CE010E9414
:100B1000CF0B8C5F0E949D0BCE010E94CF0B895F93
:100B20000E949D0BCE010E94CF0B855F0E949D0B02
:100B300014C00E94AB0BCE010E94CF0B8C5F0E94B1
:100B4000A40BCE010E94CF0B895F0E94A40BCE01A3
:100B50000E94CF0B855F0E94A40B8091F4019091BD
:100B6000F5018B329D4559F5F8018281882399F072
:100B7000CE010E94CF0B8D5F0E949D0BCE010E9483
:100B8000CF0B895F0E949D0BCE010E94CF0B865F29
:100B90000E949D0B14C00E94AB0BCE010E94CF0B94
:100BA0008D5F0E94A40BCE010E94CF0B895F0E9433
:100BB000A40BCE010E94CF0B865F0E94A40B8091F4
:100BC000F4019091F5018C329D4559F5F80182812F
:100BD000882399F0CE010E94CF0B8C5F0E949D0B61
:100BE000CE010E94CF0B895F0E949D0BCE010E9417
:100BF000CF0B825F0E949D0B14C00E94AB0BCE01F5
:100C00000E94CF0B8C5F0E94A40BCE010E94CF0BE1
:100C1000895F0E94A40BCE010E94CF0B825F0E94CD
:100C2000A40B8091F4019091F5018D329D4559F509
:100C3000F8018281882399F0CE010E94CF0B8D5F4D
:100C40000E949D0BCE010E94CF0B895F0E949D0BDD
:100C5000CE010E94CF0B825F0E949D0B14C00E94A8
:100C6000AB0BCE010E94CF0B8D5F0E94A40BCE0177
:100C70000E94CF0B895F0E94A40BCE010E94CF0B74
:100C8000825F0E94A40B8091F4019091F5018E3255
:100C90009D45F9F4F8018281882369F0CE010E9414
:100CA000CF0B8E5F0E949D0BCE010E94CF0B895F00
:100CB0000E949D0B0EC00E94AB0BCE010E94CF0B79
:100CC0008E5F0E94A40BCE010E94CF0B895F0E9411
:100CD000A40B8091F4019091F5018F329D45F9F4B8
:100CE000F8018281882369F0CE010E94CF0B8B5FCF
:100CF0000E949D0BCE010E94CF0B895F0E949D0B2D
:100D00000EC00E94AB0BCE010E94CF0B8B5F0E94E6
:100D1000A40BCE010E94CF0B895F0E94A40BF801A7
:100D20008281811128C0CE010E94CF0B0E94A40BAA
:100D300022C0D093F501C093F401F80182818111A2
:100D40001AC01092F5011092F4010E94AB0B13C06F
:100D5000F80182818823A9F389E29DE59093F5014A
:100D60008093F40108C0F8018281882351F3D09365
:100D7000F501C093F40181E0DF91CF911F910F91B4
:100D800008959C013A9521153F4138F5DC01AA27C9
:100D9000B270AC01442754709C012227387094FF34
:100DA0000FC090FF02C080E101C080E0AB2B09F0D2
:100DB0008062452B09F08064232B69F080680BC0AA
:100DC000892F8170AB2B09F08260452B09F084607C
:100DD000232B09F08860FB0109940895CF93DF93DA
:100DE000EC01805E9109089710F0209719F46DEEE0
:100DF00079E102C068E57CE1CE010E94C1068C2F3A
:100E0000DF91CF910C94D918CF93DF93EC010E941E
:100E10007B19CE01805E9109089710F0209719F494
:100E200064EF79E102C06FE57CE1CE01DF91CF9103
:100E30000C94C10681E008950C94DD0408950C948F
:100E40001E071F93CF93DF9300D000D01F92CDB722
:100E5000DEB749835A836B833091760589819A8105
:100E6000311114C0662359F0222349F00E94CA218F
:100E7000182F682F89819A810E94732103C00E94D4
:100E80009E21182F69817A81812F04C00E94CA2176
:100E900069817A810F900F900F900F900F90DF91E2
:100EA000CF911F910C941208FC01262F4081518193
:100EB0006281738184810C942107CF93DF93EC01CD
:100EC00060E00E945407BE01DF91CF910C941F0790
:100ED0000E9414250E942F23811102C00E94CF235B
:100EE0000C94CB040E94CD160C946D0A08950C94BA
:100EF000760781E00895CF93C82F0E9477078C2F43
:100F00000E94CF04CF91089508950E947C1C0E94F6
:100F1000AB0B0E9484072FEF84E39CE021508040BC
:100F20009040E1F700C000000C94EE240F931F9353
:100F3000CF93DF93EC0161E00E9454078C01BE0166
:100F40000E942A16BE01C8010E940915882309F4CF
:100F50005EC0BE01C8010E941C07882309F457C067
:100F6000BE01C8010E94DE0B882309F450C0BE01F7
:100F7000C8010E94FB0F882309F449C0BE01C801C3
:100F80000E947116882309F442C0BE01C8010E9464
:100F9000EC118823E1F1BE01C8010E943E128823B2
:100FA000B1F1BE01C8010E946913882381F18A81D1
:100FB000882331F101308CE5180751F00E3D8CE5A6
:100FC0001807D9F001151C45D9F40E9485071FC0E8
:100FD0008091E205C82FC095C170C0FB80F9809355
:100FE000E205CC2329F089EF91E00E9424040FC090
:100FF00087EE91E00E9424040BC00E94CF2307C01B
:10100000CE01DF91CF911F910F910C941A07C0E090
:101010008C2FDF91CF911F910F91089580E090E088
:101020000895089520E3829FC0011124FC012CE063
:10103000729FE00DF11D1124E60FF11DEE0FFF1F51
:10104000E95DFE4F859194910895880F991FFC01E9
:10105000E65FFD4F859194910895CF93DF930E94B1
:1010600012080E943F09EC018115904508F043C029
:10107000C11580E4D80708F0CBC0C03ED10528F5E3
:10108000C03CD10508F0B3C0C83AD10578F4C53AE0
:10109000D10508F0A4C0C130D10509F4ECC008F4B2
:1010A000E8C0C430D10508F0E6C0E3C0CF3BD105AD
:1010B00008F0DFC0C85AD0E0CC0FDD1FCF59DE4F9B
:1010C0000990D881C02DD464D6C0C11590E2D9074B
:1010D00050F4C11521E0D20708F0CDC0C83ED105BB
:1010E00008F4C9C0C6C0C11580E3D80708F086C09F
:1010F000CE019F707FC0C11595E5D90708F043C0A8
:10110000C11524E5D20708F09AC0C11582E5D807B9
:1011100008F5C11591E5D90708F07DC0CE0174E04E
:10112000969587957A95E1F783709C2F937021E0CF
:1011300030E002C0220F331F9A95E2F73C68382B4B
:10114000CF70C695C69580E2C89FE0011124C22BDE
:10115000D32B91C09E01237033278C2F86958695C3
:10116000C115D34508F05CC0C1E0D0E002C0CC0F8F
:10117000DD1F2A95E2F720E2829FC0011124C82BCF
:10118000D92BDC6878C0C11529E5D207A0F4C115B8
:1011900088E5D80708F058C0C11596E5D90708F0CA
:1011A00068C08C2F0E94D3098F71C82FD0E0DC2F2C
:1011B000CC27D06260C0C1152AE5D20708F449C027
:1011C000CE0190568115904208F053C08D2F8F713B
:1011D0000E94D309DD27D0628F71D82B4CC0C55A2D
:1011E000D0E0C157DE4FC881D0E0D06444C0CE010A
:1011F000805C91090E942508EC013DC0CE01992731
:10120000D3FF03C0EC01D86C36C0EC01D06C33C006
:10121000DF70D06A30C0DC2FCC27C16FD06A2BC002
:10122000C1E0D0E002C0CC0FDD1F2A95E2F720E23A
:10123000829FC0011124C82BD92BDA681CC0DC2F77
:10124000CC27C46FD06A17C0DC2FCC27C06FD06A00
:1012500012C08C2F8F700E94D30994E0D695C79549
:101260009A95E1F7CF70D0E0DC2FCC27D069C82B5E
:1012700002C0C0E0D0E0CE01DF91CF910895823866
:10128000910569F1B0F48133910509F46DC048F41A
:101290008932910509F463C08A32910509F469C065
:1012A00008958533910509F455C089339105B9F046
:1012B0000895833E910569F138F4803E9105B1F0BF
:1012C000823E910509F10895863E9105A9F1873E78
:1012D0009105B9F1843E910509F064C023C02091C5
:1012E000090620FD4FC021FD4DC0089580910906DB
:1012F00080FD44C080910A0680FF44C080910906A9
:1013000084FD42C083EE4DC08091090682FF38C043
:10131000F5CF8091090682FD33C080910A0680FDD9
:1013200031C0ECCF80910A0681FF32C0809109065E
:1013300084FD2AC087EE35C08091090683FF26C050
:10134000F5CF8091090683FD21C080910A0681FDB9
:101350001FC0ECCF8091090685FD1CC01DC0809187
:10136000090685FD19C016C08091090686FD16C0C4
:1013700017C08091090686FD13C010C089E311C013
:1013800082EE0FC080EE0DC080E00BC086EE09C07B
:1013900084EE07C089E205C085E303C08AE201C08C
:1013A00081E390E008959091090692FF0DC0282FE7
:1013B0002871283019F4877F846006C0282F247193
:1013C000243011F48B7F886093FF0DC0282F287183
:1013D000283119F4877E846106C0282F24712431B6
:1013E00011F48B7E886120910A0620FF0DC0382FF2
:1013F0003871383019F4877F816006C0382F317119
:10140000313011F48E7F886021FF0DC0282F2871A4
:10141000283119F4877E816106C0282F217121317E
:1014200011F48E7E886194FD877E0895E82FF0E0A8
:10143000EE0FFF1FE750FA4F808191810895CF9200
:10144000DF92EF92FF920F931F93CF93DF938AE186
:1014500092E00E94240489EFE82E85E0F82EC0E097
:10146000D0E095E1C92E92E0D92E0CE012E0DF9396
:10147000CF93DF92CF920E94BD0482E192E00E945E
:101480002404F701819191917F010E9416239F937B
:101490008F931F930F930E94BD048AE092E00E94F5
:1014A000240421968DB79EB708960FB6F8949EBF78
:1014B0000FBE8DBFC430D105D1F6DF91CF911F9102
:1014C0000F91FF90EF90DF90CF90089580EA8A957A
:1014D000F1F7089508950C946A0A0C946B0A0C9421
:1014E0006A0ACF93DF93AEE9B1E042EA51E061E0EE
:1014F00070E08D91E82FE295EF70F0E021A18F7000
:10150000EB0102C0CC0FDD1F8A95E2F7CE019C2FC4
:101510009095922391A392A1892B82A34A175B07EE
:1015200041F7A2E9B1E041E050E08D91E82FE2956A
:10153000EF70F0E021A18F70BA0102C0660F771F33
:101540008A95E2F7CB01962F9095922391A392A1D1
:10155000892B82A371E0AE39B70739F71092F205F3
:101560001092F1051092FA051092F9051092F40507
:101570001092F3051092FC051092FB051092F605EF
:101580001092F5051092FE051092FD051092F805D7
:101590001092F705109200061092FF0584E00E9459
:1015A000620BDF91CF910C9468076F927F928F92BC
:1015B0009F92AF92BF92CF92DF92EF92FF920F93E2
:1015C0001F93CF93DF938EE9C82E81E0D82E01EFD1
:1015D00015E099EFA92E95E0B92E712C88248394FB
:1015E000912CF60181916F01C82FC295CF70D0E088
:1015F00099A18F70740101C0EE0C8A95EAF7892FCA
:101600008E2989A38AA16E2C609486218AA30E94C8
:10161000660AE2E9F1E040E050E020E030E061916C
:10162000A62FA295AF70B0E090968C9190E06F706D
:1016300002C0959587956A95E2F780FD08C0C401C0
:10164000042E02C0880F991F0A94E2F702C080E0BE
:1016500090E0282B392B4F5F5F4F4C305105F9F646
:1016600089A1682269A28AA1E82AEAA2F8018081F8
:1016700091812817390721F03183208381E001C04F
:1016800080E0782A0E5F1F4FA016B10609F0A9CF9F
:10169000272D44E069EF75E081EF95E00E94630B30
:1016A0000E947207872DDF91CF911F910F91FF90BC
:1016B000EF90DF90CF90BF90AF909F908F907F90F2
:1016C0006F9008950895FF920F931F93CF93DF9328
:1016D000F82E092F162FD72FC42F222349F081E08F
:1016E0008093F8010E94AD249093F7018093F60156
:1016F0008091F8018823D9F08091F6019091F7014B
:101700000E94B924069798F0EF2DF02FA12FBD2F3E
:1017100080E090E04C2F50E08417950734F421913D
:1017200031912D933D930196F7CF1092F801DF91FF
:10173000CF911F910F91FF9008952FE7482F60E000
:101740008BE096E00C948A2520E0482F60E08BE047
:1017500096E00C949A2520E04BE760E08BE096E061
:101760000C947A2584E08093010689E08093020638
:1017700080910306807F886080930306EDEFF1E09F
:101780008FEF819392E0E534F907D9F71092FC01CD
:101790001092FB011092FA011092F90108959091B4
:1017A0000106292F2F7095959595959595959F52A2
:1017B0003CE0239F900D1124890F0895EF92FF9232
:1017C0000F931F93CF93DF93EB018E3A2CE5920793
:1017D00008F044C08E393CE5930708F0E5C1803934
:1017E0002CE59207F0F483383CE5930708F01EC11E
:1017F00081382CE5920758F487373CE5930708F0C9
:10180000C9C08F322CE5920708F065C066C38138E5
:101810003CE5930709F4D4C082389C4509F4E9C03B
:101820005CC38C393CE5930778F482392CE5920748
:1018300008F075C180393CE5930709F412C181397C
:101840009C4509F437C149C38C393CE5930709F439
:101850007CC18D399C4509F491C13FC3843B3CE573
:10186000930709F442C2D8F4803B3CE5930709F49E
:10187000E8C150F48E3A3CE5930709F4ACC18F3AC5
:101880009C4509F4C3C129C3609102062A81823BA9
:101890003CE5930709F403C208F4EEC113C2873B89
:1018A0002CE5920709F45CC250F4853B2CE59207C5
:1018B00009F434C2863B9C4509F449C20EC3893BF6
:1018C0002CE5920709F48FC208F46CC28A3B9C4550
:1018D00009F4BBC202C320910206022F02950F70C9
:1018E0002F701CE0129F100D1124FA80C1EDC80F5B
:1018F000D0E0FF2031F10E94CF0BF82E212F482F8E
:10190000602F8BE096E00E948A258091E20580FF9F
:1019100014C01F921F931F92FF921F920F938CE788
:1019200094E09F938F930E94BD048DB79EB7089655
:101930000FB6F8949EBF0FBE8DBFC350DE4FF88226
:10194000ABC2C350DE4FE8809FEFE91601F1212FB3
:101950004E2D602F8BE096E00E949A258091E20543
:1019600080FF15C01F921F931F92EF921F920F933B
:101970008FE494E09F938F930E94BD042DB73EB7F0
:10198000285F3F4F0FB6F8943EBF0FBE2DBF8FEFBD
:101990008883A5C22A81222309F47EC28757282F73
:1019A0002F7090910106907F922B90930106909159
:1019B000E20590FF71C21F928F938FE394E00AC2F9
:1019C0008A81882309F468C290910106892F8F705B
:1019D00009F462C2815F8F70907F982B909301060B
:1019E0009091E20590FF58C21F928F938FE294E08E
:1019F000F1C18A81882309F44FC290910106892F91
:101A00008F70282F30E0293031050CF045C28F5FF0
:101A10008F70907F982B909301069091E20590FF34
:101A20003BC21F928F938FE194E0D4C12A8122237D
:101A300009F432C28958282F2295207F90910106FF
:101A40009F70922B909301069091E20590FF24C223
:101A5000282F082E000C330B3F938F938CE094E0DB
:101A6000B9C18A81882309F417C290910106892F90
:101A700085958595859585958B3F0CF40DC2815F85
:101A80008295807F8595859585958595282F2295CA
:101A9000207F9F70922B909301069091E20590FF1A
:101AA000FBC1282F082E000C330B3F938F9389EF37
:101AB00093E090C18A81882309F4EEC190910106D8
:101AC000959595959595959596300CF0E5C181E0A5
:101AD000890F8295807F85958595859585951916C1
:101AE0004CF08295807F909101069F70892B8093A6
:101AF000010602C087FFF5CF8091E20580FFCCC1CF
:101B0000809101068595859585958595282F082EC8
:101B1000000C330B3F938F9386EE93E05BC12A81D9
:101B2000222309F4B9C18259282F2F7090910206FF
:101B3000907F922B909302069091E20590FFACC1AA
:101B40001F928F9384ED93E045C18A81882309F425
:101B5000A3C190910206892F8F7009F49DC1815F06
:101B60008F70907F982B909302069091E20590FFE2
:101B700093C11F928F9382EC93E02CC18A818823BA
:101B800009F48AC18091020691E0980F9F70807FCE
:101B9000892B809302068091E20580FF7DC11F9210
:101BA0009F9380EB93E016C12A81222309F474C12C
:101BB0008E59282F2295207F909102069F70922B9C
:101BC000909302069091E20590FF66C11F928F9359
:101BD0008FE993E0FFC08A81882309F45DC1909169
:101BE0000206892F82958F70815F8F70282F229532
:101BF000207F9F70922B909302069091E20590FFB8
:101C00004BC11F928F938EE893E0E4C08A818823B2
:101C100009F442C190910206892F82958F708F5FDF
:101C20008F70282F2295207F9F70922B9093020611
:101C30009091E20590FF30C11F928F938DE793E062
:101C4000C9C08A81882309F427C160910206629580
:101C50006F7020E04BE78BE096E00E947A25809140
:101C6000E20580FF19C189E693E09F938F930E945C
:101C7000BD040F900F9010C121112FE762956F7076
:101C800040E48BE096E00E947A258091E20580FF97
:101C900003C18A811F928F9388E593E09BC0211135
:101CA0002FE762956F7041E48BE096E00E947A2501
:101CB0008091E20580FFF0C08A811F928F9384E4B7
:101CC00093E088C021112FE762956F7042E48BE0AA
:101CD00096E00E947A258091E20580FFDDC08A812E
:101CE0001F928F9381E393E075C08A81811102C0B6
:101CF00020E001C02FE76091020662956F7043E417
:101D00008BE096E00E947A258091E20580FFC4C0B6
:101D10008A811F928F9383E293E05CC08A81811154
:101D200002C020E001C02FE76091020662956F704B
:101D300043E48BE096E00E947A258091E20580FFE3
:101D4000ABC08A811F928F9383E193E043C08A8165
:101D5000811102C08FEF01C081E08093FB019CC024
:101D60008A81882309F498C080910306282F2F7058
:101D700091E0920F9F70807F892B80930306982FAC
:101D80009F7021F4807F822B809303068091E2056F
:101D900080FF82C0809103068F701F928F9386EF21
:101DA00092E018C08A81882309F476C090910306D6
:101DB000892F8F7009F470C0815F8F70907F982B8E
:101DC000909303069091E20590FF66C01F928F9357
:101DD00089ED92E09F938F930E94BD040F900F9026
:101DE0000F900F9059C0FA806091020662956F7053
:101DF000FF20B1F040E050EE8BE096E00E94AA2573
:101E00008091E20580FF48C080EE8F931F92809101
:101E1000020682958F701F928F9384EB92E032C0FE
:101E200040E050E08BE096E00E94AA258091E20518
:101E300080FF32C01F921F928091020682958F70A0
:101E40001F928F938FE892E03DC0FA806091020666
:101E500062956F70FF2011F14FEF5FE18BE096E02C
:101E60000E94AA258091E20580FF16C08FE18F9322
:101E70008FEF8F938091020682958F701F928F93C0
:101E80008AE692E09F938F930E94BD040F900F907B
:101E90000F900F900F900F90F12C21C040E050E078
:101EA0008BE096E00E94AA258091E20580FFF4CFA6
:101EB0001F921F928091020682958F701F928F93BE
:101EC00085E492E09F938F930E94BD040F900F9042
:101ED0000F900F900F900F9002C0FF24F3948F2D5E
:101EE000DF91CF911F910F91FF90EF9008958BE0BC
:101EF00096E00E94C5278091F9019091FA010E9415
:101F0000B924209103062F7030E08217930708F45C
:101F100041C00E94AD249093FA018093F901809111
:101F2000FB018823B9F18091E20580FF0EC080910A
:101F3000FC011F928F9381E392E09F938F930E9405
:101F4000BD040F900F900F900F9060910206629564
:101F50006F702091FC0141E08BE096E00E947A25B1
:101F60009091FB018091FC0197FF0FC0282F30E07A
:101F7000692F772761950CF47095261737072CF495
:101F80001092FC011092FB010895890F87FD8FE7E5
:101F90008093FC01089580915C0281110C94AB0B3D
:101FA000089521E08F3F910508F020E0822F0895E9
:101FB0000C94D10F0E94CB0F10925D0208950E94E5
:101FC000AB0B10925C0208950E94CB0F80911C0114
:101FD00090E001968370992780931C0108950895DD
:101FE00081E080935D020C94EF0F089581E080936F
:101FF0005C020C94F50FEF92FF921F93CF93DF9347
:10200000CDB7DEB7A3970FB6F894DEBF0FBECDBF36
:102010007C0186E2E8168CE5F80641F4FB0182813A
:10202000882309F450C00E94F00FAAC0F7E2EF160F
:10203000FCE5FF0641F4FB018281882309F443C0DB
:102040000E94DA0F9DC0F8E2EF16FCE5FF0649F4A6
:10205000FB0182818823B9F180915D028111F0CF6B
:10206000E2CFFCE2EF16FCE5FF0639F4FB018281CA
:10207000882349F10E94F60F83C0FDE2EF16FCE5CC
:10208000FF0639F4FB0182818823E9F00E94DF0F0B
:1020900077C0FEE2EF16FCE5FF0649F4FB01828102
:1020A000882389F080915C028111F0CFE3CFF9E2BF
:1020B000EF16FCE5FF0639F4FB018281882319F055
:1020C0000E94E40F5DC080915D02811105C0809186
:1020D0005C02882309F4DBC0FB019281992309F497
:1020E00051C0F0EEEF16F10461F40E94CB0F81E0D5
:1020F00080935B0210925A02109259021092480289
:102100003FC082EEE816F10471F40E94CB0F80917B
:102110005B02882319F081E080935A0210925B02DF
:10212000109259022DC0E3EEEE16F10491F4809165
:102130005A02882339F10E94CB0F10925B0281E092
:102140008093590210924702109246021092450263
:1021500017C0F2E5EF16F10431F480911A01909165
:102160001B010A9709C081E5E816F10459F4809132
:102170001A0190911B010A9690931B0180931A01FA
:1021800080E086C080911C0181110AC0FB01108192
:1021900080911F01180F135080911D01180F4BC023
:1021A0008130A1F4FB01108180911F01180F105E96
:1021B00020911D01120F818124E030E0281B31099C
:1021C000822F880F880F280F120F3EC0823099F49B
:1021D000FB01108180911F01180F105E80911D017D
:1021E000180F818124E030E0281B3109F7E02F9F90
:1021F000100D112429C0833029F583E2EEE3F1E0CC
:10220000DE01119601900D928A95E1F7FB01808124
:1022100021E030E02C0F3D1F280F311D40911D01A2
:1022200050911E01F901E40FF51F10911F01135089
:102230008081180FFB01818124E030E0281B3109E7
:10224000FCE0D5CF10911F0180915C029923A1F091
:10225000882319F0812F0E949D0B80915B028823B7
:1022600081F080914802E82FF0E0E75BFD4F10839A
:102270008F5F8093480205C0882319F0812F0E9448
:10228000A40BC7010E94D80F91E0892701C081E00B
:10229000A3960FB6F894DEBF0FBECDBFDF91CF91EE
:1022A0001F91FF90EF900895AF92BF92CF92DF926F
:1022B000EF92FF920F931F93CF93DF937C015B010B
:1022C000C42FD22FFC0182818823F9F04093600251
:1022D0000E94AD2490935F0280935E0280E28C0F97
:1022E000883008F06EC0C77081E001C0880FCA95C1
:1022F000EAF7DF91CF911F910F91FF90EF90DF9060
:10230000CF90BF90AF900C94ED198091600248136C
:1023100035C080915E0290915F020E94B9246C01E9
:10232000B701C5010E94351FC816D90638F510E25D
:102330001D0FCD17B9F080E28C0F883040F4C770C4
:1023400081E001C0880FCA95EAF70E94F41918309D
:1023500058F581E09D2F977001C0880F9A95EAF794
:102360000E94ED19802F0E94DA19183050F5D770AD
:1023700081E001C0880FDA95EAF70AC080E28C0F8D
:102380008830F8F4C77081E001C0880FCA95EAF779
:10239000DF91CF911F910F91FF90EF90DF90CF9041
:1023A000BF90AF900C94F419802FDF91CF911F91C3
:1023B0000F91FF90EF90DF90CF90BF90AF900C9473
:1023C000DA19DF91CF911F910F91FF90EF90DF907D
:1023D000CF90BF90AF9008950F939C01CB01233F06
:1023E0004CE5340731F188F4283DFCE53F07D9F08E
:1023F000293D4CE5340779F1273D3C45A9F506E236
:1024000021EE41EE67ED7CE52BC0253FFCE53F0763
:10241000E1F0A8F0263F3C4539F507E225EE46EE0F
:1024200066EF7CE51DC007E225EE45EE68ED7CE534
:1024300017C006E221EE40EE63EF7CE511C007E233
:1024400025EE44EE64EF7CE50BC006E221EE42EEA1
:1024500065EF7CE505C008E221E045EE69ED7CE52D
:102460000E94541180E008C0FC018281882319F089
:102470001092600201C081E00F910895CF93DF9325
:10248000EC01FB018281882309F41FC1C230FCE505
:10249000DF0708F41BC1C6319CE5D90738F09E015F
:1024A0002A5F3C452930310508F010C10E944223C3
:1024B00090930A0680930906C031ECE5DE0709F423
:1024C000C3C008F041C0C8308CE5D80709F49AC0F1
:1024D000F0F4C430ECE5DE0709F487C068F4C230DC
:1024E0008CE5D80709F477C0C330DC4509F0E3C0B8
:1024F00080910906826076C0C630ECE5DE0709F4FB
:102500006EC008F07BC08091090688606BC0CC303B
:102510008CE5D80709F485C068F4CA30ECE5DE071D
:1025200009F474C008F079C00E947C1C80910906EF
:10253000806858C0CE308CE5D80709F476C008F022
:102540007FC0809109068BC0CB3FECE5DE0709F424
:102550004FC018F5C3318CE5D80709F47DC078F475
:10256000C131ECE5DE0709F473C0C231DC4509F086
:10257000A2C00E947C1C809109068F7733C0C531B0
:102580008CE5D80709F472C008F486C0CA3FDC4560
:1025900009F091C080910A063EC0CF3FFCE5DF07FD
:1025A00009F45FC058F4CD3F9CE5D90709F444C055
:1025B00008F43FC080910A0682602DC0C130FDE55D
:1025C000DF0709F475C008F45DC0C230DD4509F0CD
:1025D00072C080E06EC080910906816003C0809166
:1025E000090680618093090666C08091090611C0C2
:1025F00080910A06826080930A065DC08091090678
:102600008062F0CF809109068064ECCF809109064A
:1026100088608460E7CF8160EECF809109068E7F6D
:10262000E1CF809109068D7FDDCF80910906877FFC
:10263000D9CF80910A0618C080910A068D7FDBCF22
:10264000809109068F7ECECF809109068F7DCACFFB
:10265000809109068F7BC6CF80910906877F8B7F8B
:10266000C1CF80910A068D7F8E7FC5CF80910906EC
:1026700082FB222720F991E0922790FB82F990FBC0
:1026800083F9B0CF80910A06982F909591708E7F34
:10269000892B90FB81F9AFCF0E947C1C80910906A9
:1026A00087FB222720F991E0922790FB87F99ACFA8
:1026B00081E00E94D1238091090690910A060E9430
:1026C00053230E947C1C80E001C081E0DF91CF9108
:1026D0000895CF93DF9386319C4541F5EB010E942D
:1026E0004B22982F8A812091250130912601882341
:1026F00079F09A7A81E009F480E080936102911187
:1027000002C069E201C065E3C9010E9418240AC041
:1027100080916102811102C069E201C065E3C901D3
:102720000E941A240E949C2280E001C081E0DF9177
:10273000CF9108950895089508950C949C130F93D4
:102740001F93CF93DF93EC018B018091E20580FF13
:1027500004C08EE795E00E9424040E949A130E9410
:102760007C1C0E94BB2019830883DF91CF911F91AD
:102770000F9108958F929F92AF92BF92CF92DF9266
:10278000EF92FF921F93CF93DF93EC017B01142F05
:102790008091E20580FF11C0141614F082E001C0A0
:1027A00081E01F928F938DE595E09F938F930E9418
:1027B000BD040F900F900F900F908090CD059090DA
:1027C000CE05A090CF05B090D0050E947C1C0E9441
:1027D000BB2086E0180260011124CE15DF0531F020
:1027E000CE010E94281CCC0DDD1DF7CF0E947C1C61
:1027F0008092CD059092CE05A092CF05B092D005E3
:10280000812FDF91CF911F91FF90EF90DF90CF90BC
:10281000BF90AF909F908F900C949D13CF92DF92BA
:10282000EF92FF920F931F93CF93DF93F8013281C2
:10283000FB01A081B181311113C0A817B90781F440
:102840008091E20580FF78C08CE295E0DF91CF9126
:102850001F910F91FF90EF90DF90CF900C94240484
:10286000F801122FEA017B016C0186E02802900139
:102870001124CD01821B930B4817590769F096E08C
:1028800001900D929A95E1F7FB0180819181820F71
:10289000931F9183808304C0BF01812F0E949B13EB
:1028A0008091E20580FF48C0212F012E000C330BE0
:1028B000CC19DD09D595C7954BEA5AEAC49FC001EA
:1028C000C59F900DD49F900D1124829FB001839FCE
:1028D000700D929F700D11246F5F7F4FF701808103
:1028E00091818C199D0995958795849FF001859F0D
:1028F000F00D949FF00D1124E29FA001E39F500D75
:10290000F29F500D1124111614F082E001C081E0F5
:102910007F936F935F934F931F928F9386E095E021
:102920009F938F930E94BD048DB79EB708960FB6F4
:10293000F8949EBF0FBE8DBFDF91CF911F910F9175
:10294000FF90EF90DF90CF9008958F929F92AF927B
:10295000BF92CF92DF92EF92FF921F93CF93DF93BC
:102960006C01EB01142F7901842F0E949C138AEFD4
:102970001802400111248091E205CC15DD0519F4FF
:1029800080FD10C037C05E01A80CB91CF501928112
:102990009923B1F380FF04C082ED94E00E942404E7
:1029A000E501E9CFCE018C199D09959587952BEA14
:1029B0003AEA829FA001839F500D929F500D1124EF
:1029C00014039001159F300D1124111614F082E0AC
:1029D00001C081E03F932F931F928F9388EA94E088
:1029E0009F938F930E94BD040F900F900F900F90B4
:1029F0000F900F90F701D183C083DF91CF911F918A
:102A0000FF90EF90DF90CF90BF90AF909F908F900E
:102A100008950F931F93CF938B012091640521118B
:102A200039C0FB01C281C1117DC08430FDE59F0723
:102A3000E9F060F483309D4509F073C062E672E00E
:102A400082E695E00E949F1381E017C08630EDE595
:102A50009E07B1F087309D4509F063C06091200169
:102A6000709121014FEF8CE595E011C06CE575E0A8
:102A700082E695E00E949F1382E08093640552C035
:102A8000609122017091230141E082E692E00E9470
:102A9000BA1348C0AC0143505D454330510528F599
:102AA00031E085309D4509F430E0F80182818317DB
:102AB000B1F1213061F02230A9F46091620570918A
:102AC000630520E231E04FEF8CE595E009C06091AD
:102AD00062057091630522E231E041E082E692E016
:102AE0000E94A514109264051AC0213061F02230B2
:102AF000C1F440912201509123012FEF62E675E06D
:102B00008CE595E009C0409120015091210121E020
:102B100062E675E082E692E00E940E1402C0C0E018
:102B200001C0C1E08C2FCF911F910F910895CF93D9
:102B3000DF93EC0181E0898B8F810E944E22888592
:102B40000E9461220E949C22EA81FB81CE010696AE
:102B5000309729F06C897D89DF91CF910994DF91BD
:102B6000CF910895CF93DF93FC012081223041F46F
:102B7000FB01EC01828193810E94EE0681E08B874C
:102B8000DF91CF910895FC018081813021F4FB0118
:102B90008081918105C0823029F4FB01828193817B
:102BA0000C94EE060895FC018081813021F4FB0134
:102BB0008081918105C0823029F4FB01828193815B
:102BC0000C9404070895EF92FF920F931F93CF93F5
:102BD000DF93FC012285211136C0EC01E380F480F3
:102BE000F7E5FF1A26E12E9DC0012F9D900D1124BF
:102BF000DC01A050BF4F1496ED91FC9115978A5FB0
:102C00009E4F309729F054966D917C915597099578
:102C100086E18E9D80018F9D100D112400501F4F65
:102C2000F80187810E945422F80180850E94672262
:102C30000E949C22188219861B861E821D82109279
:102C4000660510926505DF91CF911F910F91FF905E
:102C5000EF900895DF92EF92FF920F931F93CF931F
:102C6000DF93FB0122812223A1F1209124012F3F38
:102C700081F18C01C0E0D1E0E12CF12CDD24D39472
:102C800080912401082E000C990B8E159F050CF1E4
:102C90008E818823C9F089859A858017910739F438
:102CA00080916505909166050817190769F0DF8620
:102CB0001C870B878989811103C0CE010E9497155B
:102CC000CE0106960E94E315FFEFEF1AFF0A669603
:102CD000D7CFDF91CF911F910F91FF90EF90DF90B1
:102CE0000895EF92FF920F931F93CF93DF939C0170
:102CF00037552F3F310511F008F047C040912401AE
:102D0000042E000C550B4217530714F42093240192
:102D1000FB017C01828196E1929F8001939F100DBF
:102D20001124E801C050DF4F888B92818E81992356
:102D300011F1FA86E9868F5F8E830E94AD249E870B
:102D40008D870E9481228F830E944B2288870E9458
:102D50005E229885892B8887E881F981C8018A5F7E
:102D60009E4F309719F06C897D890995F092660520
:102D7000E09265050AC0882341F08989882329F0FB
:102D8000C8018A5F9E4F0E94E31581E0DF91CF91D9
:102D90001F910F91FF90EF900895CF92DF92EF92E5
:102DA000FF920F931F93CF93DF93809124018F3F66
:102DB00009F442C0F12C86E1E82E0F2D10E080913D
:102DC0002401082E000C990B80179107ACF1E09EAE
:102DD000F001E19EF00D1124E050FF4FC288D3882E
:102DE000C114D10439F460E070E0818592850E94BD
:102DF000351F6C01E09EE001E19ED00D1124C05012
:102E0000DF4F8E818823B1F08D859E850E94B92485
:102E1000C816D90678F48989811103C0CE010E94B1
:102E20009715E09EC001E19E900D11248A5F9E4F90
:102E30000E94E315F394C1CFDF91CF911F910F91C1
:102E4000FF90EF90DF90CF90089590936C05809362
:102E50006B050895E0916B05F0916C05309721F0BA
:102E60000190F081E02D099480E00895EF92FF92A7
:102E70000F931F93CF93DF93E0916B05F0916C0557
:102E80003097B1F18C010280F381E02D099580919A
:102E9000E20582FF2DC080FF04C089EA95E00E9410
:102EA0002404E80118E083EAE82E85E0F82E8091FA
:102EB000E20580FF0BC088811F928F93FF92EF92F3
:102EC0000E94BD040F900F900F900F90115021960B
:102ED0001111EDCF8091E20580FF0AC081EA95E0F3
:102EE000DF91CF911F910F91FF90EF900C942404EC
:102EF000DF91CF911F910F91FF90EF900895209156
:102F0000690530916A052817390771F090936A05B1
:102F100080936905E0916B05F0916C05309721F085
:102F20000680F781E02D099408952091670530917E
:102F300068052817390771F0909368058093670535
:102F4000E0916B05F0916C05309721F00084F185DC
:102F5000E02D0994089585B7806885BF85B780689E
:102F600085BF089508950C94B2170C94B3170C9470
:102F7000B2170C94B2170E94AB170E94B7170C94AB
:102F8000B51781E008950C94C1170E94A4240E94F3
:102F9000710A0E9428250C94B917CF93C82F8091ED
:102FA000E20582FF1EC080FF04C082EC95E00E9413
:102FB00024048091E20580FF0CC01F92CF938DEB1B
:102FC00095E09F938F930E94BD040F900F900F90F8
:102FD0000F908091E20580FF04C08BEB95E00E948A
:102FE00024048C2FCF910C947B077F928F929F9219
:102FF000AF92BF92CF92DF92EF92FF920F931F9307
:10300000CF93DF93CDB7DEB72A970FB6F894DEBF24
:103010000FBECDBF0E94D50A0E94C317811111C0F7
:103020008FEF89838A831B820E94AD248160782F71
:103030009D838C8349815A816B818D810E94A51863
:103040004FC04EE6A42E45E0B42E00E010E0702EF6
:10305000802F0E94160A6C01F501819091905F010A
:10306000882699268114910431F40F5F1F4F043094
:10307000110569F7D5CF8091E20581FD0E941F0AF5
:1030800080E0EE24E394F12C94012E213F21232BA8
:1030900009F18E837F82CE20DF2081E0CD2809F4E4
:1030A00080E088870E94AD248160782F9A87898785
:1030B0004E815F8168858A850E94A518000F111FC7
:1030C000F801E259FA4F80819181E826F926F182D0
:1030D000E08206C08F5FEE0CFF1C8C30A9F6C5CFD6
:1030E0000E94770F0E942A1790916D058917C9F0E9
:1030F0000E942A1780936D052A960FB6F894DEBFBA
:103100000FBECDBFDF91CF911F910F91FF90EF9038
:10311000DF90CF90BF90AF909F908F907F900C9456
:10312000CD172A960FB6F894DEBF0FBECDBFDF9144
:10313000CF911F910F91FF90EF90DF90CF90BF90B4
:10314000AF909F908F907F900895CF93DF93CDB7EE
:10315000DEB72B970FB6F894DEBF0FBECDBF4F83FF
:10316000588769877A878B87DE01119686E0FD0193
:1031700011928A95E9F785E0FE01379601900D924C
:103180008A95E1F749815A816B817C818D819E818D
:103190000E94381F2B960FB6F894DEBF0FBECDBF2E
:1031A000DF91CF910895FC01808191810E940C22D2
:1031B0000895CF93882309F49CC0C82F8238C1F4A6
:1031C0000E942A1781FD95C069E3809125019091A5
:1031D00026010E9418240E949C222FEF81EE94E089
:1031E000215080409040E1F700C0000069E319C021
:1031F000833801F50E942A1780FD7BC063E580912A
:103200002501909126010E9418240E949C222FEFF4
:1032100081EE94E0215080409040E1F700C0000032
:1032200063E580912501909126010E941A24CF9197
:103230000C949C228438C1F40E942A1782FD59C044
:1032400067E480912501909126010E9418240E9434
:103250009C222FEF81EE94E0215080409040E1F7D6
:1032600000C0000067E4DDCF8CEF8C0F813AD0F412
:103270006C2F80912501909126010E94E2238823E2
:1032800049F06C2F80912501909126010E941A240B
:103290000E949C226C2F80912501909126010E9412
:1032A0001824C5CF80E28C0F883048F4C77081E0C5
:1032B00001C0880FCA95EAF70E944E22B8CFEBE50D
:1032C000EC0FE33040F4F0E0E053FE4F808190E0FB
:1032D000CF910C947F17C85AC73158F4EC2FF0E007
:1032E000EE0FFF1FEE55FE4F80819181CF910C9420
:1032F0009517CF910895882309F45BC0682F823811
:1033000079F40E942A1781FF54C069E38091250156
:10331000909126010E9418240E949C2269E310C00B
:103320008338B1F40E942A1780FF43C063E580917F
:103330002501909126010E9418240E949C2263E599
:1033400080912501909126010E941A240C949C22C0
:10335000843879F40E942A1782FF2BC067E4809199
:103360002501909126010E9418240E949C2267E466
:10337000E7CF8CEF860F813A18F380E2860F883012
:1033800048F4677081E001C0880F6A95EAF70E94EF
:103390005422DCCF8BE5860F833020F480E090E070
:1033A0000C947F17685A673120F480E090E00C9409
:1033B00095170895CF93C82F0E94D918C93349F49F
:1033C0002FEF87EE93E0215080409040E1F700C05E
:1033D00000008C2FCF910C947B19882321F00E9440
:1033E0004E220C949C220895882321F00E9454229E
:1033F0000C949C220895CF92DF92EF92FF920F934C
:103400001F93CF93DF937C01062FC72FFC011581FB
:1034100012951F70D281D1110E946E220E94442207
:10342000882399F0DD2389F08C2F807F803421F070
:1034300080E2800F883048F082E00E94E6220E94FD
:10344000442291E0D82ED92601C0D12CCC2EC29492
:103450008FE0C8228C2D90E0FC01EA5AFF4F0C94BB
:1034600085318C2F807FCF70882311F0C295C07F6B
:10347000DD2399F0CC2309F482C180E2800F8830EB
:1034800010F0011104C08C2F0E944E2203C08C2F1B
:103490000E9461220E949C2272C1802F0E947B198F
:1034A000CC2309F491C180E2800F883010F0011123
:1034B00004C08C2F0E94542203C08C2F0E946722CC
:1034C0000E949C2281C18C2F807FCF70803211F0AE
:1034D000C295C07F002319F00130C9F022C0DD235E
:1034E00071F0112341F0113031F40E9481228C2BB4
:1034F0000E94892269C10E9481228C2B1DC0112348
:1035000019F0113009F460C10E94922225C0DD2318
:1035100021F0163008F058C10EC0153008F054C123
:103520001BC0DD2361F0112331F0F701858180FF9D
:1035300026C18F7085838C2F0E94ED1945C1112300
:1035400059F0093309F02CC1FFEF27EE83E0F15069
:1035500020408040E1F722C18C2F0E94F41934C131
:103560008C2F86958695837019F0813061F02CC17F
:10357000DD2321F0802F9C2F937002C080E090E02B
:103580000E947F1729C1DD2321F0802F9C2F93708B
:1035900002C080E090E00E9495171EC18C2F8370BE
:1035A00009F045C0D11114C1402F4295469547708E
:1035B000440F440F602F6F70862F90E0A0E0B0E0C2
:1035C000042E04C0880F991FAA1FBB1F0A94D2F7AC
:1035D00004FF10C00FE010E020E030E004C0000F56
:1035E000111F221F331F4A95D2F700951095209581
:1035F000309503C000E010E09801C695C695C370F1
:10360000BC01CD01602B712B822B932BC23049F072
:1036100058F4C13019F00E948920DAC00E94772046
:10362000D7C00E949B20D4C00E947520D1C0DD234A
:1036300019F08C2F817001C08695882309F4C8C0C9
:10364000402F429546954770440F440F602F6F708E
:10365000862F90E0A0E0B0E0042E04C0880F991FF0
:10366000AA1FBB1F0A94D2F704FF10C00FE010E09E
:1036700020E030E004C0000F111F221F331F4A95C5
:10368000D2F7009510952095309503C000E010E02A
:103690009801C695C695C370BC01CD01602B712BF6
:1036A000822B932BC23049F058F4C13019F00E949C
:1036B0004E218EC00E943C218BC00E94602188C098
:1036C0000E94AF2085C0CF70DD2339F08C2F0E947F
:1036D000D520802F0E94ED197BC0802F0E94F41905
:1036E0008C2F0E94F62074C0023F01F128F4003FA5
:1036F00041F0013FA1F03FC0033FF9F0043F39F131
:103700003AC0DD2341F0153008F05EC08C2F8F7178
:103710000E941B2159C0163008F056C0F7CFDD2398
:1037200039F08C2F8F710E94D5204EC0DD23C9F354
:103730008C2F8F710E94F62047C0DD2329F08C2F3B
:103740008F710E94C02040C00E94BB203DC0DD237D
:1037500049F0CF718C2F0E94D52063E08C2F0E94FE
:10376000D12232C081E00E94E622123068F182E06C
:103770000E94E62229C0DD2331F0112391F2802F2F
:103780000E94D91821C0112399F2093349F49FEFFF
:10379000E7EEF3E09150E040F040E1F700C00000B8
:1037A000802F0E947B1910C04C2F4F70602FC701D3
:1037B0000E940E080E94E61F0FC04C2F4F70602F12
:1037C000C7010E94110808C088EF8C0D843020F4D6
:1037D0000E942A170E947B07DD20C9F00E94402228
:1037E00080FD15C0F70112820E943A220E94D52066
:1037F000C7010E94281C0E943A22DF91CF911F919D
:103800000F91FF90EF90DF90CF900C94F620DF9116
:10381000CF911F910F91FF90EF90DF90CF9008957F
:103820000F931F93CF93DF93EC01688179818A8195
:103830000E9417228C010E9472210E946320B8010D
:10384000CE010E94FB19DF91CF911F910F91089536
:10385000CF93DF93EC01988189812B813C81232BCD
:1038600031F08F3F31F481E09F3F19F403C081E0D4
:1038700001C080E080FD19C0CE010E949607811131
:103880000CC00E944422882381F08A81882369F039
:1038900082E0DF91CF910C94E622CE010E94101CB1
:1038A000CE01DF91CF910C945D07DF91CF91089508
:1038B000882321F00E9461220C949C220895882381
:1038C00021F00E9467220C949C2208950E946E228F
:1038D0000E947E220E949C2280E090E00E947F173E
:1038E00080E090E00C94951780912501909126013D
:1038F0000E941C240C94661C0E945B220C94741C75
:10390000E92FE295EF704E2F50E0FA013297EE303A
:10391000F105B0F4EA59FF4F0C948531803F91F0E6
:1039200018F4883E68F40EC0843F51F40BC0883E02
:1039300048F0813F29F406C093FB882780F9089559
:1039400080E0089581E008950E940C220E94801C6E
:103950000895CF93DF9300D000D01F92CDB7DEB78C
:103960000F900F900F900F900F90DF91CF910895CF
:10397000CF93DF9300D000D000D0CDB7DEB726962E
:103980000FB6F894DEBF0FBECDBFDF91CF91089583
:103990001F93CF93DF93C091770516E08091780550
:1039A000C81799F0D0E01C9FF0011D9FF00D112465
:1039B000E758FA4F408151816281738184819581FA
:1039C0000E94B81C2196C770E9CFDF91CF911F915B
:1039D00008954091A9055091AA056091AB05709199
:1039E000AC058091AD059091AE050C94B81C0F9379
:1039F0001F93CF93DF938091AE0582958F7009F06E
:103A00005DC08091AB05882309F458C0809177058B
:103A1000109178056091A9057091AA05C091AC0537
:103A2000D091AD0591E06F3F09F090E0292F06E0BD
:103A3000811709F443C0209721F07F3F21F030E047
:103A400003C031E001C0322F90E030FD34C0089F48
:103A5000F001099FF00D1124DF01A758BA4F11960C
:103A60003C911197371327C03C91361324C012960E
:103A70003C91129731111FC013964D915C91149790
:103A80004C1B5D0B483C5105B0F48091AE058F7026
:103A900080618093AE05E258FA4F80818F7080611B
:103AA000808389EA95E00E94281CDF91CF911F91C5
:103AB0000F910C94C81C01968770BACFDF91CF91FB
:103AC0001F910F9108959F92AF92BF92CF92DF9274
:103AD000EF92FF920F931F93CF93DF93CDB7DEB793
:103AE00061970FB6F894DEBF0FBECDBF8C0185E0A5
:103AF000F801DE011D9601900D928A95E1F7F8011B
:103B000040815181E2809091A9056091AA052091A0
:103B1000AC053091AD052115310531F06F3F31F421
:103B200081E09F3F19F403C081E001C080E0F82FDD
:103B3000F1709F2E80FD46C1F801A380B48089EA10
:103B4000C82E85E0D82EF090AB05F501E21BF30BF3
:103B5000FF2009F4DFC08091AE05E83CF10508F0D4
:103B60009BC0282F207F09F052C0561313C0491361
:103B700011C0FE2CE1100EC08F7080618093AE05E5
:103B80000E94E91CC6010E94281C8091AE05F80124
:103B9000858358C1AB2831F05F3F31F481E04F3F5E
:103BA00019F403C081E001C080E080FD03C081E022
:103BB0008E2502C080E090E0F82FF170FF2E80FF8C
:103BC0001CC0809177052091780536E0821709F4B2
:103BD00017C190E0389FF001399FF00D1124E7588C
:103BE000FA4F6181561306C06081461303C062819B
:103BF000E61203C001968770E9CFFE2CEE2009F48F
:103C000021C18091AE0581608093AE055AC05613E4
:103C100006C0491304C0E11002C0F8019FC04D87DF
:103C20005E878D859E850E94A41C882379F1EE20F5
:103C300069F12091AE05822F82958F7090E00297F6
:103C400074F08091A9059091AA0598878F831986B1
:103C5000BB86AA862C87CE0107960E94281C86E088
:103C6000F801A9EAB5E001900D928A95E1F70E946A
:103C7000F71C0E94E91C0DC0561729F14D875E877D
:103C80008D859E850E94A41C81112CC0C8010E94B4
:103C9000281CFF24F394D6C0282F207F69F77A2DA3
:103CA000B98AA88A6E2D89890E94A91C89EA95E0A3
:103CB0000E94281C86E0F60111928A95E9F70E947D
:103CC000E91CF12CBFC04913D9CFE110D7CFF801BF
:103CD0008583C8010E94281C86E0F60111928A950E
:103CE000E9F7B0C0EE2091F22091AE05822F8295C7
:103CF0008F7090E002970CF4B2CF8091A90590915B
:103D0000AA059A8389831B82BD82AC822E83CE0151
:103D10000196A3CFE83CF10508F047C0FE2CEE2049
:103D200009F4B4CF561330C049132EC02091AE050C
:103D300020FD21C0822F82958F70482F50E04115C1
:103D40005105C9F0F80125834F30510541F08F5FCF
:103D5000982F9295907F822F8F70892B8583C80131
:103D60000E94281C86E0F801A9EAB5E001900D92B6
:103D70008A95E1F742C086E0F801A9EAB5E0019032
:103D80000D928A95E1F75EC04D875E878D859E8591
:103D90000E94A41C811163CF8091AE058160809345
:103DA000AE05C8010E94281C4DC07A2DB98AA88A88
:103DB0006E2D89890E94A91C86E0F60111928A95D0
:103DC000E9F71BC0EE2009F461CF4D875E878D8532
:103DD0009E850E94A41CF82E882309F457CF86E004
:103DE000F801A9EAB5E001900D928A95E1F789EA18
:103DF00095E00E94D3180E94F71C0E94E91C22C083
:103E00004D875E878D859E850E940C22292F2295E5
:103E10002F70223028F49F7039F0811105C00BC03B
:103E2000243028F49F7049F4805E883020F0C80167
:103E30000E94281C9F2CF92C05C0F8019581907FC9
:103E400099F7F9CF8F2D61960FB6F894DEBF0FBEAC
:103E5000CDBFDF91CF911F910F91FF90EF90DF9039
:103E6000CF90BF90AF909F90089588EC90E0089518
:103E70001F93CF93DF93CDB7DEB72C970FB6F8948F
:103E8000DEBF0FBECDBF4F83588769877A878B8788
:103E90009C87CE0107960E94631D8823D1F09F81E5
:103EA00088852A853B85232B31F08F3F31F481E0D3
:103EB0009F3F19F403C081E001C080E080FD47C04E
:103EC0004F81588569857A858B859C850E94B81CB1
:103ED0003EC086E0FE013796DE01119601900D92FC
:103EE0008A95E1F7FF81E8856A857B856115710513
:103EF00031F0EF3F31F481E0FF3F19F403C081E07E
:103F000001C080E080FD23C02091780530E0C90128
:103F10000196877099274091770550E0841795079F
:103F2000F1F1F983EA837D836C8396E0929FD0015F
:103F3000939FB00D1124A758BA4FFE0131960190FE
:103F40000D929A95E1F7809378050E94C81C16E0BF
:103F50008091770590917805891771F1189FC001BC
:103F6000112487589A4F0E94631D882329F1E091FC
:103F700077051E9FF0011124E758FA4F40815181C7
:103F800062817381848195810E94B81C809177053C
:103F900090E001968770992780937705D9CF0E948A
:103FA0007C1C1092780510927705E9EAF5E086E02E
:103FB000DF011D928A95E9F72C960FB6F894DEBFC3
:103FC0000FBECDBFDF91CF911F910895EF92FF9269
:103FD0000F931F93CF93DF938C01892B09F46CC04F
:103FE000F12CEE24E394E8012196F80184918437C2
:103FF00040F4843008F051C0813081F0823019F1F2
:104000005BC0853709F444C0A8F19CE7980F90374E
:1040100008F052C08F770E947B1941C00E5F1F4F7E
:10402000FE01849190E2980F983050F48770FE2D35
:1040300001C0FF0F8A95EAF78F2F0E94712214C0EA
:104040000E94D9182DC00E5F1F4FFE01849190E28F
:10405000980F983060F48770FE2D01C0FF0F8A958D
:10406000EAF78F2F0E9477220E949C2219C00E949B
:104070007B1916C00E5F1F4FFE01C491CC2381F047
:104080008FE99FE00197F1F700C00000C150F6CF23
:104090000E5F1F4FFE01F49003C00E94D9188E01DD
:1040A0008F2D882309F49FCFEFE9FFE03197F1F7D7
:1040B00000C000008150F5CFDF91CF911F910F918B
:1040C000FF90EF900895089508950C9464200C9447
:1040D00065200E9467206093D1057093D20580937C
:1040E000D3059093D4050C94661C0C9469200F930F
:1040F0001F930091D1051091D2052091D3053091E5
:10410000D405602B712B822B932B1F910F910C9454
:1041100069200F931F930091D1051091D205209132
:10412000D3053091D40560237123822393231F91FB
:104130000F910C9469200F931F930091D10510915A
:10414000D2052091D3053091D405602771278227AD
:1041500093271F910F910C9469200C9464200E9466
:10416000AD206093CD057093CE058093CF059093DD
:10417000D0050C94661C60E070E0CB010C94AF207D
:104180000F931F9341E050E060E070E08A019B01D3
:1041900004C0000F111F221F331F8A95D2F7C901D7
:1041A000B8011F910F910C94AF200F931F9341E022
:1041B00050E060E070E004C0440F551F661F771F99
:1041C0008A95D2F78091CD059091CE05A091CF052B
:1041D000B091D0058A019B01082B192B2A2B3B2B70
:1041E000C901B8011F910F910C94AF200F931F9339
:1041F00041E050E060E070E004C0440F551F661FCE
:10420000771F8A95D2F7409550956095709580916B
:10421000CD059091CE05A091CF05B091D0058A0132
:104220009B01082319232A233B23C901B8011F91AD
:104230000F910C94AF200F931F9341E050E060E08A
:1042400070E004C0440F551F661F771F8A95D2F790
:104250008091CD059091CE05A091CF05B091D0056C
:104260008A019B01082719272A273B27C901B80182
:104270001F910F910C94AF200F931F930091CD05C8
:104280001091CE052091CF053091D005602B712B78
:10429000822B932B1F910F910C94AF200F931F93A0
:1042A0000091CD051091CE052091CF053091D0051C
:1042B00060237123822393231F910F910C94AF20CD
:1042C0000F931F930091CD051091CE052091CF053E
:1042D0003091D00560277127822793271F910F9176
:1042E0000C94AF2008952CE0929F800D1124E82FAC
:1042F000E695E695E695877051E001C0550F8A95E1
:10430000EAF785E0E89FF0011124E155FA4F20E03B
:1043100030E070E04081CB01022E02C09695879577
:104320000A94E2F7817081958427852384278193FD
:104330002F5F3F4F2530310569F708952CE0929F9C
:10434000800D1124682F669566956695982F977055
:1043500085E0689FB001112440E050E080E0FB015F
:10436000E40FF51FE155FA4F208130E0092E02C01D
:10437000369527950A94E2F721703327042E01C061
:10438000220F0A94EAF7822B4F5F5F4F45305105A9
:1043900031F70895BF92CF92DF92EF92FF920F9381
:1043A0001F93CF93DF938C01C090CD05D090CE05A5
:1043B000E090CF05F090D0058091D1059091D20585
:1043C000A091D305B091D405C82AD92AEA2AFB2A9C
:1043D000CFE1D0E0D701C6010C2E04C0B695A79559
:1043E000979587950A94D2F780FD04C0219790F79E
:1043F000B12C07C0BC2EB8018C2F0E942D0801974C
:10440000A9F38B2DDF91CF911F910F91FF90EF902A
:10441000DF90CF90BF900895CF93DF93EC010E947F
:10442000CA21BE010E942D08DF91CF9108951F93EC
:10443000CF93DF93EB0190917605992321F0CB0187
:104440000E940C2213C0882349F0CB010E94CA218C
:10445000182F682FCE010E94732104C0CB010E9447
:104460009E21182FBE01812F0E942D08DF91CF9130
:104470001F9108958091D505859585958595089519
:104480008091D505877008959091D505977081E04A
:1044900009F480E008958091E10508959091E10587
:1044A000892B8093E105089580959091E1058923FA
:1044B0008093E10508951092E10508958091E0054B
:1044C00008959091E005892B8093E00508958095EB
:1044D0009091E00589238093E00508951092E0050E
:1044E00008959091DF05892B8093DF0508958095CD
:1044F0009091DF0589238093DF0508951092DF05F1
:1045000008958091D605089508950C9484220C9402
:1045100085229091D605981721F08093D6050C94AA
:10452000872208958091D605882329F01092D60518
:1045300080E00C9487220895E0912501F0912601F6
:104540008091E1058083E0912501F0912601908121
:104550008091E005892B8083E0912501F09126016F
:1045600090818091DF05892B80838091D6058823F7
:1045700081F0E0912501F09126019081892B8083C3
:1045800080912501909126010E94D62381110E94DD
:10459000922280912501909126010C9436170C945B
:1045A000842298E0899F90011124262B2093D50521
:1045B0000E94D5208091D5058595859585950C948B
:1045C000CF221092D50580E00C94CF222091D50502
:1045D000809582238093D505982F977079F430E0E9
:1045E000482F082E000C550B2417350739F08595F8
:1045F000859585950E94F6200C94E122089590936C
:10460000F3018093F20108958295982F937344E00B
:10461000949F900111248C7C86958695282B822F5F
:104620008575880F2A7A2695822B0895CF93DF937C
:10463000D92F0E940423C82F8D2F0E9404232C2FD2
:1046400030E0322F2227A901482BCA01DF91CF91F8
:1046500008956FEF7FEF80E090E00C94B73180E039
:1046600090E00E94933121E08C3E9E4F09F020E0C3
:10467000822F089582E090E00C948B3183E090E0EB
:104680000C948B31CF9384E090E00E948B31C82F43
:1046900081E290E00E948B312C2F30E0A901582B51
:1046A000CA01CF910895CF93C92F682F84E090E07D
:1046B0000E9499316C2F81E290E0CF910C94993156
:1046C000AB01BC018FE090E00C94AB31AB01BC01BD
:1046D00083E190E00C94AB3160E070E0CB010C948E
:1046E000662360E070E0CB010E9460230C946C2391
:1046F0006CEE7EEF80E090E00E94B73160E082E0F7
:1047000090E00E94993160E083E090E00E9499314E
:104710001092D1051092D2051092D3051092D405B3
:1047200060E084E090E00E94993160E081E290E0F6
:104730000E94993160E085E090E00E94993160E04C
:1047400086E090E00E9499316FEF87E090E00E9450
:10475000993140E050E0BA0188E090E00E94AB312E
:1047600060E08DE090E00E94993140E050E0BA01B5
:1047700088E190E00E94AB3160E087E190E00E9428
:10478000993140E050E0BA018CE190E00E94AB31F9
:1047900060E080E290E00E9499310C9471230C94C7
:1047A0007823682F8EE090E00C949931FC013296CA
:1047B00097E080E0915029F021912223D9F38F5F77
:1047C000F9CF0895662349F0FC01329608962191AD
:1047D000621729F0E817F907D1F780E0089581E022
:1047E00008959C01FC0132969FEF80E041914617AD
:1047F00089F09F3F19F4411101C0982F8F5F8630D7
:10480000A9F79F3F39F0F901E90FF11D97FDFA95DE
:104810006283089508959C012A5F3F4FFC01428105
:10482000461301C01282019682179307B9F70895C3
:104830000C94F1230C940B24029626E0FC011192B7
:104840002A95E9F7089508950C9423240C942324C1
:10485000CF930E9426240E94D50A0E942424C0E0FF
:104860008C2F0E94160A892B29F4CF5FC430C1F720
:1048700080E001C081E0CF9108950C9423240C9432
:104880003D240E943F248091FC06843049F110921F
:10489000E30520E488E190E00FB6F894A8958093B2
:1048A00060000FBE2093600080E00E947B070E94A2
:1048B0003F2483B7817F846083BF83B7816083BFD8
:1048C0007894889583B78E7F83BF0FB6F894A895A8
:1048D00080916000886180936000109260000FBE3C
:1048E00008950C9423240E947C1C0E942A170E9485
:1048F0007B070C9471241F920F920FB60F92112414
:104900008F939F93AF93BF938091E305811113C061
:104910008091050690910606A0910706B0910806C1
:104920004196A11DB11D8093050690930606A093A4
:104930000706B0930806BF91AF919F918F910F909A
:104940000FBE0F901F90189582E084BD93E095BD37
:104950009AEF97BD80936E0008952FB7F8948091D9
:10496000050690910606A0910706B09108062FBF94
:1049700008959C014FB7F894809105069091060622
:10498000A0910706B09108064FBF821B930B0895B4
:1049900078941F920F920FB60F9211248F939F93CA
:1049A000AF93BF938091050690910606A0910706EC
:1049B000B09108060196A11DB11D80930506909344
:1049C0000606A0930706B0930806BF91AF919F918A
:1049D0008F910F900FBE0F901F90189581E08093DC
:1049E000E00080E28093D8001092C9008FE19EE43D
:1049F0000197F1F700C0000087E090EBDC018093A5
:104A0000050790930607A0930707B09308079CE05B
:104A100088E10FB6F894A895809360000FBE90933C
:104A20006000FFCF0C9429230E94D50A8FE39CE9F4
:104A30000197F1F700C000000E94D50A80E00E94B3
:104A4000160A80FF04C00E9412250C94EE240895DB
:104A50000E942F23811102C00E94CF230E943A237B
:104A60008093E2050E94422390930A0680930906F0
:104A70000E943E23682F70E080E090E00E94752045
:104A80006091CD057091CE058091CF059091D005B4
:104A90000C94AD20881F8827881F089591E0883FD7
:104AA00008F490E0892F0895982F907F903BF1F0C3
:104AB00038F49039D9F0903AC9F09038C9F416C05A
:104AC000903D49F018F4903C31F012C0903E71F0E6
:104AD000903F19F00DC082E00895815F8F3040F45F
:104AE000E82FF0E0ED52FE4F8081089583E00895B5
:104AF00080E008950F93022F0F77242F2F776F7088
:104B0000462F406BDC01ED91FC9163E070E009956C
:104B10000F9108950F93022F0F77242F2F776F7027
:104B2000462F4069DC01ED91FC9163E070E009954E
:104B30000F9108950F93022F0F77242F2F776F7007
:104B4000462F4068DC01ED91FC9163E070E009952F
:104B50000F9108950F931F93411520E252073CF4E3
:104B60004115A0EE5A0734F09A01305E05C02FEFD0
:104B70003FE302C020E030E08901000F012F001F59
:104B8000110B11952F77462F4F70406EDC01ED9180
:104B9000FC9163E070E009951F910F910895FC016D
:104BA000738362830895FC01758F648F0895CF939A
:104BB000DF93EC011DA21FA21EA2BC01685D7F4F06
:104BC00040EC88519F4F0E94FA271B821A821D8257
:104BD0001C821F821E82198618861B861A861D86D5
:104BE0001C861F861E86198A188A1B8A1A8A1D8AA5
:104BF0001C8A1F8A1E8A198E188E1B8E1A8E1D8E75
:104C00001C8E1F8E1E8E19A218A2DF91CF910895BF
:104C1000EF92FF920F931F93CF93DF93EA018A01E4
:104C2000060F111D88519F4F7C01C017D10729F035
:104C30006991C7010E940128F8CFDF91CF911F91A0
:104C40000F91FF90EF900895FC01718360830895A8
:104C5000FC0171A360A30895AF92BF92CF92DF923F
:104C6000EF92FF920F931F93CF93DF9300D01F9289
:104C7000CDB7DEB77C016B01142FB22EA02EDC0164
:104C800095968C9195978430F1F45A96ED91FC911C
:104C90005B97309709F4BEC0CB01019763E070E0E9
:104CA0000E945D31CB01880F991F860F971F4983A2
:104CB000BA820B834C2D481B9E012F5F3F4FBC01D6
:104CC000C7010995B4C06230710509F452C0633060
:104CD000710529F06130710509F099C080C0842FF9
:104CE000807F803AF9F058F48038B1F0803909F0CB
:104CF00091C0D7011496ED91FC9115972AC0803E82
:104D0000B9F0803FD9F0803B09F084C0D7011296FA
:104D1000ED91FC9113971DC0D7011696ED91FC9172
:104D2000179717C0D7011896ED91FC91199711C0EC
:104D3000D7011A96ED91FC911B970BC0423F09F0E9
:104D400069C0D7011C96ED91FC911D97309731F405
:104D500061C0309709F45EC0123F21F42A2D4B2D1B
:104D600062EF04C02A2D4B2D612F6F70C70109958A
:104D70005EC0842F807F803D59F0803F79F0803C79
:104D800009F048C0D7011E96ED91FC911F9718C0FD
:104D9000D7015096ED91FC91519712C0433F31F4E9
:104DA000D7015296ED91FC91539707C0413F91F581
:104DB000D7015496ED91FC915597309739F42AC05C
:104DC000309741F1812F8D7F813F19F44B2D612F59
:104DD00003C04B2D612F6F70C701099528C0842F28
:104DE0000E944E25882331F0D7015696ED91FC9113
:104DF000579707C0163F71F4D7015896ED91FC9173
:104E00005997309739F0612FC701099510C0643068
:104E10007105D8F4D7015C96ED91FC915D973097C0
:104E200031F00A2D2B2D412FB601C7010995D7016D
:104E30005E96ED91FC915F97309751F00A2D2B2DE6
:104E4000412FB601C701099503C0C12CD12CE2CF77
:104E50000F900F900F90DF91CF911F910F91FF90C6
:104E6000EF90DF90CF90BF90AF900895FF920F9397
:104E70001F93CF93DF93EC01162F862F0E944E25B0
:104E8000882369F0FDA081E08DA300E020E0412FA0
:104E900061E070E0CE010E942C26FDA270C0812F3F
:104EA0000E944A254DA1882309F440C0443029F0CE
:104EB0001AA381E090E09FA38EA3812F0E94542526
:104EC000813031F070F0823051F0833041F02AC0EF
:104ED0008DA300E020E0412F61E070E01EC08DA3B3
:104EE0004EC0103FB1F0173FE9F42EA13FA1C90118
:104EF00063E070E00E945D31FE01E80FF91F12A32C
:104F0000B9016F5F7F4F7FA36EA30CA12BA14AA1B4
:104F100004C084E08DA31AA329C0CE010E942C26D0
:104F20001DA22DC01DA21FA21EA229C0442339F11B
:104F30002EA13FA1C90163E070E00E945D31FE0136
:104F4000E80FF91F12A3B9016F5F7F4F7FA36EA314
:104F50008130910581F0029791F40CA12BA14AA117
:104F6000CE010E942C268DA1843049F081E090E092
:104F70009FA38EA304C0423011F400E0EFCFDF9175
:104F8000CF911F910F91FF900895CF92DF92EF92F2
:104F9000FF920F931F93CF93DF93EC01E8A1F9A148
:104FA000309709F009956E0188EEC80ED11CC60134
:104FB0000E943128E12CF12C082F10E0E016F106B8
:104FC00080F460E0C6010E944728682FCE010E944D
:104FD000362761E0C6010E9458288FEFE81AF80AC8
:104FE000EDCFDF91CF911F910F91FF90EF90DF9068
:104FF000CF900895FC0142837483638311821082F1
:1050000008951F93CF93DF93EC01162F0E94702811
:10501000E82F298130E0C90101966A8170E00E9481
:105020007131488150E08417950729F48E2F0E9432
:10503000732880E012C08B819C81DC01A20FB31F1A
:105040001C93898190E001966A8170E00E94713121
:1050500089838E2F0E94732881E0DF91CF911F9169
:1050600008950F931F93CF938C010E947028F8012D
:10507000C1812081C21718F4F8019281C90FC21BA7
:105080000E9473288C2FCF911F910F910895FC01DE
:105090002081862F90E0820F911D628170E00E9436
:1050A00071310380F481E02DE80FF91F80810895AC
:1050B0001F93CF93DF93EC01162F0E947028282FA7
:1050C0003881812F90E0830F911D6A8170E00E94EA
:1050D00071318883822FDF91CF911F910C947328B7
:1050E0008FB7F89408958FBF0895089508950F938A
:1050F0001F93CF93DF93CDB7DEB727970FB6F89402
:10510000DEBF0FBECDBF8C01CE0101960E949F2B4A
:10511000882309F18A810E9454259A819D839B816D
:105120009E839C819F8381110EC08981843041F0D0
:10513000873031F0863031F0853031F781E003C0BF
:1051400083E001C082E0AE014B5F5F4F682FC80172
:105150000E940826D9CF27960FB6F894DEBF0FBE5F
:10516000CDBFDF91CF911F910F910895DF92EF9204
:10517000FF920F931F93CF93DF9300D000D0CDB752
:10518000DEB77B01142FD22E4A832B830C83842F0E
:105190000E94542581111CC082E0E816F10471F0D0
:1051A00083E0E816F10421F0EA94EF28C1F40CC082
:1051B000073F11F487E006C084E004C087EFD812EF
:1051C000FBCF86E0898307C0173FB1F785E0FACFB0
:1051D00012951F701983CE0101960E949A2B0F9091
:1051E0000F900F900F90DF91CF911F910F91FF9033
:1051F000EF90DF9008950E94B20B8BE096E00E9442
:10520000D72566EB78E28BE096E00E94242667E7DC
:1052100078E28BE096E00E94282665E778E28BE052
:1052200096E00E94D32566E778E28BE096E00C9446
:10523000CF252091FC062430D9F49B01FC0181810B
:105240008F708093E90040E050E064E070E0C901B5
:105250000E94692C81110FC09091E800892F807203
:1052600095FD08C09091E8009E779093E80008951E
:1052700082E0089580E008952091FC062430A1F496
:10528000FC0181818F708093E9002091F30080916F
:10529000F20090E0922B892B49F08091E8008E7704
:1052A0008093E8000C94122E82E0089580E0089527
:1052B000FC018091FC06843059F491819F70909399
:1052C000E9008091E80080FF03C0CF010C943C29E5
:1052D00008952091FC06243011F080E00895FC012F
:1052E00086818F708093E9008091E80082FFF5CF7E
:1052F0008091E80085FFF1CFCB0140E050E064E011
:1053000070E00E94B42C8091E80085FD05C080917A
:10531000E8008B778093E80081E008958091EF05A5
:10532000089508959FB7F8941092E6059FBF909155
:10533000FC06943009F057C09091E9009F703091BD
:10534000EC00232F217030FD20E8922B23E02093E6
:10535000E9002091EB0020FF43C02091EE0027FFE1
:105360003FC02091E405222321F02091E80025FF91
:1053700037C01092E40526E03091E80035FD15C0F5
:105380003091FC06343061F53091EB0035FD28C0DA
:10539000215021F481E08093E40522C0EFE9FFE091
:1053A0003197F1F700C00000E7CF8093F1008091C2
:1053B000E80085FD0AC08091E80080FFFCCF809165
:1053C000E8008E778093E80006C08FB7F89421E05C
:1053D0002093E6058FBF9F709093E90080E00895C9
:1053E0009F709093E9008FEF0895CF93DF9300D0E3
:1053F0001F92CDB7DEB79091FC06943019F58983E2
:105400007B836A8382E08093E9008FEF9091E800CC
:10541000815095FD06C095ED9A95F1F70000811138
:10542000F5CF8091E80085FF0DC040E050E063E0DB
:1054300070E0CE0101960E94692C8091E8008E7781
:105440008093E8000F900F900F90DF91CF91089517
:10545000BC0184E00C94F529BC0183E00C94F5298F
:10546000CF93DF9321E02093E9002FEF3091E80004
:10547000215035FD06C035ED3A95F1F700002111B8
:10548000F5CF2091E80025FF14C0EC0140E050E08A
:1054900068E070E00E94692C8091E8008E7780932C
:1054A000E80088E0FE01A7EEB5E001900D928A9534
:1054B000E1F7DF91CF9108958AEF95E00E942404EF
:1054C0008091FB06811109C00E94452E0E94A22EE8
:1054D0008091E20084608093E200089586EF95E079
:1054E0000E9424041092FB06089582EF95E00C942C
:1054F00024048EEE95E00C9424048AEE95E00E943C
:1055000024040C9473242091E5052F5F822F62E31D
:105510000E945131992319F02093E50508951092C6
:10552000E5058091E605882371F18091FC068430C1
:1055300041F58091E9008F702091EC00922F9170DD
:1055400020FD90E8892B93E09093E9009091EB0087
:1055500090FF14C09091EE0097FF10C09091E8006A
:1055600095FF03C01092F100F9CF9091E80090FFF1
:1055700005C09091E8009E779093E8008F7080932B
:10558000E9001092E605089542E061EC81E00E9496
:10559000BE2D42E261EC82E00E94BE2D42E261EC4F
:1055A00083E00E94BE2D42E361E884E00E94BE2DAC
:1055B00042E361E885E00C94BE2D8091FE068330C5
:1055C00009F460C030F4813071F0823009F499C080
:1055D00008958A3009F485C08B3009F46BC0893096
:1055E00009F0A7C020C08091FD06813A09F0A1C052
:1055F0008091E800877F8093E80080910107909177
:105600000207892B21F468E087EE95E003C060E093
:1056100080E090E070E00E94FF2C8091E8008B77A2
:105620008093E80008958091FD06813209F081C0E1
:105630008091010790910207029708F07AC080914B
:10564000E800877F8093E8008091E80082FD05C034
:105650008091FC068111F8CF6CC02091F3008091FD
:10566000F20090E0922B029729F48091F1008B7F59
:10567000813021F48091F1008093EF058091E80062
:105680008B7753C08091FD06813A09F052C080911A
:10569000010790910207892B09F04BC08091E80027
:1056A000877F8093E8008091E80080FFFCCF8091A5
:1056B0003D0136C08091FD068132D9F58091010708
:1056C00090910207892BA9F58091E800877F80934C
:1056D000E8000E94F32D8091FF0680933D010C9419
:1056E0007C1C8091FD06813221F58091E800877F46
:1056F0008093E8000E94F32D809100078093F005CD
:1057000008958091FD06813AA1F48091E800877F99
:105710008093E8008091E80080FFFCCF8091F00545
:105720008093F1008091E8008E778093E8000C94DC
:10573000F32D0895BC0187E291E00C941929BC0176
:1057400087E291E00C9469290E94FB2884B7877F47
:1057500084BF0FB6F894A89580916000886180930B
:105760006000109260000FBE90E080E80FB6F894E1
:1057700080936100909361000FBE0E94BB170E944E
:10578000452E0E94A22E8091E20084608093E20068
:1057900082E999E20E94FF2278940E9436310E94A9
:1057A000C51783E391E00E94251789ED95E00E94DB
:1057B00024048091FC06853089F485ED95E00E94F3
:1057C00024040E9441248091FA06882391F30E94C8
:1057D0002824882371F30E94532CEBCF0E94F517E5
:1057E00087E291E00E945829E4CF0C94F72B292FEF
:1057F000332723303105C9F060F42130310581F0C1
:105800002230310509F047C08FEB90E028E336E005
:1058100046C02132310511F12232310561F13BC020
:1058200082E190E027EF36E03AC099278130910578
:1058300061F040F08230910559F0039761F5EEEF89
:10584000F5E008C0E4E3F6E005C0ECE1F6E002C0F4
:10585000E4E0F6E0849190E09F0121C0633071059F
:10586000D0F4660F771FFB01E551FE4F2081318197
:1058700089E090E014C06330710568F4FB01EE0F1D
:10588000FF1FEB51FE4F20813181FB01EE51FE4F96
:10589000808190E004C080E090E020E030E0FA01F8
:1058A00031832083089580E189BD82E189BD09B4F7
:1058B00000FEFDCF8091D8008F7D8093D80080912D
:1058C000E00082608093E0008091E00081FDFCCFE9
:1058D0000895CF92DF92EF92FF920F931F93CF9391
:1058E000DF93EC018B017A010E94122E811133C0EB
:1058F000E114F10439F0F70180819181081B190B43
:10590000C80FD91FC12CD12C0115110519F1809197
:10591000E80085FD16C08091E8008E778093E8004E
:10592000E114F10449F0F70180819181C80ED91E7C
:10593000D182C08285E00FC00E94122E882321F3FD
:105940000AC089918093F10001501109FFEFCF1A2D
:10595000DF0ADACF80E0DF91CF911F910F91FF90A6
:10596000EF90DF90CF900895CF92DF92EF92FF9269
:105970000F931F93CF93DF93EC018B017A010E9469
:10598000122E811133C0E114F10439F0F701808146
:105990009181081B190BC80FD91FC12CD12C0115DF
:1059A000110519F18091E80085FD16C08091E8008D
:1059B0008B778093E800E114F10449F0F7018081CE
:1059C0009181C80ED91ED182C08285E00FC00E948D
:1059D000122E882321F30AC08091F100899301508F
:1059E0001109FFEFCF1ADF0ADACF80E0DF91CF9104
:1059F0001F910F91FF90EF90DF90CF90089520912D
:105A00000307309104072617370748F06115710521
:105A100039F42091E8002E772093E80001C0B90105
:105A2000FC0120E06115710579F18091FC06882365
:105A3000F1F18530F1F18091E80083FD3CC0809167
:105A4000E80082FD2EC08091E80080FFEBCF20911E
:105A5000F3008091F20090E0922B6115710551F0F6
:105A60008830910538F421912093F100615071093B
:105A70000196F3CF21E0089709F020E08091E8003B
:105A80008E778093E800CECF2111CFCF0AC08091CE
:105A9000FC06882361F0853061F08091E80083FD89
:105AA0000AC08091E80082FFF2CF80E0089582E092
:105AB000089583E0089581E00895209103073091CF
:105AC00004072617370748F06115710539F420914E
:105AD000E8002E772093E80001C0B901FC0120E026
