:100000000C9430070C9477070C9477070C947707BF
:100010000C9477070C9477070C9477070C94770768
:100020000C9477070C9477070C94A5310C947732D5
:100030000C94121F0C9477070C9477070C94770795
:100040000C9477070C9477070C9477070C94770738
:100050000C9477070C946B1F0C9477070C9477071C
:100060000C9477070C9477070C9477070C94770718
:100070000C9477070C9477070C9477070C94770708
:100080000C9477070C9477070C9477070C947707F8
:100090000C9477070C9477070C9477070C947707E8
:1000A0000C9477070C9477070C947707A615A61580
:1000B000D815D81539172516391739173016C91616
:1000C000DA16DA16D117D117E317E317DA17E317A1
:1000D000E317E317D117D117DF17E317E317DF177C
:1000E000E4320B3303340B33033457337A330334A2
:1000F000D133E0334932433A2025640A0073636107
:100100006E6E696E6720693263002900444542556E
:10011000473A2064697361626C65642E0A00444545
:100120004255473A20656E61626C65642E0A000A8A
:100130000025303862003A200025303258000A721B
:100140002F632030313233343536370A006D69641D
:1001500069206D6F64756C6174696F6E2025640A27
:10016000006D69646920706974636862656E6420FB
:100170006368616E6E656C3A256420616D6F756EA3
:10018000743A25640A006D69646920706974636853
:1001900062656E64206368616E6E656C3A256420EA
:1001A000616D6F756E743A25640A006D696469202B
:1001B000706974636862656E64206368616E6E6501
:1001C0006C3A256420616D6F756E743A25640A007F
:1001D0006D69646920706974636862656E64206328
:1001E00068616E6E656C3A256420616D6F756E7422
:1001F0003A25640A006D696469206D6F64756C61ED
:1002000074696F6E20696E74657276616C20256406
:100210000A006D696469206D6F64756C6174696F43
:100220006E20696E74657276616C2025640A006DBB
:10023000696469206C656761746F2025640A006DCC
:1002400069646920736F66742025640A006D6964AF
:100250006920736F7374656E75746F2025640A006E
:100260006D69646920706F7274616D656E746F2062
:1002700025640A006D696469207375737461696E21
:100280002025640A006D69646920616C6C206E6FC2
:10029000746573206F66660A006D6964692063681F
:1002A000616E6E656C2025640A006D696469206367
:1002B00068616E6E656C2025640A006D6964692052
:1002C0006368616E6E656C2025640A006D696469FF
:1002D0002076656C6F636974792025640A006D6906
:1002E00064692076656C6F636974792025640A00FF
:1002F0006D6964692076656C6F6369747920256423
:100300000A006D696469207472616E73706F736541
:100310002025640A006D696469207472616E7370CF
:100320006F73652025640A006D69646920747261C9
:100330006E73706F73652025640A006D69646920AF
:100340006F63746176652025640A006D69646920B5
:100350006F63746176652025640A006D69646920A5
:100360006F63746176652025640A006D6964692095
:100370006E6F74656F6666206368616E6E656C3A59
:100380002564206E6F74653A25642076656C6F6312
:100390006974793A25640A006D696469206E6F7426
:1003A000656F6E206368616E6E656C3A2564206EC1
:1003B0006F74653A25642076656C6F636974793A69
:1003C00025640A000A002530325820006B657962E6
:1003D0006F6172645F7265706F72743A20000A0018
:1003E00025303258006B6579626F6172645F7365A6
:1003F000745F6C65643A2000290A002575002F009F
:100400002575005D2800256400200025640020007B
:1004100025640020002564007C0025303258006DE2
:100420006F7573656B6579205B62746E7C7820797B
:10043000207620685D287265702F61636C293A20F0
:100440005B006D6B5F776865656C5F74696D655F98
:10045000746F5F6D6178203D2025640A006D6B5FCD
:10046000776865656C5F6D61785F73706565642042
:100470003D2025640A006D6B5F74696D655F746F64
:100480005F6D6178203D2025640A006D6B5F6D61B2
:10049000785F7370656564203D2025640A006D6B8C
:1004A0005F696E74657276616C203D2025640A0078
:1004B0006D6B5F64656C6179203D2025640A006D79
:1004C0006B5F776865656C5F74696D655F746F5F9E
:1004D0006D6178203D2025640A006D6B5F7768654B
:1004E000656C5F6D61785F7370656564203D202584
:1004F000640A006D6B5F74696D655F746F5F6D6139
:1005000078203D2025640A006D6B5F6D61785F7314
:1005100070656564203D2025640A006D6B5F696E1F
:1005200074657276616C203D2025640A006D6B5FF6
:1005300064656C6179203D2025640A000A002575F8
:1005400000363A20776865656C5F74696D655F7425
:100550006F5F6D61783A20000A00257500353A20FA
:10056000776865656C5F6D61785F73706565643A27
:1005700020000A00257500343A2074696D655F74A7
:100580006F5F6D61783A20000A00257500333A20CC
:100590006D61785F73706565643A20000A002575A7
:1005A00000323A20696E74657276616C286D732929
:1005B0003A20000A00257500313A2064656C6179A3
:1005C000282A31306D73293A20000A092D205661FE
:1005D0006C756573202D0A004D3E004D25643E204C
:1005E000003F007365742064656661756C740A0071
:1005F000433E200077686572652064656C74613ADB
:1006000020637572736F723D25642C207768656571
:100610006C3D25640A53656520687474703A2F2F09
:10062000656E2E77696B6970656469612E6F72679C
:100630002F77696B692F4D6F7573655F6B65797384
:100640000A000A092D204D6F7573656B6579202DA1
:100650000A4553432F713A09717569740A313A0991
:1006600064656C6179282A31306D73290A323A0940
:10067000696E74657276616C286D73290A333A0964
:100680006D61785F73706565640A343A0974696DE9
:10069000655F746F5F6D61780A353A0977686565E3
:1006A0006C5F6D61785F73706565640A363A0977CF
:1006B0006865656C5F74696D655F746F5F6D6178A7
:1006C0000A0A703A097072696E742076616C7565F9
:1006D000730A643A097365742064656661756C74A5
:1006E000730A75703A092B310A646F776E3A092DD7
:1006F000310A706775703A092B31300A7067646F80
:10070000776E3A092D31300A0A7370656564203DB1
:100710002064656C7461202A206D61785F73706558
:100720006564202A2028726570656174202F20740A
:10073000696D655F746F5F6D6178290A003F004DD8
:100740003E2000433E20004C25640A0074696D651C
:10075000725F72656164333228293A202530346C27
:10076000580A006B6579626F6172645F69646C65D9
:100770003A2025580A006B6579626F6172645F7078
:10078000726F746F636F6C3A2025580A00686F733C
:10079000745F6B6579626F6172645F6C6564732806
:1007A000293A2025580A000A092D205374617475CE
:1007B00073202D0A004743433A20352E342E302033
:1007C0004156522D4C4942433A20322E302E302091
:1007D0004156525F415243483A20617672350A00D1
:1007E0004F5054494F4E533A204C554641204D4F9F
:1007F0005553454B455920434F4E534F4C4520438D
:100800004F4D4D414E4420343039360A004255494F
:100810004C443A2022302E31302E322D38382D677C
:100820003639333231302D6469727479222028329E
:10083000333A32353A33302053657020323120322A
:10084000303230290A005649443A2030783033415A
:10085000382870726D6F29205049443A2030783022
:10086000303030286F70657261746F7270726F749F
:100870006F7479706529205645523A2030783030AF
:1008800030310A000A092D2056657273696F6E2097
:100890002D0A000A092D20436F6E736F6C65202DA1
:1008A0000A4553432F713A09717569740A6D3A0903
:1008B0006D6F7573656B65790A000A092D204D61AE
:1008C000676963202D0A443A094465627567204DC3
:1008D00065737361676520546F67676C650A583A82
:1008E000094D6174726978204465627567204D6FA7
:1008F000646520546F67676C65202D2053686F779F
:10090000206B65797072657373657320696E206DF5
:10091000617472697820677269640A4B3A094B65A1
:1009200079626F61726420446562756720546F67F5
:10093000676C65202D2053686F77206B6579707226
:10094000657373207265706F72740A4D3A0944655D
:10095000627567204D6F75736520546F67676C65AE
:100960000A563A0956657273696F6E0A533A09530B
:1009700074617475730A433A0941637469766174EA
:100980006520436F6E736F6C65204D6F64650A461A
:10099000312D4631303A0953776974636820746F9A
:1009A000204C6179657220302D3920284631302065
:1009B0003D204C30290A302D393A09537769746348
:1009C0006820746F204C6179657220302D390A4798
:1009D000524156453A0953776974636820746F2011
:1009E0004C6179657220302028616C7465726E618B
:1009F0007465290A423A094A756D7020746F204265
:100A00006F6F746C6F616465720A4553433A094AAB
:100A1000756D7020746F20426F6F746C6F616465C8
:100A2000722028616C7465726E617465290A453A9A
:100A3000095072696E7420454550524F4D205365E0
:100A40007474696E67730A4253504143453A0943CF
:100A50006C65617220454550524F4D0A000A0025D1
:100A600075002E6E6B726F3A20000A002575002EFD
:100A7000737761705F6261636B736C6173685F62EF
:100A800061636B73706163653A20000A002575002D
:100A90002E737761705F67726176655F6573633A25
:100AA00020000A002575002E6E6F5F6775693A2079
:100AB000000A002575002E737761705F72616C7497
:100AC0005F726775693A20000A002575002E7377FA
:100AD00061705F6C616C745F6C6775693A20000AC5
:100AE000002575002E737761705F7263746C5F729E
:100AF0006775693A20000A002575002E73776170CA
:100B00005F6C63746C5F6C6775693A20000A00253E
:100B100075002E636170736C6F636B5F746F5F63DE
:100B20006F6E74726F6C3A20000A002575002E7388
:100B30007761705F636F6E74726F6C5F6361707307
:100B40006C6F636B3A20000A0025303258006B65E9
:100B5000796D61705F636F6E6669672E7261773A57
:100B600020000A002575002E6D6F7573653A200010
:100B70000A002575002E6B6579626F6172643A20F8
:100B8000000A002575002E6D61747269783A2000A4
:100B90000A002575002E656E61626C653A20000AB8
:100BA00000253032580064656275675F636F6E665A
:100BB00069672E7261773A20000A00257500646526
:100BC0006661756C745F6C617965723A20003F00F4
:100BD0000A6D6F7573653A206F66660A000A6D6F5D
:100BE0007573653A206F6E0A000A6B6579626F61F2
:100BF00072643A206F66660A000A6B6579626F61FB
:100C000072643A206F6E0A000A6D61747269783AF4
:100C1000206F66660A000A6D61747269783A206F07
:100C20006E0A000A64656275673A206F66660A009C
:100C30000A64656275673A206F6E0A000A0A4A758F
:100C40006D70696E6720746F20626F6F746C6F6176
:100C50006465722E2E2E2000433E2000436C656199
:100C600072696E6720454550524F4D0A00656563B5
:100C70006F6E6669673A0A005B735D004B65796267
:100C80006F6172642073746172742E0A005B575D29
:100C9000005B535D005B525D005B445D005B435D48
:100CA0000004033000000024036F00700065007230
:100CB00000610074006F007200700072006F0074B9
:100CC000006F00740079007000650000000A037076
:100CD0000072006D006F000000040309040902BFE8
:100CE00000050100A0FA0904000001030101000948
:100CF00021110100012240000705810308000A09B3
:100D00000401000103000000092111010001224F2C
:100D1000000705820320000A090402000203000004
:100D20000009211101000122220007058303200090
:100D30000107050303200001080B03020101000065
:100D40000904030000010100000924010001090059
:100D5000010409040400020103000007240100014A
:100D600041000624020101000624020202000924B7
:100D7000030103010201000924030204010101002F
:100D800009050502400005000005250101010905CE
:100D90008402400005000005250101031201100135
:100DA00000000008A8030000010001020301063151
:100DB000FF0974A1010975150026FF00952075082B
:100DC00081020976150026FF00952075089102C062
:100DD00005010902A10185020901A1000509190106
:100DE00029051500250195057501810295017503F9
:100DF00081010501093009311581257F95027508AA
:100E0000810609381581257F950175088106050C35
:100E10000A38021581257F950175088106C0C00535
:100E2000010906A101050719E029E715002501952B
:100E300008750181029501750881010507190029CE
:100E4000FF150026FF0095067508810005081901A9
:100E50002905950575019102950175039101C00061
:100E600011241FBECFEFDAE0DEBFCDBF04B603FE14
:100E700027C08091270390912803A0912903B09166
:100E80002A038730904BA740B04BD1F41092270330
:100E9000109228031092290310922A0314BE84B7DB
:100EA000877F84BF0FB6F894A89580916000886111
:100EB00080936000109260000FBEE0E0F8E30995B7
:100EC00011E0A0E0B1E0E8E6F9E602C005900D927D
:100ED000AC34B107D9F723E0ACE4B1E001C01D9216
:100EE000A732B207E1F70E94892E0C94B2340C9419
:100EF0000000FF93EF93E0914C01F0914D0130978A
:100F000009F00995EF91FF910895FC0185918030DA
:100F100011F0EFDFFBCF0895FF27E0E230E247FF5B
:100F20000CC0419597FF09C0EDE2609570958095E2
:100F30009095611D711D811D911D27FF02C0219596
:100F400030E350E2AA27660F771F881F991FAA1F58
:100F5000A41710F0A41B63955A95A9F7AA3008F0BE
:100F6000A95FA05DAF93F3956115710581059105AA
:100F700041F7ED3211F4EF93F395F21718F43F9324
:100F8000F395FBCF8F91B5DFFA95E1F70895E991DD
:100F9000F9918591803021F0853219F0AADFF9CFDF
:100FA000089520E0E89455915532C1F3503311F47F
:100FB000689455915A3348F4505390F3220F022EFF
:100FC000220F220F200D250FF4CF0EF421958991C9
:100FD0009991533619F3533729F1533559F1BC011F
:100FE00088279927E8945C3621F48991999168942F
:100FF0005591543639F446EF7EF077FF0DC08FEFF0
:101000009FEF0AC055374AE039F0583540E121F0EA
:10101000523642E009F00895FF93EF937DDFEF91A0
:10102000FF91B7CFFF93EF93FC0181918030B9F32B
:1010300060DFFBCFFF93EF9368DFF1CFDF93CF93B8
:10104000CDB7DEB72596A3DFCF91DF9108950C943D
:1010500046090C9447091092B9008CE08093B800BF
:101060000895EF92FF920F931F93CF93DF93182F62
:10107000EB011092BC0084EA8093BC000E94441FE4
:101080007C018091BC0087FD0EC0CF3F8FEFD80759
:10109000C1F30E94441F8E199F098C179D0788F386
:1010A0008EEF9FEF2EC08091B900887F883041F08D
:1010B0008091B900887F803119F08FEF9FEF21C0B8
:1010C0001093BB0084E88093BC000E94441F8C01F5
:1010D0008091BC0087FD0CC0CF3F8FEFD807C1F3D4
:1010E0000E94441F801B910B8C179D0788F3D8CF5B
:1010F0008091B900887F883111F08034F1F680E06A
:1011000090E0DF91CF911F910F91FF90EF900895A4
:101110000F931F93CF93DF93EB018093BB0084E881
:101120008093BC000E94441F8C018091BC0087FD0D
:101130000EC0CF3F8FEFD807C1F30E94441F801B22
:10114000910B8C179D0788F38EEF9FEF0CC02091B9
:10115000B900287F81E090E0283211F480E090E02F
:10116000919581959109DF91CF911F910F910895EC
:101170000F931F93CF93DF93EC0184EC8093BC001B
:101180000E94441F8C018091BC0087FD0EC0CF3FA0
:101190008FEFD807C1F30E94441F801B910B8C175F
:1011A0009D0788F38EEF9FEF03C08091BB0090E016
:1011B000DF91CF911F910F9108950F931F93CF93BC
:1011C000DF93EC0184E88093BC000E94441F8C01F3
:1011D0008091BC0087FD0EC0CF3F8FEFD807C1F3D1
:1011E0000E94441F801B910B8C179D0788F38EEF84
:1011F0009FEF03C08091BB0090E0DF91CF911F91E2
:101200000F910895CF92DF92EF92FF920F931F9369
:10121000CF93DF937B01EA016901B90181600E94EC
:1012200031088701219798012E193F092C173D0796
:1012300060F497FD14C0C6010E94B80897FD02C073
:10124000F80180830F5F1F4FEECF97FD08C0C601E6
:101250000E94DD0897FD03C0CE0DDF1D888324E9C1
:101260002093BC001816190614F480E090E0DF917A
:10127000CF911F910F91FF90EF90DF90CF90089545
:1012800084E98093BC00089581E0089508950F9348
:101290001F93CF93DF9300D000D01F92CDB7DEB75E
:1012A0008DEF90E00E9485078AE090E09093010125
:1012B0008093000180914E0181110EC00E942B0885
:1012C00081E080934E012FEF83ED90E32150804029
:1012D0009040E1F700C0000068EE73E084E10E94F6
:1012E0003108909301018093000168EE73E084E07F
:1012F0000E948808909301018093000168EE73E0DA
:1013000085E10E943108909301018093000128EE4D
:1013100033E045E050E08E010F5F1F4FB80184E1DC
:101320000E94020990930101809300011F930F9383
:1013300084EF90E09F938F930E941E080E944009C3
:101340000F900F900F900F900F900F900F900F90A5
:101350000F90DF91CF911F910F91089581E0089533
:101360000C94440908950C94B2091F93CF93DF9312
:1013700000D000D01F92CDB7DEB749835A836B836C
:101380003091B00189819A81311114C0662359F0DE
:10139000222349F00E948A1C182F682F89819A8184
:1013A0000E94391C03C00E94611C182F69817A8138
:1013B000812F04C00E948A1C69817A810F900F904E
:1013C0000F900F900F90DF91CF911F910C94870A8F
:1013D000FC01262F408151816281738184810C94AC
:1013E000B509CF93DF93EC0160E00E94E809BE01EC
:1013F000DF91CF910C94B3090E94B71F0E94CC1DBE
:10140000811102C00E946C1E0C9427080C942908BC
:1014100008950C94080A81E008950C940B0ACF9368
:10142000C82F0E94090A8C2F0E940D0ACF9108959F
:1014300008950E94BF170E94180A2FEF84E39CE0D2
:10144000215080409040E1F700C000000C94911FB3
:101450000F931F93CF93DF93EC0161E00E94E809A3
:101460008C01BE010E94B009882309F449C0BE0165
:10147000C8010E94130D882309F442C0BE01C801AF
:101480000E94A6118823E1F1BE01C8010E94F81153
:101490008823B1F1BE01C8010E942313882381F182
:1014A0008A81882331F101308CE5180751F00E3D17
:1014B0008CE51807D9F001151C45D9F40E94190ACA
:1014C0001FC080910302C82FC095C170C0FB80F976
:1014D00080930302CC2329F08EE191E00E948507DE
:1014E0000FC08CE091E00E9485070BC00E946C1E2B
:1014F00007C0CE01DF91CF911F910F910C94AE09DF
:10150000C0E08C2FDF91CF911F910F910895972FFD
:1015100070E0690F711DFB01E80FF11DEE0FFF1F59
:10152000E65FFE4F859194910895CF93DF930E94DB
:10153000870A0E94720BEC018115924580F5C11556
:1015400081E5D80708F095C0CF3FD10509F0B8F480
:10155000C03FD10508F06CC0C53AD10548F4C4308D
:10156000D10508F0BBC0C130D10509F4B7C0B4C083
:10157000CE01805E9109089708F4B0C0ADC0C115D6
:1015800090E5D90708F059C0C11520E4D20708F04A
:1015900051C0C11580E2D80708F4A0C09DC0C11594
:1015A00096E5D90718F5C11525E5D20708F07AC0E8
:1015B000C11584E5D80708F070C09E012370332759
:1015C0008C2F86958695C115D34508F057C0C1E08C
:1015D000D0E002C0CC0FDD1F2A95E2F720E2829F07
:1015E000C0011124C82BD92BDC6878C0C1152AE5AD
:1015F000D20778F4C11589E5D80708F05DC0C11598
:1016000098E5D90708F468C0DC2FCC27C06FD06AF2
:1016100065C0CE0190568115904208F05DC08D2FB7
:101620008F710E94060CDD27D0628F71D82B56C0B7
:10163000D06554C0DF70D06A51C0CE0174E0969579
:1016400087957A95E1F783709C2F937021E030E0C5
:1016500002C0220F331F9A95E2F73C68382BCF70F7
:10166000C695C69580E2C89FE0011124C22BD32BFA
:1016700035C0DC2FCC27C16FD06A30C0C1E0D0E0CC
:1016800002C0CC0FDD1F2A95E2F720E2829FC00145
:101690001124C82BD92BDA6821C0DC2FCC27C46FCA
:1016A000D06A1CC08C2F0E94060C8F71C82FD0E00E
:1016B000DC2FCC27D06212C08C2F8F700E94060CBA
:1016C00094E0D695C7959A95E1F7CF70D0E0DC2FDE
:1016D000CC27D069C82B02C0C0E0D0E0CE01DF919A
:1016E000CF9108958238910569F1B0F48133910565
:1016F00009F46DC048F48932910509F463C08A3257
:10170000910509F469C008958533910509F455C020
:1017100089339105B9F00895833E910569F138F454
:10172000803E9105B1F0823E910509F10895863E13
:101730009105A9F1873E9105B9F1843E910509F023
:1017400064C023C020912B0220FD4FC021FD4DC05D
:10175000089580912B0280FD44C080912C0280FF6F
:1017600044C080912B0284FD42C083EE4DC0809125
:101770002B0282FF38C0F5CF80912B0282FD33C04F
:1017800080912C0280FD31C0ECCF80912C0281FF32
:1017900032C080912B0284FD2AC087EE35C0809133
:1017A0002B0283FF26C0F5CF80912B0283FD21C041
:1017B00080912C0281FD1FC0ECCF80912B0285FD12
:1017C0001CC01DC080912B0285FD19C016C08091E0
:1017D0002B0286FD16C017C080912B0286FD13C018
:1017E00010C089E311C082EE0FC080EE0DC080E012
:1017F0000BC086EE09C084EE07C089E205C085E310
:1018000003C08AE201C081E390E0089590912B0229
:1018100092FF0DC0282F2871283019F4877F84602B
:1018200006C0282F2471243011F48B7F886093FF29
:101830000DC0282F2871283119F4877E846106C0D5
:10184000282F2471243111F48B7E886120912C0281
:1018500020FF0DC0382F3871383019F4877F816030
:1018600006C0382F3171313011F48E7F886021FF2E
:101870000DC0282F2871283119F4877E816106C098
:10188000282F2171213111F48E7E886194FD877E8D
:101890000895E82FF0E0EE5DFD4F808108958EE31E
:1018A00091E00E9485071F921F9289E391E09F9328
:1018B0008F930E941E0886E391E00E948507809125
:1018C00022020E94B41D1F928F9381E391E09F93A7
:1018D0008F930E941E088DB79EB708960FB6F89496
:1018E0009EBF0FBE8DBF8FE291E00C94850780EA0A
:1018F0008A95F1F708955098589A5198599A1092EC
:1019000021021092220281E00E94B00C0C94FC098A
:10191000CF93DF93509A58980E94770C89B186959F
:101920008170C82F80E0D82F81E0C827C1705098FF
:10193000589A80912102C81721F0C0932102C1E07A
:1019400001C0C0E02C2F41E062E272E081E292E04F
:101950000E94B10C0E94060A8C2FDF91CF9108954E
:101960000895FF920F931F93CF93DF938C01F62E70
:10197000D72FC42F222349F081E0809351010E9488
:10198000441F9093500180934F018091510188230F
:10199000C1F080914F01909150010E945C1F069709
:1019A00080F0EF2DFD2FD8014C2F50E0CD01801B92
:1019B000910B841795071CF48D918193F7CF1092AA
:1019C0005101DF91CF911F910F91FF90089584E015
:1019D0008093230289E08093240280912502807FF6
:1019E000886080932502E6E5F1E08FEF819391E036
:1019F000EE39F907D9F7109255011092540110925F
:101A0000530110925201089590912302292F2F70B3
:101A100095959595959595959F523CE0239F900DB2
:101A20001124890F0895EF92FF920F931F93CF9384
:101A3000DF93EB018E3A2CE5920708F044C08E3913
:101A40003CE5930708F0E5C180392CE59207F0F4F6
:101A500083383CE5930708F01EC181382CE59207D6
:101A600058F487373CE5930708F0C9C08F322CE55E
:101A7000920708F065C066C381383CE5930709F416
:101A8000D4C082389C4509F4E9C05CC38C393CE57C
:101A9000930778F482392CE5920708F075C18039F4
:101AA0003CE5930709F412C181399C4509F437C11B
:101AB00049C38C393CE5930709F47CC18D399C45B9
:101AC00009F491C13FC3843B3CE5930709F442C24A
:101AD000D8F4803B3CE5930709F4E8C150F48E3A12
:101AE0003CE5930709F4ACC18F3A9C4509F4C3C1A6
:101AF00029C3609124022A81823B3CE5930709F4C3
:101B000003C208F4EEC113C2873B2CE5920709F427
:101B10005CC250F4853B2CE5920709F434C2863B45
:101B20009C4509F449C20EC3893B2CE5920709F490
:101B30008FC208F46CC28A3B9C4509F4BBC202C345
:101B400020912402022F02950F702F701CE0129F2B
:101B5000100D1124FA80C1EDC80FD0E0FF2031F143
:101B60000E94040DF82E212F482F602F8DE292E065
:101B70000E948A288091030280FF14C01F921F9345
:101B80001F92FF921F920F9388E993E09F938F9388
:101B90000E941E088DB79EB708960FB6F8949EBF98
:101BA0000FBE8DBFCA5ADE4FF882ABC2CA5ADE4F93
:101BB000E8809FEFE91601F1212F4E2D602F8DE275
:101BC00092E00E949A288091030280FF15C01F9224
:101BD0001F931F92EF921F920F938BE693E09F93B8
:101BE0008F930E941E082DB73EB7285F3F4F0FB658
:101BF000F8943EBF0FBE2DBF8FEF8883A5C22A8108
:101C0000222309F47EC28757282F2F709091230238
:101C1000907F922B909323029091030290FF71C2C8
:101C20001F928F938BE593E00AC28A81882309F47F
:101C300068C290912302892F8F7009F462C2815F7C
:101C40008F70907F982B909323029091030290FFC6
:101C500058C21F928F938BE493E0F1C18A8188234D
:101C600009F44FC290912302892F8F70282F30E002
:101C7000293031050CF045C28F5F8F70907F982B13
:101C8000909323029091030290FF3BC21F928F9387
:101C90008BE393E0D4C12A81222309F432C289580C
:101CA000282F2295207F909123029F70922B909352
:101CB00023029091030290FF24C2282F082E000CCB
:101CC000330B3F938F9388E293E0B9C18A818823D5
:101CD00009F417C290912302892F859585958595E2
:101CE00085958B3F0CF40DC2815F8295807F859531
:101CF000859585958595282F2295207F9F70922B1D
:101D0000909323029091030290FFFBC1282F082E8D
:101D1000000C330B3F938F9385E193E090C18A8150
:101D2000882309F4EEC19091230295959595959598
:101D3000959596300CF0E5C181E0890F8295807F02
:101D4000859585958595859519164CF08295807FAA
:101D5000909123029F70892B8093230202C087FFFA
:101D6000F5CF8091030280FFCCC18091230285953D
:101D7000859585958595282F082E000C330B3F936C
:101D80008F9382E093E05BC12A81222309F4B9C1D9
:101D90008259282F2F7090912402907F922B90933C
:101DA00024029091030290FFACC11F928F9380EFA9
:101DB00092E045C18A81882309F4A3C1909124024D
:101DC000892F8F7009F49DC1815F8F70907F982B50
:101DD000909324029091030290FF93C11F928F93DE
:101DE0008EED92E02CC18A81882309F48AC180910A
:101DF000240291E0980F9F70807F892B80932402AA
:101E00008091030280FF7DC11F929F938CEC92E032
:101E100016C12A81222309F474C18E59282F2295D4
:101E2000207F909124029F70922B90932402909196
:101E3000030290FF66C11F928F938BEB92E0FFC06D
:101E40008A81882309F45DC190912402892F8295AB
:101E50008F70815F8F70282F2295207F9F70922B2B
:101E6000909324029091030290FF4BC11F928F9395
:101E70008AEA92E0E4C08A81882309F442C1909101
:101E80002402892F82958F708F5F8F70282F229563
:101E9000207F9F70922B909324029091030290FFD9
:101EA00030C11F928F9389E992E0C9C08A8188234B
:101EB00009F427C16091240262956F7020E04BE71E
:101EC0008DE292E00E947A288091030280FF19C17E
:101ED00085E892E09F938F930E941E080F900F90C9
:101EE00010C121112FE762956F7040E48DE292E0FE
:101EF0000E947A288091030280FF03C18A811F9289
:101F00008F9384E792E09BC021112FE762956F7059
:101F100041E48DE292E00E947A288091030280FFE2
:101F2000F0C08A811F928F9380E692E088C02111D1
:101F30002FE762956F7042E48DE292E00E947A286A
:101F40008091030280FFDDC08A811F928F938DE410
:101F500092E075C08A81811102C020E001C02FE7A4
:101F60006091240262956F7043E48DE292E00E94DA
:101F70007A288091030280FFC4C08A811F928F93C8
:101F80008FE392E05CC08A81811102C020E001C031
:101F90002FE76091240262956F7043E48DE292E036
:101FA0000E947A288091030280FFABC08A811F9231
:101FB0008F938FE292E043C08A81811102C08FEF3C
:101FC00001C081E0809354019CC08A81882309F478
:101FD00098C080912502282F2F7091E0920F9F705A
:101FE000807F892B80932502982F9F7021F4807F1A
:101FF000822B809325028091030280FF82C0809112
:1020000025028F701F928F9382E192E018C08A811F
:10201000882309F476C090912502892F8F7009F4E6
:1020200070C0815F8F70907F982B90932502909164
:10203000030290FF66C01F928F9385EF91E09F93FC
:102040008F930E941E080F900F900F900F9059C011
:10205000FA806091240262956F70FF20B1F040E039
:1020600050EE8DE292E00E94AA288091030280FF48
:1020700048C080EE8F931F928091240282958F70CA
:102080001F928F9380ED91E032C040E050E08DE2EE
:1020900092E00E94AA288091030280FF32C01F9222
:1020A0001F928091240282958F701F928F938BEAEA
:1020B00091E03DC0FA806091240262956F70FF202C
:1020C00011F14FEF5FE18DE292E00E94AA2880912A
:1020D000030280FF16C08FE18F938FEF8F93809163
:1020E000240282958F701F928F9386E891E09F93D0
:1020F0008F930E941E080F900F900F900F900F90DB
:102100000F90F12C21C040E050E08DE292E00E945F
:10211000AA288091030280FFF4CF1F921F92809122
:10212000240282958F701F928F9381E691E09F9396
:102130008F930E941E080F900F900F900F900F909A
:102140000F9002C0FF24F3948F2DDF91CF911F9148
:102150000F91FF90EF9008958DE292E00E94C52AC2
:1021600080915201909153010E945C1F20912502A1
:102170002F7030E08217930708F441C00E94441F7B
:102180009093530180935201809154018823B9F1B7
:102190008091030280FF0EC0809155011F928F93A2
:1021A0008DE491E09F938F930E941E080F900F90F3
:1021B0000F900F906091240262956F7020915501ED
:1021C00041E08DE292E00E947A2890915401809142
:1021D000550197FF0FC0282F30E0692F77276195B1
:1021E0000CF47095261737072CF4109255011092B5
:1021F00054010895890F87FD8FE780935501089555
:1022000008958EE991E00E94AE13EEE9F1E01282AA
:1022100013821482158208950C940111AF92BF921B
:10222000CF92DF92EF92FF920F931F93CF93DF93A2
:102230007C015B01C42FD22FFC0182818823F9F03D
:102240004093A6010E94441F9093A5018093A4018E
:1022500080E28C0F883008F06EC0C77081E001C04A
:10226000880FCA95EAF7DF91CF911F910F91FF90E8
:10227000EF90DF90CF90BF90AF900C945E1580915F
:10228000A601481335C08091A4019091A5010E9438
:102290005C1F6C01B701C5010E94781AC816D906E7
:1022A00038F510E21D0FCD17B9F080E28C0F8830A1
:1022B00040F4C77081E001C0880FCA95EAF70E9418
:1022C0006515183058F581E09D2F977001C0880F73
:1022D0009A95EAF70E945E15802F0E944B151830E0
:1022E00050F5D77081E001C0880FDA95EAF70AC08F
:1022F00080E28C0F8830F8F4C77081E001C0880F4D
:10230000CA95EAF7DF91CF911F910F91FF90EF905F
:10231000DF90CF90BF90AF900C946515802FDF9128
:10232000CF911F910F91FF90EF90DF90CF90BF90D2
:10233000AF900C944B15DF91CF911F910F91FF90AF
:10234000EF90DF90CF90BF90AF9008950F939C01D6
:10235000CB01233F4CE5340731F188F4283DFCE5FF
:102360003F07D9F0293D4CE5340779F1273D3C453D
:10237000A9F506E221EE41EE67ED7CE52BC0253F95
:10238000FCE53F07E1F0A8F0263F3C4539F507E2C0
:1023900025EE46EE66EF7CE51DC007E225EE45EE34
:1023A00068ED7CE517C006E221EE40EE63EF7CE5C8
:1023B00011C007E225EE44EE64EF7CE50BC006E2B7
:1023C00021EE42EE65EF7CE505C008E221E045EE36
:1023D00069ED7CE50E940E1180E008C0FC0182815D
:1023E000882319F01092A60101C081E00F91089591
:1023F000CF93DF93EC01FB018281882309F41FC195
:10240000C230FCE5DF0708F41BC1C6319CE5D907E3
:1024100038F09E012A5F3C452930310508F010C193
:102420000E94DF1D90932C0280932B02C031ECE5BB
:10243000DE0709F4C3C008F041C0C8308CE5D807F6
:1024400009F49AC0F0F4C430ECE5DE0709F487C063
:1024500068F4C2308CE5D80709F477C0C330DC4596
:1024600009F0E3C080912B02826076C0C630ECE5B3
:10247000DE0709F46EC008F07BC080912B028860F3
:102480006BC0CC308CE5D80709F485C068F4CA303D
:10249000ECE5DE0709F474C008F079C00E94BF17AC
:1024A00080912B02806858C0CE308CE5D80709F4A3
:1024B00076C008F07FC080912B028BC0CB3FECE54B
:1024C000DE0709F44FC018F5C3318CE5D80709F4CD
:1024D0007DC078F4C131ECE5DE0709F473C0C23188
:1024E000DC4509F0A2C00E94BF1780912B028F77B4
:1024F00033C0C5318CE5D80709F472C008F486C032
:10250000CA3FDC4509F091C080912C023EC0CF3F0C
:10251000FCE5DF0709F45FC058F4CD3F9CE5D9071F
:1025200009F444C008F43FC080912C0282602DC0A1
:10253000C130FDE5DF0709F475C008F45DC0C230A5
:10254000DD4509F072C080E06EC080912B02816091
:1025500003C080912B02806180932B0266C0809122
:102560002B0211C080912C02826080932C025DC0EE
:1025700080912B028062F0CF80912B028064ECCF9F
:1025800080912B0288608460E7CF8160EECF8091DC
:102590002B028E7FE1CF80912B028D7FDDCF80914A
:1025A0002B02877FD9CF80912C0218C080912C02FA
:1025B0008D7FDBCF80912B028F7ECECF80912B023F
:1025C0008F7DCACF80912B028F7BC6CF80912B024B
:1025D000877F8B7FC1CF80912C028D7F8E7FC5CF6F
:1025E00080912B0282FB222720F991E0922790FB19
:1025F00082F990FB83F9B0CF80912C02982F9095AF
:1026000091708E7F892B90FB81F9AFCF0E94BF170D
:1026100080912B0287FB222720F991E0922790FBE3
:1026200087F99ACF81E00E946E1E80912B029091D3
:102630002C020E94F01D0E94BF1780E001C081E0C3
:10264000DF91CF910895CF93DF9386319C4541F57B
:10265000EB010E940B1D982F8A812091020130917D
:102660000301882379F09A7A81E009F480E080936D
:10267000A701911102C069E201C065E3C9010E948E
:10268000B51E0AC08091A701811102C069E201C094
:1026900065E3C9010E94B71E0E944C1D80E001C085
:1026A00081E0DF91CF9108959093AD018093AC01CB
:1026B0000895E091AC01F091AD01309721F00190C7
:1026C000F081E02D099480E00895EF92FF920F933E
:1026D0001F93CF93DF93E091AC01F091AD01309760
:1026E000B1F18C010280F381E02D09958091030204
:1026F00082FF2DC080FF04C08CEC93E00E94850710
:10270000E80118E086ECE82E83E0F82E80910302C1
:1027100080FF0BC088811F928F93FF92EF920E94DF
:102720001E080F900F900F900F90115021961111CD
:10273000EDCF8091030280FF0AC084EC93E0DF912B
:10274000CF911F910F91FF90EF900C948507DF912F
:10275000CF911F910F91FF90EF900895E091AC0100
:10276000F091AD01309739F022E0DC012C93048028
:10277000F581E02D099408952091AA013091AB01D3
:102780002817390771F09093AB018093AA01E0916B
:10279000AC01F091AD01309721F00680F781E02D7A
:1027A000099408952091A8013091A90128173907AB
:1027B00071F09093A9018093A801E091AC01F09190
:1027C000AD01309721F00084F185E02D0994089542
:1027D00085B7806885BF85B7806885BF08950895EF
:1027E0000C94EF130C94F0130C94EF130C94EF1360
:1027F0000E94E8130E94F4130C94F21381E00895F0
:102800000C94FE130E943B1F0E947B0C0E94CB1F66
:102810000E9400110C94F613CF93C82F80910302ED
:1028200082FF1EC080FF04C085EE93E00E948507F2
:102830008091030280FF0CC01F92CF9380EE93E043
:102840009F938F930E941E080F900F900F900F90F0
:102850008091030280FF04C08EED93E00E94850703
:102860008C2FCF910C940F0A0F931F93CF93DF936C
:10287000CDB7DEB72A970FB6F894DEBF0FBECDBF37
:102880000E94880C0E940014882331F180E00E948D
:10289000490C182F0091AF010827F1F08091030235
:1028A00081FD0E944F0C00FF17C01E821F82117015
:1028B00018870E94441F8160782F9A8789874E81EC
:1028C0005F8168858A850E94A3149091AF0181E0A1
:1028D00089278093AF0110C08FEF89838A831B8281
:1028E0000E94441F8160782F9D838C8349815A8187
:1028F0006B818D810E94A3140E94FC210E940C1107
:102900000E94AC100E9459139091AE01891781F07A
:102910000E9459138093AE012A960FB6F894DEBF39
:102920000FBECDBFDF91CF911F910F910C940C146E
:102930002A960FB6F894DEBF0FBECDBFDF91CF91C0
:102940001F910F910895CF93DF93CDB7DEB72B97EB
:102950000FB6F894DEBF0FBECDBF4F83588769878F
:102960007A878B87DE01119686E0FD0111928A95A8
:10297000E9F785E0FE01379601900D928A95E1F71F
:1029800049815A816B817C818D819E810E947B1A55
:102990002B960FB6F894DEBF0FBECDBFDF91CF915F
:1029A0000895FC01808191810E94CC1C0895CF93F1
:1029B0008823D9F1C82F8CEF8C0F813AF8F48C2F33
:1029C0000E94FE26811131C06C2F809102019091EE
:1029D00003010E947F1E882349F06C2F8091020121
:1029E000909103010E94B71E0E944C1D6C2F809194
:1029F0000201909103010E94B51E0CC080E28C0F71
:102A0000883058F4C77081E001C0880FCA95EAF792
:102A10000E940E1DCF910C944C1DC03F30F08C2FA6
:102A20000E946F20CF910C945C21CF910895882350
:102A300089F19CEF980F913A40F4682F8091020140
:102A4000909103010E94B71E0DC090E2980F98303C
:102A500058F4877091E001C0990F8A95EAF7892FA1
:102A60000E94141D0C944C1D9BE5980F933020F48C
:102A700080E090E00C94BC1398E5980F973120F417
:102A800080E090E00C94D213803F20F00E94D72089
:102A90000C945C210895CF93C82F0E94D714C9339A
:102AA00049F42FEF87EE93E0215080409040E1F70A
:102AB00000C000008C2FCF910C941715882321F0B3
:102AC0000E940E1D0C944C1D0895882321F00E9435
:102AD000141D0C944C1D0895CF92DF92EF92FF923B
:102AE0000F931F93CF93DF937C01D62FC72FFC0149
:102AF000058102950F70128111110E942B1D0E94F9
:102B0000041D882399F0112389F08C2F807F803455
:102B100021F080E28D0F883048F082E00E94961DFF
:102B20000E94041D91E0D82ED92601C0D12CCC2EB4
:102B3000C2948FE0C8228C2D90E08C30910508F073
:102B400098C1FC01EA5AFF4F0C946A348C2F807FA5
:102B5000CF70882311F0C295C07F112399F0CC2348
:102B600009F473C180E28D0F883010F0D11104C0D8
:102B70008C2F0E940E1D03C08C2F0E941E1D0E94D0
:102B80004C1D63C18D2F0E941715CC2309F471C110
:102B900080E28D0F883010F0D11104C08C2F0E947C
:102BA000141D03C08C2F0E94241D0E944C1D61C166
:102BB0008C2F807FCF70803211F0C295C07FDD23D3
:102BC00019F0D130C9F022C0112371F0002341F077
:102BD000013031F40E94311D8C2B0E94391D49C1F6
:102BE0000E94311D8C2B1DC0002319F0013009F407
:102BF00040C10E94421D25C0112321F0063008F07B
:102C000038C10EC0053008F034C11BC0112361F07B
:102C1000002331F0F701858180FF17C18F70858314
:102C20008C2F0E945E1525C1002359F0D93309F07D
:102C30001DC1FFEF07EE13E0F15000401040E1F737
:102C400013C18C2F0E94651514C18D2F112319F00B
:102C50000E946F2002C00E94D7200E945C2111C1F7
:102C60008C2F837009F047C0111107C12D2F2295B9
:102C700026952770220F220F6D2F6F70862F90E000
:102C8000A0E0B0E0022E04C0880F991FAA1FBB1F4E
:102C90000A94D2F7D4FF10C04FE050E060E070E03B
:102CA00004C0440F551F661F771F2A95D2F7409521
:102CB00050956095709503C040E050E0BA01C6950C
:102CC000C695C3708A019B01082B192B2A2B3B2B1D
:102CD000C901B801C23049F058F4C13019F00E945E
:102CE0004F1BCBC00E943D1BC8C00E94611BC5C0CA
:102CF0000E943B1BC2C0112319F08C2F817001C0B0
:102D00008695882309F4B9C02D2F22952695277022
:102D1000220F220F6D2F6F70862F90E0A0E0B0E0A1
:102D2000022E04C0880F991FAA1FBB1F0A94D2F756
:102D3000D4FF10C04FE050E060E070E004C0440FEA
:102D4000551F661F771F2A95D2F7409550956095BD
:102D5000709503C040E050E0BA01C695C695C370B7
:102D60008A019B01082B192B2A2B3B2BC901B80187
:102D7000C23049F058F4C13019F00E94141C7DC0D3
:102D80000E94021C7AC00E94261C77C00E94751BFC
:102D900074C0CF70112339F08C2F0E949B1B8D2F94
:102DA0000E945E156AC08D2F0E9465158C2F0E94AF
:102DB000BC1B63C0D23F01F128F4D03F41F0D13FAA
:102DC000A1F03FC0D33FF9F0D43F39F13AC011230D
:102DD00041F0053008F04DC08C2F8F710E94E11B2F
:102DE00048C0063008F045C0F7CF112339F08C2FCA
:102DF0008F710E949B1B3DC01123C9F38C2F8F71D3
:102E00000E94BC1B36C0112329F08C2F8F710E94A9
:102E1000861B2FC00E94811B2CC0112349F0CF714B
:102E20008C2F0E949B1B63E08C2F0E94811D21C070
:102E300081E00E94961D0230E0F082E00E94961D23
:102E400018C0112331F0002391F28D2F0E94D71466
:102E500010C0002399F2D93349F41FEF27EE33E075
:102E6000115020403040E1F700C000008D2F0E943B
:102E7000171588EF8C0D843020F40E9459130E949E
:102E80000F0ADD20C9F00E94001D80FD15C0F7016A
:102E900012820E94FA1C0E949B1BC7010E947D1790
:102EA0000E94FA1CDF91CF911F910F91FF90EF903C
:102EB000DF90CF900C94BC1BDF91CF911F910F91AD
:102EC000FF90EF90DF90CF9008950F931F93CF93D3
:102ED000DF93EC01688179818A810E94D71C8C0183
:102EE0000E94381C0E94291BB801CE010E946C155B
:102EF000DF91CF911F910F910895CF93DF93EC0154
:102F0000988189812B813C81232B31F08F3F31F4D3
:102F100081E09F3F19F403C081E001C080E080FDA3
:102F200019C0CE010E94280A81110CC00E94041D04
:102F3000882381F08A81882369F082E0DF91CF9134
:102F40000C94961DCE010E946517CE01DF91CF91A2
:102F50000C94F109DF91CF9108950E942B1D0E94DE
:102F60002E1D0E944C1D0E940F230C945C21809109
:102F70000201909103010E94B91E0C94AD170E94AA
:102F80001B1D0C94B717E92FE295EF704E2F50E000
:102F9000FA013297EE30F105B0F4EE59FF4F0C9480
:102FA0006A34803F91F018F4883E68F40EC0843F84
:102FB00051F40BC0883E48F0813F29F406C093FBD2
:102FC000882780F9089580E0089581E008950E949F
:102FD000CC1C0E94C3170895CF93DF9300D000D07C
:102FE0001F92CDB7DEB70F900F900F900F900F90FC
:102FF000DF91CF910895CF93DF9300D000D000D020
:10300000CDB7DEB726960FB6F894DEBF0FBECDBFA4
:10301000DF91CF9108951F93CF93DF93C091B101BA
:1030200016E08091B201C81799F0D0E01C9FF00122
:103030001D9FF00D1124ED54FE4F4081518162819E
:103040007381848195810E94FB172196C770E9CF17
:10305000DF91CF911F9108954091E3015091E401D8
:103060006091E5017091E6018091E7019091E8019E
:103070000C94FB170F931F93CF93DF938091E8017C
:1030800082958F7009F05DC08091E501882309F475
:1030900058C08091B1011091B2016091E30170912B
:1030A000E401C091E601D091E70191E06F3F09F0A2
:1030B00090E0292F06E0811709F443C0209721F002
:1030C0007F3F21F030E003C031E001C0322F90E0BB
:1030D00030FD34C0089FF001099FF00D1124DF017D
:1030E000AD54BE4F11963C911197371327C03C91B8
:1030F000361324C012963C91129731111FC01396BB
:103100004D915C9114974C1B5D0B483C5105B0F4FC
:103110008091E8018F7080618093E801E854FE4F50
:1031200080818F708061808383EE91E00E947D17A3
:10313000DF91CF911F910F910C940B18019687701E
:10314000BACFDF91CF911F910F9108959F92AF92C7
:10315000BF92CF92DF92EF92FF920F931F93CF9384
:10316000DF93CDB7DEB761970FB6F894DEBF0FBE21
:10317000CDBF8C0185E0F801DE011D9601900D9216
:103180008A95E1F7F80140815181E2809091E30155
:103190006091E4012091E6013091E70121153105AC
:1031A00031F06F3F31F481E09F3F19F403C081E0BB
:1031B00001C080E0F82FF1709F2E80FD46C1F8011C
:1031C000A380B48083EEC82E81E0D82EF090E50174
:1031D000F501E21BF30BFF2009F4DFC08091E80149
:1031E000E83CF10508F09BC0282F207F09F052C071
:1031F000561313C0491311C0FE2CE1100EC08F707E
:1032000080618093E8010E942C18C6010E947D17FE
:103210008091E801F801858358C1AB2831F05F3F08
:1032200031F481E04F3F19F403C081E001C080E038
:1032300080FD03C081E08E2502C080E090E0F82F81
:10324000F170FF2E80FF1CC08091B1012091B2016E
:1032500036E0821709F417C190E0389FF001399FDA
:10326000F00D1124ED54FE4F6181561306C06081AC
:10327000461303C06281E61203C001968770E9CF4E
:10328000FE2CEE2009F421C18091E8018160809339
:10329000E8015AC0561306C0491304C0E11002C029
:1032A000F8019FC04D875E878D859E850E94E71738
:1032B000882379F1EE2069F12091E801822F82952F
:1032C0008F7090E0029774F08091E3019091E40197
:1032D00098878F831986BB86AA862C87CE0107968E
:1032E0000E947D1786E0F801A3EEB1E001900D92F7
:1032F0008A95E1F70E943A180E942C180DC05617C3
:1033000029F14D875E878D859E850E94E717811183
:103310002CC0C8010E947D17FF24F394D6C0282F2B
:10332000207F69F77A2DB98AA88A6E2D89890E9433
:10333000EC1783EE91E00E947D1786E0F601119272
:103340008A95E9F70E942C18F12CBFC04913D9CFF8
:10335000E110D7CFF8018583C8010E947D1786E070
:10336000F60111928A95E9F7B0C0EE2091F2209112
:10337000E801822F82958F7090E002970CF4B2CF13
:103380008091E3019091E4019A8389831B82BD823D
:10339000AC822E83CE010196A3CFE83CF10508F064
:1033A00047C0FE2CEE2009F4B4CF561330C04913A9
:1033B0002EC02091E80120FD21C0822F82958F70C0
:1033C000482F50E041155105C9F0F80125834F30D1
:1033D000510541F08F5F982F9295907F822F8F70CB
:1033E000892B8583C8010E947D1786E0F801A3EE32
:1033F000B1E001900D928A95E1F742C086E0F801B4
:10340000A3EEB1E001900D928A95E1F75EC04D8781
:103410005E878D859E850E94E717811163CF80911D
:10342000E80181608093E801C8010E947D174DC0CA
:103430007A2DB98AA88A6E2D89890E94EC1786E0B8
:10344000F60111928A95E9F71BC0EE2009F461CFCD
:103450004D875E878D859E850E94E717F82E88230D
:1034600009F457CF86E0F801A3EEB1E001900D9288
:103470008A95E1F783EE91E00E94D1140E943A18F8
:103480000E942C1822C04D875E878D859E850E94E4
:10349000CC1C292F22952F70223028F49F7039F0F0
:1034A000811105C00BC0243028F49F7049F4805E60
:1034B000883020F0C8010E947D179F2CF92C05C090
:1034C000F8019581907F99F7F9CF8F2D61960FB60E
:1034D000F894DEBF0FBECDBFDF91CF911F910F914A
:1034E000FF90EF90DF90CF90BF90AF909F900895A6
:1034F00088EC90E008951F93CF93DF93CDB7DEB7AC
:103500002C970FB6F894DEBF0FBECDBF4F83588700
:1035100069877A878B879C87CE0107960E94A618B9
:103520008823D1F09F8188852A853B85232B31F024
:103530008F3F31F481E09F3F19F403C081E001C067
:1035400080E080FD47C04F81588569857A858B85ED
:103550009C850E94FB173EC086E0FE013796DE0187
:10356000119601900D928A95E1F7FF81E8856A85B1
:103570007B856115710531F0EF3F31F481E0FF3F4C
:1035800019F403C081E001C080E080FD23C02091D8
:10359000B20130E0C9010196877099274091B101CD
:1035A00050E084179507F1F1F983EA837D836C83FA
:1035B00096E0929FD001939FB00D1124AD54BE4F61
:1035C000FE01319601900D929A95E1F78093B20138
:1035D0000E940B1816E08091B1019091B2018917F9
:1035E00071F1189FC00111248D549E4F0E94A6189E
:1035F000882329F1E091B1011E9FF0011124ED54BF
:10360000FE4F4081518162817381848195810E9446
:10361000FB178091B10190E0019687709927809304
:10362000B101D9CF0E94BF171092B2011092B1011F
:10363000E3EEF1E086E0DF011D928A95E9F72C9632
:103640000FB6F894DEBF0FBECDBFDF91CF911F91B3
:103650000895089508950C942A1B0C942B1B0E9426
:103660002D1B6093F2017093F3018093F40190930A
:10367000F5010C94AD170C942F1B0F931F93009121
:10368000F2011091F3012091F4013091F501602BCA
:10369000712B822B932B1F910F910C942F1B0F9347
:1036A0001F930091F2011091F3012091F4013091E8
:1036B000F50160237123822393231F910F910C94B2
:1036C0002F1B0F931F930091F2011091F301209192
:1036D000F4013091F50160277127822793271F910C
:1036E0000F910C942F1B0C942A1B0E94731B609348
:1036F000EE017093EF018093F0019093F1010C942F
:10370000AD1760E070E0CB010C94751B0F931F9315
:1037100041E050E060E070E08A019B0104C0000FCE
:10372000111F221F331F8A95D2F7C901B8011F91BB
:103730000F910C94751B0F931F9341E050E060E0D4
:1037400070E004C0440F551F661F771F8A95D2F79B
:103750008091EE019091EF01A091F001B091F10103
:103760008A019B01082B192B2A2B3B2BC901B8017D
:103770001F910F910C94751B0F931F9341E050E024
:1037800060E070E004C0440F551F661F771F8A95E4
:10379000D2F740955095609570958091EE0190918B
:1037A000EF01A091F001B091F1018A019B01082382
:1037B00019232A233B23C901B8011F910F910C94AF
:1037C000751B0F931F9341E050E060E070E004C070
:1037D000440F551F661F771F8A95D2F78091EE011F
:1037E0009091EF01A091F001B091F1018A019B014C
:1037F000082719272A273B27C901B8011F910F91D4
:103800000C94751B0F931F930091EE011091EF0123
:103810002091F0013091F101602B712B822B932BC1
:103820001F910F910C94751B0F931F930091EE0144
:103830001091EF012091F0013091F101602371238B
:10384000822393231F910F910C94751B0F931F9349
:103850000091EE011091EF012091F0013091F10102
:1038600060277127822793271F910F910C94751B56
:103870000895890FE82FE695E695E695877051E063
:1038800001C0550F8A95EAF785E0E89FF001112401
:10389000E751FE4F20E030E070E04081CB01022E86
:1038A00002C0969587950A94E2F7817081958427E6
:1038B0008523842781932F5F3F4F2530310569F79A
:1038C0000895890F682F669566956695982F97706D
:1038D00085E0689FB001112440E050E080E0FB01EA
:1038E000E40FF51FE751FE4F208130E0092E02C0A2
:1038F000369527950A94E2F721703327042E01C0EC
:10390000220F0A94EAF7822B4F5F5F4F4530510533
:1039100031F70895BF92CF92DF92EF92FF920F930B
:103920001F93CF93DF938C01C090EE01D090EF01F5
:10393000E090F001F090F1018091F2019091F3019B
:10394000A091F401B091F501C82AD92AEA2AFB2AEC
:10395000CFE1D0E0D701C6010C2E04C0B695A795E3
:10396000979587950A94D2F780FD04C0219790F728
:10397000B12C07C0BC2EB8018C2F0E94950A01976C
:10398000A9F38B2DDF91CF911F910F91FF90EF90B5
:10399000DF90CF90BF900895CF93DF93EC010E940A
:1039A0008A1CBE010E94950ADF91CF9108951F9352
:1039B000CF93DF93EB019091B001992321F0CB01DC
:1039C0000E94CC1C13C0882349F0CB010E948A1CA2
:1039D000182F682FCE010E94391C04C0CB010E9411
:1039E000611C182FBE01812F0E94950ADF91CF9193
:1039F0001F9108958091F601859585958595089587
:103A00008091F601877008959091F601977081E09A
:103A100009F480E0089580910202089590910202D5
:103A2000892B809302020895809590910202892348
:103A3000809302020895109202020895909101026B
:103A4000892B80930102089580959091010289232A
:103A500080930102089510920102089510920002CD
:103A600008958091F701089508950C94341D0C94E5
:103A7000351D9091F701981721F08093F7010C9470
:103A8000371D08958091F701882329F01092F701DE
:103A900080E00C94371D0895E0910201F09103013C
:103AA000809102028083E0910201F09103019081F4
:103AB00080910102892B8083E0910201F091030142
:103AC000908180910002892B80838091F701882367
:103AD00081F0E0910201F09103019081892B8083B4
:103AE00080910201909103010E94731E81110E9436
:103AF000421D80910201909103010C9465130C9476
:103B0000341D98E0899F90011124262B2093F60103
:103B10000E949B1B8091F6018595859585950C9457
:103B20007F1D1092F60180E00C947F1D2091F6011C
:103B3000809582238093F601982F977079F430E076
:103B4000482F082E000C550B2417350739F08595A2
:103B5000859585950E94BC1B0C94911D08959093AA
:103B60004D0180934C0108958295982F937344E002
:103B7000949F900111248C7C86958695282B822F0A
:103B80008575880F2A7A2695822B08956FEF7FEF2F
:103B900080E090E00C949C3480E090E00E947834C7
:103BA00021E08C3E9E4F09F020E0822F089582E0B4
:103BB00090E00C94703483E090E00C947034CF93D8
:103BC00084E090E00E947034C82F81E290E00E946F
:103BD00070342C2F30E0A901582BCA01CF910895E1
:103BE000CF93C92F682F84E090E00E947E346C2F21
:103BF00081E290E0CF910C947E34AB01BC018FE068
:103C000090E00C949034AB01BC0183E190E00C9403
:103C1000903460E070E0CB010C94031E60E070E033
:103C2000CB010E94FD1D0C94091E6CEE7EEF80E01E
:103C300090E00E949C3460E082E090E00E947E343C
:103C400060E083E090E00E947E341092F2011092D6
:103C5000F3011092F4011092F50160E084E090E02D
:103C60000E947E3460E081E290E00E947E3460E059
:103C700085E090E00E947E3460E086E090E00E9463
:103C80007E346FEF87E090E00E947E3440E050E0A9
:103C9000BA0188E090E00E94903460E08DE090E00E
:103CA0000E947E3440E050E0BA0188E190E00E943A
:103CB000903460E087E190E00E947E3440E050E084
:103CC000BA018CE190E00E94903460E080E290E0E4
:103CD0000E947E340C940E1E0C94151E682F8EE0EC
:103CE00090E00C947E34FC01329697E080E0915095
:103CF00029F021912223D9F38F5FF9CF089566230C
:103D000049F0FC01329608962191621729F0E817D4
:103D1000F907D1F780E0089581E008959C01FC0146
:103D200032969FEF80E04191461789F09F3F19F44A
:103D3000411101C0982F8F5F8630A9F79F3F39F05E
:103D4000F901E90FF11D97FDFA9562830895089531
:103D50009C012A5F3F4FFC014281461301C0128241
:103D6000019682179307B9F708950C948E1E0C9450
:103D7000A81E029626E0FC0111922A95E9F7089503
:103D800008950C94C01E0C94C01E0E94C31E0E9475
:103D9000880C0E94C11E80E00E94490C91E08111B4
:103DA00001C090E0892F08950C94C01E0C94D41E7D
:103DB0000E94D61E80911E03843049F110920402A5
:103DC00020E488E190E00FB6F894A8958093600015
:103DD0000FBE2093600080E00E940F0A0E94D61E52
:103DE00083B7817F846083BF83B7816083BF78940A
:103DF000889583B78E7F83BF0FB6F894A89580917E
:103E00006000886180936000109260000FBE08958A
:103E10000C94C01E0E94BF170E9459130E940F0AE3
:103E20000C94081F1F920F920FB60F9211248F93BC
:103E30009F93AF93BF9380910402811113C080912F
:103E4000270290912802A0912902B0912A0241965E
:103E5000A11DB11D8093270290932802A0932902EF
:103E6000B0932A02BF91AF919F918F910F900FBE97
:103E70000F901F90189582E084BD93E095BD9AEF56
:103E800097BD80936E0008952FB7F8948091270214
:103E900090912802A0912902B0912A022FBF089583
:103EA0002FB7F8946091270270912802809129021F
:103EB00090912A022FBF08959C014FB7F8948091EA
:103EC000270290912802A0912902B0912A024FBFA7
:103ED000821B930B089578941F920F920FB60F9246
:103EE00011248F939F93AF93BF938091270290915A
:103EF0002802A0912902B0912A020196A11DB11DAC
:103F00008093270290932802A0932902B0932A025B
:103F1000BF91AF919F918F910F900FBE0F901F9007
:103F2000189581E08093E00080E28093D8001092A1
:103F3000C9008FE19EE40197F1F700C0000087E01F
:103F400090EBDC018093270390932803A09329032F
:103F5000B0932A039CE088E10FB6F894A89580936B
:103F600060000FBE90936000FFCF0C94C61D0E94AE
:103F7000880C8FE39CE90197F1F700C000000E94D4
:103F8000880C80E00E94490C80FF04C00E94B51F8D
:103F90000C94911F08950E94CC1D811102C00E94B3
:103FA0006C1E0E94D71D809303020E94DF1D909318
:103FB0002C0280932B020E94DB1D682F70E080E0B2
:103FC00090E00E943B1B6091EE017091EF018091A7
:103FD000F0019091F1010C94731B80910B0280FF12
:103FE0000BC06091090185E0689FB00111247595AF
:103FF0006795759567952BC081FF09C06091090190
:1040000085E0689FB00111247595679520C082FFF7
:1040100007C06091090185E0689FB001112417C0B5
:1040200090910A029923D1F060910801961788F7C0
:104030002091090185E0289F90011124929FA00101
:10404000939F500D112470E0CA010E9456346038CD
:10405000710540F46115710519F406C065E070E062
:10406000862F08958FE7089581E0089580910B02CF
:1040700080FF08C06091050170E0759567957595A2
:10408000679521C081FF06C06091050170E07595BC
:10409000679519C082FF04C06091050170E010C0EF
:1040A00090910902992399F0609104019617A0F765
:1040B00080910501899FC001112470E00E9456344F
:1040C0006038710540F46115710519F406C061E0AE
:1040D00070E0862F08958FE7089581E00895803F6E
:1040E00021F40E94ED1F819504C0813F29F40E94B4
:1040F000ED1F80930F020895823F21F40E94ED1F6F
:10410000819504C0833F29F40E94ED1F80930E0225
:104110000895893F19F40E94362005C08A3F31F482
:104120000E94362081958093100208958B3F21F4E0
:104130000E943620819504C08C3F29F40E943620CD
:10414000809311020895843F21F480910D028160D3
:1041500017C0853F21F480910D02826011C0863F17
:1041600021F480910D0284600BC0873F21F480917F
:104170000D02886005C0883F31F480910D02806196
:1041800080930D0208958D3F21F480910B02816090
:104190000BC08E3F21F480910B02826005C08F3FDF
:1041A00029F480910B02846080930B020895803F74
:1041B00039F480910F0287FF6AC010920F0267C026
:1041C000813F29F480910F021816BCF360C09091D2
:1041D0000E02823F29F497FF5AC010920E0257C078
:1041E000833F19F41916CCF352C090911002893F05
:1041F00031F419160CF04BC01092100248C08A3FDF
:1042000019F497FF44C0F8CF8B3F39F48091110225
:1042100087FF3DC0109211023AC08C3F29F4809173
:1042200011021816BCF333C0843F21F480910D02B3
:104230008E7F17C0853F21F480910D028D7F11C0C4
:10424000863F21F480910D028B7F0BC0873F21F4C4
:1042500080910D02877F05C0883F31F480910D0267
:104260008F7E80930D0213C08D3F21F480910B024D
:104270008E7F0BC08E3F21F480910B028D7F05C095
:104280008F3F29F480910B028B7F80930B028091EA
:104290000E02811106C080910F02811102C010929E
:1042A0000A0280911002811106C0809111028111D1
:1042B00002C01092090208958091030283FF7EC01C
:1042C0008FE194E00E94850780910D021F928F93E9
:1042D0008AE194E09F938F930E941E0888E194E006
:1042E0000E94850780910E02282F082E000C330BA8
:1042F0003F938F9385E194E09F938F930E941E08D4
:1043000083E194E00E94850780910F02282F082EF8
:10431000000C330B3F938F9380E194E09F938F9336
:104320000E941E088EE094E00E9485078091100292
:10433000282F082E000C330B3F938F938BE094E0D3
:104340009F938F930E941E0889E094E00E94850746
:1043500080911102282F082E000C330B3F938F936E
:1043600086E094E09F938F930E941E0883E094E080
:104370000E94850780910A021F928F9380E094E04B
:104380009F938F930E941E088EEF93E00E948507F3
:1043900080910B021F928F938BEF93E09F938F93EB
:1043A0000E941E0888EF93E00E9485078DB79EB794
:1043B0004C960FB6F8949EBF0FBE8DBF0E94441F4F
:1043C00020910E02211104C020910F02222321F01E
:1043D000909308028093070220911002211104C0DB
:1043E00020911102222321F090930602809305026E
:1043F0008CE092E00C94AE13EF92FF920F931F9318
:10440000CF93DF9300D000D000D0CDB7DEB786E0E9
:10441000ECE0F2E0DE01119601900D928A95E1F751
:10442000E0900E02F0900F02009110021091110224
:1044300010920E0210920F021092100210921102AE
:10444000E11003C0FF2009F45DC080910702909144
:1044500008020E945C1FAC0190910A02992339F076
:1044600020910A0130E02417350758F04BC0209105
:104470000B018AE0289F900111242417350718F0BA
:1044800041C09F3F19F09F5F90930A02EE2061F0B8
:104490000E94ED1F1E1414F09FEF01C091E0989F41
:1044A000902D112490930E02FF2061F00E94ED1FC9
:1044B0001F1414F09FEF01C091E0989F902D1124DC
:1044C00090930F0230910E023323E1F020910F02FE
:1044D0002223C1F045EB3403C0011124992319F0C4
:1044E00090930E0203C081E080930E0235EB23030C
:1044F000C0011124992319F090930F0203C081E0A9
:1045000080930F02011103C0112309F45DC0809153
:104510000502909106020E945C1FAC019091090275
:10452000992339F02091060130E02417350758F01F
:104530004BC0209107018AE0289F90011124241785
:10454000350718F041C09F3F19F09F5F9093090213
:10455000002361F00E943620101614F09FEF01C076
:1045600091E0989F902D112490931002112361F0F7
:104570000E943620111614F09FEF01C091E0989F21
:10458000902D112490931102309110023323E1F009
:10459000209111022223C1F045EB3403C001112404
:1045A000992319F09093100203C081E080931002C8
:1045B00035EB2303C0011124992319F090931102C4
:1045C00003C081E08093110280910E0281110BC023
:1045D00080910F02811107C080911002811103C0E8
:1045E0008091110281110E945C21EB82FC820D837B
:1045F0001E8386E0FE013196ACE0B2E001900D92A0
:104600008A95E1F726960FB6F894DEBF0FBECDBFB0
:10461000DF91CF911F910F91FF90EF900895ECE003
:10462000F2E086E0DF011D928A95E9F710920A0216
:104630001092090210920B02089582E496E00E9403
:1046400085071F9281E08F931F9285E08F9384EFFF
:1046500095E09F938F930E941E080F900F900F90EC
:104660000F900F900F9008958330E9F128F4813076
:1046700061F0823009F10895853009F462C008F4D0
:1046800049C0863009F474C0089580910B01262F2B
:1046900030E0280F311D2F3F310524F4680F60935F
:1046A0000B0103C08FEF80930B0180910B011F92D0
:1046B0008F938DE295E072C080910A01262F30E041
:1046C000280F311D2F3F310524F4680F60930A0134
:1046D00003C08FEF80930A0180910A011F928F938C
:1046E0008BE195E05BC080910901262F30E0280F17
:1046F000311D2F3F310524F4680F6093090103C079
:104700008FEF80930901809109011F928F9388E0B8
:1047100095E044C080910801262F30E0280F311D1C
:104720002F3F310524F4680F6093080103C08FEF19
:1047300080930801809108011F928F9383EF94E08A
:104740002DC080910501262F30E0280F311D2F3F0D
:10475000310524F4680F6093050103C08FEF809347
:104760000501809105011F928F938AED94E016C098
:1047700080910401262F30E0280F311D2F3F310595
:1047800024F4680F6093040103C08FEF8093040149
:10479000809104011F928F938FEB94E09F938F93EE
:1047A0000E941E080F900F900F900F900895833075
:1047B00081F128F4813059F08230D1F008958530AC
:1047C00009F449C0B8F1863009F456C008958091C3
:1047D0000B01681720F4861B80930B0102C0109216
:1047E0000B0180910B011F928F9380EB94E054C0DA
:1047F00080910A01681720F4861B80930A0102C089
:1048000010920A0180910A011F928F938EE994E021
:1048100043C080910901681720F4861B8093090129
:1048200002C010920901809109011F928F938BE8B9
:1048300094E032C080910801681720F4861B8093B1
:10484000080102C010920801809108011F928F9305
:1048500086E794E021C080910501681720F4861B4B
:104860008093050102C010920501809105011F92FD
:104870008F938DE594E010C080910401681720F4B7
:10488000861B8093040102C01092040180910401F0
:104890001F928F9382E494E09F938F930E941E084F
:1048A0000F900F900F900F900895CF93C82F1F92E5
:1048B0008F9387E497E09F938F930E941E0881E077
:1048C00090E0A0E0B0E0BC01CD0104C0660F771F0E
:1048D000881F991FCA95D2F70E943B1B0F900F901B
:1048E0000F900F90CF910C94BF17CF93DF938B3124
:1048F00009F4EAC108F08BC18B3009F4AEC108F0AD
:1049000065C1863009F4ACC120F4853009F4BAC120
:104910005DC2873009F4BDC1883009F057C28DE609
:104920009CE00E9485078EEB9BE00E9485070E9419
:10493000DB1D1F928F938BEB9BE09F938F930E94C5
:104940001E0889EB9BE00E9485070E94D71DC82F97
:1049500086EA9BE00E9485071F92CF9381EA9BE045
:104960009F938F930E941E088FE99BE00E9485070A
:1049700085E99BE00E9485078C2F81701F928F93A1
:1049800082E99BE09F938F930E941E0880E99BE041
:104990000E94850786E89BE00E948507C1FB882767
:1049A00080F91F928F9383E89BE09F938F930E94DF
:1049B0001E0881E89BE00E94850785E79BE00E9436
:1049C0008507C2FB882780F91F928F9382E79BE0BF
:1049D0009F938F930E941E0880E79BE00E948507AB
:1049E00087E69BE00E948507C3FBCC27C0F91F9296
:1049F000CF9384E69BE09F938F930E941E0882E6EC
:104A00009BE00E9485070E94DF1DEC018EE49BE085
:104A10000E948507DF93CF9389E49BE09F938F9358
:104A20000E941E0887E49BE00E9485078EE29BE0BF
:104A30000E9485078C2F81701F928F938BE29BE0E1
:104A40009F938F930E941E088DB79EB780960FB6D6
:104A5000F8949EBF0FBE8DBF89E29BE00E94850740
:104A600082E19BE00E948507C1FB882780F91F92A5
:104A70008F938FE09BE09F938F930E941E088DE0A1
:104A80009BE00E9485078BEF9AE00E9485078D2F9F
:104A900081701F928F9388EF9AE09F938F930E946B
:104AA0001E0886EF9AE00E94850784EE9AE00E9435
:104AB0008507D695D1701F92DF9381EE9AE09F9380
:104AC0008F930E941E088FED9AE00E9485078DEC5F
:104AD0009AE00E948507C2FB882780F91F928F9376
:104AE0008AEC9AE09F938F930E941E0888EC9AE0CC
:104AF0000E94850786EB9AE00E948507C3FB882702
:104B000080F91F928F9383EB9AE09F938F930E947B
:104B10001E0881EB9AE00E94850787EA9AE00E94CE
:104B20008507C4FB882780F91F928F9384EA9AE057
:104B30009F938F930E941E0882EA9AE00E94850745
:104B400080E99AE00E948507C5FB882780F91F92BB
:104B50008F938DE89AE09F938F930E941E088BE8B5
:104B60009AE00E9485078FE69AE00E948507C6FBBF
:104B7000882780F91F928F938CE69AE09F938F93FA
:104B80000E941E088DB79EB780960FB6F8949EBF00
:104B90000FBE8DBF8AE69AE00E94850782E69AE002
:104BA0000E948507C7FBCC27C0F91F92CF938FE5E2
:104BB0009AE09F938F930E941E088DE59AE00E94D1
:104BC00085070F900F900F900F9045C0803109F42A
:104BD000A5C020F48E3009F48BC0F8C0863109F4EA
:104BE000B8C0893109F0F2C084E898E00E948507D6
:104BF00086E498E00E9485078DE098E00E94850792
:104C000080EE97E00E94850785EB97E084C08A32AA
:104C1000E1F060F4873209F4D5C028F48E3108F44D
:104C2000D5C08D51D0C0893269F1D0C0833448F4E9
:104C30008A3308F0C5C0853309F4C4C0883369F0ED
:104C4000C5C0833409F4BEC0C1C08CE59CE00E949D
:104C500085070E946C1EC1E0BEC08AEB98E05BC075
:104C600080910302817F8E7F8093030283E998E025
:104C70000E94850788E59CE00E94850781E080937B
:104C80001302E9CF8CE39CE00E9485070E94190A79
:104C9000E2CF80910302C82FC095C170C0FB80F99C
:104CA00080930302CC2329F080E39CE00E948507D7
:104CB00092C083E29CE00E94850780910302897F75
:104CC000877F80930302C7CF9091030291FBCC278B
:104CD000C0F981E0C827892FC0FB81F980930302C6
:104CE000CC2319F086E19CE029C088E09CE013C049
:104CF0009091030292FBCC27C0F981E0C827892F4D
:104D0000C0FB82F980930302CC2319F089EF9BE06A
:104D100015C089EE9BE00E9485079DCF909103020C
:104D200093FBCC27C0F981E0C827892FC0FB83F90A
:104D300080930302CC2351F08DED9BE00E94850708
:104D40008091030281608093030245C080ED9BE067
:104D5000E2CF87EA97E00E9485070E9459131F92CD
:104D60008F938DE897E09F938F930E941E08809108
:104D700022011F928F9386E797E09F938F930E9463
:104D80001E08809120021F928F9383E697E09F93E5
:104D90008F930E941E080E94501F9F938F937F93B2
:104DA0006F938CE497E09F938F930E941E088DB7BA
:104DB0009EB742960FB6F8949EBF0FBE8DBF4BCFE5
:104DC000895301C080E00E94552445CF8EEC9BE0C2
:104DD0000E948507C0E08C2FDF91CF91089580E07D
:104DE00008950C94EF268E518A3030F4E82FF0E0CD
:104DF000ED5DFE4F8081089580E00895CF93C82F28
:104E000080911302813059F020F0823009F445C0BE
:104E100039C10E940B1D823209F036C104C00E94C4
:104E20000B1D823261F48C2F0E94F126811104C087
:104E30008C2F0E9475242FC081E090E02CC08C2F15
:104E40000E94EF26811126C0C431E1F070F4CB300E
:104E500081F0C031D1F40E941D238FE397E00E94BE
:104E6000850782E08093130215C0C93259F0C83318
:104E700061F483E998E00E94850783E497E00E944B
:104E8000850708C01092130201C18DE397E00E94CC
:104E90008507FCC081E08170FBC0C43228F5CE31AB
:104EA00008F0C1C0CB30A1F1D0F4C73009F0D0C0B8
:104EB0008EE180930B0182E380930A018AE0809364
:104EC000090184E18093080188E08093050188E26C
:104ED0008093040183EE95E00E948507BCC0C33136
:104EE00049F1C431C1F0B4C0CB3409F4A6C028F4F0
:104EF000C93289F0C83361F0ABC0C13509F49BC039
:104F0000C23509F496C0CE3409F0A2C06AE09BC055
:104F10000E941D23A0C080911202882319F01092D4
:104F2000120299C080EF95E00E94850781E080938E
:104F30001302AEC08AEC95E00E94850788EB95E0ED
:104F40000E94850780910B011F928F9385EB95E05E
:104F50009F938F930E941E0883EB95E00E94850724
:104F600081EA95E00E94850780910A011F928F9344
:104F70008EE995E09F938F930E941E088CE995E03F
:104F80000E9485078DE895E00E94850780910901C0
:104F90001F928F938AE895E09F938F930E941E083B
:104FA00088E895E00E94850787E795E00E948507DD
:104FB000809108011F928F9384E795E09F938F93D0
:104FC0000E941E0882E795E00E9485078DE595E026
:104FD0000E948507809105011F928F938AE595E0D5
:104FE0009F938F930E941E0888E595E00E94850795
:104FF00081E495E00E948507809104011F928F93C0
:105000008EE395E09F938F930E941E088CE395E0BA
:105010000E9485078DB79EB748960FB6F8949EBF3D
:105020000FBE8DBF18C08C2F0E94F32680931202F2
:1050300012C061E003C061E006C06AE08091120224
:105040000E94342308C0809112020E94D72303C01B
:1050500081EE95E013C080911202882369F01F92BF
:105060008F938BED95E09F938F930E941E080F9076
:105070000F900F900F9004C088ED95E00E94850777
:1050800081E006C01092130280E002C080E003CFEE
:10509000CF910895881F8827881F089591E0883F41
:1050A00008F490E0892F0895982F907F903BF1F0BD
:1050B00038F49039D9F0903AC9F09038C9F416C054
:1050C000903D49F018F4903C31F012C0903E71F0E0
:1050D000903F19F00DC082E00895815F8F3040F459
:1050E000E82FF0E0E35DFE4F8081089583E00895AE
:1050F00080E008950F93022F0F77242F2F776F7082
:10510000462F406BDC01ED91FC9163E070E0099566
:105110000F9108950F93022F0F77242F2F776F7021
:10512000462F4069DC01ED91FC9163E070E0099548
:105130000F9108950F93022F0F77242F2F776F7001
:10514000462F4068DC01ED91FC9163E070E0099529
:105150000F9108950F931F93411520E252073CF4DD
:105160004115A0EE5A0734F09A01305E05C02FEFCA
:105170003FE302C020E030E08901000F012F001F53
:10518000110B11952F77462F4F70406EDC01ED917A
:10519000FC9163E070E009951F910F910895FC0167
:1051A000738362830895FC01758F648F0895CF9394
:1051B000DF93EC011DA21FA21EA2BC01685D7F4F00
:1051C00040EC88519F4F0E94FA2A1B821A821D824E
:1051D0001C821F821E82198618861B861A861D86CF
:1051E0001C861F861E86198A188A1B8A1A8A1D8A9F
:1051F0001C8A1F8A1E8A198E188E1B8E1A8E1D8E6F
:105200001C8E1F8E1E8E19A218A2DF91CF910895B9
:10521000EF92FF920F931F93CF93DF93EA018A01DE
:10522000060F111D88519F4F7C01C017D10729F02F
:105230006991C7010E94012BF8CFDF91CF911F9197
:105240000F91FF90EF900895FC01718360830895A2
:10525000FC0171A360A30895AF92BF92CF92DF9239
:10526000EF92FF920F931F93CF93DF9300D01F9283
:10527000CDB7DEB77C016B01142FB22EA02EDC015E
:1052800095968C9195978430F1F45A96ED91FC9116
:105290005B97309709F4BEC0CB01019763E070E0E3
:1052A0000E944234CB01880F991F860F971F4983B4
:1052B000BA820B834C2D481B9E012F5F3F4FBC01D0
:1052C000C7010995B4C06230710509F452C063305A
:1052D000710529F06130710509F099C080C0842FF3
:1052E000807F803AF9F058F48038B1F0803909F0C5
:1052F00091C0D7011496ED91FC9115972AC0803E7C
:10530000B9F0803FD9F0803B09F084C0D7011296F4
:10531000ED91FC9113971DC0D7011696ED91FC916C
:10532000179717C0D7011896ED91FC91199711C0E6
:10533000D7011A96ED91FC911B970BC0423F09F0E3
:1053400069C0D7011C96ED91FC911D97309731F4FF
:1053500061C0309709F45EC0123F21F42A2D4B2D15
:1053600062EF04C02A2D4B2D612F6F70C701099584
:105370005EC0842F807F803D59F0803F79F0803C73
:1053800009F048C0D7011E96ED91FC911F9718C0F7
:10539000D7015096ED91FC91519712C0433F31F4E3
:1053A000D7015296ED91FC91539707C0413F91F57B
:1053B000D7015496ED91FC915597309739F42AC056
:1053C000309741F1812F8D7F813F19F44B2D612F53
:1053D00003C04B2D612F6F70C701099528C0842F22
:1053E0000E944E28882331F0D7015696ED91FC910A
:1053F000579707C0163F71F4D7015896ED91FC916D
:105400005997309739F0612FC701099510C0643062
:105410007105D8F4D7015C96ED91FC915D973097BA
:1054200031F00A2D2B2D412FB601C7010995D70167
:105430005E96ED91FC915F97309751F00A2D2B2DE0
:10544000412FB601C701099503C0C12CD12CE2CF71
:105450000F900F900F90DF91CF911F910F91FF90C0
:10546000EF90DF90CF90BF90AF900895FF920F9391
:105470001F93CF93DF93EC01162F862F0E944E28A7
:10548000882369F0FDA081E08DA300E020E0412F9A
:1054900061E070E0CE010E942C29FDA270C0812F36
:1054A0000E944A284DA1882309F440C0443029F0C5
:1054B0001AA381E090E09FA38EA3812F0E9454281D
:1054C000813031F070F0823051F0833041F02AC0E9
:1054D0008DA300E020E0412F61E070E01EC08DA3AD
:1054E0004EC0103FB1F0173FE9F42EA13FA1C90112
:1054F00063E070E00E944234FE01E80FF91F12A33E
:10550000B9016F5F7F4F7FA36EA30CA12BA14AA1AE
:1055100004C084E08DA31AA329C0CE010E942C29C7
:105520001DA22DC01DA21FA21EA229C0442339F115
:105530002EA13FA1C90163E070E00E944234FE0148
:10554000E80FF91F12A3B9016F5F7F4F7FA36EA30E
:105550008130910581F0029791F40CA12BA14AA111
:10556000CE010E942C298DA1843049F081E090E089
:105570009FA38EA304C0423011F400E0EFCFDF916F
:10558000CF911F910F91FF900895CF92DF92EF92EC
:10559000FF920F931F93CF93DF93EC01E8A1F9A142
:1055A000309709F009956E0188EEC80ED11CC6012E
:1055B0000E94312BE12CF12C082F10E0E016F106AF
:1055C00080F460E0C6010E94472B682FCE010E9444
:1055D000362A61E0C6010E94582B8FEFE81AF80ABC
:1055E000EDCFDF91CF911F910F91FF90EF90DF9062
:1055F000CF900895FC0142837483638311821082EB
:1056000008951F93CF93DF93EC01162F0E94702B08
:10561000E82F298130E0C90101966A8170E00E947B
:105620005634488150E08417950729F48E2F0E9444
:10563000732B80E012C08B819C81DC01A20FB31F11
:105640001C93898190E001966A8170E00E94563433
:1056500089838E2F0E94732B81E0DF91CF911F9160
:1056600008950F931F93CF938C010E94702BF80124
:10567000C1812081C21718F4F8019281C90FC21BA1
:105680000E94732B8C2FCF911F910F910895FC01D5
:105690002081862F90E0820F911D628170E00E9430
:1056A00056340380F481E02DE80FF91F80810895BE
:1056B0001F93CF93DF93EC01162F0E94702B282F9E
:1056C0003881812F90E0830F911D6A8170E00E94E4
:1056D00056348883822FDF91CF911F910C94732BC6
:1056E0008FB7F89408958FBF0895089508950F9384
:1056F0001F93CF93DF93CDB7DEB727970FB6F894FC
:10570000DEBF0FBECDBF8C01CE0101960E94842E5C
:10571000882309F18A810E9454289A819D839B8164
:105720009E839C819F8381110EC08981843041F0CA
:10573000873031F0863031F0853031F781E003C0B9
:1057400083E001C082E0AE014B5F5F4F682FC8016C
:105750000E940829D9CF27960FB6F894DEBF0FBE56
:10576000CDBFDF91CF911F910F910895DF92EF92FE
:10577000FF920F931F93CF93DF9300D000D0CDB74C
:10578000DEB77B01142FD22E4A832B830C83842F08
:105790000E94542881111CC082E0E816F10471F0C7
:1057A00083E0E816F10421F0EA94EF28C1F40CC07C
:1057B000073F11F487E006C084E004C087EFD812E9
:1057C000FBCF86E0898307C0173FB1F785E0FACFAA
:1057D00012951F701983CE0101960E947F2E0F90A3
:1057E0000F900F900F90DF91CF911F910F91FF902D
:1057F000EF90DF9008950E94E70C8DE292E00E9406
:10580000D72866EB7BE28DE292E00E94242967E7CD
:105810007BE28DE292E00E94282965E77BE28DE23F
:1058200092E00E94D32866E77BE28DE292E00C943E
:10583000CF2820911E032430D9F49B01FC018181E3
:105840008F708093E90040E050E064E070E0C901AF
:105850000E944E2F81110FC09091E800892F807215
:1058600095FD08C09091E8009E779093E800089518
:1058700082E0089580E0089520911E032430A1F471
:10588000FC0181818F708093E9002091F300809169
:10589000F20090E0922B892B49F08091E8008E77FE
:1058A0008093E8000C94F73082E0089580E008953A
:1058B000FC0180911E03843059F491819F70909374
:1058C000E9008091E80080FF03C0CF010C943C2CDC
:1058D000089520911E03243011F080E00895FC010A
:1058E00086818F708093E9008091E80082FFF5CF78
:1058F0008091E80085FFF1CFCB0140E050E064E00B
:1059000070E00E94992F8091E80085FD05C080918C
:10591000E8008B778093E80081E0089580911F0272
:10592000089508959FB7F894109216029FBF909122
:105930001E03943009F057C09091E9009F70309198
:10594000EC00232F217030FD20E8922B23E02093E0
:10595000E9002091EB0020FF43C02091EE0027FFDB
:105960003FC020911402222321F02091E80025FF5E
:1059700037C01092140226E03091E80035FD15C0C2
:1059800030911E03343061F53091EB0035FD28C0B5
:10599000215021F481E08093140222C0EFE9FFE05E
:1059A0003197F1F700C00000E7CF8093F1008091BC
:1059B000E80085FD0AC08091E80080FFFCCF80915F
:1059C000E8008E778093E80006C08FB7F89421E056
:1059D000209316028FBF9F709093E90080E0089596
:1059E0009F709093E9008FEF089522E02093E900E3
:1059F0002FEF3091E800215035FD06C035ED3A9586
:105A0000F1F700002111F5CF2091E80025FF0BC030
:105A100040E050E066E070E00E944E2F8091E80088
:105A20008E778093E8000895CF93DF9321E0209351
:105A3000E9002FEF3091E800215035FD06C035ED2B
:105A40003A95F1F700002111F5CF2091E80025FFEC
:105A500014C0EC0140E050E068E070E00E944E2F7E
:105A60008091E8008E778093E80088E0FE01A7E14E
:105A7000B2E001900D928A95E1F7DF91CF91089500
:105A800008958DE99CE00E94850780911D03811196
:105A900009C00E942A310E9487318091E20084600F
:105AA0008093E200089589E99CE00E9485071092A6
:105AB0001D03089585E99CE00C94850781E99CE02D
:105AC0000C9485078DE89CE00E9485070C940A1FC2
:105AD000209115022F5F822F62E30E9436349923B2
