:100000000C94EC090C94330A0C94330A0C94330AC4
:100010000C94330A0C94330A0C94330A0C94330A6C
:100020000C94330A0C94330A0C94342A0C94062B47
:100030000C9475240C94330A0C94330A0C94330AF0
:100040000C94330A0C94330A0C94330A0C94330A3C
:100050000C94330A0C94C2240C94330A0C94330A83
:100060000C94330A0C94330A0C94330A0C94330A1C
:100070000C94330A0C94330A0C94330A0C94330A0C
:100080000C94330A0C94330A0C94330A0C94330AFC
:100090000C94330A0C94330A0C94330A0C94330AEC
:1000A0000C94330A0C94330A0C94330AFC1AFC1A8D
:1000B0002E1B2E1B7B1BA21CA21CA21C991B321CDC
:1000C000431C431C3E1D3E1D501D501D471D501D11
:1000D000501D501D3E1D3E1D4C1D501D501D4C1DE4
:1000E000732B9A2B922C9A2B922CE62B092C922C68
:1000F000602C6F2C0A006275727374206F6E00257D
:100100006325632563256325632563256325637C58
:100110000001048E966E773EFE7E5F1DB8F2664E3D
:10012000FF5D19B0C20469542AD62EBFDD19B0C3D1
:10013000E529B1E023A5A9B1C10082674C1A978DCA
:10014000795120C7068E7C7C7A764FFD5930E24685
:100150000E9EBEDF1D9991A0A5A1A9D022C6EF5C7D
:100160001B958990A2A7CCFB5528B3E44AF76C3BBA
:10017000F46A562EDE1F9DB8D3058892A6CE1EBE09
:10018000DF1D99B0E246EF5C07115D980B9D9497D7
:10019000EE4E45336B44C729562730C6A7D5F256D5
:1001A000DFB43862CBA0B6E30F84062405656F7612
:1001B00089B577412782666582CCD5E620D5271799
:1001C000C5F803237C5F64A51DC1D636CB4CD4DBB8
:1001D00066D78BB1997E6F4C364006D6EBD7A2E43A
:1001E000F495515A5496D55344D78CE0B94068D20F
:1001F00018E9DD9A239248EE7F43AFEA7738848C82
:100200000A72AF69F8DDF12483A3F84ABFF59413AD
:10021000DBBBD8B4B3A0FB4550603059123171A29A
:10022000D313E7FAE7CE0F63150B6B94BB37832626
:10023000059DFB4692FC0A15D10D7392D68C1B8C42
:10024000B8558ACEBDFE8EFCED09128391825131E4
:1002500023FBB40C76AD7CD9B44BB26714099C7FF8
:100260000C18BA3BD68E142AE41B529F2B7DE1FB5F
:100270006A3302FAAC5AF23E887EAED1F378E805D2
:10028000D1E3DC21F6E19ABD170ED9469B8803EA3B
:10029000F666BE0E1B5049964097F1F1E480A66EBB
:1002A000E87734BF294044C2FF4E98D39CA3322B39
:1002B00076510409E7A9D1A632B12353E247ABD660
:1002C000F5695C3E5FFAAE4520E5D244FF39326DF8
:1002D000FD27575CFDF0DEC1B599E5F51C7701758A
:1002E000C56D5892F2B247000126967A30FFB7F0FA
:1002F000EF77C18A5DDCC0D129301E77387A94F15E
:10030000B87A7EEFA4D1AC314AF25D643DB2E2F03E
:100310000899FC70EE24A77EEE1E20697D44BF87FD
:1003200042DF883B0CDA42C904F94550FC838F1147
:100330006A72BC9995F0AC3DA73BCD1CE288793739
:10034000115F3989950A16847AF68AA428E4ED8328
:10035000803BB123A50310F466EABB0C0FC5EC6C1F
:1003600069C5D324ABD42AB799887608A0A8957C10
:10037000D8386DCD5902514BF1B52B50E3B6BDD0F5
:1003800072CF9EFD6EBB44C8248A77188A1306EF8D
:10039000977DFA81F031E6FA77ED3106315B548AC8
:1003A0009F3068DBE240F84E73FAAB748B10581341
:1003B000DCD2E678D1322E8A9F2C58064827C5A970
:1003C0005E8147894621910370A43E889CDA330AF6
:1003D000CEBC8B8ECF9FD3718043CF6BA9518376D8
:1003E0003082C56A853911501A82DC1E1CD57DA960
:1003F000719933471997B35AB1DFEDA4F2E6268419
:10040000A2289A9EDFA66AF4D6FC2E5B9D1A2A27A4
:1004100068FBC183214B90E036DD5B314255A01370
:10042000F7D089537199570929C5F321F8372F401F
:10043000F3D4AF16083602FC77C58B049056B9C9C1
:10044000679A99E800D386FF972D08E9B7B391BC66
:10045000DF45C6ED0F8C4C1EE65B6E3830E4AAE338
:1004600095DEB9E49AF5B2559A879BF66AB2F277AF
:100470009A31F47A31D11D04C07C32A29E9AF56281
:10048000F8278DBF51FFD3DF64373F2A6F763A7D5F
:1004900077069E777F5EEB3251F916669A09F3B0C4
:1004A00008A470964630FFDA4FE91BED8DF8741FF3
:1004B0003192B3731736DB9130D688556B3477871A
:1004C0007AE7EE06C61C8C190C4846235E9C075C36
:1004D000BFB47ED64F749CE2C5508BC58B1590601F
:1004E000625729D01343A18088910044C74D1986D3
:1004F000CC2F2A755AFCEB972A70E378D891B04F2D
:100500009907A395EA2421D5DE512093270A307359
:10051000A8FF8A97E9A76A8E0DE8F0DFECEAB46CD1
:100520001D392A622D3D5A8B65F890052E7E912C3F
:1005300078EF8E7AC12FAC78EEAF2845064C26AF07
:100540003BA2DBA39306B53CA5D8EE8FAF25CC3FED
:10055000856848A962CC978F7F2AEAE0150AAD62C8
:1005600007BD45F841D836CB4CDB6EE63AE7DA15E5
:10057000E9291E1210A0142C0E3DF4BF39419275CA
:100580000B257BA3CE399C1564C8FA3DEF7327FE7B
:10059000262ECEDA6EFD718EDDFE76EEDC125C026A
:1005A000C53A4E4E4FBFCA4015C76E8D41F110E09F
:1005B0004F7E977F1CAE478E6BB12531B073C71B42
:1005C0009779F980D366223007741EE4D08021D653
:1005D000EE6B6C4FBFF5B7D909872FA914BE27D989
:1005E000725001D41373A6A751027525E1B34534A7
:1005F0007DA88EEBF31649CB4F8CA1B936853975A2
:100600005D0800AEEBF6EAD7133A215A5F30845208
:100610002695C914F257556BB110C2E1BD3B51C0CC
:10062000B7554C711226C70DF951A43802057FB891
:10063000F1724BBF718914F37738D97124F300112B
:10064000A1D8D46927083735C9119D901C0EE71C25
:10065000FF2D1EE892E11810957CE080F49643216E
:10066000F975216438DD9F1E9516DA561D4F9A5391
:10067000B2E2E418CB6B1A65EB56C63BE5FED82612
:100680003F3A84597266A2F375FFFB60B322AD3F17
:100690002D6BF9EBEA057CD88F6D2C989E2B93F18E
:1006A0005E46F08749297368D77FF9F0E57DDB1D49
:1006B0007519F3C4589B1788A892E0BEBD8B1D8D99
:1006C0009F5676ADAF29E2D9D552F6B55635573A91
:1006D000C8E156431994D3049B6D35D80B5F4D196F
:1006E0008EECFA64910A72202BBC1A4AFE8BFDBB79
:1006F000ED1B23EAAD7282A1299971BDF095C1036A
:10070000DD7BC2B23C2854D368A472C86696E0D19F
:10071000D87FF8D1262BF7ADBA55CA15B932C3E543
:1007200088978E5CFB92258BBFA245557AA76F8B6D
:10073000575BCF0ECB1DFB208277A88CCC16CE1D2D
:10074000FADECC0B62FECCE1B7F0C381647340A04B
:10075000C24D8911753355338DE84AFDEA6E300B71
:10076000D7312CDE47E3BFF85542E27F59E517EF5A
:1007700099346991B1238E20872DA8FED58AF38400
:100780003AF037E4090054EE674993E48170E3904E
:100790004DEFFE41B7997BC183BA62126F7DDE6B6C
:1007A000AFDA16F95551EEA60C2B02A3FD8DFB30E6
:1007B00017E46FDF3671C4CA872548B047ECEAB446
:1007C000BFA54D9B9F0293C4E3E4E8422D688115C9
:1007D0000AEB845BD6A874FB7D1DCB2CDA462A7607
:1007E00062CEBC5C9E8BE7CFBE78F57CEBB33A9CC7
:1007F000AA6FCC72D159F21123D63F48D1B7CEB0EF
:10080000BFCBEA80DE57D45E972F75D1508E802CF7
:100810006679BF724BBD8A816CD3E101DCD21526AB
:10082000C536DA2C1AC02794EDB79B850B5E8097EE
:10083000C5EC4FEC885D50073547DC0B3B3DDD6078
:10084000AFA85D813824255D5C15D1DEB3ABEC0526
:1008500069EF83ED5754B8646411163269DA9F2D3D
:100860007F36BB445A34E87FBF03EB007F596822D0
:1008700079CF736C2C29A7A15F38A11DF02053E01C
:100880001A6314587110AA080C3E161A6022827F4F
:10089000BAA443A0D0AC1BD56B64B51493319E535E
:1008A00050D05766EE5A4FFB032A695876F183F70A
:1008B0004EBA8C4206605D6DCE6088AEA4C3F10373
:1008C000A54B98A1FF67E1ACA2B862D76FA031B485
:1008D000D277AF211006C69AFF1D09170E5FF1AA45
:1008E00054344B458A8763A6DCF9243067C6B2D6F8
:1008F000613369EE50615728E77EEEEC3A5A734E49
:10090000A88DE418EAEC4164C8E2E866B62DB6FBAF
:100910006A6C16B3DD4643B973006A71ED4E9D25CE
:100920001AC33C4A95159935811402D6989BECD888
:10093000233B8429AF0C9983A69A344FFAE8D03C24
:100940004BD0FBB668B89E8FCDF7602D7A22E57D3F
:10095000AB651B95A7A87FB677477B5F8B1272D0DC
:10096000D491EFDE19503CA78BC4A9B323CB76E614
:1009700081F0C1048FA3B8545B97AC19FF3F552792
:100980002FE01D429B57FC4B4E0FCE98A9435703B7
:10099000BDE7C894DF6E367332B4EF2E857A6EFCF5
:1009A0006C188275359007F3E49F3EDC68F3B5F36D
:1009B0001980920699A2E86FFF2E7FAE42A45FFBDA
:1009C000D40E812BC304FF2BB3744E365B9C1500F1
:1009D000C6472BE88B3DF19C039A587F9B9CBF85B3
:1009E0004979352E567B411439478326AA078998C1
:1009F000111B86E7737AD87D786153E979F5368DD6
:100A0000449284F91350583BA46A3665498E3C0ED3
:100A1000F16FD284C47E8E3F39AE7C84F163378E11
:100A20003CCC3E448145F14BB9ED6B365DBB20605B
:100A30001A0FA3AA55773AA9AE374DBAB8866BBC40
:100A40000850F6CCA4BD1D4072A586FAE210AE3D5A
:100A5000584B97F34374A99EEB21B701A486939753
:100A6000EE2F4F3B86A1416F412690785C7F303856
:100A70004B3FAAECED5C6F0EAD4387FD9335E6016D
:100A8000EF412690999EFB195BADD2918AE046AF6B
:100A900065FA4F84C1A12DCF458BD38550557CF984
:100AA0006788D44EE9D76B6154A1A4A6A2C2BF3017
:100AB0009C409F5FD7692B24825ED9D6A712541A17
:100AC000F7559F7650A99584E66B6DB59654D6CDB3
:100AD000B3A19B46A7944DC494B498E3E1E234D506
:100AE00033160754CDB77753DB4F4D469DE9D49C61
:100AF0008A36B6B838266C0EFF9C1B438B80CCB967
:100B00003DDAC7F18AF26DB8D7742F7E1EB7D34A8B
:100B1000B4ACFC79486CBC96B69446572DB0A3FC97
:100B20001EB95260852D41D043011E1CD57DFCF3BA
:100B3000960DC7CB2A299A93DD882D375DAAFB49EC
:100B400068A09C50867F685657F9791839D4E0011F
:100B5000843361CAA5D2D6E4C98A4A23444EBCF084
:100B6000DC24A1A0C4E2073C10C4B5254B6563F4A6
:100B700080E7CF61B1718221872CF59100320CECB6
:100B8000A9B59A7485E3368F764F9C6DCEBCAD0ABD
:100B90004BED7604CBC3B9339E019396697DC5A214
:100BA00045799B045C8409ED8843C7AB931426A167
:100BB00040B5CE4EBF2A42853E2C3B54E8121F0E54
:100BC0009759B22789FAF2DF8E6859DC06BCB685E0
:100BD0000D0622ECB1CBE504E63DB3B04173083F0E
:100BE0003C588663EB50EE1D2C3774A9D318A347ED
:100BF0006E9354AD0A5DB82A555D78F6EEBE8E3C14
:100C00007669B940C234EC2AB9ED7E20E48D003813
:100C1000C7E68F44A886CEEB2AE990F14CDF32FB81
:100C2000731B6D921E95FEB4DB65DF4D235489481E
:100C3000BF4A2E70D6D762B43329B13A334C236DF4
:100C4000A676A5216348E6905DED90950B7A84BE6B
:100C5000B80D5E630C62264C145AB3AC23A474A77F
:100C60006F333005600142A028B7EE1938F1648077
:100C70008243E141271F1F90547AD5232ED13DCBCB
:100C800028BA587FDC7C9124E92851836EC556210F
:100C900042EDA05622A140806BA8F794CA136B0CBA
:100CA00039D9FDE9F36FA69EFC708AB3BC593C1E8E
:100CB0001D6CF97CAFF9887195EB5700BD9F8C4F87
:100CC000E12483C522EAFDD30CE217187C6A4CDECE
:100CD00077B4539B4C81CD2360AA0E25739C027977
:100CE0003230DF74DF7519F4A5145CF77AA8A5918A
:100CF000847C6003063BCD50B6279CFEB1DDCCD38F
:100D0000B05924B2CAE21C81229D078F8EB9BE4E13
:100D1000FAFC3965BABF9D12375E977EF389F55D9F
:100D2000F5E3098C62B5209D0C538A681BD28F7540
:100D3000175DD4E5DA756219146A262DEBF8AF3722
:100D4000F06CA455B1BCE233C09ACAB011494F68E7
:100D50009B3B6B3CCC13F6C785616842AEBBDDCDD7
:100D60004516291DEADBC803943CEE4F8211C3EC03
:100D700028BD970599DED7BB5E221FD4EB64D992BC
:100D8000D985B76A056AE42441F1CDF0D83FF89ED1
:100D90000ECD0B7A706B5A750A6A3388EC1775089A
:100DA00070102F24CFC4E942006194CA1F3A76061E
:100DB000FAD24881F077600345D961F4A46F3DD938
:100DC00030C3046B542AB7EC3BF44BF5685226CE83
:100DD000FF5D1991A0A3A5A9B1E023C40A774DF93D
:100DE0005120A3A5A9B1C10082868E7F5D1991A073
:100DF000A3C4EB540B756852078C9A978D79706277
:100E000046EF5C1B95897141E121A1A1A1C0026758
:100E10004C1AB6CFFD785324ABB5C9F16023A5C8F1
:100E200012876D5813858892876D5832C70C9A9730
:100E3000ACDA36EE5E3EDF1DB8F2662FBDF87247C3
:100E4000ED5813858892878C7B550990A2C6EF3D9B
:100E5000F85324ABD42AB7EC5A36EE5E3EDF3CFAA8
:100E6000764FFD5930E246EF3DF853056931C10038
:100E700082868E7F5D19B0E227CCFB744B148B9475
:100E80008B756833C50892878C9AB6CF1CBAD70D7C
:100E900098B2E62FDC1B9589716023C40A968F9C5B
:100EA000BAF66E3FFC5B15A8D226AFBDF872662F6E
:100EB000DC1BB4CB148B94AAB7CDF9510180828688
:100EC0006F3DD930E227CCFB744B14AAB7CDF97033
:100ED00043046B35C9F16023A5C8F3450892876DBB
:100EE0005832E62FBDF872664E1EBEFE7E7E7E5FD5
:100EF0001D9991A0A3C40A774D1893A4ABD40B7588
:100F00004910A2C6EF3DF85324ABB5E833E44A16C6
:100F1000AEDE1FBCDB15A8B3C5087345E931C1E1DE
:100F200021A1A1A1C002866F5C3AD70D9893A4CAF3
:100F300016AEDE1F9D99B0E246EF3DF872470C9A5F
:100F4000B6CFFD5911A0A3A5C8F3450892876D3906
:100F5000F043048A96AEDE3EDF1D9991A0C2066F73
:100F60003DF872470C9A978D989385887345E931BF
:100F7000E023A5A9D003848A96AEDE1FBCDB15A8AA
:100F8000D226CEFF5D1991818082672DD813A4AB44
:100F9000D40B94AAB7CDF95120A3A5C8F345E950C5
:100FA00022C6EF5C3AD70D9893858873644AF74D53
:100FB000F95120A3C40A96AEDE3EFE7E7E7E5F3CE3
:100FC000FA764FFD7872662FBDD930C3E548128797
:100FD0008C7B5528D2078C9A97ACDA178D795120E3
:100FE000A3C4EB540B948B94AAD62EBFFC5B15A81C
:100FF000D226AFDC1BB4EA37EC3BF46A37CD18934A
:10100000856931C1E140E325C812878C9AB6CFFDCE
:101010005911A0C2068E7F5D38F2470C7B746A3787
:10102000EC5A36EE3FFC7A764F1C9B958971410055
:101030006344EB542AD60F9CBAD70D989385693137
:10104000C10082868E9EBEDF3CFA572CDA36EE3F18
:10105000FC5B158971410082868E7F5D38F247ED19
:101060005813A4CAF74DF95101806344EB542AD6B2
:101070002EBFDD1991A0A3A5A9B1E042068E7F5D28
:101080001991A0A3C40A968F7D7872470C7B746A6D
:10109000562EDE1FBCFA570D7951016121A1C0E324
:1010A00025A9B1C1E14002674C1A978D9893A4AB72
:1010B000D42AD60F9C9BB4CB14AAB7CDF95120A348
:1010C000C4EB35C9F16042068E7F7C7A766E3FFCB8
:1010D0007A766E5E3EFE7E5F3CDB15897141E121D2
:1010E000C0E344EB542AB7CDF9706227ADD832C7BC
:1010F0000C7B744B14AAB7EC3BD528D2076D39D1C1
:1011000020C2E74C1A978D98B2C70C5928F39B4B15
:101110004C3A206B633A2025752C20636F6C3A2083
:1011200025752C20726F773A2025752C20707265FA
:10113000737365643A2025750A00436F6E735D20F2
:10114000583A2025642C20593A2025640A00507210
:1011500065205D20583A2025642C20593A202564CA
:101160000A0044656C745D20643A20256420743A5A
:101170002025750A005374617274696E67206D6F63
:1011800074696F6E2E0A004F5054313A2025642C3A
:10119000204F5054323A2025640A00F4004445425E
:1011A00055473A2064697361626C65642E0A004495
:1011B000454255473A20656E61626C65642E0A00AF
:1011C0000A0025303862003A200025303258000AE3
:1011D000722F632030313233343536370A000A003B
:1011E0002530325820006B6579626F6172645F72DE
:1011F00065706F72743A20000A0025303258006B17
:101200006579626F6172645F7365745F6C65643A7F
:1012100020005B735D004B6579626F6172642073BF
:10122000746172742E0A005B575D005B535D005B56
:10123000525D005B445D005B435D0024036F007002
:101240000065007200610074006F0072007000722F
:10125000006F0074006F007400790070006500007A
:10126000000A03700072006D006F000000040309A3
:101270000409027400040100A03209040000010303
:10128000010100092111010001224000070581032D
:1012900008000109040100010301020009211101F4
:1012A0000001224D00070582030800010904020025
:1012B000010300000009211101000122320007058D
:1012C0008303200001090403000203000000092138
:1012D00011010001222200070584032000010705F7
:1012E00004032000011201100100000008435042D5
:1012F000540100010200010631FF0974A1010975C2
:10130000150026FF00952075088102097615002634
:10131000FF00952075089102C005010980A1018593
:101320000319012AB700150126B700950175108130
:1013300000C0050C0901A101850419012AA00215AC
:101340000126A002950175108100C005010902A1C6
:10135000010901A1000509190129051500250195BB
:1013600005750181029501750381010501093009A7
:10137000311581257F95027508810609381581256B
:101380007F950175088106050C0A38021581257FB5
:10139000950175088106C0C005010906A101050770
:1013A00019E029E7150025019508750181029501CD
:1013B000750881010507190029FF150026FF009512
:1013C0000675088100050819012905950575019123
:1013D00002950175039101C011241FBECFEFDAE021
:1013E000DEBFCDBF04B603FE27C080913F039091BE
:1013F0004003A0914103B09142038730904BA74036
:10140000B04BD1F410923F0310924003109241036D
:101410001092420314BE84B7877F84BF0FB6F8943E
:10142000A8958091600088618093600010926000B0
:101430000FBEE0E0F8E3099511E0A0E0B1E0E2E9D9
:10144000FAE502C005900D92AC38B107D9F723E058
:10145000ACE8B1E001C01D92AF33B207E1F70E94E2
:101460006B270C94472D0C940000FF93EF93E091B1
:101470008C01F0918D01309709F00995EF91FF9162
:101480000895FC018591803011F0EFDFFBCF0895C6
:10149000FF27E0E230E247FF0CC0419597FF09C00B
:1014A000EDE26095709580959095611D711D811D8F
:1014B000911D27FF02C0219530E350E2AA27660F55
:1014C000771F881F991FAA1FA41710F0A41B6395EC
:1014D0005A95A9F7AA3008F0A95FA05DAF93F395DC
:1014E000611571058105910541F7ED3211F4EF9316
:1014F000F395F21718F43F93F395FBCF8F91B5DF77
:10150000FA95E1F70895E991F9918591803021F0FC
:10151000853219F0AADFF9CF089520E0E8945591BB
:101520005532C1F3503311F4689455915A3348F44D
:10153000505390F3220F022E220F220F200D250F61
:10154000F4CF0EF4219589919991533619F35337BD
:1015500029F1533559F1BC0188279927E8945C3665
:1015600021F48991999168945591543639F446EF54
:101570007EF077FF0DC08FEF9FEF0AC055374AE02E
:1015800039F0583540E121F0523642E009F0089533
:10159000FF93EF937DDFEF91FF91B7CFFF93EF9331
:1015A000FC0181918030B9F360DFFBCFFF93EF93B3
:1015B00068DFF1CFDF93CF93CDB7DEB72596A3DFFA
:1015C000CF91DF9108959091000290FF45C080FD7A
:1015D00002C070E301C071E381FD02C060E301C09D
:1015E00061E382FD02C050E301C051E383FD02C00C
:1015F00040E301C041E384FD02C030E301C031E3B8
:1016000085FD02C020E301C021E386FD02C090E316
:1016100001C091E3881F8827881F805D1F927F93F8
:101620001F926F931F925F931F924F931F923F934E
:101630001F922F931F929F931F928F938FEF90E093
:101640009F938F930E94DA0A8DB79EB742960FB68A
:10165000F8949EBF0FBE8DBF089522E030E043E0B6
:1016600060E080E30E94D61795E09A95F1F70000BC
:10167000089585E08A95F1F700000C947F18CF93C8
:10168000DF93C82FD62F803511F010928E010E9463
:101690002D0B8C2F80680E944F188D2F0E944F18A1
:1016A000EC018AE68A95F1F700C08FE891E0019796
:1016B000F1F700C000000E947F18CE01DF91CF91AA
:1016C0000895CF93C82F0E942D0B8C2F8F770E94E7
:1016D0004F180E946718C82F85E08A95F1F700001F
:1016E00085E68A95F1F700000E947F188C2FCF9134
:1016F0000895CF93DF93EC010E942D0BCE0164E699
:1017000070E00E94D12C615071096837710510F0AA
:1017100067E770E08FE00E943F0BDF91CF910C9460
:101720007F18CF93DF9360E080E10E943F0B64E17C
:1017300081E10E943F0B6DE183E10E943F0B8FE34B
:101740009CE90197F1F700C0000068E183E10E9485
:101750003F0B0E942D0B82EE0E944F1890E59A9548
:10176000F1F7C1E1D1E081E1CF30D80749F0FE01C6
:1017700084910E944F18F0E5FA95F1F72196F3CF86
:10178000EFE1F3E03197F1F700C000008AE20E9438
:10179000610B60E080E10E943F0B0E947F188FE3A5
:1017A0009CE90197F1F700C00000DF91CF91089507
:1017B000CF93DF9380E00E94610BD82F8FE30E94CC
:1017C000610BC82F8AE20E94610BD23441F4CD3BF9
:1017D00031F491E0843009F090E0892F01C080E07D
:1017E0008170DF91CF9108950E94CE1710928E01E3
:1017F0000E947F180E942D0B0E947F1866EB8BE3DE
:101800000E943F0B2FEF85EA9EE0215080409040E0
:10181000E1F700C000000E942D0B25ED2A95F1F79D
:1018200000000E94390B85ED8A95F1F700006AE50A
:101830008AE30E943F0B9FEF20E782E09150204017
:101840008040E1F700C0000082E00E94610B83E06D
:101850000E94610B84E00E94610B85E00E94610B95
:1018600086E00E94610B0E94910B0E94390B8FE36E
:101870009CE90197F1F700C0000080E496E00E9427
:10188000790B8FE99FE00197F1F700C000000C94FD
:10189000D80B9F92AF92BF92CF92DF92EF92FF92BE
:1018A0000F931F93CF93DF93EC0180918E018111F1
:1018B00013C08091000280FF08C086EF90E09F93E4
:1018C0008F930E94DA0A0F900F9060E080E50E94EB
:1018D0003F0B81E080938E010E942D0B80E50E94DA
:1018E0004F188AEB8A95F1F700C00E946718F82E0E
:1018F00080E00E944F180E9467186C010E946718D0
:10190000B82E0E9467188C010E946718E82E0E946A
:101910007F188F2D0E94E30A8C2D0E94E30A8B2DE5
:101920000E94E30A802F0E94E30A8E2D0E94E30AA0
:101930008091000280FF08C084EF90E09F938F9316
:101940000E94DA0A0F900F909F2C991C9924991CE1
:10195000AA24A394F3FCA12C8B2D0B2C000C990B27
:10196000982F8827C82AD92AD194C194D1088E2DBE
:101970000E2C000C990B982F8827082B192B1195EA
:10198000019511090E947F188F2D877011F0109218
:101990008E01F8829982AA82DC82CB82BD821F836B
:1019A0000E83E886CE01DF91CF911F910F91FF90BA
:1019B000EF90DF90CF90BF90AF909F9008951092DE
:1019C000D70210924F02109293028FEF93E0909300
:1019D0009502809394021092DA021092D90210922A
:1019E000960210921E031092250310922403109267
:1019F00022031092210310925002109292029093AF
:101A0000200380931F031092100210920F02109275
:101A1000DB02109251021092DF021092DE0210924D
:101A20009802109297021092D802109223031092FB
:101A3000DD021092DC0210925302109252020895BD
:101A4000FC01208131812E3131052CF42F5F3F4F75
:101A50003183208308951182108281E0FB0180830D
:101A600008952F923F924F925F926F927F928F9242
:101A70009F92AF92BF92CF92DF92EF92FF920F931D
:101A80001F93CF93DF9300D0CDB7DEB7FC013B01AE
:101A90002A013A832983DB018D919C911197E817E4
:101AA000F90714F4ED93FC93D2018D919C91119759
:101AB0008E179F0714F4ED93FC93D2012D903C9068
:101AC000D3012D913C91C101821B930B8A3091056A
:101AD0000CF451C063E070E00E94E52C620F731FAC
:101AE000E617F707ACF4F8018081882369F0D40188
:101AF000ED91FC91EE0FFF1FEC0DFD1D3182208258
:101B0000698D7A8DC40118C081E0E981FA8132C003
:101B10006E177F0784F5A981BA818C91882341F1E2
:101B2000D501ED91FC91EE0FFF1FEE0DFF1D3183EE
:101B300020836F89788DC5010E94200DF3012081DB
:101B40003181D2018D919C91821B930B97FD01965F
:101B500095958795820F931FF30191838083D2011E
:101B60008D939C93E981FA811082D8011C9203C065
:101B700081E0F8018083A98DBA8D8C91882381F052
:101B8000F6019601225C3F4F80E090E04191519137
:101B9000840F951F2E173F07C9F76FE170E015C03E
:101BA000F401608171816115710599F0F60120E001
:101BB00030E080E090E0261737073CF441915191E6
:101BC000840F951F2F5F3F4FF6CF0E94E52C9B019E
:101BD00003C0D2012D913C91EF89F88D808188233B
:101BE00081F0F701A701425C5F4F80E090E06191D6
:101BF0007191860F971F4E175F07C9F76FE170E06D
:101C000015C0D5016D917C916115710599F0F701B1
:101C100040E050E080E090E0461757073CF4A19187
:101C2000B1918A0F9B1F4F5F5F4FF6CF0E94E52C4B
:101C3000FB0103C0D301ED91FC91C9018E1B9F0BE9
:101C400063E070E00E94E52CCB018E0F9F1F0F9088
:101C50000F90DF91CF911F910F91FF90EF90DF9048
:101C6000CF90BF90AF909F908F907F906F905F903C
:101C70004F903F902F9008958F929F92AF92BF9276
:101C8000CF92DF92EF92FF920F931F9322E932E0FF
:101C90003F932F9320E532E03F932F9321E2822E52
:101CA00023E0922E34E2A32E33E0B32E49E9C42E72
:101CB00042E0D42E50EEE52E52E0F52E0EE113E078
:101CC00026E932E049ED52E064E972E00E94310D0C
:101CD0009093DD028093DC020F900F900F900F9095
:101CE0001F910F91FF90EF90DF90CF90BF90AF903A
:101CF0009F908F9008958F929F92AF92BF92CF92B4
:101D0000DF92EF92FF920F931F9323E233E03F9312
:101D10002F9328ED32E03F932F9327E9822E22E084
:101D2000922E3EEDA32E32E0B32E44E5C42E42E0C7
:101D3000D42E51E1E52E52E0F52E01E512E02BED17
:101D400032E04FE052E06FE173E00E94310D90937A
:101D50005302809352020F900F900F900F901F919B
:101D60000F91FF90EF90DF90CF90BF90AF909F903A
:101D70008F9008950F931F93CF93DF938C01EB0106
:101D800080915002882321F080919202811103C03A
:101D9000C8010E943C0E8091D802882321F08091D6
:101DA0002303811103C0CE010E947B0E4091DC020F
:101DB0005091DD0280915202909153022091D702FE
:101DC000211121C0041715077CF4C817D9070CF49A
:101DD00069C083E08093D70280919302882309F43D
:101DE00061C01092930238C0C817D9070CF05AC0CE
:101DF00081E08093D70280914F02882309F452C07A
:101E000010924F0238C02130B1F4041715073CF08E
:101E1000C817D9070CF446C01092D70207C0C817DC
:101E2000D9070CF03FC082E08093D7022093930241
:101E300010924F0237C0223009F5041715077CF0C5
:101E4000C817D9077CF581E08093D70280914F02B3
:101E5000882341F110924F0281E090E025C0C8171D
:101E6000D90704F183E08093D702809193028823FD
:101E7000C9F0109293028FEF9FEF16C00417150759
:101E800034F0C817D90774F01092D70206C0C817EB
:101E9000D90744F482E08093D70281E080934F0217
:101EA0001092930280E090E0DF91CF911F910F910B
:101EB0000895FC01648343830895EF92FF920F938A
:101EC0001F93CF93DF93EC0180919001909191014A
:101ED0000E94B3248436910508F44CC0809192018D
:101EE000909193010E94B324059708F443C0809118
:101EF000960181113FC00E94A72490939301809383
:101F0000920180E00E94AB178C0184E00E94AB1725
:101F10007C0180918F018823A1F08091000280FFD5
:101F200010C0FF92EF921F930F9387E891E19F9368
:101F30008F930E94DA0A0F900F900F900F900F90DE
:101F40000F90B701C8010E94BA0E882399F04B8107
:101F5000042E000C550B480F511D6C81062E000CF1
:101F6000770BCE01DF91CF911F910F91FF90EF90F2
:101F70000C94590FDF91CF911F910F91FF90EF902B
:101F80000895FC01618342830895AF92BF92CF927E
:101F9000DF92EF92FF920F931F93CF93DF93CDB712
:101FA000DEB729970FB6F894DEBF0FBECDBF6C0128
:101FB000CE0101960E94490C8B81882309F4AAC0A6
:101FC0008A81882309F4A6C00C811D81AF80B88462
:101FD0008091940190919501892BA1F48091000248
:101FE00083FF0AC080FF08C085E791E19F938F932C
:101FF0000E94DA0A0F900F900E94A72490939501F7
:10200000809394018091000283FF24C080FF22C04E
:10201000809195018F93809194018F93980117FF80
:1020200003C0319521953109C501B7FE03C09195D3
:1020300081959109820F931F9F938F9382E691E17F
:102040009F938F930E94DA0A0F900F900F900F903A
:102050000F900F908091000283FF12C080FF10C08C
:10206000BF92AF921F930F938EE491E19F938F9352
:102070000E94DA0A0F900F900F900F900F900F9020
:102080007801003811051CF09FE7E92EF12C81E85A
:10209000E8168FEFF80624F481E8E82EFF24FA947E
:1020A00085010038110514F00FE710E001388FEFBB
:1020B000180714F401E81FEF8091000283FF12C09B
:1020C00080FF10C01F930F93FF92EF928AE391E17C
:1020D0009F938F930E94DA0A0F900F900F900F90AA
:1020E0000F900F9044275527401B510BB701C60195
:1020F00029960FB6F894DEBF0FBECDBFDF91CF910A
:102100001F910F91FF90EF90DF90CF90BF90AF9015
:102110000C94C10F29960FB6F894DEBF0FBECDBF49
:10212000DF91CF911F910F91FF90EF90DF90CF90B3
:10213000BF90AF900895DF92EF92FF920F931F939D
:10214000CF93DF9300D000D01F92CDB7DEB78C01C4
:102150007B01FB0182811F928F9381811F928F935C
:1021600080811F928F931F930F938FE091E19F9334
:102170008F930E94DA0A0FB6F894DEBF0FBECDBF70
:10218000F7018081813069F4818181110AC00E9448
:10219000A7249093910180939001F701828180930D
:1021A0009601B701C8010E94DB11D82E882309F4DB
:1021B00048C00932FDE51F0719F5F7018281882320
:1021C000F9F08091260390E0019663E070E00E94B0
:1021D000D12C809326036091260370912703809170
:1021E0002803909129030E946B23E0912603F0E0DD
:1021F000EE0FFF1FE050FF4F808191810E94790B0D
:10220000045F110905301105E0F40E944D153A8371
:102210004B835C836D83F701828141E050E001C014
:10222000440F0A95EAF7882311F0422B02C040952B
:1022300042235A816B817C818D810E946D150E94A1
:1022400042158D2D0F900F900F900F900F90DF91F2
:10225000CF911F910F91FF90EF90DF90089580989C
:10226000889884988C980C9448190E94F40B0C94CC
:10227000DF0CEF92FF920F931F93CF93DF93CDB7B5
:10228000DEB72A970FB6F894DEBF0FBECDBF8D83A1
:10229000411116C0E11014C0511112C0F11010C04C
:1022A00061110EC001110CC08D81811109C0211175
:1022B00007C0711105C081E0111103C080E001C0A9
:1022C00081E081702A960FB6F894DEBF0FBECDBFB5
:1022D000DF91CF911F910F91FF90EF900895EF92B2
:1022E000FF920F931F93CF93DF93CDB7DEB72A975B
:1022F0000FB6F894DEBF0FBECDBF0E944D152E83E2
:102300003F83488759876A87CE0106960E945D0FF2
:10231000CE0106960E94C50F4E815F816885798542
:102320008A850E946D150E944D1579018A01262F1C
:102330004E815F81688579858A850E943911811176
:102340000E9442152A960FB6F894DEBF0FBECDBF8D
:10235000DF91CF911F910F91FF90EF90089581E051
:1023600080932603609126037091270380912803B0
:10237000909129030C946B230E946723609326039A
:10238000709327038093280390932903643010F0FF
:102390000E94AF110C94B814E0912603F0E0EE0F08
:1023A000FF1FE050FF4F808191810E94790B0C94B8
:1023B000461981E0089581E0089508950C94DD1197
:1023C0001F93CF93DF9300D000D01F92CDB7DEB71D
:1023D00049835A836B833091AD0189819A81311190
:1023E00014C0662359F0222349F00E94F421182FCB
:1023F000682F89819A810E94A32103C00E94CB216A
:10240000182F69817A81812F04C00E94F42169818B
:102410007A810F900F900F900F900F90DF91CF91D6
:102420001F910C94AB12FC01262F408151816281D7
:10243000738184810C94E011CF93DF93EC0160E011
:102440000E941312BE01DF91CF910C94DE110E9405
:102450000E250E943623811102C00E94CF230C94C6
:10246000BC110C94B61408950E942C1D0E943312C6
:102470002FEF84E39CE0215080409040E1F700C0C2
:1024800000000C94E8240F931F93CF93DF93EC018B
:1024900061E00E9413128C01BE010E949B108823F0
:1024A00009F442C0BE01C8010E94FD158823E1F174
:1024B000BE01C8010E944F168823B1F1BE01C801B8
:1024C0000E947A17882381F18A81882331F10130B3
:1024D0008CE5180751F00F3D8CE51807D9F0011570
:1024E0001C45D9F40E9434121FC080910002C82FED
:1024F000C095C170C0FB80F980930002CC2329F005
:102500008FEA91E10E94410A0FC08DE991E10E949A
:10251000410A0BC00E94CF2307C0CE01DF91CF91AB
:102520001F910F910C94D911C0E08C2FDF91CF91A6
:102530001F910F91089508950C949B1281E00895C6
:102540000C949E12CF93C82F0E949C128C2F0E9435
:10255000A012CF910895972F70E0690F711DFB01B4
:10256000E80FF11DEE0FFF1FE556FE4E8591949189
:102570000895CF93DF930E94AB120E94AA13EC013F
:1025800081159245F0F5C11581E5D80708F0A9C07D
:10259000C83ED10528F5C03ED10508F0D7C0C83ADD
:1025A000D10578F4C53AD10508F074C0C130D10521
:1025B00009F4CCC008F4C8C0C430D10508F0C6C0C6
:1025C000C3C0CF3BD10508F0BFC0C85AD0E0CC0F84
:1025D000DD1FCB5EDE4F0990D881C02DD464B6C01C
:1025E000C11590E5D90708F060C0C11520E4D207F5
:1025F00008F058C0CE019A9581159F4108F4A6C0F5
:10260000A3C0C11586E5D80718F5C11595E5D9070A
:1026100008F080C0C11524E5D20708F076C09E01FD
:10262000237033278C2F86958695C115D34508F0E6
:102630005DC0C1E0D0E002C0CC0FDD1F2A95E2F7FB
:1026400020E2829FC0011124C82BD92BDC687EC0F8
:10265000C1152AE5D20778F4C11589E5D80708F035
:1026600063C0C11598E5D90708F46EC0DC2FCC27EC
:10267000C06FD06A6BC0CE0190568115904208F0B1
:1026800063C08D2F8F710E943E14DD27D0628F7141
:10269000D82B5CC0C55AD0E0CD5BDE4FC881D0E0FE
:1026A000D06454C0DF70D06A51C0CE0174E09695FA
:1026B00087957A95E1F783709C2F937021E030E045
:1026C00002C0220F331F9A95E2F73C68382BCF7077
:1026D000C695C69580E2C89FE0011124C22BD32B7A
:1026E00035C0DC2FCC27C16FD06A30C0C1E0D0E04C
:1026F00002C0CC0FDD1F2A95E2F720E2829FC001C5
:102700001124C82BD92BDA6821C0DC2FCC27C46F49
:10271000D06A1CC08C2F0E943E148F71C82FD0E04D
:10272000DC2FCC27D06212C08C2F8F700E943E14F9
:1027300094E0D695C7959A95E1F7CF70D0E0DC2F5D
:10274000CC27D069C82B02C0C0E0D0E0CE01DF9119
:10275000CF9108958238910569F1B0F481339105E4
:1027600009F46DC048F48932910509F463C08A32D6
:10277000910509F469C008958533910509F455C0A0
:1027800089339105B9F00895833E910569F138F4D4
:10279000803E9105B1F0823E910509F10895863E93
:1027A0009105A9F1873E9105B9F1843E910509F0A3
:1027B00064C023C02091300320FD4FC021FD4DC0D7
:1027C00008958091300380FD44C08091310380FFE3
:1027D00044C08091300384FD42C083EE4DC080919F
:1027E000300382FF38C0F5CF8091300382FD33C0C3
:1027F0008091310380FD31C0ECCF8091310381FFA6
:1028000032C08091300384FD2AC087EE35C08091AC
:10281000300383FF26C0F5CF8091300383FD21C0B4
:102820008091310381FD1FC0ECCF8091300385FD85
:102830001CC01DC08091300385FD19C016C0809159
:10284000300386FD16C017C08091300386FD13C08B
:1028500010C089E311C082EE0FC080EE0DC080E091
:102860000BC086EE09C084EE07C089E205C085E38F
:1028700003C08AE201C081E390E0089590913003A3
:1028800092FF0DC0282F2871283019F4877F8460AB
:1028900006C0282F2471243011F48B7F886093FFA9
:1028A0000DC0282F2871283119F4877E846106C055
:1028B000282F2471243111F48B7E886120913103FB
:1028C00020FF0DC0382F3871383019F4877F8160B0
:1028D00006C0382F3171313011F48E7F886021FFAE
:1028E0000DC0282F2871283119F4877E816106C018
:1028F000282F2171213111F48E7E886194FD877E0D
:102900000895E82FF0E0E55DFC4F808108958FEC9D
:1029100091E10E94410A1F921F928AEC91E19F93DC
:102920008F930E94DA0A87EC91E10E94410A80911C
:102930002B030E941E231F928F9382EC91E19F93A1
:102940008F930E94DA0A8DB79EB708960FB6F89457
:102950009EBF0FBE8DBF80EC91E10C94410A80EACE
:102960008A95F1F7089508950C94B3140C94B41457
:102970000C94B314F894E82FE295EF70F0E031A1D5
:10298000282F2F7081E090E001C0880F2A95EAF788
:10299000982F9095932391A392A1892B82A3789449
:1029A000089580E90E94BA1481E90E94BA14109235
:1029B0002A0310922B0381E00E940B150C9427121E
:1029C000CF93DF93F894509A589878940E94AF145C
:1029D00089B186958170C82F80E0D82F81E0C82703
:1029E000C17080E90E94BA1480912A03C81721F0AF
:1029F000C0932A03C1E001C0C0E02C2F41E06BE28C
:102A000073E08AE293E00E940C150E9431128C2F31
:102A1000DF91CF9108950895FF920F931F93CF9365
:102A2000DF938C01F62ED72FC42F222349F081E0AB
:102A3000809399010E94A724909398018093970115
:102A4000809199018823C1F080919701909198011C
:102A50000E94B324069780F0EF2DFD2FD8014C2F54
:102A600050E0CD01801B910B841795071CF48D91CC
:102A70008193F7CF10929901DF91CF911F910F9120
:102A8000FF9008958AE991E00E940119EAE9F1E0D6
:102A900011821282138214820895CF93DF9300D0A3
:102AA00000D01F92CDB7DEB785E0EAE9F1E0DE01A4
:102AB000119601900D928A95E1F729813A814B8117
:102AC0005C816D8170E080E090E00F900F900F903E
:102AD0000F900F90DF91CF910895CF93DF9300D0A7
:102AE00000D01F92CDB7DEB749835A836B837C83B6
:102AF0008D8385E0FE013196AAE9B1E001900D9247
:102B00008A95E1F70F900F900F900F900F90DF9143
:102B1000CF9108950F931F93CF93DF93C42FD22F9C
:102B2000FC0182818823C9F04093A1010E94A7245F
:102B30009093A00180939F0180E28C0F883008F071
:102B400057C0C77081E001C0880FCA95EAF7DF91CE
:102B5000CF911F910F910C94B41A8091A101481349
:102B600030C080919F019091A0010E94B324883CC5
:102B7000910538F510E21D0FCD17B9F080E28C0FEA
:102B8000883040F4C77081E001C0880FCA95EAF729
:102B90000E94BB1A183028F581E09D2F977001C064
:102BA000880F9A95EAF70E94B41A802F0E94A11A02
:102BB0001830F0F4D77081E001C0880FDA95EAF799
:102BC0000AC080E28C0F883098F4C77081E001C0A1
:102BD000880FCA95EAF7DF91CF911F910F910C945E
:102BE000BB1A802FDF91CF911F910F910C94A11AE6
:102BF000DF91CF911F910F9108950F939C01CB010D
:102C0000243F4CE5340731F188F4293DFCE53F07CA
:102C1000D9F02A3D4CE5340779F1283D3C45A9F52A
:102C200006E221EE41EE68ED7CE52BC0263FFCE597
:102C30003F07E1F0A8F0273F3C4539F507E225EED4
:102C400046EE67EF7CE51DC007E225EE45EE69ED37
:102C50007CE517C006E221EE40EE64EF7CE511C092
:102C600007E225EE44EE65EF7CE50BC006E221EEBF
:102C700042EE66EF7CE505C008E221E045EE6AED34
:102C80007CE50E948A1580E008C0FC0182818823CF
:102C900019F01092A10101C081E00F910895CF9326
:102CA000DF93EC01FB018281882309F41FC1C2304C
:102CB000FCE5DF0708F41BC1C6319CE5D90738F0F5
:102CC0009E012B5F3C452930310508F010C10E9460
:102CD00049239093310380933003C031ECE5DE0744
:102CE00009F4C3C008F041C0C8308CE5D80709F426
:102CF0009AC0F0F4C430ECE5DE0709F487C068F44C
:102D0000C2308CE5D80709F477C0C330DC4509F040
:102D1000E3C080913003826076C0C630ECE5DE0708
:102D200009F46EC008F07BC08091300388606BC0EE
:102D3000CC308CE5D80709F485C068F4CA30ECE5DE
:102D4000DE0709F474C008F079C00E942C1D809140
:102D50003003806858C0CE308CE5D80709F476C0BF
:102D600008F07FC0809130038BC0CC3FECE5DE07DC
:102D700009F44FC018F5C3318CE5D80709F47DC0BC
:102D800078F4C131ECE5DE0709F473C0C231DC45EB
:102D900009F0A2C00E942C1D809130038F7733C0B0
:102DA000C5318CE5D80709F472C008F486C0CB3F62
:102DB000DC4509F091C0809131033EC0C115FDE5AD
:102DC000DF0709F45FC058F4CE3F9CE5D90709F44A
:102DD00044C008F43FC08091310382602DC0C230EE
:102DE000FDE5DF0709F475C008F45DC0C330DD45BB
:102DF00009F072C080E06EC080913003816003C032
:102E00008091300380618093300366C080913003ED
:102E100011C0809131038260809331035DC0809145
:102E200030038062F0CF809130038064ECCF8091DA
:102E3000300388608460E7CF8160EECF80913003FB
:102E40008E7FE1CF809130038D7FDDCF8091300385
:102E5000877FD9CF8091310318C0809131038D7F56
:102E6000DBCF809130038F7ECECF809130038F7D7A
:102E7000CACF809130038F7BC6CF80913003877F8C
:102E80008B7FC1CF809131038D7F8E7FC5CF8091A5
:102E9000300382FB222720F991E0922790FB82F9F0
:102EA00090FB83F9B0CF80913103982F909591706A
:102EB0008E7F892B90FB81F9AFCF0E942C1D8091D2
:102EC000300387FB222720F991E0922790FB87F9B6
:102ED0009ACF81E00E94D1238091300390913103F9
:102EE0000E945A230E942C1D80E001C081E0DF91E6
:102EF000CF910895CF93DF9386319C4541F5EB0147
:102F00000E947522982F8A81209108013091090131
:102F1000882379F09A7A81E009F480E08093A20115
:102F2000911102C069E201C065E3C9010E94182441
:102F30000AC08091A201811102C069E201C065E36B
:102F4000C9010E941A240E94B62280E001C081E0DB
:102F5000DF91CF91089596E890937A00982F907220
:102F6000906890937B008F7190910601892B8093DC
:102F70007C0080917A00806480937A0080917A004E
:102F800086FDFCCF809178002091790090917A00A5
:102F90009F7790937A0090E0922B0895289A219A37
:102FA000229A23982B9880E58CBD08959091070173
:102FB0009F3F09F072C08F3F09F46FC0611103C0D9
:102FC0001092A40103C090E29093A401423041F01A
:102FD000433051F0413069F49091A401946007C0EE
:102FE0009091A401986003C09091A4019C6090937B
:102FF000A40141E050E04217530718F4440F551F55
:10300000FACF9091A40140315105F1F050F44230D3
:103010005105B1F048305105E1F421E02093A301BE
:1030200013C04034510591F04038510539F0403219
:10303000510579F421E02093A30108C0936007C0F3
:1030400091E09093A30105C0916001C092609093BC
:10305000A4012CB59091A401922B9CBD9091A30149
:10306000992319F09DB591609DBD80930701E82FCC
:10307000E295EF70F0E031A1282F2F7081E090E011
:1030800001C0880F2A95EAF7932F982B91A392A15C
:103090008095892382A381E0089580E00895CF93ED
:1030A000DF938EBD0E94A724EC010DB407FC0AC07B
:1030B0000E94A7248C1B9D0B84369105B0F38EEFE4
:1030C0009FEF02C08EB590E0DF91CF910895CF932E
:1030D000DF931EBC0E94A724EC010DB407FC0AC0BC
:1030E0000E94A7248C1B9D0B84369105B0F38EEFB4
:1030F0009FEF02C08EB590E0DF91CF91089580914F
:1031000007018F3F19F1E82FE295EF70F0E031A150
:10311000282F2F7081E090E001C0880F2A95EAF7F0
:10312000932F982B91A392A1892B82A38FEF809349
:1031300007018DB58E7F8DBD9CB58091A4018095D2
:1031400089238CBD1092A4011092A301089590933D
:10315000AA018093A9010895E091A901F091AA0123
:10316000309721F00190F081E02D099480E00895DE
:10317000EF92FF920F931F93CF93DF93E091A901FA
:10318000F091AA013097B1F18C010280F381E02D1A
:1031900009958091000282FF2DC080FF04C086EE59
:1031A00091E10E94410AE80118E080EEE82E81E1F9
:1031B000F82E8091000280FF0BC088811F928F93B0
:1031C000FF92EF920E94DA0A0F900F900F900F90EB
:1031D000115021961111EDCF8091000280FF0AC09D
:1031E0008EED91E1DF91CF911F910F91FF90EF90C4
:1031F0000C94410ADF91CF911F910F91FF90EF90B6
:103200000895E091A901F091AA01309721F004807E
:10321000F581E02D099408952091A7013091A8012E
:103220002817390771F09093A8018093A701E091C6
:10323000A901F091AA01309721F00680F781E02DD5
:10324000099408952091A5013091A6012817390706
:1032500071F09093A6018093A501E091A901F091EE
:10326000AA01309721F00084F185E02D099408959A
:1032700085B7806885BF85B7806885BF089581E080
:1032800008950C943F1908950C9443190C94431914
:103290000C9443190C9443190E9438190E944A193E
:1032A0000C942F110E949E240E94D1140E9422256A
:1032B0000E9435110C94CC11CF93C82F809100023D
:1032C00082FF1EC080FF04C08FEF91E10E94410A7F
:1032D0008091000280FF0CC01F92CF938AEF91E192
:1032E0009F938F930E94DA0A0F900F900F900F9088
:1032F0008091000280FF04C088EF91E10E94410AA2
:103300008C2FCF910C94A2120F931F93CF93DF9326
:10331000CDB7DEB72A970FB6F894DEBF0FBECDBF8C
:103320000E9444190E9443190E94E0140E9441190E
:10333000882331F180E00E948114182F0091AC01A4
:103340000827F1F08091000281FD0E94871400FFA0
:1033500017C01E821F82117018870E94A7248160E7
:10336000782F9A8789874E815F8168858A850E9438
:10337000F3199091AC0181E089278093AC0110C0D2
:103380008FEF89838A831B820E94A7248160782F14
:103390009D838C8349815A816B818D810E94F319B1
:1033A0000E946F110E94AC189091AB01891781F0B7
:1033B0000E94AC188093AB012A960FB6F894DEBF3A
:1033C0000FBECDBFDF91CF911F910F910C945C196F
:1033D0002A960FB6F894DEBF0FBECDBFDF91CF9116
:1033E0001F910F910895CF93DF93CDB7DEB72B9741
:1033F0000FB6F894DEBF0FBECDBF4F8358876987E5
:103400007A878B87DE01119686E0FD0111928A95FD
:10341000E9F785E0FE01379601900D928A95E1F774
:1034200049815A816B817C818D819E810E94E51F3B
:103430002B960FB6F894DEBF0FBECDBFDF91CF91B4
:103440000895FC01808191810E9436220895CF93D6
:10345000882309F448C0C82F8CEF8C0F813AD0F430
:103460006C2F80910801909109010E94E22388232A
:1034700049F06C2F80910801909109010E941A2453
:103480000E94B6226C2F80910801909109010E9440
:1034900018240CC080E28C0F883058F4C77081E08B
:1034A00001C0880FCA95EAF70E947822CF910C9448
:1034B000B622EBE5EC0FE33040F4F0E0EC58FE4FC1
:1034C000808190E0CF910C940C19C85AC73158F400
:1034D000EC2FF0E0EE0FFF1FEA5BFE4F8081918141
:1034E000CF910C942219CF910895882349F1682F28
:1034F0008CEF860F813A38F4809108019091090190
:103500000E941A240CC080E2860F883050F4677045
:1035100081E001C0880F6A95EAF70E947E220C9430
:10352000B6228BE5860F833020F480E090E00C9487
:103530000C19685A673120F480E090E00C9422194D
:103540000895CF93C82F0E94271AC93349F42FEF4B
:1035500087EE93E0215080409040E1F700C00000EA
:103560008C2FCF910C94751A882321F00E94782219
:103570000C94B6220895882321F00E947E220C9498
:10358000B6220895CF92DF92EF92FF920F931F938E
:10359000CF93DF937C01D62FC72FFC0105810295C5
:1035A0000F70128111110E9495220E946E228823B1
:1035B00099F0112389F08C2F807F803421F080E2F4
:1035C0008D0F883048F082E00E9400230E946E2216
:1035D00091E0D82ED92601C0D12CCC2EC2948FE0F8
:1035E000C8228C2D90E08C30910508F0ABC1FC0115
:1035F000EA5AFF4F0C94F92C8C2F807FCF708823D0
:1036000011F0C295C07F112399F0CC2309F486C133
:1036100080E28D0F883010F0D11104C08C2F0E94F1
:10362000782203C08C2F0E9488220E94B62276C185
:103630008D2F0E94751ACC2309F484C180E28D0F6E
:10364000883010F0D11104C08C2F0E947E2203C05C
:103650008C2F0E948E220E94B62274C18C2F807FF4
:10366000CF70803211F0C295C07FDD2319F0D130C8
:10367000C9F022C0112371F0002341F0013031F470
:103680000E949B228C2B0E94A3225CC10E949B2241
:103690008C2B1DC0002319F0013009F453C10E9486
:1036A000AC2225C0112321F0063008F04BC10EC01A
:1036B000053008F047C11BC0112361F0002331F031
:1036C000F701858180FF2AC18F7085838C2F0E942E
:1036D000B41A38C1002359F0D93309F030C1FFEFD3
:1036E00007EE13E0F15000401040E1F726C18C2FA7
:1036F0000E94BB1A27C18C2F86958695837019F07E
:10370000813061F01FC1112321F08D2F9C2F937008
:1037100002C080E090E00E940C191CC1112321F02E
:103720008D2F9C2F937002C080E090E00E942219A0
:1037300011C18C2F837009F047C0111107C12D2FC3
:10374000229526952770220F220F6D2F6F70862FDE
:1037500090E0A0E0B0E0022E04C0880F991FAA1FDD
:10376000BB1F0A94D2F7D4FF10C04FE050E060E0D6
:1037700070E004C0440F551F661F771F2A95D2F7CB
:10378000409550956095709503C040E050E0BA01B7
:10379000C695C695C3708A019B01082B192B2A2B4D
:1037A0003B2BC901B801C23049F058F4C13019F0BF
:1037B0000E94B920CBC00E94A720C8C00E94CB2085
:1037C000C5C00E94A520C2C0112319F08C2F8170A2
:1037D00001C08695882309F4B9C02D2F229526951E
:1037E0002770220F220F6D2F6F70862F90E0A0E0C0
:1037F000B0E0022E04C0880F991FAA1FBB1F0A94B5
:10380000D2F7D4FF10C04FE050E060E070E004C099
:10381000440F551F661F771F2A95D2F74095509584
:103820006095709503C040E050E0BA01C695C6951A
:10383000C3708A019B01082B192B2A2B3B2BC90132
:10384000B801C23049F058F4C13019F00E947E210D
:103850007DC00E946C217AC00E94902177C00E9496
:10386000DF2074C0CF70112339F08C2F0E94052106
:103870008D2F0E94B41A6AC08D2F0E94BB1A8C2F04
:103880000E94262163C0D23F01F128F4D03F41F0CD
:10389000D13FA1F03FC0D33FF9F0D43F39F13AC056
:1038A000112341F0053008F04DC08C2F8F710E941C
:1038B0004B2148C0063008F045C0F7CF112339F03E
:1038C0008C2F8F710E9405213DC01123C9F38C2FCD
:1038D0008F710E94262136C0112329F08C2F8F7101
:1038E0000E94F0202FC00E94EB202CC0112349F031
:1038F000CF718C2F0E94052163E08C2F0E94EB2258
:1039000021C081E00E9400230230E0F082E00E94AA
:10391000002318C0112331F0002391F28D2F0E9453
:10392000271A10C0002399F2D93349F41FEF27EE6C
:1039300033E0115020403040E1F700C000008D2FEF
:103940000E94751A88EF8C0D843020F40E94AC1808
:103950000E94A212DD20C9F00E946A2280FD15C0DB
:10396000F70112820E9464220E940521C7010E9471
:10397000E61C0E946422DF91CF911F910F91FF906E
:10398000EF90DF90CF900C942621DF91CF911F9183
:103990000F91FF90EF90DF90CF9008950F931F93BA
:1039A000CF93DF93EC01688179818A810E94412263
:1039B0008C010E94A2210E949320B801CE010E9496
:1039C000C21ADF91CF911F910F910895CF93DF938A
:1039D000EC01988189812B813C81232B31F08F3F31
:1039E00031F481E09F3F19F403C081E001C080E021
:1039F00080FD19C0CE010E94431281110CC00E94AB
:103A00006E22882381F08A81882369F082E0DF9129
:103A1000CF910C940023CE010E94CE1CCE01DF91E9
:103A2000CF910C941C12DF91CF9108950E949522A2
:103A30000E9498220E94B62280E090E00E940C1919
:103A400080E090E00C942219809108019091090186
:103A50000E941C240C94161D0E9485220C94241D87
:103A6000E92FE295EF704E2F50E0FA013297EE30D9
:103A7000F105B0F4EE59FF4F0C94F92C803F91F012
:103A800018F4883E68F40EC0843F51F40BC0883EA1
:103A900048F0813F29F406C093FB882780F90895F8
:103AA00080E0089581E008950E9436220E94301D32
:103AB0000895CF93DF9300D000D01F92CDB7DEB72B
:103AC0000F900F900F900F900F90DF91CF9108956E
:103AD000CF93DF9300D000D000D0CDB7DEB72696CD
:103AE0000FB6F894DEBF0FBECDBFDF91CF91089522
:103AF0001F93CF93DF93C091AE0116E08091AF0189
:103B0000C81799F0D0E01C9FF0011D9FF00D112403
:103B1000E055FE4F4081518162817381848195819E
:103B20000E94681D2196C770E9CFDF91CF911F9148
:103B300008954091E0015091E1016091E20170919E
:103B4000E3018091E4019091E5010C94681D0F93CD
:103B50001F93CF93DF938091E50182958F7009F0D9
:103B60005DC08091E201882309F458C08091AE01C4
:103B70001091AF016091E0017091E101C091E3010A
:103B8000D091E40191E06F3F09F090E0292F06E029
:103B9000811709F443C0209721F07F3F21F030E0E6
:103BA00003C031E001C0322F90E030FD34C0089FE7
:103BB000F001099FF00D1124DF01A055BE4F1196B1
:103BC0003C911197371327C03C91361324C01296AD
:103BD0003C91129731111FC013964D915C9114972F
:103BE0004C1B5D0B483C5105B0F48091E5018F7092
:103BF00080618093E501EB54FE4F80818F7080617E
:103C0000808380EE91E00E94E61CDF91CF911F91AE
:103C10000F910C94781D01968770BACFDF91CF91E8
:103C20001F910F9108959F92AF92BF92CF92DF9212
:103C3000EF92FF920F931F93CF93DF93CDB7DEB731
:103C400061970FB6F894DEBF0FBECDBF8C0185E043
:103C5000F801DE011D9601900D928A95E1F7F801B9
:103C600040815181E2809091E0016091E1012091D9
:103C7000E3013091E4012115310531F06F3F31F45A
:103C800081E09F3F19F403C081E001C080E0F82F7C
:103C9000F1709F2E80FD46C1F801A380B48080EEB4
:103CA000C82E81E0D82EF090E201F501E21BF30B63
:103CB000FF2009F4DFC08091E501E83CF10508F040
:103CC0009BC0282F207F09F052C0561313C0491300
:103CD00011C0FE2CE1100EC08F7080618093E50151
:103CE0000E94991DC6010E94E61C8091E501F80121
:103CF000858358C1AB2831F05F3F31F481E04F3FFD
:103D000019F403C081E001C080E080FD03C081E0C0
:103D10008E2502C080E090E0F82FF170FF2E80FF2A
:103D20001CC08091AE012091AF0136E0821709F4EA
:103D300017C190E0389FF001399FF00D1124E05534
:103D4000FE4F6181561306C06081461303C0628135
:103D5000E61203C001968770E9CFFE2CEE2009F42D
:103D600021C18091E50181608093E5015AC056131D
:103D700006C0491304C0E11002C0F8019FC04D877E
:103D80005E878D859E850E94541D882379F1EE20E3
:103D900069F12091E501822F82958F7090E0029762
:103DA00074F08091E0019091E10198878F831986EA
:103DB000BB86AA862C87CE0107960E94E61C86E069
:103DC000F801A0EEB1E001900D928A95E1F70E9412
:103DD000A71D0E94991D0DC0561729F14D875E87BA
:103DE0008D859E850E94541D81112CC0C8010E94A2
:103DF000E61CFF24F394D6C0282F207F69F77A2D84
:103E0000B98AA88A6E2D89890E94591D80EE91E099
:103E10000E94E61C86E0F60111928A95E9F70E945D
:103E2000991DF12CBFC04913D9CFE110D7CFF801AC
:103E30008583C8010E94E61C86E0F60111928A95EE
:103E4000E9F7B0C0EE2091F22091E501822F829532
:103E50008F7090E002970CF4B2CF8091E0019091C6
:103E6000E1019A8389831B82BD82AC822E83CE01BD
:103E70000196A3CFE83CF10508F047C0FE2CEE20E8
:103E800009F4B4CF561330C049132EC02091E50178
:103E900020FD21C0822F82958F70482F50E0411560
:103EA0005105C9F0F80125834F30510541F08F5F6E
:103EB000982F9295907F822F8F70892B8583C801D0
:103EC0000E94E61C86E0F801A0EEB1E001900D92A0
:103ED0008A95E1F742C086E0F801A0EEB1E00190DA
:103EE0000D928A95E1F75EC04D875E878D859E8530
:103EF0000E94541D811163CF8091E5018160809300
:103F0000E501C8010E94E61C4DC07A2DB98AA88A35
:103F10006E2D89890E94591D86E0F60111928A95BD
:103F2000E9F71BC0EE2009F461CF4D875E878D85D0
:103F30009E850E94541DF82E882309F457CF86E0F1
:103F4000F801A0EEB1E001900D928A95E1F780EEC4
:103F500091E00E94211A0E94A71D0E94991D22C073
:103F60004D875E878D859E850E943622292F22955A
:103F70002F70223028F49F7039F0811105C00BC0DA
:103F8000243028F49F7049F4805E883020F0C80106
:103F90000E94E61C9F2CF92C05C0F8019581907FAA
:103FA00099F7F9CF8F2D61960FB6F894DEBF0FBE4B
:103FB000CDBFDF91CF911F910F91FF90EF90DF90D8
:103FC000CF90BF90AF909F9008951F93CF93DF93B2
:103FD000CDB7DEB72C970FB6F894DEBF0FBECDBFBE
:103FE0004F83588769877A878B879C87CE0107968E
:103FF0000E94131E8823D1F09F8188852A853B85E6
:10400000232B31F08F3F31F481E09F3F19F403C03F
:1040100081E001C080E080FD47C04F8158856985FF
:104020007A858B859C850E94681D3EC086E0FE01D6
:104030003796DE01119601900D928A95E1F7FF8186
:10404000E8856A857B856115710531F0EF3F31F4B4
:1040500081E0FF3F19F403C081E001C080E080FDF2
:1040600023C02091AF0130E0C901019687709927E4
:104070004091AE0150E084179507F1F1F983EA838E
:104080007D836C8396E0929FD001939FB00D1124A5
:10409000A055BE4FFE01319601900D929A95E1F721
:1040A0008093AF010E94781D16E08091AE0190913F
:1040B000AF01891771F1189FC001112480559E4FDF
:1040C0000E94131E882329F1E091AE011E9FF0018A
:1040D0001124E055FE4F40815181628173818481BA
:1040E00095810E94681D8091AE0190E001968770D5
:1040F00099278093AE01D9CF0E942C1D1092AF0159
:104100001092AE01E0EEF1E086E0DF011D928A95AB
:10411000E9F72C960FB6F894DEBF0FBECDBFDF9146
:10412000CF911F910895089508950C9494200C94B4
:1041300095200E9497206093EF017093F001809387
:10414000F1019093F2010C94161D0C9499200F9399
:104150001F930091EF011091F0012091F101309136
:10416000F201602B712B822B932B1F910F910C94DA
:1041700099200F931F930091EF011091F00120916E
:10418000F1013091F20160237123822393231F9167
:104190000F910C9499200F931F930091EF011091B0
:1041A000F0012091F1013091F201602771278227FF
:1041B00093271F910F910C9499200C9494200E94A6
:1041C000DD206093EB017093EC018093ED019093FF
:1041D000EE010C94161D60E070E0CB010C94DF2022
:1041E0000F931F9341E050E060E070E08A019B0173
:1041F00004C0000F111F221F331F8A95D2F7C90177
:10420000B8011F910F910C94DF200F931F9341E091
:1042100050E060E070E004C0440F551F661F771F38
:104220008A95D2F78091EB019091EC01A091ED017C
:10423000B091EE018A019B01082B192B2A2B3B2BF5
:10424000C901B8011F910F910C94DF200F931F93A8
:1042500041E050E060E070E004C0440F551F661F6D
:10426000771F8A95D2F7409550956095709580910B
:10427000EB019091EC01A091ED01B091EE018A016A
:104280009B01082319232A233B23C901B8011F914D
:104290000F910C94DF200F931F9341E050E060E0FA
:1042A00070E004C0440F551F661F771F8A95D2F730
:1042B0008091EB019091EC01A091ED01B091EE01A4
:1042C0008A019B01082719272A273B27C901B80122
:1042D0001F910F910C94DF200F931F930091EB011E
:1042E0001091EC012091ED013091EE01602B712BCA
:1042F000822B932B1F910F910C94DF200F931F9310
:104300000091EB011091EC012091ED013091EE0153
:1043100060237123822393231F910F910C94DF203C
:104320000F931F930091EB011091EC012091ED018F
:104330003091EE0160277127822793271F910F91FB
:104340000C94DF200895890FE82FE695E695E69511
:10435000877051E001C0550F8A95EAF785E0E89F24
:10436000F0011124EA51FE4F20E030E070E040817E
:10437000CB01022E02C0969587950A94E2F78170D0
:10438000819584278523842781932F5F3F4F253094
:10439000310569F70895890F682F669566956695CA
:1043A000982F977085E0689FB001112440E050E09D
:1043B00080E0FB01E40FF51FEA51FE4F208130E061
:1043C000092E02C0369527950A94E2F7217033270B
:1043D000042E01C0220F0A94EAF7822B4F5F5F4F31
:1043E0004530510531F70895BF92CF92DF92EF9299
:1043F000FF920F931F93CF93DF938C01C090EB013B
:10440000D090EC01E090ED01F090EE018091EF0191
:104410009091F001A091F101B091F201C82AD92A3E
:10442000EA2AFB2ACFE1D0E0D701C6010C2E04C056
:10443000B695A795979587950A94D2F780FD04C005
:10444000219790F7B12C07C0BC2EB8018C2F0E9489
:10445000B9120197A9F38B2DDF91CF911F910F9185
:10446000FF90EF90DF90CF90BF900895CF93DF93B0
:10447000EC010E94F421BE010E94B912DF91CF919C
:1044800008951F93CF93DF93EB019091AD01992392
:1044900021F0CB010E94362213C0882349F0CB01C2
:1044A0000E94F421182F682FCE010E94A32104C07E
:1044B000CB010E94CB21182FBE01812F0E94B9127F
:1044C000DF91CF911F9108958091F3018595859596
:1044D000859508958091F301877008959091F30177
:1044E000977081E009F480E008958091FF010895BC
:1044F0009091FF01892B8093FF0108958095909101
:10450000FF0189238093FF0108951092FF01089510
:104510009091FE01892B8093FE01089580959091E2
:10452000FE0189238093FE0108951092FE010895F3
:104530001092FD0108958091F401089508950C945E
:104540009E220C949F229091F401981721F0809361
:10455000F4010C94A12208958091F401882329F09C
:104560001092F40180E00C94A1220895E0910801DA
:10457000F09109018091FF018083E0910801F091A1
:10458000090190818091FE01892B8083E0910801CF
:10459000F091090190818091FD01892B80838091A8
:1045A000F401882381F0E0910801F09109019081E4
:1045B000892B808380910801909109010E94D62364
:1045C00081110E94AC2280910801909109010C9404
:1045D000B8180C949E2298E0899F90011124262BF4
:1045E0002093F3010E9405218091F3018595859523
:1045F00085950C94E9221092F30180E00C94E92255
:104600002091F301809582238093F301982F977076
:1046100079F430E0482F082E000C550B241735078D
:1046200039F08595859585950E9426210C94FB226D
:10463000089590938D0180938C0108958295982F11
:10464000937344E0949F900111248C7C8695869509
:10465000282B822F8575880F2A7A2695822B08951C
:104660006FEF7FEF80E090E00C94312D80E090E0E0
:104670000E940D2D21E08C3E9E4F09F020E0822FFC
:10468000089582E090E00C94FF2C83E090E00C947D
:10469000FF2CCF9384E090E00E94FF2CC82F81E292
:1046A00090E00E94FF2C2C2F30E0A901582BCA016A
:1046B000CF910895CF93C92F682F84E090E00E9496
:1046C000132D6C2F81E290E0CF910C94132D8FE08D
:1046D00090E00C94072DAB01BC018FE090E00C94AE
:1046E000252D6CEE7EEF80E090E00E94312D60E0A1
:1046F00082E090E00E94132D60E083E090E00E9451
:10470000132D1092EF011092F0011092F10110920E
:10471000F20160E084E090E00E94132D60E081E20D
:1047200090E00E94132D60E085E090E00E94132D40
:1047300060E086E090E00E94132D6FEF87E090E04C
:104740000E94132D40E050E0BA0188E090E00E9402
:10475000252D60E08DE090E00E94132D40E050E0B8
:10476000BA0188E190E00E94252D60E087E190E0A9
:104770000E94132D40E050E0BA018CE190E00E94CD
:10478000252D60E080E290E00E94132D40E050E093
:10479000BA0188E190E00E94252D0C94AF110C9491
:1047A0007123682F8EE090E00C94132DFC0132965B
:1047B00097E080E0915029F021912223D9F38F5F77
:1047C000F9CF0895662349F0FC01329608962191AD
:1047D000621729F0E817F907D1F780E0089581E022
:1047E00008959C01FC0132969FEF80E041914617AD
:1047F00089F09F3F19F4411101C0982F8F5F8630D7
:10480000A9F79F3F39F0F901E90FF11D97FDFA95DE
:104810006283089508959C012A5F3F4FFC01428105
:10482000461301C01282019682179307B9F70895C3
:104830000C94F1230C940B24029626E0FC011192B7
:104840002A95E9F7089508950C9423240C942324C1
:104850000E9426240E94E0140E94242480E00E94EA
:10486000811491E0811101C090E0892F08950C948A
:1048700023240C9437240E943924809136038430F9
:1048800049F11092010220E488E190E00FB6F8941B
:10489000A895809360000FBE2093600080E00E9486
:1048A000A2120E94392483B7817F846083BF83B7BB
:1048B000816083BF7894889583B78E7F83BF0FB65E
:1048C000F894A895809160008861809360001092B0
:1048D00060000FBE08950C9423240E942C1D0E949A
:1048E000AC180E94A2120C946B241F920F920FB668
:1048F0000F9211248F939F93AF93BF9380910102E6
:10490000811113C080912C0390912D03A0912E034F
:10491000B0912F034196A11DB11D80932C0390935C
:104920002D03A0932E03B0932F03BF91AF919F91BE
:104930008F910F900FBE0F901F90189582E084BD4D
:1049400093E095BD9AEF97BD80936E0008952FB7C1
:10495000F89480912C0390912D03A0912E03B09197
:104960002F032FBF08959C014FB7F89480912C031B
:1049700090912D03A0912E03B0912F034FBF821B66
:10498000930B089578941F920F920FB60F921124F3
:104990008F939F93AF93BF9380912C0390912D039E
:1049A000A0912E03B0912F030196A11DB11D8093FC
:1049B0002C0390932D03A0932E03B0932F03BF914C
:1049C000AF919F918F910F900FBE0F901F901895F0
:1049D00081E08093E00080E28093D8001092C900CB
:1049E0008FE19EE40197F1F700C0000087E090EBB3
:1049F000DC0180933F0390934003A0934103B09365
:104A000042039CE088E10FB6F894A895809360007B
:104A10000FBE90936000FFCF0C9430230E94E014EF
:104A20008FE39CE90197F1F700C000000E94E014B9
:104A300080E00E94811483FF04C00E940C250C9426
:104A4000E82408950E943623811102C00E94CF23DA
:104A50000E944123809300020E94492390933103D6
:104A6000809330030E944523682F70E080E090E03F
:104A70000E94A5206091EB017091EC018091ED0105
:104A80009091EE010C94DD2080910D0208959FB766
:104A9000F894109204029FBF90913603943009F06D
:104AA00057C09091E9009F703091EC00232F217046
:104AB00030FD20E8922B24E02093E9002091EB00C8
:104AC00020FF43C02091EE0027FF3FC0209102024B
:104AD000222321F02091E80025FF37C01092020226
:104AE00026E03091E80035FD15C0309136033430B2
:104AF00061F53091EB0035FD28C0215021F481E0B3
:104B00008093020222C0EFE9FFE03197F1F700C085
:104B10000000E7CF8093F1008091E80085FD0AC096
:104B20008091E80080FFFCCF8091E8008E77809331
:104B3000E80006C08FB7F89421E0209304028FBFED
:104B40009F709093E90080E008959F709093E90032
:104B50008FEF0895CF93DF9300D01F92CDB7DEB7CC
:104B600090913603943019F589837B836A8383E0BF
:104B70008093E9008FEF9091E800815095FD06C089
:104B800095ED9A95F1F700008111F5CF8091E8003D
:104B900085FF0DC040E050E063E070E0CE0101967B
:104BA0000E9428288091E8008E778093E8000F907B
:104BB0000F900F90DF91CF910895BC0184E00C9489
:104BC000AA25BC0183E00C94AA2522E02093E900E9
:104BD0002FEF3091E800215035FD06C035ED3A95B4
:104BE000F1F700002111F5CF2091E80025FF0BC05F
:104BF00040E050E065E070E00E9428288091E800E5
:104C00008E778093E8000895CF93DF9321E020937F
:104C1000E9002FEF3091E800215035FD06C035ED59
:104C20003A95F1F700002111F5CF2091E80025FF1A
:104C300014C0EC0140E050E068E070E00E942828D9
:104C40008091E8008E778093E80088E0FE01A5E07F
:104C5000B2E001900D928A95E1F7DF91CF9108952E
:104C600087E392E10E94410A80913503811109C0D6
:104C70000E94B9290E94162A8091E20084608093E4
:104C8000E200089583E392E10E94410A1092350305
:104C900008958FE292E10C94410A8BE292E10C9428
:104CA000410A87E292E10E94410A0C946D2420910E
:104CB00003022F5F822F62E30E94C52C992319F013
:104CC0002093030208951092030280910402882326
:104CD00071F180913603843041F58091E9008F7045
:104CE0002091EC00922F917020FD90E8892B94E0A8
:104CF0009093E9009091EB0090FF14C09091EE002A
:104D000097FF10C09091E80095FF03C01092F1004A
:104D1000F9CF9091E80090FF05C09091E8009E7750
:104D20009093E8008F708093E90010920402089538
:104D300042E061EC81E00E94322942E061EC82E0D5
:104D40000E94322942E261EC83E00E94322942E271
:104D500061EC84E00C94322980913803833009F4AB
:104D600062C030F4813071F0823009F49BC0089544
:104D70008A3009F487C08B3009F46DC0893009F09E
:104D8000A9C020C080913703813A09F0A3C0809167
:104D9000E800877F8093E80080913B0390913C037B
:104DA000892B21F468E085E092E003C060E080E0B8
:104DB00090E070E00E9473288091E8008B778093E8
:104DC000E800089580913703813209F083C0809113
:104DD0003B0390913C03009719F0029709F07AC0C9
:104DE0008091E800877F8093E8008091E80082FD51
:104DF00005C0809136038111F8CF6CC02091F3007B
:104E00008091F20090E0922B029729F48091F100BA
:104E10008B7F813021F48091F10080930D0280918D
:104E2000E8008B7753C080913703813A09F052C074
:104E300080913B0390913C03892B09F04BC08091FA
:104E4000E800877F8093E8008091E80080FFFCCF36
:104E50008091140136C0809137038132D9F5809159
:104E60003B0390913C03892BA9F58091E800877F53
:104E70008093E8000E946729809139038093140190
:104E80000C942C1D80913703813221F58091E8002C
:104E9000877F8093E8000E94672980913A0380937E
:104EA0000E02089580913703813AA1F48091E800C1
:104EB000877F8093E8008091E80080FFFCCF80919D
:104EC0000E028093F1008091E8008E778093E800D5
:104ED0000C946729089584B7877F84BF0FB6F89430
:104EE000A8958091600088618093600010926000B6
:104EF0000FBE90E080E80FB6F89480936100909325
:104F000061000FBE0E944C190E94B9290E94162A06
:104F10008091E20084608093E20087E495E20E9441
:104F2000192378940E94AA2C0E9452198AE091E0D9
:104F30000E94A71886E192E10E94410A80913603FF
:104F4000853089F482E192E10E94410A0E943B246B
:104F500080913403882391F30E942824882371F3DD
:104F60000E941228EBCF0E9484190E9444190E94CB
:104F70004319E4CF0C94BC27292F33272330310564
:104F8000C9F060F42130310581F02230310509F09B
:104F900041C084E790E021E732E140C02132310591
:104FA000E1F02232310531F135C082E190E025EEA9
:104FB00032E134C099278130910549F028F00297F9
:104FC00049F5EBE3F2E105C0EDE6F2E102C0E1E60E
:104FD000F2E1849190E09F0121C064307105D0F42A
:104FE000660F771FFB01ED57FE4F2081318189E06D
:104FF00090E014C06430710568F4FB01EE0FFF1FF0
:10500000E558FE4F20813181FB01E958FE4F808138
:1050100090E004C080E090E020E030E0FA013183CD
:105020002083089580E189BD82E189BD09B400FE35
:10503000FDCF8091D8008F7D8093D8008091E000D3
:1050400082608093E0008091E00081FDFCCF0895B4
:10505000CF92DF92EF92FF920F931F93CF93DF9344
:10506000EC018B017A010E948629811133C0E11481
:10507000F10439F0F70180819181081B190BC80FE9
:10508000D91FC12CD12C0115110519F18091E8000F
:1050900085FD16C08091E8008E778093E800E114CA
:1050A000F10449F0F70180819181C80ED91ED182A7
:1050B000C08285E00FC00E948629882321F30AC0A0
:1050C00089918093F10001501109FFEFCF1ADF0A97
:1050D000DACF80E0DF91CF911F910F91FF90EF9099
:1050E000DF90CF90089520913D0330913E03261725
:1050F000370748F06115710539F42091E8002E77E3
:105100002093E80001C0B901FC0120E061157105A0
:1051100079F1809136038823F1F18530F1F18091A6
:10512000E80083FD3CC08091E80082FD2EC08091A4
:10513000E80080FFEBCF2091F3008091F20090E037
:10514000922B6115710551F08830910538F4219149
:105150002093F100615071090196F3CF21E0089787
:1051600009F020E08091E8008E778093E800CECFB0
:105170002111CFCF0AC080913603882361F085309A
:1051800061F08091E80083FD0AC08091E80082FF11
:10519000F2CF80E0089582E0089583E0089581E0F1
:1051A000089520913D0330913E032617370748F0BC
:1051B0006115710539F42091E8002E772093E800FD
:1051C00001C0B901FC0120E06115710591F18091E8
:1051D0003603882309F440C0853009F43FC080912C
:1051E000E80083FD3DC08091E80082FD2FC08091E2
:1051F000E80080FFE9CF2091F3008091F20090E079
:10520000922B6115710559F08830910540F4249175
:105210002093F1003196615071090196F2CF21E09F
:10522000089709F020E08091E8008E778093E800ED
:10523000CBCF2111CCCF0AC080913603882361F0F7
:10524000853061F08091E80083FD0AC08091E8001C
:1052500082FFF2CF80E0089582E0089583E0089510
:1052600081E00895982F973068F59093E90098179A
:1052700039F07091EC002091ED005091F00003C0E6
:10528000242F762F50E021FD02C09F5FECCF30919C
:10529000EB003E7F3093EB003091ED003D7F30938B
:1052A000ED003091EB0031603093EB007093EC0037
:1052B0002093ED005093F0002091EE0027FDE5CF04
:1052C00080E008958F708093E90081E008958091D7
:1052D000370387FF11C08091E80082FD05C08091EF
:1052E00036038111F8CF11C08091E8008B770BC095
:1052F00080913603882349F08091E80080FFF8CF41
:105300008091E8008E778093E80008952091E40072
:105310003091E50095E64091EC00842F817040FFCC
:1053200023C08091E80080FD1DC080913603882352
:1053300099F0853099F08091EB0085FD11C0409186
:10534000E4005091E5002417350729F3915011F03E
:105350009A01E1CF84E0089582E0089583E0089502
:1053600081E0089580E008954091E80042FFDDCF9C
:1053700008950E94272A0E942F2AE0EEF0E0808103
:1053800081608083E8EDF0E080818F77808319BCB5
:10539000A7EDB0E08C918E7F8C9380818F7E80838F
:1053A0001092350308950F931F93CF93DF930E94BC
:1053B000272A0E942F2AC8EDD0E088818F77888322
:1053C00088818068888388818F7D888319BC10924A
:1053D000360310923203109234031092330300EE1E
:1053E00010E0F80180818B7F8083888181608883D1
:1053F00042E060E080E00E943229E1EEF0E080814E
:105400008E7F8083E2EEF0E0808181608083808106
:1054100088608083F80180818E7F808388818061AD
:105420008883DF91CF911F910F910895E8EDF0E00F
:1054300080818F7E8083E7EDF0E0808181608083D2
:1054400084E082BF81E0809335030C94D329E8ED9A
:10545000F0E080818E7F80831092E20008951092A8
:10546000DA001092E10008951F920F920FB60F928A
:1054700011242F933F934F935F936F937F938F9359
:105480009F93AF93BF93EF93FF938091E10082FFCF
:105490000BC08091E20082FF07C08091E1008B7F0A
:1054A0008093E1000E9457268091DA0080FF1FC0A0
:1054B0008091D80080FF1BC08091DA008E7F80939E
:1054C000DA008091D90080FF0DC080E189BD82E1C2
:1054D00089BD09B400FEFDCF81E0809336030E94B0
:1054E000302605C019BC109236030E9442268091D6
:1054F000E10080FF19C08091E20080FF15C080911B
:10550000E2008E7F8093E2008091E20080618093D0
:10551000E2008091D80080628093D80019BC85E0B9
:10552000809336030E944D268091E10084FF30C0B5
:105530008091E20084FF2CC080E189BD82E189BDB9
:1055400009B400FEFDCF8091D8008F7D8093D800F4
:105550008091E1008F7E8093E1008091E2008F7E58
:105560008093E2008091E20081608093E20080916C
:105570003203882311F084E007C08091E30087FDA7
:1055800002C081E001C083E0809336030E9451266F
:105590008091E10083FF29C08091E20083FF25C054
:1055A0008091E100877F8093E10082E08093360361
:1055B000109232038091E1008E7F8093E100809110
:1055C000E2008E7F8093E2008091E2008061809310
:1055D000E20042E060E080E00E9432298091F00029
:1055E00088608093F0000E944926FF91EF91BF915F
:1055F000AF919F918F917F916F915F914F913F916B
:105600002F910F900FBE0F901F9018951F920F9221
:105610000FB60F9211242F933F934F935F936F9385
:105620007F938F939F93AF93BF93CF93DF93EF932A
:10563000FF93C091E900CF708091EC00D82FD1701A
:1056400080FDD0E81092E9008091F000877F809380
:10565000F00078940E944A2B1092E9008091F000AB
:1056600088608093F000CD2BCF70C093E900FF914C
:10567000EF91DF91CF91BF91AF919F918F917F91EA
:105680006F915F914F913F912F910F900FBE0F90AF
:105690001F9018951F93CF93DF93CDB7DEB7AA97CE
:1056A0000FB6F894DEBF0FBECDBFE7E3F3E0809105
:1056B000F100819323E0EF33F207C9F70E94AC2693
:1056C0008091E80083FF2EC18091370390913803C9
:1056D000492F50E04A30510508F024C1FA01E05941
:1056E000FF4F0C94F92C803821F0823809F01AC150
:1056F00008C08091330390913403992389F082602C
:105700000FC080913B038F70873008F00BC18093EE
:10571000E9008091EB0085FB882780F91092E90071
:105720009091E800977F9093E8008093F1001092A9
:10573000F100D1C0282F2D7F09F0F4C0882319F083
:10574000823061F0EFC080913903813009F0EAC006
:10575000933009F080E0809334032EC080913903A8
:1057600081112AC080913B038F702FEF280F2630C4
:1057700008F0D8C08093E9002091EB0020FF1CC006
:10578000933021F48091EB00806214C09091EB0083
:1057900090619093EB0021E030E0A90102C0440F3A
:1057A000551F8A95E2F74093EA001092EA00809133
:1057B000EB0088608093EB001092E9008091E80094
:1057C000877F8093E8000E946729ACC08111AAC03E
:1057D000109139031F778091E3008078812B8093AB
:1057E000E3008091E800877F8093E8000E946729AA
:1057F0008091E80080FFFCCF8091E3008068809377
:10580000E300111102C082E001C083E080933603FF
:1058100089C08058823008F085C08091390390910A
:105820003A038C3D53E0950779F583E08A838AE259
:1058300089834FB7F894DE01139620E03EE051E2F1
:10584000E32FF0E050935700E49120FF03C0E2956E
:10585000EF703F5FEF708E2F90E0EA3010F0C79648
:1058600001C0C0968D939D932F5F243149F74FBFA0
:105870008091E800877F8093E8006AE270E0CE01C3
:1058800001960E94732816C060913B0370913C03FF
:10589000AE014F5F5F4F0E94BA27BC01892B09F40C
:1058A00041C09091E800977F9093E80089819A81A8
:1058B0000E94D1288091E8008B778093E80032C065
:1058C000803881F58091E800877F8093E80080919F
:1058D00032038093F1008091E8008E7772CF8111BE
:1058E00021C08091390390913A0399270297D4F40B
:1058F0008091E800877F8093E8008091390380934E
:1059000032030E94672980913203811106C0809181
:10591000E30087FD02C081E001C084E0809336038C
:105920000E9498268091E80083FF0AC08091E800D9
:10593000877F8093E8008091EB0080628093EB008A
:10594000AA960FB6F894DEBF0FBECDBFDF91CF9100
:105950001F910895CF93809136038823A1F0C091C1
:10596000E900CF709091EC00892F817090FD80E864
:10597000C82B1092E9008091E80083FD0E944A2B19
:10598000CF70C093E900CF910895991B79E004C0CE
:10599000991F961708F0961B881F7A95C9F780956E
:1059A0000895AA1BBB1B51E107C0AA1FBB1FA61766
:1059B000B70710F0A61BB70B881F991F5A95A9F7B8
:1059C00080959095BC01CD01089597FB072E16F4A4
:1059D000009407D077FD09D00E94D12C07FC05D098
:1059E0003EF4909581959F4F0895709561957F4FF6
:1059F0000895EE0FFF1F0590F491E02D0994F99999
:105A0000FECF92BD81BDF89A992780B50895A6E191
:105A1000B0E044E050E00C94392DA8E1B0E042E061
:105A200050E00C94392D262FF999FECF92BD81BDFF
:105A3000F89A019700B4021639F01FBA20BD0FB6CC
:105A4000F894FA9AF99A0FBE08950396272F0E94A8
:105A5000142D0E94132D252F0E94142D242F0C94F9
:105A6000142D0196272F0E94142D0C94132DDC0168
:105A7000CB01FC01F999FECF06C0F2BDE1BDF89A59
:105A8000319600B40D9241505040B8F70895F89403
:025A9000FFCF46
:105A9200B0044006600940FFF50144250426E525CF
:105AA200E125DD2501E200E900EA00B500B600B714
:105AB20000CD008301CC008A0192019401210223CE
:105AC2000224022502260227022A02B300B4006F32
:105AD200007000818283E200E900EA00B500B600AE
